:100000000C9455000C947D000C947D000C947D00A4
:100010000C947D000C947D000C947D000C947D006C
:100020000C947D000C947D000C947D000C947D005C
:100030000C947D000C947D000C947D000C947D004C
:100040000C948E030C947D000C9479040C94C704DA
:100050000C947D000C947D000C947D000C947D002C
:100060000C947D000C947D00494E46494E495459EC
:100070004E414ECDCCCC3D0AD7233C17B7D1387773
:10008000CC2B329595E6241FB14F0A000020410089
:1000900000C84200401C4620BCBE4CCA1B0E5AAED3
:1000A000C59D740078023306710211241FBECFEF84
:1000B000D8E0DEBFCDBF12E0A0E0B1E0EEEBFDE1A5
:1000C00002C005900D92AC35B107D9F713E0ACE54D
:1000D000B2E001C01D92A833B107E1F710E0C8EA11
:1000E000D0E004C02297FE010E948C0EC43AD107D2
:1000F000C9F70E9489060C94D20E0C940000662762
:1001000077270C94E2004CE552E00E94B00008957D
:10011000FB01DC0102C001900D9241505040D8F724
:100120000895FB01DC018D91019080190110D9F334
:10013000990B0895FB01DC0101900D920020E1F77D
:100140000895FB01DC014150504048F001900D92B0
:100150000020C9F701C01D9241505040E0F70895BA
:10016000009731F4DA018D919C91009709F40EC04B
:10017000DC01FB013D912191222319F03217C9F3D3
:10018000FACF332331F4DA011D921C928827992784
:1001900008951197AF93BF93FB013D9121913217C1
:1001A00071F4332321F488279927119702C01E92F6
:1001B0001196FA01A193B0839F918F910895222304
:1001C00069F7EACFA0E0B0E0E8EEF0E00C94A10E11
:1001D000EC015B016115710519F0FB0191838083CE
:1001E000F9908F2D90E00E94900E892BC9F7FDE2C7
:1001F000FF1621F4F990EE24E39405C02BE2F216E9
:1002000009F4F990EE248E0101501040C80168E60F
:1002100070E043E050E00E944202892B01F58E011C
:100220000E5F1F4FC8016BE670E045E050E00E9492
:100230004202892B19F48E01095F1F4FA114B104EA
:1002400019F0F50111830083E0FC04C070E090E038
:1002500080E814C070E090E080E86FEF08C1C8014A
:1002600060E770E043E050E00E944202892B69F4AD
:10027000A114B10429F470E090E080EC6FE7F7C0BE
:100280002296F501D183C083F6CF8824992440E0DB
:1002900050E060E070E0EF2DE053EA30A0F5F2E0CE
:1002A000EF2A8E2D90E09C0128703070E2FE06C08F
:1002B000232B79F50894811C911C2BC0232B19F05A
:1002C000089481089108DB01CA0112E0880F991F88
:1002D000AA1FBB1F1A95D1F7480F591F6A1F7B1F12
:1002E000440F551F661F771F4E0F511D611D711D55
:1002F000483929E9520729E9620729E1720748F0DC
:1003000084E0E82A06C0EE3F31F4E3FC39C098E00F
:10031000E92AF990C0CFE53311F0E53189F529914B
:100320002D3219F4E0E1EE2A05C02B3219F081E0FC
:1003300090E003C0299182E090E0E22FE053EA30A0
:1003400018F0C81BD90B1CC020E030E0FCE02038BE
:100350003F075CF4C901880F991F880F991F280F68
:10036000391F220F331F2E0F311DE991E053EA3060
:1003700068F3E4FE03C0309521953F4F820E931E33
:10038000CE2CDD24E1FE07C0A114B10421F0219799
:10039000F501D183C083CB01BA010E942C0D7B01F2
:1003A0008C01F3E0CF22DD2423E0C216D10421F436
:1003B00017FB109517F9109557016801C801B7018F
:1003C00020E030E040E050E00E948F0C882309F4E8
:1003D0004AC097FE0DC027E8E22E20E0F22E90944E
:1003E000819491089394C0E2D0E000E010E012C044
:1003F0009FE9E92E90E0F92EF6CFF701259135918E
:1004000045915491C601B5010E94E20D5B016C015A
:100410008C1A9D0A8C169D0684F7D595C7950F5F9B
:100420001F4F0630110529F08CEF9FEFE80EF91EE3
:10043000F1CFC501D6017C018D018C2D880F8D2D4A
:10044000881F8F3F51F0C601B50120E030E040E049
:1004500050E00E948F0C882331F482E290E0909368
:100460003703809336037E2D9F2D802F612F272FFA
:10047000392F482F562FB901CA01CDB7DEB7ECE0AE
:100480000C94BD0EFB01DC014150504088F08D9171
:1004900081341CF08B350CF4805E659161341CF066
:1004A0006B350CF4605E861B611171F3990B089536
:1004B000881BFCCF8130910551F46F5F7F4F81F431
:1004C0008EE592E060E071E00E94DD090895892BDD
:1004D00039F46F5F7F4F21F48EE592E00E940E0A9F
:1004E000089580E090E06FEF7FEF0E945A02089538
:1004F00081E090E06FEF7FEF0E945A0208950F9322
:100500001F93DF93CF93CDB7DEB727970FB6F8943D
:10051000DEBF0FBECDBF80E193E061E071E00E94DD
:10052000B1074091410250914202609143027091A3
:10053000440280E193E022E030E00E94980880E1EC
:1005400093E06DE071E00E94B10768EE73E080E037
:1005500090E00E94E40380E193E00E948905181670
:1005600019060CF0C1C08E010F5F1F4FC80160E17A
:1005700073E00E94EA088EE592E0B8010E94F70954
:10058000C8010E940E0A8EE592E065E672E044E141
:1005900050E020E030E00E94070980E193E061E252
:1005A00071E00E94B10780E193E065E672E00E948D
:1005B000AB0885E692E064E371E00E9483009093CB
:1005C0007A028093790280E090E064E371E00E9417
:1005D000830090937C0280937B0280E090E064E350
:1005E00071E00E94830090937E0280937D0280E1FF
:1005F00093E066E371E00E94B10760917902709127
:100600007A0280E193E00E94AB0880E193E06EE320
:1006100071E00E94B10760917B0270917C0280E1E1
:1006200093E00E94AB0880E193E066E471E00E94F1
:10063000B10760917D0270917E0280E193E00E949B
:10064000AB088091790290917A026EE471E00E9489
:100650009100009709F043C080E193E061E571E00B
:100660000E94AB0800917B0210917C02C80167E6F2
:1006700071E00E9491000097A9F480E193E06BE69D
:1006800071E00E94AB0880917D0290917E020E94F1
:100690007F006093410270934202809343029093E3
:1006A000440228C0C80165E871E00E9491000097EB
:1006B00029F480E193E06EE871E01AC0C8016DEAA8
:1006C00071E00E949100009729F480E193E066EBCD
:1006D00071E00EC080E193E065ED71E009C080E15A
:1006E00093E06AEF71E004C080E193E06CE172E0B6
:1006F0000E94AB0827960FB6F894DEBF0FBECDBFA1
:10070000CF91DF911F910F91089580E193E040E830
:1007100055E260E070E00E94020508951F920F927A
:100720000FB60F9211242F933F938F939F93AF9304
:10073000BF938091830290918402A0918502B09131
:100740008602309187020196A11DB11D232F2D5FD6
:100750002D3720F02D570196A11DB11D2093870242
:100760008093830290938402A0938502B0938602C3
:1007700080917F0290918002A0918102B0918202CB
:100780000196A11DB11D80937F0290938002A093DA
:100790008102B0938202BF91AF919F918F913F915F
:1007A0002F910F900FBE0F901F9018958FB7F89450
:1007B00020918302309184024091850250918602FB
:1007C0008FBFB901CA0108959B01AC017FB7F894AE
:1007D00080917F0290918002A0918102B09182026B
:1007E00066B5A89B05C06F3F19F00196A11DB11D0C
:1007F0007FBFBA2FA92F982F8827860F911DA11D83
:10080000B11D62E0880F991FAA1FBB1F6A95D1F71F
:10081000BC012DC0FFB7F89480917F0290918002B7
:10082000A0918102B0918202E6B5A89B05C0EF3F7E
:1008300019F00196A11DB11DFFBFBA2FA92F982F46
:1008400088278E0F911DA11DB11DE2E0880F991F11
:10085000AA1FBB1FEA95D1F7861B970B885E9340B2
:10086000C8F2215030404040504068517C4F211523
:1008700031054105510571F60895789484B582607B
:1008800084BD84B5816084BD85B5826085BD85B534
:10089000816085BDEEE6F0E0808181608083E1E8E3
:1008A000F0E010828081826080838081816080831B
:1008B000E0E8F0E0808181608083E1EBF0E080811E
:1008C00084608083E0EBF0E0808181608083EAE7F0
:1008D000F0E0808184608083808182608083808179
:1008E000816080838081806880831092C100089538
:1008F00008951F920F920FB60F9211242F933F93DA
:100900004F938F939F93EF93FF938091C00082FD4D
:100910001DC04091C6002091C8023091C9022F5FCE
:100920003F4F2F7330708091CA029091CB022817ED
:10093000390771F0E091C802F091C902E857FD4F04
:1009400040833093C9022093C80202C08091C60040
:10095000FF91EF919F918F914F913F912F910F9028
:100960000FBE0F901F901895E0911C03F0911D038E
:10097000E05CFF4F8191919120813181821B930B2B
:100980008F739070892B11F00E94780408951F9244
:100990000F920FB60F9211242F933F938F939F9333
:1009A000EF93FF9320910C0330910D0380910E0380
:1009B00090910F032817390731F48091C1008F7D82
:1009C0008093C10014C0E0910E03F0910F03E45333
:1009D000FD4F208180910E0390910F0301968F733C
:1009E000907090930F0380930E032093C600FF91A5
:1009F000EF919F918F913F912F910F900FBE0F908C
:100A00001F901895AF92BF92DF92EF92FF920F93D3
:100A10001F93CF93DF93EC017A018B01DD244030EB
:100A200081EE580780E0680780E0780711F0DD2448
:100A3000D39491E0A92EB12CEC89FD89DD2069F0D9
:100A4000C50108A002C0880F991F0A94E2F78083AD
:100A500060E079E08DE390E005C0108260E874E822
:100A60008EE190E0A80197010E94680E215030406D
:100A700040405040569547953795279580E1203066
:100A8000380720F0DD2011F0DD24D6CFE889F98980
:100A90003083EA89FB89208319A2EE89FF8940818E
:100AA00021E030E0C9010C8C02C0880F991F0A9424
:100AB000E2F7482B4083EE89FF894081C9010D8C04
:100AC00002C0880F991F0A94E2F7482B4083EE89F1
:100AD000FF894081C9010E8C02C0880F991F0A94BA
:100AE000E2F7482B4083EE89FF8980810F8C02C09A
:100AF000220F331F0A94E2F7209528232083DF91E9
:100B0000CF911F910F91FF90EF90DF90BF90AF902A
:100B10000895DC011C96ED91FC911D97E05CFF4F60
:100B20002191319180819181281B390B2F73307075
:100B3000C9010895DC011C96ED91FC911D97E05CC4
:100B4000FF4F20813181E054F040DF01AE5BBF4FA9
:100B50008D919C9111972817390719F42FEF3FEFCA
:100B600007C08D919C91E80FF91F8081282F30E0FC
:100B7000C9010895DC011C96ED91FC911D97E05C84
:100B8000FF4F20813181E054F040DF01AE5BBF4F69
:100B90008D919C9111972817390719F42FEF3FEF8A
:100BA00010C08D919C911197E80FF91F20818D91B4
:100BB0009C91119701968F73907011969C938E93D0
:100BC00030E0C9010895DC0191968C9191978823BA
:100BD00039F05496ED91FC915597808186FFF9CFBD
:100BE00091961C920895CF93DF93EC01EE85FF85DB
:100BF000E05CFF4F20813181E054F0402F5F3F4F98
:100C00002F733070DF01AE5BBF4F8D919C911197B8
:100C100028173907D1F3E05CFF4F80819181E054C0
:100C2000F040E80FF91F6083EE85FF85E05CFF4F21
:100C300031832083EE89FF89208181E090E00F8C51
:100C400002C0880F991F0A94E2F7282B208381E0C5
:100C500089A3EC89FD8980818064808381E090E0B4
:100C6000DF91CF910895109213031092120388EE32
:100C700093E0A0E0B0E08093140390931503A09359
:100C80001603B09317038FE492E0909311038093BF
:100C9000100388E892E090931D0380931C038CEC72
:100CA00092E090931F0380931E0385EC90E0909355
:100CB00021038093200384EC90E09093230380939E
:100CC000220380EC90E0909325038093240381EC31
:100CD00090E0909327038093260382EC90E090931A
:100CE00029038093280386EC90E090932B03809354
:100CF0002A0384E080932C0383E080932D0387E014
:100D000080932E0385E080932F0381E0809330034E
:100D10000895CF93DF930E943D040E948503C4EBA6
:100D2000D4E00E947F022097E1F30E94B404F9CF3F
:100D3000CF92DF92EF92FF920F931F93CF93DF93A7
:100D40007C016B018A01C0E0D0E00FC0D6016D913B
:100D50006D01D701ED91FC910190F081E02DC7016B
:100D60000995C80FD91F015010400115110571F7E1
:100D7000CE01DF91CF911F910F91FF90EF90DF9007
:100D8000CF900895EF92FF920F931F938C01DC0197
:100D9000ED91FC910190F081E02D6DE009957C01D1
:100DA000D801ED91FC910190F081E02DC8016AE03D
:100DB00009959C012E0D3F1DC9011F910F91FF90B8
:100DC000EF900895CF93DF93EC016115710519F44D
:100DD00020E030E00FC0DB010D900020E9F7119713
:100DE000A61BB70BE881F9810280F381E02DAD01EC
:100DF00009959C01C901DF91CF9108954F925F92AF
:100E00007F928F929F92AF92BF92CF92DF92EF929A
:100E1000FF920F931F93DF93CF93CDB7DEB7A197C8
:100E20000FB6F894DEBF0FBECDBF2C01742ECB01E0
:100E3000223008F42AE019A231E2C32ED12CCC0EC4
:100E4000DD1E822E9924AA24BB24672D752FA501AF
:100E500094010E94680E79018A01C801B701A501B9
:100E600094010E94490E472D461B0894C108D108E1
:100E70004A3014F4405D01C0495CF6014083E1143E
:100E8000F1040105110521F07E2C5F2DC801DDCF95
:100E9000C201B6010E94E206A1960FB6F894DEBF29
:100EA0000FBECDBFCF91DF911F910F91FF90EF90BB
:100EB000DF90CF90BF90AF909F908F907F905F908A
:100EC0004F900895DC012115310541F4ED91FC911D
:100ED0000190F081E02D642F099508950E94FE068F
:100EE0000895CF92DF92EF92FF920F931F93CF93CB
:100EF000DF93EC016A017B012115310541F4E881A2
:100F0000F9810190F081E02D642F09951FC02A30EE
:100F10003105D1F477FF17C0E881F9810190F081A4
:100F2000E02D6DE209958C0144275527BA014C1933
:100F30005D096E097F09CE012AE00E94FE06980134
:100F4000280F391F04C02AE00E94FE069C01C90137
:100F5000DF91CF911F910F91FF90EF90DF90CF9095
:100F600008950E94E20608957F928F929F92AF9219
:100F7000BF92CF92DF92EF92FF920F931F93CF9386
:100F8000DF934C017A018B01722ECB01BA01A801CB
:100F900097010E94450E882321F0C40162E372E0AC
:100FA00021C0C0E0D0E057016801E894D7F8C6013D
:100FB000B5012FEF3FEF4FE75FE70E94450E882313
:100FC00051F4C601B5012FEF3FEF4FE75FE70E94F5
:100FD0008F0C181614F0C1E0D0E0219739F0C4014D
:100FE00066E372E00E94E206EC0193C0C801B7011B
:100FF0002FEF3FEF4FE75FE40E94DE0D181654F02D
:10100000C801B7012FEF3FEF4FE75FEC0E948F0C55
:10101000882324F4C4016AE372E0E4CFC801B70175
:1010200020E030E040E050E00E948F0C87FD03C0DC
:10103000C0E0D0E00EC0D401ED91FC910190F081B0
:10104000E02DC4016DE20995EC0117FB109517F92D
:10105000109520E030E040E05FE3DD240BC0CA01E2
:10106000B90120E030E040E251E40E94930C9B0182
:10107000AC01D394D71498F3C801B7010E942B0C8C
:101080005B016C010E94000D7B018C01C401B80161
:10109000A7012AE030E00E946207C80FD91F77201D
:1010A00039F0C4016EE372E00E94E206C80FD91F56
:1010B000C801B7010E942C0D9B01AC01C601B5010E
:1010C0000E942A0C24C020E030E040E251E40E945B
:1010D000E20D7B018C010E94FB0C5B016C01CC24B6
:1010E000B7FCC094DC2CC401B601A5012AE030E0B5
:1010F0000E947107C80FD91FC601B5010E942E0DAD
:101100009B01AC01C801B7010E942A0C7A94772098
:10111000D1F6CE01DF91CF911F910F91FF90EF900B
:10112000DF90CF90BF90AF909F908F907F90089569
:10113000EF92FF920F931F937C010E94B4078C01E2
:10114000C7010E94C206080F191FC8011F910F9105
:10115000FF90EF900895EF92FF920F931F937C0101
:101160000E94E2068C01C7010E94C206080F191FE7
:10117000C8011F910F91FF90EF900895CF93DF93D7
:10118000EC010E94D603688779878A879B87E8816C
:10119000F9810680F781E02DCE0109959C0197FF2A
:1011A00015C00E94D603288539854A855B85621B58
:1011B000730B840B950B2C813D814E815F816217EF
:1011C00073078407950718F32FEF3FEFC901DF91ED
:1011D000CF9108950F931F93CF93DF93182F092F6B
:1011E000EB0160E472E00E94DD0904C0812F902FC2
:1011F0000E949709CE010E94BE08BC0197FFF6CF5E
:10120000812F902FDF91CF911F910F9108950F9310
:101210001F93CF93DF93FC018B0141155105F9F02A
:1012200061157105E1F0848195812817390718F05F
:10123000FB01108214C041505040EC01C21BD30B83
:101240004C175D0708F4EA0160817181620F731F1A
:10125000C801AE010E94A100C00FD11F1882DF910A
:10126000CF911F910F9108950F931F93CF93DF9309
:10127000EC018B016F5F7F4F888199810E94490B40
:10128000009711F480E005C0998388831B830A834B
:1012900081E0DF91CF911F910F910895CF93DF935C
:1012A000EC0188819981892B29F08A819B8186179D
:1012B000970760F4CE010E943409882341F08C81A5
:1012C0009D81892B19F4E881F981108281E0DF91F9
:1012D000CF910895EF92FF920F931F93CF93DF93D7
:1012E000EC017B016C817D81E114F104C1F04115B9
:1012F000510599F08A01060F171FB8010E944E0987
:10130000882369F0888199812C813D81820F931F08
:10131000B7010E949A001D830C8381E001C080E028
:10132000DF91CF911F910F91FF90EF900895DF9380
:10133000CF9300D0CDB7DEB769831A82BE016F5F4D
:101340007F4F41E050E00E946A090F900F90CF91CB
:10135000DF910895CF93DF93EC0188819981009705
:1013600011F00E94B10A198218821D821C821B8210
:101370001A82DF91CF910895EF92FF920F931F93FE
:10138000CF93DF93EC017B018A01BA010E944E09E1
:10139000882321F4CE010E94AA0907C01D830C8373
:1013A00088819981B7010E949A00CE01DF91CF9187
:1013B0001F910F91FF90EF900895CF93DF93EC0171
:1013C000198218821B821A821D821C821E8261155C
:1013D000710551F0DB010D900020E9F71197A61B74
:1013E000B70BAD010E94BC09DF91CF910895CF9357
:1013F000DF93EC01FB018617970761F06081718133
:101400006115710529F0448155810E94BC0902C013
:101410000E94AA09CE01DF91CF910895FC0180813D
:1014200091810E94B10A08950F931F93CF93DF9388
:10143000BC018230910510F462E070E0E091340369
:10144000F0913503A0E0B0E040E050E024C080819E
:10145000918186179707D0F08617970771F48281DC
:101460009381109729F013969C938E9312972CC01A
:10147000909335038093340327C04115510519F02B
:101480008417950718F4EF018D01AC01DF0182810B
:1014900093819C01F9013097D1F641155105F9F07E
:1014A000CA01861B970B8430910580F48A819B8149
:1014B0000115110521F0F8019383828304C09093F4
:1014C000350380933403FE01329645C0FE01E80FD8
:1014D000F91F619371930297998388833CC080912F
:1014E000320390913303892B41F48091470290910C
:1014F0004802909333038093320340914902509104
:101500004A024115510541F44DB75EB7809145023D
:1015100090914602481B590B2091320330913303BE
:1015200024173507B0F4CA01821B930B861797075F
:1015300080F0AB014E5F5F4F8417950750F0420F6C
:10154000531F5093330340933203F9016193719316
:1015500002C0E0E0F0E0CF01DF91CF911F910F9149
:101560000895CF93DF939C01009709F48FC0EC019D
:1015700022971B821A8260913403709135036115A2
:10158000710581F488819981820F931F2091320324
:10159000309133032817390739F5D0933303C093BB
:1015A000320374C0DB0140E050E0AC17BD0708F126
:1015B000BB83AA83FE0121913191E20FF31FAE1785
:1015C000BF0779F48D919C911197280F391F2E5FD9
:1015D0003F4F3983288312968D919C9113979B835B
:1015E0008A834115510571F4D0933503C0933403B8
:1015F0004DC012968D919C911397AD01009711F0FB
:10160000DC01D3CFDA011396DC93CE931297FA0163
:1016100021913191E20FF31FCE17DF0769F4888122
:101620009981280F391F2E5F3F4FFA0131832083A4
:101630008A819B8193838283E0E0F0E0DB01129654
:101640008D919C911397009719F0BC01FD01F6CF85
:10165000AB014E5F5F4FDB018D919C91840F951F15
:1016600020913203309133032817390779F43097EA
:1016700029F4109235031092340302C013821282AF
:10168000425050405093330340933203DF91CF9147
:1016900008956F927F928F929F92AF92BF92CF9256
:1016A000DF92EF92FF920F931F93CF93DF938C0102
:1016B000009729F4CB010E94140A8C01BBC08EEF65
:1016C000E82E8FEFF82EE00EF11E4801860E971ED1
:1016D0008E149F0408F4ACC0D7014D915C91119712
:1016E00046175707B8F04530510508F4A3C0CA01A2
:1016F00004978617970708F49DC042505040461B38
:10170000570BF401419351936D937C93CF010E9449
:10171000B10A90C05B01A41AB50A3801640E751EA7
:10172000A0913403B0913503CC24DD24E0E0F0E057
:1017300047C0A615B705A9F5CD91DC911197CE014B
:1017400002968A159B0568F1CE018A199B090296BB
:1017500012962C91129713963C91059758F0F4012C
:1017600022833383CA19DB09D183C083D7016D93E8
:101770007C9309C04E5F5F4F4C0F5D1FF701518393
:101780004083C901FC01C114D10431F0D601139684
:10179000FC93EE9312974EC0F0933503E09334031D
:1017A00049C08D919C911197E817F90708F4FC0145
:1017B0006D0112968C91129713969C919C01D90100
:1017C000109709F0B6CF80913203909133038615BC
:1017D0009705E9F4E617F707D0F420914902309114
:1017E0004A022115310541F42DB73EB780914502DB
:1017F00090914602281B390B82169306C8F49092EA
:10180000330380923203F7017183608313C0CB01ED
:101810000E94140AEC01009759F0D7014D915C9198
:10182000B8010E948800C8010E94B10A8E0102C05E
:1018300000E010E0C801DF91CF911F910F91FF9060
:10184000EF90DF90CF90BF90AF909F908F907F9060
:101850006F9008955058BB27AA270ED075C166D146
:1018600030F06BD120F031F49F3F11F41EF45BC1D6
:101870000EF4E095E7FB51C1E92F77D180F3BA1759
:10188000620773078407950718F071F49EF58FC1FE
:101890000EF4E0950B2EBA2FA02D0B01B90190018B
:1018A0000C01CA01A0011124FF27591B99F0593FCF
:1018B00050F4503E68F11A16F040A22F232F342F17
:1018C0004427585FF3CF469537952795A795F04065
:1018D0005395C9F77EF41F16BA0B620B730B840B7A
:1018E000BAF09150A1F0FF0FBB1F661F771F881F32
:1018F000C2F70EC0BA0F621F731F841F48F487958A
:1019000077956795B795F7959E3F08F0B3CF939578
:10191000880F08F09927EE0F979587950895D9D0ED
:1019200008F481E008950CD00FC107D140F0FED03B
:1019300030F021F45F3F19F0F0C0511139C1F3C00C
:1019400014D198F39923C9F35523B1F3951B550B83
:10195000BB27AA2762177307840738F09F5F5F4F82
:10196000220F331F441FAA1FA9F333D00E2E3AF0C3
:10197000E0E830D091505040E695001CCAF729D0DD
:10198000FE2F27D0660F771F881FBB1F261737072C
:101990004807AB07B0E809F0BB0B802DBF01FF275C
:1019A00093585F4F2AF09E3F510568F0B6C000C1C2
:1019B0005F3FECF3983EDCF3869577956795B79596
:1019C000F7959F5FC9F7880F911D9695879597F9B1
:1019D0000895E1E0660F771F881FBB1F621773072A
:1019E0008407BA0720F0621B730B840BBA0BEE1F3F
:1019F00088F7E095089504D06894B111D9C008958E
:101A0000BCD088F09F5790F0B92F9927B751A0F01C
:101A1000D1F0660F771F881F991F1AF0BA95C9F782
:101A200012C0B13081F0C3D0B1E00895C0C0672FBB
:101A3000782F8827B85F39F0B93FCCF38695779532
:101A40006795B395D9F73EF490958095709561951B
:101A50007F4F8F4F9F4F0895E89409C097FB3EF446
:101A600090958095709561957F4F8F4F9F4F9923EB
:101A7000A9F0F92F96E9BB279395F6958795779569
:101A80006795B795F111F8CFFAF4BB0F11F460FF29
:101A90001BC06F5F7F4F8F4F9F4F16C0882311F081
:101AA00096E911C0772321F09EE8872F762F05C095
:101AB000662371F096E8862F70E060E02AF09A9530
:101AC000660F771F881FDAF7880F9695879597F925
:101AD0000895990F0008550FAA0BE0E8FEEF1616BF
:101AE0001706E807F907C0F012161306E407F50712
:101AF00098F0621B730B840B950B39F40A2661F086
:101B0000232B242B252B21F408950A2609F4A14028
:101B1000A6958FEF811D811D089597F99F6780E835
:101B200070E060E008959FEF80EC089500240A942F
:101B30001616170618060906089500240A941216A8
:101B40001306140605060895092E0394000C11F4DB
:101B5000882352F0BB0F40F4BF2B11F460FF04C088
:101B60006F5F7F4F8F4F9F4F089557FD9058440FE1
:101B7000551F59F05F3F71F04795880F97FB991FEC
:101B800061F09F3F79F087950895121613061406A9
:101B9000551FF2CF4695F1DF08C016161706180636
:101BA000991FF1CF86957105610508940895E89411
:101BB000BB2766277727CB0197F908958ADF08F4BA
:101BC0008FEF08950BD0C0CFB1DF28F0B6DF18F04B
:101BD000952309F0A2CFA7CF1124EACFC6DFA0F347
:101BE000959FD1F3950F50E0551F629FF001729FB2
:101BF000BB27F00DB11D639FAA27F00DB11DAA1FD1
:101C0000649F6627B00DA11D661F829F2227B00D1D
:101C1000A11D621F739FB00DA11D621F839FA00DA8
:101C2000611D221F749F3327A00D611D231F849FF8
:101C3000600D211D822F762F6A2F11249F5750404F
:101C40008AF0E1F088234AF0EE0FFF1FBB1F661FEA
:101C5000771F881F91505040A9F79E3F510570F0A3
:101C60005CCFA6CF5F3FECF3983EDCF3869577958B
:101C70006795B795F795E7959F5FC1F7FE2B880F9E
:101C8000911D9695879597F9089523DF880B990BF9
:101C90000895629FD001739FF001829FE00DF11DB6
:101CA000649FE00DF11D929FF00D839FF00D749FD6
:101CB000F00D659FF00D9927729FB00DE11DF91F82
:101CC000639FB00DE11DF91FBD01CF0111240895DF
:101CD000A1E21A2EAA1BBB1BFD010DC0AA1FBB1F30
:101CE000EE1FFF1FA217B307E407F50720F0A21BA2
:101CF000B30BE40BF50B661F771F881F991F1A940F
:101D000069F760957095809590959B01AC01BD0138
:101D1000CF010895EE0FFF1F0590F491E02D099477
:101D2000911106C0803219F089508550D0F708957E
:101D30009927882708952F923F924F925F926F9232
:101D40007F928F929F92AF92BF92CF92DF92EF924B
:101D5000FF920F931F93CF93DF93CDB7DEB7CA1BCC
:101D6000DB0B0FB6F894DEBF0FBECDBF09942A88F7
:101D7000398848885F846E847D848C849B84AA849F
:101D8000B984C884DF80EE80FD800C811B81AA812C
:101D9000B981CE0FD11D0FB6F894DEBF0FBECDBFF7
:101DA000ED01089510E0C8EAD0E004C0FE010E94F1
:0E1DB0008C0E2296CA3AD107C9F7F894FFCFDD
:101DBE00007048207365742061743A200041776189
:101DCE006974696E6720636F6D6D616E642E2E2E61
:101DDE0000596F757220636F6D6D616E642077614F
:101DEE00733A2000200063312069733A2000633279
:101DFE002069733A200063332069733A20007068BB
:101E0E0000636F6D6D616E64207068207265636F24
:101E1E00676E697A65640073657400636F6D6D61DA
:101E2E006E6420706820736574207265636F676ED0
:101E3E00697A656400696E63726561736500636FCC
:101E4E006D6D616E6420706820696E63726561737A
:101E5E0065207265636F676E697A65640064656399
:101E6E00726561736500636F6D6D616E642070687D
:101E7E00206465637265617365207265636F676E5A
:101E8E00697A656400704820636F6D616E64206EC0
:101E9E006F74207265636F676E697A65642E207445
:101EAE00727920616761696E2E00636F6D616E6479
:101EBE00206E6F74207265636F676E697A65642E2B
:101ECE002074727920616761696E2E004E6F2063F7
:101EDE006F6D6D616E64207265676973746572658E
:101EEE0064006E616E00696E66006F7666002E008D
:101EFE00000000804080003803000000000000F366
:0C1F0E000598068905BA059A05E3050050
:00000001FF
