:100000000C9484010C94B1010C94B1010C94B101D5
:100010000C94B1010C94B1010C94B1010C94B10198
:100020000C94B1010C94B1010C94B1010C94B10188
:100030000C94B1010C94B1010C94B1010C94B10178
:100040000C94B1010C94B1010C94B1010C94B10168
:100050000C94B1010C94B1010C94B1010C9467079C
:100060000C94B1010C94C2080C940A0A0C94B101CE
:100070000C94B1010C94B1010C94B1010C94B10138
:100080000C94B1010C94B1010C94B1010C94B10128
:100090000C9402090C94490A0C94B1010C94B1011E
:1000A0000C94B1010C94B1010C94B1010C94B10108
:1000B0000C94B1010C94B1010C94B1010C94B101F8
:1000C0000C94B1010C94B1010C94B1010C9442094F
:1000D0000C94880A0C94B1010C9482090C94C70A00
:1000E0000C94B101005EBCE2613FDD83C29C7E20C6
:1000F000A3FD1F419DC3217FFCA2401E5F01E3BD04
:100100003E6082DC237D9FC1421CFEA0E1BF5D03F7
:1001100080DE3C62BEE0025CDF81633D7C22C09EEB
:100120001D43A1FF4618FAA427799BC584DA3866D7
:10013000E5BB5907DB856739BAE406581947A5FBC3
:100140007826C49A653BD987045AB8E6A7F91B45B7
:10015000C6987A24F8A6441A99C7257B3A6486D8AB
:100160005B05E7B98CD2306EEDB3510F4E10F2AC97
:100170002F7193CD114FADF3702ECC92D38D6F3183
:10018000B2EC0E50AFF1134DCE90722C6D33D18F77
:100190000C52B0EE326C8ED0530DEFB1F0AE4C126B
:1001A00091CF2D73CA947628ABF517490856B4EA57
:1001B0006937D58B5709EBB536688AD495CB297743
:1001C000F4AA4816E9B7550B88D6346A2B7597C937
:1001D0004A14F6A8742AC896154BA9F7B6E80A542B
:1001E000D7896B3500002100240027002A002D004C
:1001F0003000330001010000040107010A01000082
:100200002200250028002B002E00310034000201BE
:100210000000050108010B0100002000230026005A
:1002200029002C002F00320000010000030106010C
:10023000090105050505070508080808020202026C
:100240000A0A080804040404010101010101010172
:100250000303030303030303040707070C0C0C0C3D
:100260000C0C0C0C02020202060606060606060626
:100270000B0B0B0B0B0B0B0B0102102020080810B3
:100280002040102040800201020108040201010206
:1002900004081020408080402010080402018004DF
:1002A000020180402010080402010804020101023A
:1002B0000408102040800102040810204080000043
:1002C000090A02080B0C0D070603040100000000D8
:1002D000000000000000000000000000000000001E
:1002E0000000000000000000000011100F000000DE
:1002F00000000000000000000000000000000000FE
:1003000000000000B301370C11241FBECFEFD1E273
:10031000DEBFCDBF00E00CBF12E0A0E0B2E0E4E140
:10032000F4E200E00BBF02C007900D92A238B107C3
:10033000D9F71BBE15E0A2E8B2E001C01D92A835B6
:10034000B107E1F713E0C8E0D3E004C02297FE0153
:100350000E940412C430D107C9F70E946D0D0C949D
:1003600008120C9400000F931F9302E812E0C801DA
:100370006CE10E94310780E992E0B8010E94180206
:100380001F910F910895EF92FF920F931F9300ED2D
:1003900014E0C80160E072E00E94950E80E9E82E4A
:1003A00082E0F82EC7010E94DD0368EE73E080E072
:1003B00090E00E94BD07C8016BE172E00E948F0FC0
:1003C000C80160E272E00E94950EC70161E00E94E0
:1003D000B704AB01BC014093A3025093A402609305
:1003E000A5027093A602C80122E030E00E947C0FB3
:1003F0001F910F91FF90EF9008950F931F938CE141
:1004000061E00E94820800ED14E0C80140E855E276
:1004100060E070E00E94060BC80168E372E00E9491
:100420008F0F80E992E00E94DE041F910F910895E2
:10043000FC018EED92E0928B818B76836583148232
:10044000108289E0818381E08283838308956F92A3
:100450007F928F929F92AF92BF92CF92DF92EF9254
:10046000FF920F931F93CF93DF93FB01EA019981D2
:1004700080E0288130E0282B392BE081E23231F016
:10048000E83221F0E03109F084C04BC04C814F3399
:1004900029F1403420F44F3109F07BC02FC04F3593
:1004A00079F04F3709F075C0B901882777FD80953D
:1004B000982F0E94A61020E030E040E85DE32EC0B7
:1004C00035952795B901882777FD8095982F0E944B
:1004D000A61020E030E040E05EE320C0359527958F
:1004E00035952795B901882777FD8095982F0E942B
:1004F000A61020E030E040E85EE310C093E03595C0
:1005000027959A95E1F7B901882777FD8095982F6F
:100510000E94A61020E030E040E05FE30E945A1104
:1005200032C0EF8035952795B901882777FD8095F2
:10053000982F0E94A61020E030E040E85EE30E9481
:10054000A20F3B014C016E2D70E02E81621B7109E0
:10055000882777FD8095982F0E94A6105B016C017B
:10056000FF2400E010E0C801B7010E94A4109B0125
:10057000AC01C601B5010E940B109B01AC01C40186
:10058000B3010E94A30F9B01AC01832F942F752F01
:1005900000C0262F382F492F572FB901CA01DF91EC
:1005A000CF911F910F91FF90EF90DF90CF90BF9070
:1005B000AF909F908F907F906F9008950895EF92E5
:1005C000FF920F931F938C017B01FC018581968123
:1005D0000E945006F80185819681B7010E942F067E
:1005E000F8018581968164EB40E00E94EA05F801FC
:1005F000858196810E946505F82EF8018581968196
:100600000E94500680E0FF2009F481E01F910F91C5
:10061000FF90EF900895CF92DF92EF92FF920F93A9
:100620001F938C016B017A01FC01858196810E94E8
:100630005006F80185819681B6010E942F06F801C7
:10064000858196816EEB40E00E94EA05F801858184
:1006500096810E949905F7018083F8018581968132
:100660000E949905F7018183F801858196810E9496
:100670009905F7018283F801858196810E94990589
:10068000F7018383F801858196810E949905F7011E
:100690008483F801858196810E949905F7018583FD
:1006A000F801858196810E949905F7018683F801FA
:1006B000858196810E949905F7018783F8018581DC
:1006C00096810E949905F7018087F80185819681BE
:1006D0000E9450061F910F91FF90EF90DF90CF90F6
:1006E0000895DF93CF93CDB7DEB729970FB6F8946F
:1006F000DEBF0FBECDBFAE014F5F5F4F0E940B0349
:100700008981811181E029960FB6F894DEBF0FBE72
:10071000CDBFCF91DF910895CF92DF92EF92FF92FC
:100720000F931F93CF93DF93EC016B01452BE1F007
:100730008B818823C9F088818823B1F40E94AF0798
:100740007B018C01CE0160E070E00E947103882380
:1007500059F40E94AF076E197F09800B910B6E5EF2
:1007600072408040904070F3F6016081693039F04A
:100770006930A0F06A3041F06B3081F40AC06EE558
:1007800070E080E090E00EC06CEB70E080E090E004
:1007900009C067E771E080E090E004C06EEE72E0AF
:1007A00080E090E00E94BD07DF91CF911F910F91F3
:1007B000FF90EF90DF90CF900895CF93DF93EC01FF
:1007C0008D819E810E9450068D819E810E942A0605
:1007D0008D819E8164E448810E94EA058A81882394
:1007E00039F0CE012196BE0140E050E00E948C031A
:1007F000DF91CF9108950F931F938A010E940B03FD
:10080000C80168E00E94540520E0F801908589172E
:1008100009F421E0822F1F910F910895CF92DF926A
:10082000EF92FF920F931F93DF93CF93CDB7DEB775
:1008300029970FB6F894DEBF0FBECDBF8C017B01A8
:100840006E010894C11CD11CA6010E94FB038823E1
:1008500029F460E070E08EEF92EC05C0C801B701AA
:10086000A6010E94270229960FB6F894DEBF0FBE9C
:10087000CDBFCF91DF911F910F91FF90EF90DF904F
:10088000CF900895DF93CF93CDB7DEB729970FB6FA
:10089000F894DEBF0FBECDBF9C01FB01808180318B
:1008A000D9F0C901AE014F5F5F4F0E94FB0388235F
:1008B000A9F08D818F3371F0803418F48F3171F489
:1008C0000BC08F3519F08F3749F402C08BE007C099
:1008D0008CE005C08AE003C089E001C080E0299671
:1008E0000FB6F894DEBF0FBECDBFCF91DF91089554
:1008F0000F931F938B01CB0167E00E94540520E00A
:10090000F8019781891709F421E0822F1F910F9137
:100910000895EF92FF920F931F93CF93DF93EC0113
:100920007B01042F8D819E810E94470510E007C046
:10093000CE01B7010E9478048823A9F00AC08D81F6
:100940009E81B7010E949B06882329F0101759F455
:10095000EFCF81E001C080E0DF91CF911F910F9137
:10096000FF90EF9008951F5F0117A8F3E8CFEF9273
:10097000FF920F931F93DF93CF93CDB7DEB72897E6
:100980000FB6F894DEBF0FBECDBF7C01462F8E019F
:100990000F5F1F4FB8010E948904C701B8010E9470
:1009A0000E0428960FB6F894DEBF0FBECDBFCF91D0
:1009B000DF911F910F91FF90EF900895AF92BF923A
:1009C000CF92DF92EF92FF920F931F93DF93CF931B
:1009D000CDB7DEB761970FB6F894DEBF0FBECDBFBF
:1009E0007C01FC01858196810E944705F7011482F4
:1009F0006E010894C11CD11C79E0A72EB12CAC0E5D
:100A0000BD1E01E02BC0C701B6010E9478048823F7
:100A100029F1F7018081882341F4C701B6010E94C2
:100A2000DF02882311F0F7010083C701B601A50199
:100A30000E940B03F7011181C701B6010E94420415
:100A4000811718F4F701818104C0C701B6010E9423
:100A50004204F701818384818F5F8483F70185815C
:100A60009681B6010E949B06882369F661960FB6AF
:100A7000F894DEBF0FBECDBFCF91DF911F910F91D4
:100A8000FF90EF90DF90CF90BF90AF900895FC0162
:100A900013861586148687E090E0128631970097BA
:100AA00011F00197FACF0895DC0180E00BC0E82F28
:100AB000F0E08D9190E0E827F927EC51FF4FE491A9
:100AC00061508E2F662399F70895DF92EF92FF927F
:100AD0000F931F93FC01E08001811281F894F801CB
:100AE00081818E2981838281DE2CD0948D21828325
:100AF00083E090E00E941608F80181818D218183B6
:100B00008AE090E00E941608F8010081789485E35D
:100B100090E00E94160880E010E0FF240E211F21C3
:100B2000012B09F081E01F910F91FF90EF90DF9072
:100B30000895EF92FF920F931F93CF93DF937C0161
:100B400001E010E0C0E0D0E0C7010E94650581111E
:100B5000102B000F2196C830D105B1F7812FDF91FE
:100B6000CF911F910F91FF90EF9008951F93CF9316
:100B7000DF93FC011081C181D281912F909560FF9C
:100B800012C0F8948A8189238A838981812B898381
:100B90008AE090E00E9416088A81812B8A837894EB
:100BA00087E390E011C0F8948A8189238A83898140
:100BB000812B898381E490E00E9416088A81812B31
:100BC0008A83789485E090E00E941608DF91CF91A7
:100BD0001F910895CF92DF92EF92FF920F931F9390
:100BE000CF93DF938C01E42EFF24F394C0E0D0E098
:100BF000C62EDD2460E08F2D90E08C219D21892B75
:100C000009F061E0C8010E94B605FF0C2196C830CA
:100C1000D10581F7EE20A9F4F894D8011196ED9151
:100C2000FC91129791818C918095982391831196D4
:100C3000ED91FC91129792818C91809598239283EB
:100C40007894DF91CF911F910F91FF90EF90DF90FB
:100C5000CF9008956CEC40E00E94EA050895EF9271
:100C6000FF920F931F93CF93DF938C017B0165E578
:100C700040E00E94EA05C0E0D0E0F701EC0FFD1F64
:100C8000C801608140E00E94EA052196C830D10584
:100C9000A1F7DF91CF911F910F91FF90EF900895F1
:100CA000DF92EF92FF920F931F93CF93DF93FC019C
:100CB0000081C181D281F8948981D02ED0948D2178
:100CC000898378941DE7E02EFF24115059F182E0CA
:100CD00090E00E941608888190E08E219F21892B48
:100CE000A1F3F8948A818D218A838981802B89835D
:100CF000789480EE91E00E941608F89489818D2105
:100D0000898386E490E00E941608888110E090E0D4
:100D1000E822F922EF2809F411E078948AE991E0B9
:100D20000E941608812FDF91CF911F910F91FF90A4
:100D3000EF90DF900895AF92BF92DF92EF92FF9213
:100D40000F931F93CF93DF93EC015B018D85882375
:100D500009F061C0CE010E945006882329F41B8649
:100D60001D861C8690E06BC0CE0160EF40E00E94C3
:100D7000EA0501E0DD24EE24FF24F394CE010E9475
:100D80006505182FCE010E946505113019F48130D8
:100D9000E1F439C0181709F58B85081770F460E085
:100DA000FE01EE0DF11D838190E02F2D30E08223B6
:100DB0009323181619064CF003C060E0081729F0B9
:100DC000093008F04CC00C874AC0FE01EE0DF11D41
:100DD00083818F29838361E009C0612FFE01EE0DBD
:100DE000F11D9F2D9095838189238383CE010E94DD
:100DF000B6050F5FFF0C19F4E394FF24F39487E02A
:100E00008E1508F0BBCF013430F0DB86DD2011F504
:100E100081E08D871FC01B861D861C8690E0DE0149
:100E200020E030E0F501E20FF31F13968C91139749
:100E300080832F5F3F4F11962830310599F7892F16
:100E4000DF91CF911F910F91FF90EF90DF90BF90B6
:100E5000AF9008958B818823F1F291E0E0CFD02EFE
:100E6000BDCFFF920F931F938C01F62E862F60E06B
:100E70000E9482088F2D90E0FC01E858FD4FE4911C
:100E8000D801EC938E5C9D4FFC016491E62FF0E05D
:100E9000EE0FFF1FE85EFD4F8591949112969C9393
:100EA0008E9311971B961C921B971D961C921D9753
:100EB0001C961C92F80187E090E01286319700970B
:100EC00011F00197FACF1F910F91FF9008951F9293
:100ED0000F920FB60F9211242F933F938F939F93EE
:100EE000AF93BF938091AB029091AC02A091AD0201
:100EF000B091AE023091AF020196A11DB11D232F1A
:100F00002D5F2D3720F02D570196A11DB11D209387
:100F1000AF028093AB029093AC02A093AD02B0936A
:100F2000AE028091A7029091A802A091A902B0916F
:100F3000AA020196A11DB11D8093A7029093A80259
:100F4000A093A902B093AA02BF91AF919F918F91F4
:100F50003F912F910F900FBE0F901F9018958FB754
:100F6000F8942091AB023091AC024091AD025091C7
:100F7000AE028FBFB901CA0108959B01AC017FB7D2
:100F8000F8948091A7029091A802A091A902B09133
:100F9000AA0266B5A89B05C06F3F19F00196A11D76
:100FA000B11D7FBFBA2FA92F982F8827860F911DBB
:100FB000A11DB11D62E0880F991FAA1FBB1F6A9572
:100FC000D1F7BC012DC0FFB7F8948091A702909192
:100FD000A802A091A902B091AA02E6B5A89B05C0FB
:100FE000EF3F19F00196A11DB11DFFBFBA2FA92F28
:100FF000982F88278E0F911DA11DB11DE2E0880F4B
:10100000991FAA1FBB1FEA95D1F7861B970B885E15
:101010009340C8F2215030404040504068517C4FCE
:10102000211531054105510571F60895019739F0F3
:10103000880F991F880F991F02970197F1F708955C
:10104000789484B5826084BD84B5816084BD85B5A3
:10105000826085BD85B5816085BDEEE6F0E080816A
:1010600081608083E1E8F0E010828081826080838B
:10107000808181608083E0E8F0E08081816080830E
:10108000E1EBF0E0808184608083E0EBF0E0808140
:1010900081608083E1E9F0E08081826080838081EB
:1010A00081608083E0E9F0E0808181608083E1EA13
:1010B000F0E0808182608083808181608083E0EACB
:1010C000F0E0808181608083E1E2F1E080818260F4
:1010D0008083808181608083E0E2F1E080818160B3
:1010E0008083EAE7F0E08081846080838081826091
:1010F000808380818160808380818068808310927A
:10110000C1000895CF93DF93482F50E0CA0188585B
:101110009D4FFC0134914E5C5D4FFA018491882310
:1011200069F190E0880F991FFC01EC51FE4FA591E9
:10113000B491FC01E250FE4FC591D491662351F465
:101140002FB7F8948C91932F909589238C93888155
:1011500089230BC0623061F42FB7F8948C91932FE0
:10116000909589238C938881832B88832FBF06C019
:101170009FB7F8948C91832B8C939FBFDF91CF9175
:10118000089508951F920F920FB60F920BB60F920B
:1011900011242F933F934F938F939F93EF93FF933C
:1011A0008091C00082FD1DC04091C6002091F002D8
:1011B0003091F1022F5F3F4F2F7330708091F20218
:1011C0009091F3022817390771F0E091F002F09145
:1011D000F102E055FD4F40833093F1022093F0027D
:1011E00002C08091C600FF91EF919F918F914F9126
:1011F0003F912F910F900BBE0F900FBE0F901F903D
:10120000189508951F920F920FB60F920BB60F927A
:1012100011242F933F934F938F939F93EF93FF93BB
:101220008091C80082FD1DC04091CE0020917803BE
:10123000309179032F5F3F4F2F73307080917A0385
:1012400090917B032817390771F0E0917803F091B2
:101250007903E85CFC4F4083309379032093780353
:1012600002C08091CE00FF91EF919F918F914F919D
:101270003F912F910F900BBE0F900FBE0F901F90BC
:10128000189508951F920F920FB60F920BB60F92FA
:1012900011242F933F934F938F939F93EF93FF933B
:1012A0008091D00082FD1DC04091D60020910004A5
:1012B000309101042F5F3F4F2F73307080910204F3
:1012C000909103042817390771F0E0910004F09120
:1012D0000104E054FC4F4083309301042093000448
:1012E00002C08091D600FF91EF919F918F914F9115
:1012F0003F912F910F900BBE0F900FBE0F901F903C
:10130000189508951F920F920FB60F920BB60F9279
:1013100011242F933F934F938F939F93EF93FF93BA
:101320008091300182FD1DC04091360120918804DA
:10133000309189042F5F3F4F2F73307080918A0462
:1013400090918B042817390771F0E0918804F0918F
:101350008904E85BFB4F4083309389042093880421
:1013600002C080913601FF91EF919F918F914F9133
:101370003F912F910F900BBE0F900FBE0F901F90BB
:101380001895E091DC04F091DD04E05CFF4F819161
:10139000919120813181821B930B8F739070892BE7
:1013A00011F00E94C108E091FE04F091FF04E05C9E
:1013B000FF4F8191919120813181821B930B8F731B
:1013C0009070892B11F00E940109E0912005F091A5
:1013D0002105E05CFF4F8191919120813181821B39
:1013E000930B8F739070892B11F00E944109E0914B
:1013F0004205F0914305E05CFF4F8191919120817E
:101400003181821B930B8F739070892B11F00E9496
:10141000810908951F920F920FB60F920BB60F928B
:1014200011242F933F938F939F93EF93FF932091DA
:101430003403309135038091360390913703281798
:10144000390731F48091C1008F7D8093C10014C0B1
:10145000E0913603F0913703EC50FD4F20818091ED
:1014600036039091370301968F73907090933703F2
:10147000809336032093C600FF91EF919F918F9147
:101480003F912F910F900BBE0F900FBE0F901F90AA
:1014900018951F920F920FB60F920BB60F92112450
:1014A0002F933F938F939F93EF93FF932091BC03D0
:1014B0003091BD038091BE039091BF032817390777
:1014C00031F48091C9008F7D8093C90014C0E091F0
:1014D000BE03F091BF03E458FC4F20818091BE030E
:1014E0009091BF0301968F7390709093BF03809388
:1014F000BE032093CE00FF91EF919F918F913F917A
:101500002F910F900BBE0F900FBE0F901F9018954C
:101510001F920F920FB60F920BB60F9211242F93BA
:101520003F938F939F93EF93FF93209144043091C7
:10153000450480914604909147042817390731F4F7
:101540008091D1008F7D8093D10014C0E09146043A
:10155000F0914704EC5FFB4F20818091460490910D
:10156000470401968F7390709093470480934604CC
:101570002093D600FF91EF919F918F913F912F91F2
:101580000F900BBE0F900FBE0F901F9018951F92DB
:101590000F920FB60F920BB60F9211242F933F9319
:1015A0008F939F93EF93FF932091CC043091CD04C0
:1015B0008091CE049091CF042817390731F480919F
:1015C00031018F7D8093310114C0E091CE04F09100
:1015D000CF04E457FB4F20818091CE049091CF043B
:1015E00001968F7390709093CF048093CE042093D4
:1015F0003601FF91EF919F918F913F912F910F9025
:101600000BBE0F900FBE0F901F901895AF92BF9218
:10161000DF92EF92FF920F931F93CF93DF93EC0132
:101620007A018B01DD24403081EE580780E06807A5
:1016300080E0780711F0DD24D39491E0A92EB12C3D
:10164000EC89FD89DD2069F0C50108A002C0880F82
:10165000991F0A94E2F7808360E079E08DE390E0DF
:1016600005C0108260E874E88EE190E0A80197015F
:101670000E94E0112150304040405040569547951F
:101680003795279580E12030380720F0DD2011F0D4
:10169000DD24D6CFE889F9893083EA89FB89208364
:1016A00019A2EE89FF89408121E030E0C9010C8C4C
:1016B00002C0880F991F0A94E2F7482B4083EE89F5
:1016C000FF894081C9010D8C02C0880F991F0A94BF
:1016D000E2F7482B4083EE89FF894081C9010E8CD7
:1016E00002C0880F991F0A94E2F7482B4083EE89C5
:1016F000FF8980810F8C02C0220F331F0A94E2F70A
:10170000209528232083DF91CF911F910F91FF9087
:10171000EF90DF90BF90AF900895DC011C96ED91A3
:10172000FC911D97E05CFF4F219131918081918167
:10173000281B390B2F733070C9010895DC011C96EA
:10174000ED91FC911D97E05CFF4F20813181E054C9
:10175000F040DF01AE5BBF4F8D919C911197281730
:10176000390719F42FEF3FEF07C08D919C91E80FD7
:10177000F91F8081282F30E0C9010895DC011C96F3
:10178000ED91FC911D97E05CFF4F20813181E05489
:10179000F040DF01AE5BBF4F8D919C9111972817F0
:1017A000390719F42FEF3FEF10C08D919C911197DD
:1017B000E80FF91F20818D919C91119701968F73ED
:1017C000907011969C938E9330E0C9010895DC01CE
:1017D00091968C919197882339F05496ED91FC91D4
:1017E0005597808186FFF9CF91961C920895CF93EB
:1017F000DF93EC01EE85FF85E05CFF4F20813181B6
:10180000E054F0402F5F3F4F2F733070DF01AE5B2D
:10181000BF4F8D919C91119728173907D1F3E05C48
:10182000FF4F80819181E054F040E80FF91F608301
:10183000EE85FF85E05CFF4F31832083EE89FF89D1
:10184000208181E090E00F8C02C0880F991F0A94DC
:10185000E2F7282B208381E089A3EC89FD89808130
:101860008064808381E090E0DF91CF9108951F93A1
:101870001092D3041092D20428EE33E040E050E0FE
:101880002093D4043093D5044093D6045093D704C6
:1018900065E772E07093D1046093D00480EB92E02E
:1018A0009093DD048093DC0484EF92E09093DF0456
:1018B0008093DE0485EC90E09093E1048093E00453
:1018C00084EC90E09093E3048093E20480EC90E059
:1018D0009093E5048093E40481EC90E09093E70416
:1018E0008093E60482EC90E09093E9048093E8040E
:1018F00086EC90E09093EB048093EA0414E010935C
:10190000EC04B3E0B093ED04A7E0A093EE04F5E09F
:10191000F093EF04E1E0E093F0041092F5041092EC
:10192000F4042093F6043093F7044093F8045093A2
:10193000F9047093F3046093F20488E393E09093C6
:10194000FF048093FE048CE793E09093010580935D
:1019500000058DEC90E090930305809302058CECDC
:1019600090E0909305058093040588EC90E09093B7
:1019700007058093060589EC90E090930905809314
:1019800008058AEC90E090930B0580930A058EEC95
:1019900090E090930D0580930C0510930E05B09385
:1019A0000F05A0931005F0931105E0931205109216
:1019B00017051092160520931805309319054093CA
:1019C0001A0550931B05709315056093140580EC60
:1019D00093E0909321058093200584E094E0909318
:1019E00023058093220585ED90E090932505809353
:1019F000240584ED90E0909327058093260580EDE3
:101A000090E0909329058093280581ED90E09093D4
:101A10002B0580932A0582ED90E090932D0580930D
:101A20002C0586ED90E090932F0580932E05109362
:101A30003005B0933105A0933205F0933305E09360
:101A40003405109239051092380520933A053093E9
:101A50003B0540933C0550933D05709337056093DB
:101A6000360588E494E090934305809342058CE822
:101A700094E0909345058093440585E391E090932D
:101A800047058093460584E391E090934905809350
:101A9000480580E391E090934B0580934A0581E3EC
:101AA00091E090934D0580934C0582E391E09093F3
:101AB0004F0580934E0586E391E090935105809306
:101AC000500510935205B0935305A0935405F0931D
:101AD0005505E09356051F910895CF93DF930E941B
:101AE00020080E94FD01C1ECD9E00E94C3012097AB
:101AF000E1F30E94C109F9CFCF92DF92EF92FF92FA
:101B00000F931F93CF93DF937C016B018A01C0E099
:101B1000D0E00FC0D6016D916D01D701ED91FC9120
:101B20000190F081E02DC7011995C80FD91F015010
:101B300010400115110571F7CE01DF91CF911F9172
:101B40000F91FF90EF90DF90CF900895EF92FF926A
:101B50000F931F938C01DC01ED91FC910190F081BA
:101B6000E02D6DE019957C01D801ED91FC9101907B
:101B7000F081E02DC8016AE019959C012E0D3F1DF2
:101B8000C9011F910F91FF90EF900895CF93DF93BC
:101B9000EC016115710519F420E030E00FC0DB01A4
:101BA0000D900020E9F71197A61BB70BE881F9818A
:101BB0000280F381E02DAD0119959C01C901DF91EF
:101BC000CF9108954F925F927F928F929F92AF92A2
:101BD000BF92CF92DF92EF92FF920F931F93DF930A
:101BE000CF93CDB7DEB7A1970FB6F894DEBF0FBE87
:101BF000CDBF2C01742ECB01223008F42AE019A2AB
:101C000031E2C32ED12CCC0EDD1E822E9924AA24C3
:101C1000BB24672D752FA50194010E94E011790165
:101C20008A01C801B701A50194010E94C111472D85
:101C3000461B0894C108D1084A3014F4405D01C025
:101C4000495CF6014083E114F1040105110521F01E
:101C50007E2C5F2DC801DDCFC201B6010E94C60DEA
:101C6000A1960FB6F894DEBF0FBECDBFCF91DF9126
:101C70001F910F91FF90EF90DF90CF90BF90AF90AA
:101C80009F908F907F905F904F900895DC01211579
:101C9000310541F4ED91FC910190F081E02D642F2C
:101CA000199508950E94E20D0895CF92DF92EF9268
:101CB000FF920F931F93CF93DF93EC016A017B0197
:101CC0002115310541F4E881F9810190F081E02D81
:101CD000642F19951FC02A303105D1F477FF17C042
:101CE000E881F9810190F081E02D6DE219958C0178
:101CF00044275527BA014C195D096E097F09CE01A9
:101D00002AE00E94E20D9801280F391F04C02AE042
:101D10000E94E20D9C01C901DF91CF911F910F91AB
:101D2000FF90EF90DF90CF9008950E94C60D089528
:101D30007F928F929F92AF92BF92CF92DF92EF925B
:101D4000FF920F931F93CF93DF934C017A018B0186
:101D5000722ECB01BA01A80197010E94BD11882300
:101D600021F0C40163E672E021C0C0E0D0E0570179
:101D70006801E894D7F8C601B5012FEF3FEF4FE7B0
:101D80005FE70E94BD11882351F4C601B5012FEF12
:101D90003FEF4FE75FE70E940710181614F0C1E00D
:101DA000D0E0219739F0C40167E672E00E94C60DC9
:101DB000EC0193C0C801B7012FEF3FEF4FE75FE49D
:101DC0000E945611181654F0C801B7012FEF3FEFCB
:101DD0004FE75FEC0E940710882324F4C4016BE6F0
:101DE00072E0E4CFC801B70120E030E040E050E00D
:101DF0000E94071087FD03C0C0E0D0E00EC0D401F0
:101E0000ED91FC910190F081E02DC4016DE21995F6
:101E1000EC0117FB109517F9109520E030E040E039
:101E20005FE3DD240BC0CA01B90120E030E040E2ED
:101E300051E40E940B109B01AC01D394D71498F38A
:101E4000C801B7010E94A30F5B016C010E947810CA
:101E50007B018C01C401B801A7012AE030E00E9497
:101E6000460EC80FD91F772039F0C4016FE672E023
:101E70000E94C60DC80FD91FC801B7010E94A41047
:101E80009B01AC01C601B5010E94A20F24C020E055
:101E900030E040E251E40E945A117B018C010E9423
:101EA00073105B016C01CC24B7FCC094DC2CC40122
:101EB000B601A5012AE030E00E94550EC80FD91FD7
:101EC000C601B5010E94A6109B01AC01C801B70173
:101ED0000E94A20F7A947720D1F6CE01DF91CF91A4
:101EE0001F910F91FF90EF90DF90CF90BF90AF9038
:101EF0009F908F907F900895EF92FF920F931F9382
:101F00007C010E94980E8C01C7010E94A60D080F4B
:101F1000191FC8011F910F91FF90EF900895EF9244
:101F2000FF920F931F937C010E94C60D8C01C70185
:101F30000E94A60D080F191FC8011F910F91FF9055
:101F4000EF9008955058BB27AA270ED075C166D1CF
:101F500030F06BD120F031F49F3F11F41EF45BC1DF
:101F60000EF4E095E7FB51C1E92F77D180F3BA1762
:101F7000620773078407950718F071F49EF58FC107
:101F80000EF4E0950B2EBA2FA02D0B01B901900194
:101F90000C01CA01A0011124FF27591B99F0593FD8
:101FA00050F4503E68F11A16F040A22F232F342F20
:101FB0004427585FF3CF469537952795A795F0406E
:101FC0005395C9F77EF41F16BA0B620B730B840B83
:101FD000BAF09150A1F0FF0FBB1F661F771F881F3B
:101FE000C2F70EC0BA0F621F731F841F48F4879593
:101FF00077956795B795F7959E3F08F0B3CF939582
:10200000880F08F09927EE0F979587950895D9D0F6
:1020100008F481E008950CD00FC107D140F0FED044
:1020200030F021F45F3F19F0F0C0511139C1F3C015
:1020300014D198F39923C9F35523B1F3951B550B8C
:10204000BB27AA2762177307840738F09F5F5F4F8B
:10205000220F331F441FAA1FA9F333D00E2E3AF0CC
:10206000E0E830D091505040E695001CCAF729D0E6
:10207000FE2F27D0660F771F881FBB1F2617370735
:102080004807AB07B0E809F0BB0B802DBF01FF2765
:1020900093585F4F2AF09E3F510568F0B6C000C1CB
:1020A0005F3FECF3983EDCF3869577956795B7959F
:1020B000F7959F5FC9F7880F911D9695879597F9BA
:1020C0000895E1E0660F771F881FBB1F6217730733
:1020D0008407BA0720F0621B730B840BBA0BEE1F48
:1020E00088F7E095089504D06894B111D9C0089597
:1020F000BCD088F09F5790F0B92F9927B751A0F026
:10210000D1F0660F771F881F991F1AF0BA95C9F78B
:1021100012C0B13081F0C3D0B1E00895C0C0672FC4
:10212000782F8827B85F39F0B93FCCF3869577953B
:102130006795B395D9F73EF4909580957095619524
:102140007F4F8F4F9F4F0895E89409C097FB3EF44F
:1021500090958095709561957F4F8F4F9F4F9923F4
:10216000A9F0F92F96E9BB279395F6958795779572
:102170006795B795F111F8CFFAF4BB0F11F460FF32
:102180001BC06F5F7F4F8F4F9F4F16C0882311F08A
:1021900096E911C0772321F09EE8872F762F05C09E
:1021A000662371F096E8862F70E060E02AF09A9539
:1021B000660F771F881FDAF7880F9695879597F92E
:1021C0000895990F0008550FAA0BE0E8FEEF1616C8
:1021D0001706E807F907C0F012161306E407F5071B
:1021E00098F0621B730B840B950B39F40A2661F08F
:1021F000232B242B252B21F408950A2609F4A14032
:10220000A6958FEF811D811D089597F99F6780E83E
:1022100070E060E008959FEF80EC089500240A9438
:102220001616170618060906089500240A941216B1
:102230001306140605060895092E0394000C11F4E4
:10224000882352F0BB0F40F4BF2B11F460FF04C091
:102250006F5F7F4F8F4F9F4F089557FD9058440FEA
:10226000551F59F05F3F71F04795880F97FB991FF5
:1022700061F09F3F79F087950895121613061406B2
:10228000551FF2CF4695F1DF08C01616170618063F
:10229000991FF1CF86957105610508940895E8941A
:1022A000BB2766277727CB0197F908958ADF08F4C3
:1022B0008FEF08950BD0C0CFB1DF28F0B6DF18F054
:1022C000952309F0A2CFA7CF1124EACFC6DFA0F350
:1022D000959FD1F3950F50E0551F629FF001729FBB
:1022E000BB27F00DB11D639FAA27F00DB11DAA1FDA
:1022F000649F6627B00DA11D661F829F2227B00D27
:10230000A11D621F739FB00DA11D621F839FA00DB1
:10231000611D221F749F3327A00D611D231F849F01
:10232000600D211D822F762F6A2F11249F57504058
:102330008AF0E1F088234AF0EE0FFF1FBB1F661FF3
:10234000771F881F91505040A9F79E3F510570F0AC
:102350005CCFA6CF5F3FECF3983EDCF38695779594
:102360006795B795F795E7959F5FC1F7FE2B880FA7
:10237000911D9695879597F9089523DF880B990B02
:102380000895629FD001739FF001829FE00DF11DBF
:10239000649FE00DF11D929FF00D839FF00D749FDF
:1023A000F00D659FF00D9927729FB00DE11DF91F8B
:1023B000639FB00DE11DF91FBD01CF0111240895E8
:1023C000A1E21A2EAA1BBB1BFD010DC0AA1FBB1F39
:1023D000EE1FFF1FA217B307E407F50720F0A21BAB
:1023E000B30BE40BF50B661F771F881F991F1A9418
:1023F00069F760957095809590959B01AC01BD0142
:10240000CF010895EE0FFF1F0590F491E02D199470
:04241000F894FFCF6E
:1024140052657175657374696E672074656D706556
:10242400726174757265732E2E2E00444F4E4500F2
:102434004C69717569642074656D70657261747539
:1024440072652069733A200044616C6C6173205496
:10245400656D706572617475726520494320436FC0
:102464006E74726F6C204C6962726172792044657B
:102474006D6F006E616E00696E66006F7666002E89
:102484000000000000F70B7C0D8D0BBE0B9E0BE7CC
:022494000B003B
:00000001FF
