:100000000C9415010C9442010C9442010C94420191
:100010000C9442010C9442010C9442010C94420154
:100020000C9442010C9442010C9442010C94420144
:100030000C9442010C9442010C9442010C94420134
:100040000C9442010C9442010C9442010C94420124
:100050000C9442010C9442010C9442010C941B1F1D
:100060000C9442010C944A210C9492220C9442016B
:100070000C9442010C9442010C9442010C944201F4
:100080000C9442010C9442010C9442010C944201E4
:100090000C948A210C94D1220C9442010C94331CB0
:1000A0000C9442010C9442010C9442010C944201C4
:1000B0000C9442010C9442010C9442010C944201B4
:1000C0000C9442010C9442010C9442010C94CA21FC
:1000D0000C9410230C9442010C940A220C944F238C
:1000E0000C9442011F1C1F1E1F1E1F1F1E1F1E1FC0
:1000F0007C3C3E5E2B3D3F2F5B5D3B2C2A225C000F
:1001000000002100240027002A002D0030003300C9
:1001100001010000040107010A010000220025007E
:1001200028002B002E0031003400020100000501E0
:1001300008010B01000020002300260029002C00EC
:100140002F0032000001000003010601090105052E
:100150000505070508080808020202020A0A08083D
:10016000040404040101010101010101030303036B
:1001700003030303040707070C0C0C0C0C0C0C0CFA
:100180000202020206060606060606060B0B0B0B0B
:100190000B0B0B0B01021020200808102040102030
:1001A000408002010201080402010102040810203B
:1001B0004080804020100804020180040201804039
:1001C00020100804020108040201010204081020A2
:1001D000408001020408102040800000090A020843
:1001E0000B0C0D07060304010000000000000000D6
:1001F00000000000000000000000000000000000FF
:1002000000000000000011100F00000000000000BE
:1002100000000000000000000000000000000000DE
:100220008701C707CF1ABF24800111241FBECFEF5B
:10023000D1E2DEBFCDBF00E00CBF13E0A0E0B2E032
:10024000EEEAF5E500E00BBF02C007900D92A83082
:10025000B107D9F71BBE18E0A8E0B3E001C01D92BA
:10026000AE3EB107E1F712E0C8E2D2E004C0229747
:10027000FE010E94C62AC032D107C9F70E94F525A7
:100280000C94CA2A0C940000FB01DC0104C08D917F
:100290000190801921F441505040C8F7881B990BF8
:1002A0000895FC018191861721F08823D9F79927B9
:1002B00008953197CF010895FB01DC014150504072
:1002C00048F001900D920020C9F701C01D924150E5
:1002D0005040E0F708958130910541F46F5F7F4F02
:1002E00071F48CE093E00E9470060895892B39F434
:1002F0006F5F7F4F21F48CE093E00E9483060895A6
:1003000080E090E06FEF7FEF0E946B01089581E045
:1003100090E06FEF7FEF0E946B010895CF92DF9224
:10032000EF92FF920F931F93DF93CF93CDB7DEB77A
:100330002C970FB6F894DEBF0FBECDBF6E010894A8
:10034000C11CD11CC60140E050E060E070E00E949A
:10035000E8040E94631F28EE33E040E050E00E9472
:10036000A22A9B01AC0167EE73E080E090E0621B83
:10037000730B840B950B0E94711F83E061E00E9458
:1003800016210E94631F7B018C018CE093E0B80171
:10039000A7012AE030E00E94D6268CE093E060E0DE
:1003A00072E00E945B2782E698E0B801A7012AE08C
:1003B00030E00E94D62682E698E060E072E00E947B
:1003C0005B270E94B8052F83388749875A876B8738
:1003D0007C87D601FE01379686E001900D92815010
:1003E000E1F78E010F5F1F4FC8010E947905AB0135
:1003F000BC018CE093E02AE030E00E94D6268CE03D
:1004000093E060E072E00E945B278CE093E062E2A0
:100410000E942E26698170E06053784F8CE093E053
:100420004AE050E00E94E5268CE093E063E072E051
:100430000E945B278CE093E06A814AE050E00E94D2
:10044000F6268CE093E063E072E00E945B278CE08C
:1004500093E06B814AE050E00E94F6268CE093E046
:1004600065E072E00E945B278CE093E06C814AE0DB
:1004700050E00E94F6268CE093E067E072E00E9474
:100480005B278CE093E06D814AE050E00E94F62605
:100490008CE093E067E072E00E945B278CE093E0E1
:1004A0006E814AE050E00E94F6268CE093E062E222
:1004B0000E942E26C8010E947905AB01BC0182E68C
:1004C00098E02AE030E00E94D62682E698E060E0DC
:1004D00072E00E945B2782E698E062E20E942E268C
:1004E000698170E06053784F82E698E04AE050E01E
:1004F0000E94E52682E698E063E072E00E945B27B6
:1005000082E698E06A814AE050E00E94F62682E6A0
:1005100098E063E072E00E945B2782E698E06B81DE
:100520004AE050E00E94F62682E698E065E072E03C
:100530000E945B2782E698E06C814AE050E00E94CE
:10054000F62682E698E067E072E00E945B2782E68A
:1005500098E06D814AE050E00E94F62682E698E03D
:1005600067E072E00E945B2782E698E06E814AE0D5
:1005700050E00E94F62682E698E062E20E942E2673
:1005800080E00E942F206AE070E080E090E00E940E
:10059000711F80E00E942F206C0181E00E942F20BB
:1005A0006AE070E080E090E00E94711F81E00E94AC
:1005B0002F20AA2797FDA095BA2FBC01CD010E943C
:1005C0005C2923E333E343E550E40E94102A20E052
:1005D00030E040E85AE30E94102A20E030E040E09A
:1005E0005FE30E94582820E030E048EC52E40E948B
:1005F000102A20E030E040E151E40E94102A20E07F
:1006000030E040EA50E40E94C12820E030E040E0C1
:1006100052E40E9459287B018C018CE093E060E059
:1006200072E00E945B278CE093E0B6014AE050E064
:100630000E9448278CE093E060E072E00E945B2714
:100640008CE093E0A701B80122E030E00E9442284C
:1006500082E698E060E072E00E945B2782E698E024
:10066000B6014AE050E00E94482782E698E060E048
:1006700072E00E945B2782E698E0A701B80122E0C1
:1006800030E00E9442288EE00E942F206AE070E055
:1006900080E090E00E94711F8EE00E942F20AA2728
:1006A00097FDA095BA2FBC01CD010E945C299B014A
:1006B000AC016DEC7CEC8CE894E40E94C1287B01D9
:1006C0008C018CE093E060E072E00E945B278CE09C
:1006D00093E0A701B80122E030E00E94422882E6C0
:1006E00098E060E072E00E945B2782E698E0A70154
:1006F000B80122E030E00E9442288CE093E00E94A2
:10070000362682E698E00E94362683E060E00E946A
:1007100016210E94631F2091080330910903409124
:100720000A0350910B03621B730B840B950B685EDD
:10073000734080409040B0F00E94631F60930803B4
:100740007093090380930A0390930B0382E061E0A6
:100750000E9416218CE093E00E94D20682E060E0C5
:100760000E9416212C960FB6F894DEBF0FBECDBFA7
:10077000CF91DF911F910F91FF90EF90DF90CF907D
:1007800008950F931F938C0182E698E069E072E070
:100790000E945B2782E698E0B8010E94452882E02B
:1007A00061E00E941621FFCFEF92FF921F93DF932B
:1007B000CF93CDB7DEB7A8970FB6F894DEBF0FBEC4
:1007C000CDBF82E698E040E855E260E070E00E942C
:1007D0008E2382E698E00E94362682E061E00E9445
:1007E000632083E061E00E94632082E698E061E19B
:1007F00072E00E945B278AE061E00E94632087E24A
:1008000093E06AE00E94F80A882321F489E292E0EA
:100810000E94C10382E698E065E472E00E944528E8
:10082000DE011196E8EAF2E08DE001900D92815030
:10083000E1F710E07E010894E11CF11C812F6AE0D1
:100840000E94962A805D8F83812F0E94962A905D58
:10085000988787E293E0B7010E94AA088823D1F520
:10086000CE010E9667E273E0A70123E10E94D3094F
:100870008889998990930F0380930E038A899B89B5
:10088000AC89BD898093100390931103A093120348
:10089000B09313038E899F89A88DB98D809314031B
:1008A00090931503A0931603B0931703A8E1B3E048
:1008B000FE017A968DE001900D928150E1F78FA1B3
:1008C00098A59093260380932503CE010E960E944F
:1008D000830604C01F5F143609F0B0CF8CE093E0AC
:1008E0000E94C506882321F487E592E00E94C10397
:1008F00082E698E06BE672E00E945B2782E698E071
:10090000BE016F5F7F4F0E9445288FEB95E00E94EC
:100910006F1B0E94B605882361F48CE093E068E7C2
:1009200072E00E94452882E698E068E772E00E9443
:1009300045288CE093E063E872E00E94452882E657
:1009400098E063E872E00E94452880E00E942C2035
:10095000A8960FB6F894DEBF0FBECDBFCF91DF9142
:100960001F91FF90EF900895DC0187E0A03DB8074C
:1009700010F0A05DB74050E024EE30E091E007C0F9
:10098000F9018491480F511D9F5F2F5F3F4F9617CC
:10099000B8F3633038F0CD0183709070892B11F477
:1009A0004F5F5F4F8DE691E0A89F9001A99F300DAA
:1009B000B89F300D1124215030401396B695A7955D
:1009C000B695A7952A0F3B1F240F351FC90108951F
:1009D000EF92FF920F931F93CF93DF93EC017A0175
:1009E0008B0180E89CEBA2E9B7ECE80EF91E0A1F28
:1009F0001B1FC801B7012CE330E040E050E00E942B
:100A0000A22A6D83C801B7012CE330E040E050E03A
:100A10000E94A22A122F032FF42EE52E622F732F8D
:100A2000842F952F2CE330E040E050E00E94A22A72
:100A30006C83612F702F8F2D9E2D2CE330E040E0D2
:100A400050E00E94A22A122F032FF42EE52E622FCF
:100A5000732F842F952F28E130E040E050E00E9472
:100A6000A22A6B83612F702F8F2D9E2D28E130E0FD
:100A700040E050E00E94A22A60E0A3E9BEEF70E0EF
:100A8000862F90E083709070892B09F471E0E62F37
:100A9000EF5F472F50E0CA0183599E4F281739074F
:100AA00038F0CD01841B950B280F391F6E2FE7CF2F
:100AB000688341E0E42FF0E0ED51FF4F849177230C
:100AC00019F0423009F48F5F90E0542F5F5F2817D0
:100AD000390720F0281B390B452FECCF4983822F93
:100AE0008F5F8A83DF91CF911F910F91FF90EF90DD
:100AF00008950F931F938C01FC01808190E0618128
:100B000042810E94B404A0E0B0E0BC01CD0128E124
:100B100030E040E050E00E94772AF8012381620F24
:100B2000711D811D911D2CE330E040E050E00E94DA
:100B3000772AF8012481620F711D811D911D2CE31C
:100B400030E040E050E00E94772A9B01AC01F801C0
:100B50008581280F311D411D511D20583C4B4249B4
:100B6000574CB901CA011F910F91089581E0089572
:100B7000BF92CF92DF92EF92FF920F931F93DF937A
:100B8000CF9300D000D0CDB7DEB70FEB15E0C80192
:100B900068E670E00E94951AC80160E00E94171B89
:100BA000C8010E945A1BC80168E670E047E050E0A7
:100BB0000E946B1BC8010E94A81A9FE7B92EB82299
:100BC000C8010E94A81AC82EC8010E94A81AD82ECF
:100BD000C8010E94A81AC8010E94A81AE82EC801DC
:100BE0000E94A81AF82EC8010E94A81A282F30E0E7
:100BF000B4E035952795BA95E1F74AEF5FEFB90173
:100C0000649F9001659F300D749F300D1124820FF9
:100C100090E02B2D30E0A4E035952795AA95E1F7DB
:100C2000B901649F9001659F300D749F300D1124B0
:100C3000B20E2C2D30E0F4E035952795FA95E1F7CA
:100C4000B901649F9001659F300D749F300D112490
:100C5000C20E2D2D30E0E4E035952795EA95E1F7B9
:100C6000B901649F9001659F300D749F300D112470
:100C7000D20E2E2D30E074E0359527957A95E1F768
:100C8000B901649F9001659F300D749F300D112450
:100C9000E20E2F2D30E064E0359527956A95E1F757
:100CA000B901649F9001659F300D749F300D112430
:100CB000F20E282F3F2D4E2D5D2D6C2D7B2D80E0CB
:100CC00026960FB6F894DEBF0FBECDBFCF91DF9151
:100CD0001F910F91FF90EF90DF90CF90BF900895FC
:100CE000FC011382128288EE93E0A0E0B0E08483DE
:100CF0009583A683B78384ED92E091838083128EDF
:100D0000118E14860895FC0184ED92E09183808316
:100D10000895DF93CF930F92CDB7DEB7FC016983BF
:100D2000A081B18112962D913C911397BE016F5F06
:100D30007F4F41E050E0F90119950F90CF91DF917D
:100D40000895DC015996ED91FC915A97309719F46A
:100D500020E030E018C0238934894589568982858E
:100D60009385A485B585281B390B4A0B5B0B203076
:100D7000B0E83B07B0E04B07B0E05B0720F02FEF97
:100D80003FE740E050E0C9010895DC015996ED913C
:100D9000FC915A97309711F480E008958581811174
:100DA00081E00895FC01818D928D009711F00E94E1
:100DB000370F0895DF93CF930F92CDB7DEB7FC01C5
:100DC000818D928D009749F0BE016F5F7F4F41E0AA
:100DD00050E00E945810019719F02FEF3FEF03C029
:100DE0008981282F30E0C9010F90CF91DF910895BC
:100DF000EF92FF920F931F93DF93CF930F92CDB794
:100E0000DEB77C01DC0159968D919C915A97009731
:100E100019F400E010E01FC0BE016F5F7F4F41E09A
:100E200050E00E945810019719F00FEF1FEF13C008
:100E30008981082F10E0D7015996ED91FC915A97BE
:100E400042855385648575854150504060407040AF
:100E5000CF010E94710EC8010F90CF91DF911F91B9
:100E60000F91FF90EF900895CF93DF93EC01E98D00
:100E7000FA8D309761F013821282CF010E949D1289
:100E80009C01E98DFA8D82819381892B31F081E07B
:100E900090E09B838A8320E030E0C901DF91CF910D
:100EA0000895EF92FF920F931F93CF93DF93EC017E
:100EB000F62EE72E8A011B821A8288EE93E0A0E0CC
:100EC000B0E08C839D83AE83BF8384ED92E09983F1
:100ED00088838DE190E00E94E61D9A8F898F0097AC
:100EE00091F0DC018F2D9E2D9C01F9018DE1019087
:100EF0000D928150E1F7CE010C96B8014CE050E024
:100F00000E945C01188EDF91CF911F910F91FF908D
:100F1000EF9008950F931F93CF93DF938C01FB0104
:100F2000C081D181FC01EC0FFD1F80818F3209F45B
:100F3000219698012C0F3D1FA0E0B0E00BC0FA01F4
:100F4000EA0FFB1F8083119621962F5F3F4FAC3035
:100F5000B10531F0F90180818F3211F0882379F7E2
:100F6000A40FB51F1C92F801EC0FFD1F80818F327A
:100F700009F42196FB01D183C083C00FD11F888162
:100F8000811181E0DF91CF911F910F91089510920F
:100F90002C0310922D03109230031092320382E042
:100FA00090E0A0E0B0E08093330390933403A093EB
:100FB0003503B093360310924A03109254031092F3
:100FC000530384EE92E09093520380935103109266
:100FD00056030895EF92FF921F93DF93CF93CDB7FF
:100FE000DEB76D970FB6F894DEBF0FBECDBF9C0184
:100FF000AB011C821B8284EE92E09A8389831E825D
:101000007E010894E11CF11CC701B90121E00E9496
:10101000C914182F882319F0C7010E94810F812F4E
:101020006D960FB6F894DEBF0FBECDBFCF91DF91A6
:101030001F91FF90EF9008952F923F924F925F92F1
:101040006F927F928F929F92BF92CF92DF92EF9298
:10105000FF920F931F93DF93CF93CDB7DEB7C954A1
:10106000D0400FB6F894DEBF0FBECDBF1C017B0190
:101070002A0139011B8A1A8A84EE92E0998B888BA7
:101080001D8A18AA1FA69EA78DA71AAA1A821982BE
:101090008B0120E1C22ED12CCC0EDD1E93E0892ED7
:1010A000912C8C0E9D1E03C0C80186016C01C101EC
:1010B000BE016F5F7F4FA4010E948A07B82E40E0F7
:1010C000882309F441E0C801B4019301F2011995A4
:1010D000882339F40E151F0519F1C8010E94810FEC
:1010E0001FC0BB20A9F0C601B801A40121E00E94E5
:1010F000C914B82E0E151F0519F0C8010E94810FE2
:10110000BB2071F00E151F0579F6CE018D96CDCF5F
:101110000E151F0519F0C8010E94810F81E001C062
:1011200080E0C75BDF4F0FB6F894DEBF0FBECDBFC8
:10113000CF91DF911F910F91FF90EF90DF90CF90B3
:10114000BF909F908F907F906F905F904F903F9057
:101150002F9008959B01BC01665D7F4FC9014AEE47
:1011600057E020E030E00E941C0808952F923F9243
:101170004F925F926F927F928F929F92AF92BF92A7
:10118000CF92DF92EF92FF920F931F93DF93CF9353
:10119000CDB7DEB7C754D0400FB6F894DEBF0FBE50
:1011A000CDBF582E492EFB013A01190184A595A502
:1011B000998B888B24EE32E03F872E8786A58A8B19
:1011C00087A58B8B80A991A9A2A9B3A98C8B9D8B94
:1011D000AE8BBF8B84A995A9A6A9B7A9888F998F33
:1011E000AA8FBB8F80AD91ADA2ADB3AD8C8F9D8F1B
:1011F000AE8FBF8F84AD88A3FD9681919191A1910F
:10120000B19189A39AA3ABA3BCA381919191A19120
:10121000B1918DA39EA3AFA3B8A7808191819AA716
:1012200089A71EA61DA63CA72BA718AA7A018E0186
:10123000025F1F4F3BE2A32EB12CAC0EBD1E4E0130
:101240000894811C911C35C0D7018C918F3221F4F8
:101250000894E11CF11C2DC0422F4E194D3008F0AE
:101260004CE0C42EDD24C401B701A6010E945C013C
:10127000F401EC0DFD1D1082C5010E94810FC50116
:10128000B801A40121E00E94C914882351F4E52D7E
:10129000F42D1382128284EE92E091838083158272
:1012A00066C0EC0CFD1CC8010E94810FC5015801ED
:1012B0008C01C7016FE270E00E9451019C01009710
:1012C00019F6E618F708F101F182E082E52DF42D18
:1012D000D80112968D919C9113979383828384EE0B
:1012E00092E09183808314968C9114978483159651
:1012F0008C911597858316962D913D914D915C911A
:10130000199726833783408751871A962D913D91EF
:101310004D915C911D9722873387448755871E9690
:101320002D913D914D915C91519726873787408B48
:10133000518B52968C915297828B53962D913D9161
:101340004D915C915697238B348B458B568B5796DA
:101350002D913D914D915C915A97278B308F418F04
:10136000528F5B968D919C915C97948F838F852D86
:10137000942DC95BDF4F0FB6F894DEBF0FBECDBF13
:10138000CF91DF911F910F91FF90EF90DF90CF9061
:10139000BF90AF909F908F907F906F905F904F9095
:1013A0003F902F9008959F92AF92BF92CF92DF927D
:1013B000EF92FF920F931F93DF93CF93CDB7DEB7DA
:1013C000C657D0400FB6F894DEBF0FBECDBFC82EB3
:1013D000992E8A01D22E43E0A42EB12CAC0EBD1E54
:1013E000C501A8019E012F5F3F4F0E94B608E9800A
:1013F000FA80E00EF11EF701808144EE52E028856C
:10140000882309F03FC08D819E819BA38AA359A3A5
:1014100048A38F818CA32DA389859A85AB85BC8534
:101420008EA39FA3A8A7B9A78D859E85AF85B889F0
:101430008AA79BA7ACA7BDA789899A89AB89BC89D4
:101440008EA79FA7A8ABB9AB8D898AAB8E899F89E0
:10145000A88DB98D8BAB9CABADABBEAB8A8D9B8D94
:10146000AC8DBD8D8FAB98AFA9AFBAAF8E8D9F8D70
:101470009CAF8BAF8C2D992DBE01605E7F4F45EBED
:1014800052E09FC0FE01FF96118210825EAF4DAF09
:10149000FE01EE5BFF4F10822223A9F02250CE0105
:1014A000CD96223048F461E573E0A7012D2D0E940E
:1014B000C914882381F407C0B501A7012D2D0E940E
:1014C000C914882329F48C2D992D0E9470067BC0A5
:1014D000C5010E94810FF6E0DF2259F0FE01E05BBA
:1014E000FF4F4081518162817381CE01CD960E9470
:1014F000710E9E01265A3F4FFE01FF968081918119
:10150000F9019383828384EE92E091838083FE01CC
:10151000EF5BFF4F8081F9018483FE01EE5BFF4F9B
:101520008081F9018583FE01ED5BFF4F8081918110
:10153000A281B381F90186839783A087B187FE01D9
:10154000E95BFF4F80819181A281B381F90182879C
:101550009387A487B587FE01E55BFF4F808191816A
:10156000A281B381F90186879787A08BB18BFE0199
:10157000E15BFF4F8081F901828BFE01E05BFF4F51
:1015800080819181A281B381F901838B948BA58B9A
:10159000B68BFE01EC5AFF4F80819181A281B3810D
:1015A000F901878B908FA18FB28FFE01E85AFF4F10
:1015B00080819181F901948F838F8C2D992DB901B0
:1015C000A7010E9451078C2D992DCA58DF4F0FB6E5
:1015D000F894DEBF0FBECDBFCF91DF911F910F9169
:1015E000FF90EF90DF90CF90BF90AF909F900895C5
:1015F0000F931F93CF93DF93EC01462F61E00E947E
:101600005D0D8823D1F08E01045F1F4FC801BE011C
:1016100041E00E946A16882339F4C801BE0140E007
:101620000E946A16882349F0CE018A96B8010E946A
:10163000B711882319F081E001C080E0DF91CF91DC
:101640001F910F910895FC01673020F086E185839A
:1016500080E00895262F30E060FD02C0663019F466
:101660008DB58E7F02C08DB581608DBD8CB58C7FB0
:101670008CBD4CB522FD02C090E001C092E03695D1
:101680002795822F8170842B892B8CBD81E0089552
:10169000FF920F931F93CF93DF938B010E94631FE1
:1016A000EB01FF24FA94FEBC0DB407FEFDCF8EB50E
:1016B0008F3F11F481E008C00E94631F6C1B7D0BFB
:1016C0006017710780F380E0DF91CF911F910F9138
:1016D000FF900895FC01848160E00E941621089526
:1016E000FC01848161E00E9416210895DC016EBD39
:1016F000FA0120E030E00DB407FEFDCF80818EBD01
:101700000DB407FEFDCF81818EBD2E5F3F4F329617
:1017100082E02030380779F70DB407FEFDCF8FEF58
:101720008EBD0DB407FEFDCF8FEF8EBD0DB407FE4D
:10173000FDCF8FEF8EBD0DB407FEFDCF8EB51A968F
:101740008C931A978F71853011F481E0089581E1AF
:1017500015968C931597CD010E94700B80E008952B
:10176000FF920F931F93CF93DF93EC010E94631FAF
:101770008B01FF24FA9409C00E94631F601B710B48
:101780006D52714010F08FE00DC0FEBC0DB407FE2D
:10179000FDCF8EB58A878F3F79F38E3F11F481E0BC
:1017A00006C08DE08D83CE010E94700B80E0DF913A
:1017B000CF911F910F91FF900895CF93DF93EC018C
:1017C0008E818823D1F08FEF8EBD2F8138854FEF2A
:1017D00004C00DB407FEFDCF4EBD2F5F3F4FC901C2
:1017E000019781509240A8F338872F830DB407FEEC
:1017F000FDCFCE010E94700B1E82DF91CF91089524
:10180000DF92EF92FF920F931F93CF93DF93EC0140
:10181000D62E79018A010E94DD0BCE010E946A0B4F
:10182000CE016CE271E00E94480B8D2D80648EBD6C
:101830000DB407FEFDCF28E130E0D801C701022E2C
:1018400004C0B695A795979587950A94D2F78EBD53
:101850000DB407FEFDCF285030408FEF283F3807EA
:1018600061F7DD2011F485E906C088E0D81611F48F
:1018700087E801C08FEF8EBD0DB407FEFDCF90E06D
:101880002FEF2EBD0DB407FEFDCF8EB587FF02C032
:101890009150B9F78A87DF91CF911F910F91FF90F7
:1018A000EF90DF900895CF92DF92EF92FF920F9327
:1018B0001F93CF93DF93EC017A018B0169014115EE
:1018C00051056105710511F482E137C08B858330C4
:1018D00039F029E0EE0CFF1C001F111F2A95D1F7EB
:1018E000CE0168E1A80197010E94000C882311F045
:1018F00084E023C0CE016EEFA6010E94760B882300
:10190000E9F0CE0168E572E00E94480B882311F4EB
:1019100085E113C0CE016DE020E030E040E050E012
:101920000E94000C882341F48FEF8EBD0DB407FE9A
:10193000FDCF8EB5882379F084E18D83CE010E949E
:10194000700B80E0DF91CF911F910F91FF90EF908E
:10195000DF90CF900895CE010E94700B81E0F2CF0E
:101960008F929F92AF92BF92CF92DF92EF92FF92AF
:101970000F931F93CF93DF93EC015A016B01490141
:101980000115110509F47BC0C801820F931F815016
:10199000924008F06FC08E81882371F08881998110
:1019A000AA81BB81481759076A077B0729F48F81F1
:1019B00098858816990618F5A882B982CA82DB82B2
:1019C0008B85833039F069E0AA0CBB1CCC1CDD1C74
:1019D0006A95D1F7CE0161E1A60195010E94000C44
:1019E000882319F083E08D8345C0CE010E94B00B9F
:1019F000882309F43FC018861F8281E08E838FEF11
:101A00008EBD8F8198852FEF05C00DB407FEFDCFE9
:101A10002EBD019688159905C0F398878F83D8014C
:101A2000119720E030E09FEF0BC00DB407FEFDCF13
:101A30008EB5F701E20FF31F80839EBD2F5F3F4FEE
:101A40002A173B0790F30DB407FEFDCF8EB5AE0D00
:101A5000BF1D8C932F813885200F311F38872F832E
:101A60008985882319F02050324048F0CE010E9429
:101A7000DD0B05C0CE010E94700B80E001C081E04B
:101A8000DF91CF911F910F91FF90EF90DF90CF905A
:101A9000BF90AF909F908F900895EF92FF920F9319
:101AA0001F93790120E030E000E012E00E94B00CCA
:101AB0001F910F91FF90EF900895BF92CF92DF9208
:101AC000EF92FF920F931F93CF93DF93EC01B62E0B
:101AD0001B8619861E821D824C830E94631F6B0128
:101AE0008C8161E00E946320CE010E94700B82E332
:101AF00060E00E94632083E361E00E94632084E34E
:101B000061E00E94632085E361E00E94632085E339
:101B100061E00E94162183E58CBD8DB58E7F8DBD61
:101B200080E09FEF9EBD0DB407FEFDCF8F5F8A3032
:101B3000C9F7CE010E946A0B09C00E94631F6C198D
:101B40007D09615D774010F081E05EC0CE0160E00C
:101B500020E030E040E050E00E94000C182F8A871F
:101B6000813059F7CE0168E02AEA31E040E050E0E8
:101B70000E94000C82FF02C01B8711C080E02FEF83
:101B80002EBD0DB407FEFDCF9EB58F5F8430C1F72B
:101B90009A879A3A11F082E037C082E08B878B8572
:101BA000823021F0EE24FF2487010FC0E12CF12CBC
:101BB000012DF0E41F2F09C00E94631F6C197D09DD
:101BC000615D774010F088E01FC0CE0167E320E040
:101BD00030E040E050E00E94000CCE0169E2A80134
:101BE00097010E94000C8A87882331F78B85823009
:101BF00031F5CE016AE320E030E040E050E00E94A1
:101C0000000C882339F086E08D83CE010E94700B92
:101C100080E01CC08FEF8EBD0DB407FEFDCF8EB5EA
:101C2000807C803C11F483E08B8780E09FEF9EBD39
:101C30000DB407FEFDCF2EB58F5F8330C1F7CE0107
:101C40000E94700BCE016B2D0E94230BDF91CF9170
:101C50001F910F91FF90EF90DF90CF90BF9008956C
:101C6000CF93DF93EC01DB0180E090E020E2FD0107
:101C7000E80FF91F208301968B309105C1F757E0DB
:101C800040E021C02E3219F080EF90E007C05A30BA
:101C900019F15AE048E017C03217F1F0FC01019643
:101CA00034913323C9F75417B8F02132A8F02F37F5
:101CB00098F4822F81568A3108F42052FD01E40FF6
:101CC000F11D20834F5F29912223E1F690E08C9152
:101CD000803219F091E001C090E0892FDF91CF911F
:101CE00008956F927F928F929F92AF92BF92CF9200
:101CF000DF92EF92FF920F931F93CF93DF93EC014C
:101D00007A018B012D81222309F480C08B899C8963
:101D1000AD89BE8984179507A607B70708F476C072
:101D200085C0E114F1040105110549F41E821F82EA
:101D3000188619861A861B861C861D8665C02A850C
:101D40003B854C855D85EB8DFC8D858590E0099606
:101D5000215030404040504039014A01082E04C013
:101D600096948794779467940A94D2F72F5F3F4FA5
:101D70004F4F5F4F0894E108F1080109110957011D
:101D8000680104C0D694C794B794A7948A95D2F7F3
:101D90000894E11CF11C011D111DA614B704C80410
:101DA000D90428F0211531054105510549F48F89E1
:101DB000988DA98DBA8D8E839F83A887B98716C009
:101DC000A618B708C808D90811C04E815F81688578
:101DD00079858B8D9C8D94010E944B180894A108E5
:101DE000B108C108D108882331F410C086E0882EDC
:101DF000912C8C0E9D1EA114B104C104D10429F7AD
:101E0000EA86FB860C871D8781E001C080E0DF91B8
:101E1000CF911F910F91FF90EF90DF90CF90BF90E7
:101E2000AF909F908F907F906F900895223009F02F
:101E300078CFE6CFCF93DF93EC01462F6E857F8579
:101E4000888999890E942F16882319F420E030E0B0
:101E50000AC08A89282F30E095E0220F331F9A9517
:101E6000E1F72E583C4FC901DF91CF9108950F93B0
:101E70001F93CF93DF938C01FC0185818823D9F1D7
:101E8000848187FF35C0C80161E00E941A0FEC0110
:101E9000009789F1F8018581823040F48389948923
:101EA000A589B6898C8F9D8FAE8FBF8FF8018789EA
:101EB000908D9B8F8A8F8789908DA18DB28DCD015A
:101EC000AA27BB279D8B8C8BE0917003F091710347
:101ED000309751F0BE016A5E7F4FCE01489619954A
:101EE000888D998D9B8B8A8BF80184818F77848371
:101EF0000E94D01501C080E0DF91CF911F910F911A
:101F00000895CF93DF93EC010E94370F882311F0DF
:101F10001D8281E0DF91CF9108956F927F928F9221
:101F20009F92AF92BF92CF92DF92EF92FF920F9368
:101F30001F93DF93CF9300D00F92CDB7DEB77C0114
:101F40005A016B01DC0115968C911597813009F0CF
:101F50008FC014968C9181FF8BC09EC00097A10505
:101F6000B10511F481E085C0F70162847384848433
:101F70009584C701B601A5010E94710E882309F45A
:101F800077C0D7015B968D919C915C97A114B104A9
:101F9000C104D10489F457964D915D916D917C9166
:101FA0005A970E94BE18882309F462C0F701178A65
:101FB000108E118E128E3DC0D70116964D915D91F7
:101FC0006D917C9119979E012F5F3F4F0E944B1896
:101FD000882309F44DC0D7015B96ED91FC915C9785
:101FE00049815A816B817C818789803129F088EF12
:101FF0009FEFAFEFBFE004C088EF9FEFA0E0B0E03D
:10200000481759076A077B07A0F4CF010E94BE1842
:10201000882371F1F7014681578160857185838D31
:10202000948D0FEF1FEF2FEF3FE00E94AF17882333
:10203000F9F0D7015396AD92BD92CD92DC925697AE
:1020400014968C911497806814968C93C7010E9403
:10205000370F882369F0B601A5016A147B048C044C
:102060009D0410F4B401A301C7010E94710E01C0C8
:1020700080E00F900F900F900F90CF91DF911F9104
:102080000F91FF90EF90DF90CF90BF90AF909F9017
:102090008F907F906F900895F70183899489A58927
:1020A000B68984179507A607B70708F057CFE0CF82
:1020B0002F923F924F925F926F927F928F929F9258
:1020C000AF92BF92CF92DF92EF92FF920F931F9346
:1020D000CF93DF93EC012A018D81882309F4C6C0D8
:1020E0008C8180FFC3C0D8C025014E185F084B010A
:1020F00076E0272E312C2C0E3D1E3201B1C02A85F0
:102100003B854C855D856FEFA62E61E0B62EA22241
:10211000B3228D8179018A0199E016950795F7948C
:10212000E7949A95D1F7EB8DFC8D823049F4428D7E
:10213000538D648D758D4E0D5F1D601F711F3FC0E7
:10214000D480DA94DE20A114B104D9F4DD20C9F4DE
:10215000211531054105510549F48F89988DA98DC7
:10216000BA8D8E839F83A887B9870BC04E815F810C
:1021700068857985CF0191010E944B18882309F465
:1021800075C0EB8DFC8D4E815F81688579854250ED
:10219000504060407040058404C0440F551F661FC6
:1021A000771F0A94D2F786859785A089B189480F51
:1021B000591F6A1F7B1F4D0D511D611D711D80E050
:1021C00092E08A199B0963018615970508F46C0152
:1021D0008C8186FD06C080E0C81682E0D80609F032
:1021E00073C08091C5029091C602A091C702B091C0
:1021F000C802481759076A077B0709F465C0809130
:102200007205909173059501860174010E94B00CCE
:10221000882361F18C0C9D1C12C095012E583C4FF7
:10222000A9014C0D5D1DD401F90102C081918D936E
:10223000E417F507D9F7E21BF30B8E0E9F1E9601EC
:1022400040E050E08A859B85AC85BD85820F931F59
:10225000A41FB51F8A879B87AC87BD876C187D0834
:102260006114710409F04BCFA20102C04FEF5FEF80
:10227000CA01DF91CF911F910F91FF90EF90DF90F6
:10228000CF90BF90AF909F908F907F906F905F9016
:102290004F903F902F900895AB88BC88CD88DE8802
:1022A000EA84FB840C851D859A0140E050E0D6014C
:1022B000C5018E199F09A00BB10B82179307A407C4
:1022C000B50708F411CF13CFCB01BA0140E00E944B
:1022D0002F16882309F0A1CFC9CFCF92DF92EF92BA
:1022E000FF920F931F93DF93CF930F92CDB7DEB77B
:1022F0006C01FC018581823070F0E284F3840485F6
:102300001585C601BE016F5F7F4F41E050E00E941E
:102310005810019769F020E030E0C9010F90CF918B
:10232000DF911F910F91FF90EF90DF90CF90089574
:10233000F60182859385A485B5854F96A11DB11DB3
:1023400082879387A487B587F5E016950795F7945C
:10235000E794FA95D1F78E2D8F70282F30E0E5E0C5
:10236000220F331FEA95E1F72E583C4FD6CF0F933B
:102370001F93CF93DF93EC018B018D81882309F0AC
:1023800041C0FB0187898031B1F482E08D831F8ACF
:10239000188E198E1A8E808D918DA0E0B0E045E0E8
:1023A000880F991FAA1FBB1F4A95D1F78B8B9C8B57
:1023B000AD8BBE8B15C0803229F583E08D83FB0188
:1023C000428D538D648D758D4F8B588F698F7A8FA9
:1023D0009E012D5E3F4FC8010E941719882391F07E
:1023E0001C8F0B8F81E08C831E821F8218861986BA
:1023F0001A861B861C861D861E861F86188A198AC9
:102400001A8A01C080E0DF91CF911F910F9108954A
:102410001F93CF93DF93EC01142FE62FF0E075E0CC
:10242000EE0FFF1F7A95E1F7EE58FC4F838581711F
:1024300021F0842F827409F054C06A8B8091C50208
:102440009091C602A091C702B091C8028E879F8763
:10245000A88BB98B84899589A0E0B0E0BC01552791
:102460004427828D938DA0E0B0E0482B592B6A2B36
:102470007B2B4F8B588F698F7A8F838590E0887183
:102480009070009751F4848D958DA68DB78D8B8BB0
:102490009C8BAD8BBE8B81E00CC0409711F59E01EB
:1024A0002D5E3F4F8B8D9C8D0E9417198823C9F09C
:1024B00084E08D83812F8F708C831E821F8218860B
:1024C00019861A861B861C861D8616FD02C081E0B1
:1024D00009C0CE0140E050E060E070E00E948D0F46
:1024E00001C080E0DF91CF911F910895CF93DF93DA
:1024F000EC019C012A5F3F4F8B8D9C8D41E050E0A9
:1025000060E070E00E9486198823A1F08F89988D81
:10251000A98DBA8D0097A105B10559F48E819F81CF
:10252000A885B9858F8B988FA98FBA8F8C81806889
:102530008C8381E0DF91CF9108952F923F924F924B
:102540005F927F928F929F92AF92BF92CF92DF92D3
:10255000EF92FF920F931F93DF93CF9300D000D0A1
:10256000CDB7DEB76C01162F072F5E834D83DC01DC
:1025700015968C911597813009F070C114968C9145
:1025800081FF6CC18EC1F6014389548965897689C2
:1025900082859385A485B58584179507A607B70717
:1025A00031F0C6010E94710E882309F457C1812FB2
:1025B000902F9C0129012D803E8017C1D6015B968A
:1025C000ED91FC915C97DA01C90119E0B695A795E8
:1025D000979587951A95D1F774807A9478227FEF32
:1025E000872E71E0972E82229322772009F04EC029
:1025F0008114910409F04AC0D60116964D915D915F
:102600006D917C911997411551056105710581F412
:1026100057968D919D910D90BC91A02D0097A1058D
:10262000B10549F1F60186839783A087B1872EC053
:10263000CF019E012F5F3F4F0E944B18882309F462
:1026400014C129813A814B815C81D6015B96ED9161
:10265000FC915C978789803129F088EF9FEFAFEF7D
:10266000BFE004C088EF9FEFA0E0B0E02817390773
:102670004A075B0730F0C6010E947612882331F4C6
:10268000EDC0F601268337834087518780E092E0D2
:102690008819990951018215930508F45C01D60146
:1026A0005B96ED91FC915C971696ED90FD900D91E7
:1026B0001C9119978EEF9FEFAFEFBFEFE80EF91E59
:1026C0000A1F1B1F058404C0EE0CFF1C001F111FF6
:1026D0000A94D2F786859785A089B189E80EF91EFC
:1026E0000A1F1B1FE70CF11C011D111D90E0A9160C
:1026F00092E0B90651F58091C5029091C602A09171
:10270000C702B091C8028E159F05A007B10761F4FA
:102710008FEF9FEFAFEFBFEF8093C5029093C6029C
:10272000A093C702B093C80280917205909173057F
:10273000B801A70192010E94530C882309F48EC0AE
:10274000A0E0B2E04A0E5B1E3EC08114910409F580
:10275000F601228533854485558583899489A58929
:10276000B689281739074A075B0798F00E94D015E9
:10277000882309F473C0E092C502F092C602009368
:10278000C7021093C802809174058160809374051C
:1027900008C0C801B70141E00E942F16882309F440
:1027A0005DC094012E583C4FA9014A0D5B1DD2011A
:1027B000F90102C08D918193E417F507D9F7E21B67
:1027C000F30B4E0E5F1E2A183B08950140E050E0C7
:1027D000F60182859385A485B585820F931FA41F7A
:1027E000B51F82879387A487B587D6011A962D9146
:1027F0003D914D915C911D972114310409F0DECE7D
:1028000053968D919D910D90BC91A02D82179307A9
:10281000A407B50748F4F601238B348B458B568B00
:1028200084818068848311C08091700390917103CA
:10283000892B59F08D819E81892B39F0D601149610
:102840008C911497806814968C93F601848183FF91
:102850000EC0C6010E94370F882349F481E090E042
:10286000D60113969C938E9312971E821D828D81A2
:102870009E8126960FB6F894DEBF0FBECDBFCF91D6
:10288000DF911F910F91FF90EF90DF90CF90BF905D
:10289000AF909F908F907F905F904F903F902F9040
:1028A000089582FD70CE83CEDF93CF930F92CDB784
:1028B000DEB76983BE016F5F7F4F41E050E00E9449
:1028C0009D120F90CF91DF910895DF92EF92FF92CA
:1028D0000F931F93CF93DF93EC010E94761288230E
:1028E00009F44EC0EB8DFC8DEE80FF8008851985C4
:1028F0008EEF9FEFAFEFBFEFE80EF91E0A1F1B1F11
:10290000058404C0EE0CFF1C001F111F0A94D2F7AF
:1029100086859785A089B189E80EF91E0A1F1B1FBD
:10292000D4800894E108F108010911090BC0C8011D
:10293000B7016D0D711D811D911D0E940B1688231D
:10294000F9F0DA94DD2099F7EB8DFC8D20E032E090
:1029500040E050E0058404C0220F331F441F551F80
:102960000A94D2F78B899C89AD89BE89820F931F07
:10297000A41FB51F8B8B9C8BAD8BBE8B81E001C0E0
:1029800080E0DF91CF911F910F91FF90EF90DF904A
:1029900008956F927F928F929F92AF92BF92CF9243
:1029A000DF92EF92FF920F931F93DF93CF93CDB7F8
:1029B000DEB72B970FB6F894DEBF0FBECDBF5C011C
:1029C0006B01822EDC0115968C91882309F0D2C010
:1029D000CA018E010F5F1F4FB8010E94300E88237D
:1029E00009F4C8C0F601838D948DD5015C969C9343
:1029F0008E935B971682178210861186D6011A96DF
:102A00001D921D921D921C921D979924380141C060
:102A1000C6010E946D11FC01009709F4ABC085E06E
:102A200016950795F794E7948A95D1F71E2D1F7098
:102A30008081882311F0853ED1F4992091F4D5014D
:102A400052961C9352972091C5023091C602409134
:102A5000C7025091C8021E962D933D934D935C93EF
:102A600051978081882399F49924939421C0C301BC
:102A7000BF014BE050E00E944401009751F4882DC3
:102A80008073803309F476C0C501612F6FC099242B
:102A90009394F601E284F3840485158583899489EF
:102AA000A589B689E816F9060A071B0708F4B0CF0E
:102AB000882D8271823109F05DC0992041F0C501F5
:102AC00061E00E941A0F8C01009789F453C0D6016F
:102AD00015968C91823009F44DC0C6010E94651490
:102AE000882309F447C0F501128A02E713E080E267
:102AF000D8011D928A95E9F7D801FE0131968BE045
:102B000001900D928150E1F7E0917003F091710313
:102B1000309739F0B801625F7F4FC8014096199530
:102B200009C081E298E2F801918B808B80E098E007
:102B300097878687D80150968D919C91519753968F
:102B40009C938E93529759969C938E9358971E966A
:102B50008D919C911F9757969C938E9356970E94A8
:102B6000D015882339F0C501F5016289482D0E94EE
:102B7000081201C080E02B960FB6F894DEBF0FBE9E
:102B8000CDBFCF91DF911F910F91FF90EF90DF901C
:102B9000CF90BF90AF909F908F907F906F9008954F
:102BA00080917405882399F14091C5025091C60225
:102BB0006091C7027091C80280917205909173056F
:102BC00022E733E00E94530C882319F140917505E8
:102BD0005091760560917705709178054115510502
:102BE0006105710591F0809172059091730522E75E
:102BF00033E00E94530C882361F010927505109207
:102C0000760510927705109278051092740581E090
:102C1000089580E00895EF92FF920F931F937B0138
:102C20008C010E94D0158823A9F0E2E7F3E011920D
:102C300085E0E237F807D9F7E092C502F092C602C4
:102C40000093C7021093C80280917405816080933D
:102C5000740581E01F910F91FF90EF900895DF922E
:102C6000EF92FF920F931F937B018C01D42E8091E2
:102C7000C5029091C602A091C702B091C8028E15FC
:102C80009F05A007B107C1F00E94D0158823D9F095
:102C90008091720590917305B801A70122E733E096
:102CA0000E944D0D882379F0E092C502F092C60291
:102CB0000093C7021093C802809174058D298093F8
:102CC000740581E001C080E01F910F91FF90EF90AB
:102CD000DF9008958F929F92AF92BF92CF92DF9232
:102CE000EF92FF920F931F93CF93DF936C01142FFA
:102CF0007093730560937205442321F4882499240A
:102D0000540140C0453008F01CC160E070E080E034
:102D100090E040E00E942F16882309F412C1C12FD1
:102D2000D0E02197FE0174E0EE0FFF1F7A95E1F7E6
:102D3000EE58FC4FE254FE4F8081EE5BF14090E094
:102D40008F779070892B09F0FCC0E653FE4F80818D
:102D50009181A281B38184369105A105B10508F462
:102D6000F0C064E0CC0FDD1F6A95E1F7C85CDA4F74
:102D700088809980AA80BB8081149104A104B10449
:102D800009F4DFC0C501B40140E00E942F1688237A
:102D900009F4D7C080917D0390917E0380509240CA
:102DA00009F0CFC020918203222309F4CAC0809188
:102DB000800390918103892B09F4C3C080917F0324
:102DC000882309F4BEC0F601228B80917F0384839F
:102DD000158661E070E007C04F5FF60145874150FE
:102DE000483008F0AEC0F6014585848190E09B0133
:102DF000042E02C0220F331F0A94E2F782179307B2
:102E000059F720918803309189032115310519F074
:102E100040E050E008C02091960330919703409124
:102E2000980350919903F601258336834783508791
:102E3000E0908003F090810300E010E0E80CF91CC2
:102E40000A1D1B1DE38AF48A058B168B8091830370
:102E500090918403918F808F6091820370E080E075
:102E600090E00E94772A6E0D7F1D801F911FF60152
:102E7000628F738F848F958F2091830330918403A9
:102E800055E0220F331F5A95E1F721503E4F232F73
:102E90003327269540E050E0260F371F481F591F63
:102EA00026873787408B518B8091850390918603CD
:102EB000009719F0A0E0B0E008C0809192039091D3
:102EC0009303A0919403B091950385017401E21AD4
:102ED000F30A040B150BA8019701280F391F4A1F8D
:102EE0005B1FF601058404C05695479537952795D5
:102EF0000A94D2F72187328743875487253FFFE022
:102F00003F07F0E04F07F0E05F0710F48CE006C0E9
:102F1000255F3F4F4040504028F480E1F601878B09
:102F200081E010C080919E0390919F03A091A00327
:102F3000B091A103F601828F938FA48FB58F80E2A9
:102F4000EECF80E0DF91CF911F910F91FF90EF9036
:102F5000DF90CF90BF90AF909F908F9008954F9249
:102F60005F926F927F928F929F92AF92BF92CF9219
:102F7000DF92EF92FF920F931F93CF93DF93EC01B9
:102F80006A017B0128013901423051056105710553
:102F900008F46FC089859A85AB85BC850196A11D13
:102FA000B11D84179507A607B70708F462C02B89DF
:102FB0003C894D895E898F89803129F499278F2D2D
:102FC0007E2D6D2D09C0C701B60117E09695879536
:102FD000779567951A95D1F74B015C01820E931E88
:102FE000A41EB51E8091C5029091C602A091C70291
:102FF000B091C80288169906AA06BB0639F0C50129
:10300000B40140E00E942F16882399F18F89803106
:1030100049F4F601F070EE0FFF1FEE58FC4F51829D
:1030200040820DC0F601EF77F070EE0FFF1FEE0F3C
:10303000FF1FEE58FC4F4082518262827382809162
:1030400074058160809374058A89823080F08D8157
:103050009E81AF81B885880E991EAA1EBB1E8092E4
:10306000750590927605A0927705B092780581E07B
:1030700001C080E0DF91CF911F910F91FF90EF9001
:10308000DF90CF90BF90AF909F908F907F906F9088
:103090005F904F900895CF92DF92EF92FF920F933F
:1030A0001F93CF93DF93EC017A018B01690189852E
:1030B0009A85AB85BC850196A11DB11D8417950726
:1030C000A607B70708F450C02B893C894D895E8953
:1030D0008F89803129F49927812F702F6F2D09C096
:1030E000C801B701E7E09695879577956795EA95CA
:1030F000D1F7260F371F481F591F8091C5029091A5
:10310000C602A091C702B091C802281739074A0722
:103110005B0739F0CA01B90140E00E942F168823ED
:1031200019F18F89803159F4F701F070EE0FFF1F0C
:10313000EE58FC4F80819181A0E0B0E00EC0F70115
:10314000EF77F070EE0FFF1FEE0FFF1FEE58FC4FF2
:1031500080819181A281B381BF70F60180839183C8
:10316000A283B38381E001C080E0DF91CF911F9102
:103170000F91FF90EF90DF90CF900895AF92BF92A4
:10318000CF92DF92EF92FF920F931F93DF93CF9333
:1031900000D00F92CDB7DEB76C017A018B0182E0CF
:1031A00090E0A0E0B0E0F60180839183A283B38336
:1031B0005E010894A11CB11CC601B801A7019501CC
:1031C0000E944B18882319F1C601B801A70100E03D
:1031D00010E020E030E00E94AF178823C1F0E980C2
:1031E000FA800B811C81F6018789803129F088EFF4
:1031F0009FEFAFEFBFE004C088EF9FEFA0E0B0E02B
:10320000E816F9060A071B07B8F281E001C080E062
:103210000F900F900F900F90CF91DF911F910F9112
:10322000FF90EF90DF90CF90BF90AF9008954F92B6
:103230005F926F927F928F929F92AF92BF92CF9246
:10324000DF92EF92FF920F931F93DF93CF9300D003
:103250000F92CDB7DEB76C0149835A836B837C83B1
:103260003901EE24FF2487012E010894411C511CD2
:10327000812CA2E09A2EA12CB12C49815A816B811C
:103280007C81C60192010E944B18882351F1D5011F
:10329000C401F601058404C0880F991FAA1FBB1F33
:1032A0000A94D2F7E80EF91E0A1F1B1F29813A81E2
:1032B0004B815C818789803129F088EF9FEFAFEFE8
:1032C000BFE004C088EF9FEFA0E0B0E02817390707
:1032D0004A075B0790F2F301E082F18202831383D5
:1032E00081E00F900F900F900F90CF91DF911F9181
:1032F0000F91FF90EF90DF90CF90BF90AF909F9095
:103300008F907F906F905F904F9008952F923F9293
:103310004F925F926F927F928F929F92AF92BF92E5
:10332000CF92DF92EF92FF920F931F93DF93CF9391
:10333000CDB7DEB72F970FB6F894DEBF0FBECDBF67
:103340001C014A875B876C877D873F872E87D90161
:103350000D911D912D913C9101151105210531050E
:1033600049F0480159010894811C911CA11CB11C11
:10337000198610C0FC0180809180A280B3801986DC
:103380008A859B85AC85BD850197A105B10511F4A2
:1033900091E09987D10119968D919D910D90BC91E5
:1033A000A02D0196A11DB11D8D839E83AF83B8878B
:1033B000750164014424552432018E010F5F1F4FB3
:1033C000F10181859285A385B485481659066A0660
:1033D0007B0608F090C08D819E81AF81B8858C15E9
:1033E0009D05AE05BF0550F482E0882E912CA12CDE
:1033F000B12CB2E0CB2ED12CE12CF12CC101B701C4
:10340000A60198010E944B18882309F474C0898191
:103410009A81AB81BC81A70196012F5F3F4F4F4F2F
:103420005F4F0097A105B10519F049015A010DC080
:10343000281939094A095B098A859B85AC85BD85B0
:10344000281739074A075B0759F00894411C511C9B
:10345000611C711C0894C11CD11CE11CF11CB0CF73
:10346000C101A601B7010FEF1FEF2FEF3FE00E9450
:10347000AF17882399F43FC026013701089441080B
:10348000510861087108C101B301A20197018601C9
:103490000E94AF17882379F1730162018C149D0497
:1034A000AE04BF0448F3AE85BF854D915D916D912B
:1034B0007C91411551056105710539F0C1019501F6
:1034C00084010E94AF178823B1F0EE85FF858082CA
:1034D0009182A282B382F985FF2359F00894811C5E
:1034E000911CA11CB11CD1018D929D92AD92BC92F8
:1034F000139781E001C080E02F960FB6F894DEBFED
:103500000FBECDBFCF91DF911F910F91FF90EF9034
:10351000DF90CF90BF90AF909F908F907F906F90F3
:103520005F904F903F902F90089581E08093BE056B
:1035300060939B051092BC051092BD0508952091E3
:103540009A0530E080919905281B3109C901089539
:103550004091990580919A05481718F02FEF3FEF99
:103560000AC0E42FF0E0E758FA4F8081282F30E0BE
:103570004F5F40939905C9010895E09199058091A5
:103580009A05E81718F0EFEFFFEF06C0F0E0E758F4
:10359000FA4F8081E82FF0E0CF010895089510924E
:1035A000C2051092C10588EE93E0A0E0B0E08093E0
:1035B000C3059093C405A093C505B093C6058CEED2
:1035C00092E09093C0058093BF050895CF92DF925B
:1035D000EF92FF920F931F93CF93DF937C016B01C8
:1035E0008A018091BE058823A1F0C0E0D0E00DC023
:1035F000D701ED91FC91D601AC0FBD1F0190F08178
:10360000E02DC7016C9119952196C017D10780F361
:1036100004C0CB01642F0E94181CC801DF91CF9118
:103620001F910F91FF90EF90DF90CF900895DF935F
:10363000CF930F92CDB7DEB7FC0169838091BE05B1
:103640008823C9F08091BD05803238F081E090E098
:103650009383828320E030E015C08091BC05E82F81
:10366000F0E0E456FA4F998190838F5F8093BC0518
:103670008093BD0505C0CE01019661E00E94181C33
:1036800021E030E0C9010F90CF91DF9108950F93B1
:10369000062F80919B056CE975E04091BD0521E006
:1036A0000E94C31B1092BC051092BD051092BE056E
:1036B0000F91089561E00E94471B0895413208F080
:1036C00040E2862F69E775E00E947A1B1092990507
:1036D00080939A05089521E00E945E1B0895109240
:1036E000990510929A051092BC051092BD050E9492
:1036F000C81D0895382F413210F040E042C080913B
:10370000CB058823E1F791E09093CB052093CD057D
:103710008FEF809338061092F30541504093F405E3
:103720004F5F9093CC058091CC05330F832B809312
:10373000CC058091CE05813041F41092CE05809168
:10374000CC058093BB0085EC01C085EE8093BC0066
:103750008091CB058130E1F38091F305841710F45B
:103760004091F30520E030E00AC0FB01E20FF31FB7
:10377000D901AD52BA4F8C9180832F5F3F4F2417F0
:10378000A0F3842F08950F931F93582F122F4132C7
:1037900010F081E04AC08091CB058823E1F782E0F8
:1037A0008093CB050093CD058FEF80933806109260
:1037B000F3054093F405A3EDB5E0FB0102C0819150
:1037C0008D938E2F861B8417D0F31092CC05809199
:1037D000CC05550F852B8093CC058091CE0581308B
:1037E00041F41092CE058091CC058093BB0085EC0E
:1037F00001C085EE8093BC00112321F08091CB05A0
:103800008230E1F3809138068F3F11F480E00DC0E3
:1038100080913806803211F482E007C0809138062A
:10382000803311F084E001C083E01F910F9108956F
:10383000482F613210F081E008958091CB058430EB
:1038400011F082E0089560931606A5EFB5E0842F8D
:103850009C01F90102C081918D938E2F841B8617E4
:10386000D0F380E008951F920F920FB60F920BB61F
:103870000F9211242F933F934F935F936F937F93F6
:103880008F939F93AF93BF93EF93FF938091B90072
:1038900090E0887F90708036910509F4F2C08136FF
:1038A0009105CCF58832910509F47BC089329105E8
:1038B000B4F48031910509F46FC0813191053CF475
:1038C000009709F447C1089709F04FC165C08831D6
:1038D000910509F466C0809709F047C182C0803421
:1038E000910509F4A4C08134910544F48033910515
:1038F00009F482C0C89709F038C189C080359105A4
:1039000009F489C08835910509F496C08834910579
:1039100009F02BC1AEC08839910509F413C189396A
:103920009105ECF48837910509F4ABC0893791050E
:103930004CF48836910509F4A4C08037910509F04C
:1039400014C19FC08838910509F4FCC080399105E5
:1039500009F49DC08038910509F007C198C0803BEB
:10396000910509F4C6C0813B91054CF4803A91055C
:1039700009F49FC0883A910509F0F7C0BAC0803CAD
:10398000910509F4E3C0883C910509F4DFC0883B48
:10399000910509F0EAC0C2C08091CC058093BB00BC
:1039A000CFC09091F3058091F405981768F4909139
:1039B000F305E92FF0E0ED52FA4F80818093BB00D0
:1039C0009F5F9093F305BCC08091CD05882309F4D7
:1039D0004BC085ED8093BC008091BC0084FDFCCF82
:1039E000C2C080E28093380685ED8093BC00809150
:1039F000BC0084FDFCCFB7C080E38093380685ED22
:103A00008093BC008091BC0084FDFCCFACC088E3F7
:103A1000809338069BC08091F3059091BB00E82FFE
:103A2000F0E0ED52FA4F90838F5F8093F305909111
:103A3000F3058091F40582C08091F3059091BB005D
:103A4000E82FF0E0ED52FA4F90838F5F8093F305FB
:103A50008091CD05882341F085ED8093BC00809155
:103A6000BC0084FDFCCF7FC081E08093CE0584EA5A
:103A70006EC085ED8093BC008091BC0084FDFCCFBE
:103A800072C083E08093CB051092370659C08091B5
:103A90003706803208F056C0809137069091BB00FF
:103AA000E82FF0E0E95EF94F90838F5F809337064F
:103AB00047C080913706803230F4E0913706F0E05D
:103AC000E95EF94F108285ED8093BC008091BC00C7
:103AD00084FDFCCF1092CB0560913706E091D105B3
:103AE000F091D20587E196E070E0199510923706C3
:103AF0002DC084E08093CB05109215061092160617
:103B0000E091CF05F091D005199580911606882394
:103B100029F481E0809316061092F5059091150620
:103B2000E92FF0E0EB50FA4F80818093BB009F5F5C
:103B3000909315069091150680911606981710F42B
:103B400085EC01C085E88093BC000FC085EC8093B4
:103B5000BC0009C01092380685ED8093BC008091AE
:103B6000BC0084FDFCCF1092CB05FF91EF91BF917B
:103B7000AF919F918F917F916F915F914F913F9105
:103B80002F910F900BBE0F900FBE0F901F901895A6
:103B90001092CB0581E08093CD051092CE0584E193
:103BA00061E00E94162185E161E00E941621E9EBA7
:103BB000F0E080818E7F808380818D7F808388E4A8
:103BC0008093B80085E48093BC0008950F931F9301
:103BD000CF93DF93BC018230910510F462E070E076
:103BE000E091EC08F091ED08A0E0B0E040E050E09A
:103BF00024C08081918186179707D0F08617970798
:103C000071F482819381109729F013969C938E937F
:103C100012972CC09093ED088093EC0827C04115B3
:103C2000510519F08417950718F4EF018D01AC01C7
:103C3000DF01828193819C01F9013097D1F6411512
:103C40005105F9F0CA01861B970B8430910580F469
:103C50008A819B810115110521F0F80193838283EC
:103C600004C09093ED088093EC08FE01329645C0A5
:103C7000FE01E80FF91F619371930297998388837E
:103C80003CC08091EA089091EB08892B41F4809127
:103C9000CB029091CC029093EB088093EA0840917C
:103CA000CD025091CE024115510541F44DB75EB79A
:103CB0008091C9029091CA02481B590B2091EA08D1
:103CC0003091EB0824173507B0F4CA01821B930B1F
:103CD0008617970780F0AB014E5F5F4F84179507FB
:103CE00050F0420F531F5093EB084093EA08F9013C
:103CF0006193719302C0E0E0F0E0CF01DF91CF91DA
:103D00001F910F910895CF93DF939C01009709F4C1
:103D10008FC0EC0122971B821A826091EC0870918F
:103D2000ED086115710581F488819981820F931FD7
:103D30002091EA083091EB082817390739F5D0931C
:103D4000EB08C093EA0874C0DB0140E050E0AC1718
:103D5000BD0708F1BB83AA83FE0121913191E20FD7
:103D6000F31FAE17BF0779F48D919C911197280F1F
:103D7000391F2E5F3F4F3983288312968D919C9176
:103D800013979B838A834115510571F4D093ED08F5
:103D9000C093EC084DC012968D919C911397AD0184
:103DA000009711F0DC01D3CFDA011396DC93CE93A8
:103DB0001297FA0121913191E20FF31FCE17DF071D
:103DC00069F488819981280F391F2E5F3F4FFA01CE
:103DD000318320838A819B8193838283E0E0F0E0BA
:103DE000DB0112968D919C911397009719F0BC01FD
:103DF000FD01F6CFAB014E5F5F4FDB018D919C91D2
:103E0000840F951F2091EA083091EB082817390795
:103E100079F4309729F41092ED081092EC0802C062
:103E200013821282425050405093EB084093EA08AC
:103E3000DF91CF9108951F920F920FB60F92112428
:103E40002F933F938F939F93AF93BF9380913D06A2
:103E500090913E06A0913F06B091400630914106F8
:103E60000196A11DB11D232F2D5F2D3720F02D5759
:103E70000196A11DB11D2093410680933D069093AC
:103E80003E06A0933F06B09340068091390690917C
:103E90003A06A0913B06B0913C060196A11DB11DCA
:103EA0008093390690933A06A0933B06B0933C0664
:103EB000BF91AF919F918F913F912F910F900FBE26
:103EC0000F901F9018958FB7F89420913D06309170
:103ED0003E0640913F06509140068FBFB901CA018E
:103EE00008959B01AC017FB7F894809139069091B9
:103EF0003A06A0913B06B0913C0666B5A89B05C06A
:103F00006F3F19F00196A11DB11D7FBFBA2FA92FD8
:103F1000982F8827860F911DA11DB11D62E0880F83
:103F2000991FAA1FBB1F6A95D1F7BC012DC0FFB70F
:103F3000F8948091390690913A06A0913B06B09191
:103F40003C06E6B5A89B05C0EF3F19F00196A11D00
:103F5000B11DFFBFBA2FA92F982F88278E0F911D53
:103F6000A11DB11DE2E0880F991FAA1FBB1FEA9592
:103F7000D1F7861B970B885E9340C8F221503040E2
:103F80004040504068517C4F211531054105510595
:103F900071F60895789484B5826084BD84B581609B
:103FA00084BD85B5826085BD85B5816085BDEEE641
:103FB000F0E0808181608083E1E8F0E01082808120
:103FC00082608083808181608083E0E8F0E080818E
:103FD00081608083E1EBF0E0808184608083E0EBAE
:103FE000F0E0808181608083E1E9F0E0808182609F
:103FF0008083808181608083E0E9F0E0808181605E
:104000008083E1EAF0E0808182608083808181604A
:104010008083E0EAF0E0808181608083E1E2F1E08A
:10402000808182608083808181608083E0E2F1E032
:10403000808181608083EAE7F0E080818460808312
:1040400080818260808380818160808380818068BC
:1040500080831092C10008958093CF020895382F75
:10406000863308F0365320917B00832F8695869502
:10407000869590E08170907043E0880F991F4A9573
:10408000E1F7277F282B20937B0037708091CF02A8
:104090008295880F880F807C832B80937C00809191
:1040A0007A00806480937A0080917A0086FDFCCF4C
:1040B0002091780040917900942F80E030E0282B07
:1040C000392BC9010895CF93DF93482F50E0CA01DF
:1040D0008C569E4FFC013491425B5E4FFA018491F5
:1040E000882369F190E0880F991FFC01E050FF4F91
:1040F000A591B491FC01E65EFE4FC591D491662373
:1041000051F42FB7F8948C91932F909589238C9329
:10411000888189230BC0623061F42FB7F8948C91A9
:10412000932F909589238C938881832B88832FBF2D
:1041300006C09FB7F8948C91832B8C939FBFDF911F
:10414000CF910895893009F449C08A30A0F48430B1
:1041500051F1853040F4823079F1833000F58130BF
:1041600009F063C026C0873079F1883098F5863031
:1041700009F05BC025C08D3009F442C08E3028F4B0
:104180008B30B1F18C30C0F52DC0803109F442C0C4
:10419000813109F445C08F3009F047C037C08091A4
:1041A00080008F7703C0809180008F7D8093800096
:1041B000089584B58F7702C084B58F7D84BD08953E
:1041C0008091B0008F7703C08091B0008F7D809385
:1041D000B0000895809190008F7707C08091900083
:1041E0008F7D03C080919000877F80939000089519
:1041F0008091A0008F7707C08091A0008F7D03C0C1
:104200008091A000877F8093A00008958091200175
:104210008F7703C0809120018F7D809320010895C6
:1042200080912001877F809320010895FF920F9352
:104230001F93F62E482F50E0CA0186529E4FFC0174
:104240002491CA018C569E4FFC011491425B5E4F33
:10425000FA0104910023C9F0222319F0822F0E9451
:10426000A220E02FF0E0EE0FFF1FE65EFE4FA591CB
:10427000B4919FB7F894FF2021F48C91109581237D
:1042800002C08C91812B8C939FBF1F910F91FF9047
:10429000089508951F920F920FB60F920BB60F92CA
:1042A00011242F933F934F938F939F93EF93FF93FB
:1042B0008091C00082FD1DC04091C6002091820601
:1042C000309183062F5F3F4F2F73307080918406AB
:1042D000909185062817390771F0E0918206F091D8
:1042E0008306EE5BF94F408330938306209382066A
:1042F00002C08091C600FF91EF919F918F914F91E5
:104300003F912F910F900BBE0F900FBE0F901F90FB
:10431000189508951F920F920FB60F920BB60F9239
:1043200011242F933F934F938F939F93EF93FF937A
:104330008091C80082FD1DC04091CE0020910A07E7
:1043400030910B072F5F3F4F2F73307080910C0718
:1043500090910D072817390771F0E0910A07F09145
:104360000B07E653F94F408330930B0720930A075E
:1043700002C08091CE00FF91EF919F918F914F915C
:104380003F912F910F900BBE0F900FBE0F901F907B
:10439000189508951F920F920FB60F920BB60F92B9
:1043A00011242F933F934F938F939F93EF93FF93FA
:1043B0008091D00082FD1DC04091D60020919207CF
:1043C000309193072F5F3F4F2F7330708091940788
:1043D000909195072817390771F0E0919207F091B5
:1043E0009307EE5AF84F4083309393072093920738
:1043F00002C08091D600FF91EF919F918F914F91D4
:104400003F912F910F900BBE0F900FBE0F901F90FA
:10441000189508951F920F920FB60F920BB60F9238
:1044200011242F933F934F938F939F93EF93FF9379
:104430008091300182FD1DC04091360120911A0803
:1044400030911B082F5F3F4F2F73307080911C08F5
:1044500090911D082817390771F0E0911A08F09122
:104460001B08E652F84F408330931B0820931A082C
:1044700002C080913601FF91EF919F918F914F91F2
:104480003F912F910F900BBE0F900FBE0F901F907A
:104490001895E0916E08F0916F08E05CFF4F8191F4
:1044A000919120813181821B930B8F739070892BA6
:1044B00011F00E944921E0919008F0919108E05C90
:1044C000FF4F8191919120813181821B930B8F73DA
:1044D0009070892B11F00E948921E091B208F0912F
:1044E000B308E05CFF4F8191919120813181821B63
:1044F000930B8F739070892B11F00E94C921E0916A
:10450000D408F091D508E05CFF4F81919191208112
:104510003181821B930B8F739070892B11F00E9455
:10452000092208951F920F920FB60F920BB60F92A9
:1045300011242F933F938F939F93EF93FF93209199
:10454000C6063091C7068091C8069091C906281703
:10455000390731F48091C1008F7D8093C10014C070
:10456000E091C806F091C906EA57F94F2081809181
:10457000C8069091C90601968F7390709093C906F2
:104580008093C8062093C600FF91EF919F918F9171
:104590003F912F910F900BBE0F900FBE0F901F9069
:1045A00018951F920F920FB60F920BB60F9211240F
:1045B0002F933F938F939F93EF93FF9320914E07F9
:1045C00030914F0780915007909151072817390774
:1045D00031F48091C9008F7D8093C90014C0E091AF
:1045E0005007F0915107E25FF84F2081809150070A
:1045F0009091510701968F7390709093510780931B
:1046000050072093CE00FF91EF919F918F913F91A2
:104610002F910F900BBE0F900FBE0F901F9018950B
:104620001F920F920FB60F920BB60F9211242F9379
:104630003F938F939F93EF93FF932091D6073091F1
:10464000D7078091D8079091D9072817390731F4F7
:104650008091D1008F7D8093D10014C0E091D80764
:10466000F091D907EA56F84F20818091D8079091B0
:10467000D90701968F7390709093D9078093D807CC
:104680002093D600FF91EF919F918F913F912F91B1
:104690000F900BBE0F900FBE0F901F9018951F929A
:1046A0000F920FB60F920BB60F9211242F933F93D8
:1046B0008F939F93EF93FF9320915E0830915F0853
:1046C00080916008909161082817390731F4809132
:1046D00031018F7D8093310114C0E0916008F09129
:1046E0006108E25EF74F2081809160089091610837
:1046F00001968F7390709093610880936008209367
:104700003601FF91EF919F918F913F912F910F90E3
:104710000BBE0F900FBE0F901F901895AF92BF92D7
:10472000DF92EF92FF920F931F93CF93DF93EC01F1
:104730007A018B01DD24403081EE580780E0680764
:1047400080E0780711F0DD24D39491E0A92EB12CFC
:10475000EC89FD89DD2069F0C50108A002C0880F41
:10476000991F0A94E2F7808360E079E08DE390E09E
:1047700005C0108260E874E88EE190E0A80197011E
:104780000E94A22A21503040404050405695479503
:104790003795279580E12030380720F0DD2011F093
:1047A000DD24D6CFE889F9893083EA89FB89208323
:1047B00019A2EE89FF89408121E030E0C9010C8C0B
:1047C00002C0880F991F0A94E2F7482B4083EE89B4
:1047D000FF894081C9010D8C02C0880F991F0A947E
:1047E000E2F7482B4083EE89FF894081C9010E8C96
:1047F00002C0880F991F0A94E2F7482B4083EE8984
:10480000FF8980810F8C02C0220F331F0A94E2F7C8
:10481000209528232083DF91CF911F910F91FF9046
:10482000EF90DF90BF90AF900895DC011C96ED9162
:10483000FC911D97E05CFF4F219131918081918126
:10484000281B390B2F733070C9010895DC011C96A9
:10485000ED91FC911D97E05CFF4F20813181E05488
:10486000F040DF01AE5BBF4F8D919C9111972817EF
:10487000390719F42FEF3FEF07C08D919C91E80F96
:10488000F91F8081282F30E0C9010895DC011C96B2
:10489000ED91FC911D97E05CFF4F20813181E05448
:1048A000F040DF01AE5BBF4F8D919C9111972817AF
:1048B000390719F42FEF3FEF10C08D919C9111979C
:1048C000E80FF91F20818D919C91119701968F73AC
:1048D000907011969C938E9330E0C9010895DC018D
:1048E00091968C919197882339F05496ED91FC9193
:1048F0005597808186FFF9CF91961C920895CF93AA
:10490000DF93EC01EE85FF85E05CFF4F2081318174
:10491000E054F0402F5F3F4F2F733070DF01AE5BEC
:10492000BF4F8D919C91119728173907D1F3E05C07
:10493000FF4F80819181E054F040E80FF91F6083C0
:10494000EE85FF85E05CFF4F31832083EE89FF8990
:10495000208181E090E00F8C02C0880F991F0A949B
:10496000E2F7282B208381E089A3EC89FD898081EF
:104970008064808381E090E0DF91CF9108951F9360
:10498000109265081092640828EE33E040E050E091
:10499000209366083093670840936808509369082D
:1049A0006CEF72E0709363086093620882E496E0B3
:1049B00090936F0880936E0886E896E09093710854
:1049C0008093700885EC90E0909373088093720850
:1049D00084EC90E0909375088093740880EC90E0EC
:1049E000909377088093760881EC90E09093790813
:1049F0008093780882EC90E090937B0880937A080B
:104A000086EC90E090937D0880937C0814E01093EE
:104A10007E08B3E0B0937F08A7E0A0938008F5E09C
:104A2000F0938108E1E0E0938208109287081092E9
:104A30008608209388083093890840938A08509309
:104A40008B0870938508609384088AEC96E09093B5
:104A50009108809390088EE097E09093930880935C
:104A600092088DEC90E090939508809394088CECDC
:104A700090E0909397088093960888EC90E090934C
:104A800099088093980889EC90E090939B08809314
:104A90009A088AEC90E090939D0880939C088EEC95
:104AA00090E090939F0880939E081093A008B09385
:104AB000A108A093A208F093A308E093A408109281
:104AC000A9081092A8082093AA083093AB08409335
:104AD000AC085093AD087093A7086093A60882E5D0
:104AE00097E09093B3088093B20886E997E090939B
:104AF000B5088093B40885ED90E09093B708809353
:104B0000B60884ED90E09093B9088093B80880EDE2
:104B100090E09093BB088093BA0881ED90E0909369
:104B2000BD088093BC0882ED90E09093BF0880930D
:104B3000BE0886ED90E09093C1088093C008109362
:104B4000C208B093C308A093C408F093C508E093CB
:104B5000C6081092CB081092CA082093CC08309354
:104B6000CD084093CE085093CF087093C908609346
:104B7000C8088AED97E09093D5088093D4088EE119
:104B800098E09093D7088093D60885E391E09093BE
:104B9000D9088093D80884E391E09093DB08809350
:104BA000DA0880E391E09093DD088093DC0881E3EC
:104BB00091E09093DF088093DE0882E391E0909388
:104BC000E1088093E00886E391E09093E308809306
:104BD000E2081093E408B093E508A093E608F09388
:104BE000E708E093E8081F910895CF93DF930E94B0
:104BF000CA1F0E94D403C9E4D2E20E948E0120970A
:104C0000E1F30E944922F9CFCF92DF92EF92FF9217
:104C10000F931F93CF93DF937C016B018A01C0E058
:104C2000D0E00FC0D6016D916D01D701ED91FC91DF
:104C30000190F081E02DC7011995C80FD91F0150CF
:104C400010400115110571F7CE01DF91CF911F9131
:104C50000F91FF90EF90DF90CF900895DC01ED91E0
:104C6000FC910190F081E02D19950895EF92FF924B
:104C70000F931F938C01DC01ED91FC910190F08169
:104C8000E02D6DE019957C01D801ED91FC9101902A
:104C9000F081E02DC8016AE019959C012E0D3F1DA1
:104CA000C9011F910F91FF90EF900895CF93DF936B
:104CB000EC016115710519F420E030E00FC0DB0153
:104CC0000D900020E9F71197A61BB70BE881F98139
:104CD0000280F381E02DAD0119959C01C901DF919E
:104CE000CF9108954F925F927F928F929F92AF9251
:104CF000BF92CF92DF92EF92FF920F931F93DF93B9
:104D0000CF93CDB7DEB7A1970FB6F894DEBF0FBE35
:104D1000CDBF2C01742ECB01223008F42AE019A259
:104D200031E2C32ED12CCC0EDD1E822E9924AA2472
:104D3000BB24672D752FA50194010E94A22A790139
:104D40008A01C801B701A50194010E94772A472D65
:104D5000461B0894C108D1084A3014F4405D01C0D4
:104D6000495CF6014083E114F1040105110521F0CD
:104D70007E2C5F2DC801DDCFC201B6010E945626F0
:104D8000A1960FB6F894DEBF0FBECDBFCF91DF91D5
:104D90001F910F91FF90EF90DF90CF90BF90AF9059
:104DA0009F908F907F905F904F900895DC01211528
:104DB000310541F4ED91FC910190F081E02D642FDB
:104DC000199508950E9472260895EF92FF920F930D
:104DD0001F939A017B0100E010E0B801A7010E9437
:104DE000D6261F910F91FF90EF900895EF92FF92BA
:104DF0000F931F939A01E62EFF2400E010E0B80104
:104E0000A7010E94D6261F910F91FF90EF90089561
:104E1000CF92DF92EF92FF920F931F93CF93DF9386
:104E2000EC016A017B012115310541F4E881F9812A
:104E30000190F081E02D642F19951FC02A303105B3
:104E4000D1F477FF17C0E881F9810190F081E02D5E
:104E50006DE219958C0144275527BA014C195D095B
:104E60006E097F09CE012AE00E9472269801280F60
:104E7000391F04C02AE00E9472269C01C901DF91FB
:104E8000CF911F910F91FF90EF90DF90CF900895F9
:104E9000EF92FF920F931F937B019A010027F7FC7B
:104EA0000095102FB801A7010E9408271F910F91AC
:104EB000FF90EF9008950E94562608957F928F925A
:104EC0009F92AF92BF92CF92DF92EF92FF920F9399
:104ED0001F93CF93DF934C017A018B01722ECB018C
:104EE000BA01A80197010E94732A882321F0C40106
:104EF00067EB72E021C0C0E0D0E057016801E894A0
:104F0000D7F8C601B5012FEF3FEF4FE75FE70E94EB
:104F1000732A882351F4C601B5012FEF3FEF4FE705
:104F20005FE70E94BD28181614F0C1E0D0E0219779
:104F300039F0C4016BEB72E00E945626EC0193C07D
:104F4000C801B7012FEF3FEF4FE75FE40E940C2A43
:104F5000181654F0C801B7012FEF3FEF4FE75FEC91
:104F60000E94BD28882324F4C4016FEB72E0E4CFD3
:104F7000C801B70120E030E040E050E00E94BD28C9
:104F800087FD03C0C0E0D0E00EC0D401ED91FC91DC
:104F90000190F081E02DC4016DE21995EC0117FB41
:104FA000109517F9109520E030E040E05FE3DD2434
:104FB0000BC0CA01B90120E030E040E251E40E9498
:104FC000C1289B01AC01D394D71498F3C801B70151
:104FD0000E9459285B016C010E942E297B018C01E3
:104FE000C401B801A7012AE030E00E94D626C80F0C
:104FF000D91F772039F0C40163EC72E00E94562675
:10500000C80FD91FC801B7010E945A299B01AC01E2
:10501000C601B5010E94582824C020E030E040E2DB
:1050200051E40E94102A7B018C010E9429295B0116
:105030006C01CC24B7FCC094DC2CC401B601A501E2
:105040002AE030E00E940827C80FD91FC601B50129
:105050000E945C299B01AC01C801B7010E9458283D
:105060007A947720D1F6CE01DF91CF911F910F91E5
:10507000FF90EF90DF90CF90BF90AF909F908F9078
:105080007F9008950E945E270895EF92FF920F93FC
:105090001F937C010E9456268C01C7010E94362670
:1050A000080F191FC8011F910F91FF90EF900895ED
:1050B0005058BB27AA270ED075C166D130F06BD1EE
:1050C00020F031F49F3F11F41EF45BC10EF4E09523
:1050D000E7FB51C1E92F77D180F3BA176207730755
:1050E0008407950718F071F49EF58FC10EF4E095D2
:1050F0000B2EBA2FA02D0B01B90190010C01CA0192
:10510000A0011124FF27591B99F0593F50F4503E3C
:1051100068F11A16F040A22F232F342F4427585F2E
:10512000F3CF469537952795A795F0405395C9F746
:105130007EF41F16BA0B620B730B840BBAF09150FE
:10514000A1F0FF0FBB1F661F771F881FC2F70EC09D
:10515000BA0F621F731F841F48F487957795679570
:10516000B795F7959E3F08F0B3CF9395880F08F059
:105170009927EE0F979587950895D9D008F481E087
:1051800008950CD00FC107D140F0FED030F021F4CB
:105190005F3F19F0F0C0511139C1F3C014D198F339
:1051A0009923C9F35523B1F3951B550BBB27AA27A8
:1051B00062177307840738F09F5F5F4F220F331F1A
:1051C000441FAA1FA9F333D00E2E3AF0E0E830D0E6
:1051D00091505040E695001CCAF729D0FE2F27D0E9
:1051E000660F771F881FBB1F261737074807AB07B7
:1051F000B0E809F0BB0B802DBF01FF2793585F4F2C
:105200002AF09E3F510568F0B6C000C15F3FECF345
:10521000983EDCF3869577956795B795F7959F5FF0
:10522000C9F7880F911D9695879597F90895E1E044
:10523000660F771F881FBB1F621773078407BA07A3
:1052400020F0621B730B840BBA0BEE1F88F7E095FE
:10525000089504D06894B111D9C00895BCD088F0E5
:105260009F5790F0B92F9927B751A0F0D1F0660F52
:10527000771F881F991F1AF0BA95C9F712C0B1306D
:1052800081F0C3D0B1E00895C0C0672F782F882780
:10529000B85F39F0B93FCCF3869577956795B395AC
:1052A000D9F73EF490958095709561957F4F8F4F1B
:1052B0009F4F0895E89409C097FB3EF49095809520
:1052C000709561957F4F8F4F9F4F9923A9F0F92FCC
:1052D00096E9BB279395F695879577956795B7954A
:1052E000F111F8CFFAF4BB0F11F460FF1BC06F5F30
:1052F0007F4F8F4F9F4F16C0882311F096E911C042
:10530000772321F09EE8872F762F05C0662371F062
:1053100096E8862F70E060E02AF09A95660F771F76
:10532000881FDAF7880F9695879597F90895990F52
:105330000008550FAA0BE0E8FEEF16161706E8075F
:10534000F907C0F012161306E407F50798F0621B80
:10535000730B840B950B39F40A2661F0232B242B55
:10536000252B21F408950A2609F4A140A6958FEF74
:10537000811D811D089597F99F6780E870E060E0C6
:1053800008959FEF80EC089500240A9416161706DE
:1053900018060906089500240A9412161306140626
:1053A00005060895092E0394000C11F4882352F089
:1053B000BB0F40F4BF2B11F460FF04C06F5F7F4F41
:1053C0008F4F9F4F089557FD9058440F551F59F028
:1053D0005F3F71F04795880F97FB991F61F09F3FE2
:1053E00079F087950895121613061406551FF2CF0B
:1053F0004695F1DF08C0161617061806991FF1CF5B
:1054000086957105610508940895E894BB27662781
:105410007727CB0197F908958ADF08F48FEF089575
:105420000BD0C0CFB1DF28F0B6DF18F0952309F01C
:10543000A2CFA7CF1124EACFC6DFA0F3959FD1F367
:10544000950F50E0551F629FF001729FBB27F00D32
:10545000B11D639FAA27F00DB11DAA1F649F662787
:10546000B00DA11D661F829F2227B00DA11D621FD6
:10547000739FB00DA11D621F839FA00D611D221F90
:10548000749F3327A00D611D231F849F600D211D74
:10549000822F762F6A2F11249F5750408AF0E1F017
:1054A00088234AF0EE0FFF1FBB1F661F771F881F60
:1054B00091505040A9F79E3F510570F05CCFA6CFA8
:1054C0005F3FECF3983EDCF3869577956795B7954B
:1054D000F795E7959F5FC1F7FE2B880F911D969575
:1054E000879597F9089523DF880B990B0895629F9C
:1054F000D001739FF001829FE00DF11D649FE00DCC
:10550000F11D929FF00D839FF00D749FF00D659F2C
:10551000F00D9927729FB00DE11DF91F639FB00D2B
:10552000E11DF91FBD01CF0111240895991B79E0F8
:1055300004C0991F961708F0961B881F7A95C9F723
:1055400080950895A1E21A2EAA1BBB1BFD010DC078
:10555000AA1FBB1FEE1FFF1FA217B307E407F50723
:1055600020F0A21BB30BE40BF50B661F771F881FFF
:10557000991F1A9469F760957095809590959B0195
:10558000AC01BD01CF010895EE0FFF1F0590F4910E
:10559000E02D199412E0C8E2D2E004C0FE010E949E
:0E55A000C62A2296CA32D107C9F7F894FFCF67
:1055AE002C20002F0020003A006572726F723A2094
:1055BE0000496E697469616C697A696E672053443B
:1055CE0020636172642E2E2E004361726420666128
:1055DE00696C65642C206F72206E6F74207072651A
:1055EE0073656E74006361726420696E69746961BB
:1055FE006C697A65642E00636F756C646E742063DB
:10560E0072656174652066696C65004C6F676769C9
:10561E006E6720746F3A2000525443206661696CA5
:10562E006564006D696C6C69732C7374616D702C9C
:10563E006461746574696D652C6C696768742C742B
:10564E00656D702C766363004C4F47474552303082
:10565E002E435356002F006E616E00696E66006F0A
:10566E007666002E00FFFFFFFF8000EE08000001AF
:10567E000000000089063407A106DA06F806D206F5
:10568E00000000005414042600000000171BE61A48
:10569E009F1AA81ABD1ACE1A000000007F240426F5
:0856AE001524462426246F2474
:00000001FF
