:100000000C9469000C9491000C9491000C94910054
:100010000C9491000C9491000C9491000C9491001C
:100020000C9491000C9491000C9491000C9491000C
:100030000C9491000C9491000C9491000C949100FC
:100040000C94E8060C9491000C9419080C94670821
:100050000C9491000C9491000C9491000C949100DC
:100060000C9439050C9491001F1C1F1E1F1E1F1F8E
:100070001E1F1E1F00000000240027002A00000091
:100080000000250028002B000000000023002600AF
:10009000290004040404040404040202020202020B
:1000A000030303030303010204081020408001023C
:1000B00004081020010204081020000000070002BC
:1000C0000100000304060000000000000000D5034A
:1000D000D30911241FBECFEFD8E0DEBFCDBF11E0A2
:1000E000A0E0B1E0E6E3F7E102C005900D92AC3587
:1000F000B107D9F712E0ACE5B1E001C01D92A03D17
:10010000B107E1F710E0C2EDD0E004C02297FE0194
:100110000E94950BCE3CD107C9F70E94290A0C9486
:10012000990B0C9400000F931F93DF93CF93CDB7DF
:10013000DEB762970FB6F894DEBF0FBECDBF0E9448
:10014000BC022D873E874F87588B698B7A8BDE01E7
:100150001196FE013D9686E001900D928150E1F7E7
:10016000698170E06053784F8EEA92E04AE050E097
:100170000E94190B8EEA92E06FE20E94620A8EEAF8
:1001800092E06A814AE050E00E942A0B8EEA92E0F7
:100190006FE20E94620A8EEA92E06B814AE050E0D0
:1001A0000E942A0B8EEA92E060E20E94620A8EEAC6
:1001B00092E06C814AE050E00E942A0B8EEA92E0C5
:1001C0006AE30E94620A8EEA92E06D814AE050E0A2
:1001D0000E942A0B8EEA92E06AE30E94620A8EEA8B
:1001E00092E06E814AE050E00E942A0B8EEA92E093
:1001F0000E946A0A8EEA92E060E071E00E943C0B85
:100200008E010F5F1F4FC8010E947D02AB01BC0130
:100210008EEA92E02AE030E00E940A0B8EEA92E039
:100220006FE071E00E943C0BC8010E947D0220E853
:1002300031E541E050E00E94710B8EEA92E0BA0194
:10024000A9012AE030E00E940A0B8EEA92E064E104
:1002500071E00E943F0BC8010E947D02AB01BC010E
:100260004256554C664F7F4FCE0107960E94EC01D7
:100270008EEA92E066E171E00E943C0B6F8170E0D3
:100280006053784F8EEA92E04AE050E00E94190BEA
:100290008EEA92E06FE20E94620A8EEA92E068853E
:1002A0004AE050E00E942A0B8EEA92E06FE20E9440
:1002B000620A8EEA92E069854AE050E00E942A0BC9
:1002C0008EEA92E060E20E94620A8EEA92E06A851B
:1002D0004AE050E00E942A0B8EEA92E06AE30E9414
:1002E000620A8EEA92E06B854AE050E00E942A0B97
:1002F0008EEA92E06AE30E94620A8EEA92E06C85DE
:100300004AE050E00E942A0B8EEA92E00E946A0ABC
:100310008EEA92E00E946A0A68EB7BE080E090E05F
:100320000E94300762960FB6F894DEBF0FBECDBFB5
:10033000CF91DF911F910F9108958EEA92E040E0F6
:1003400051EE60E070E00E94A20883EA91E00E9412
:1003500075040E94BA028CE591E00E94750388231F
:1003600031F48EEA92E068E271E00E943F0B08955A
:10037000DC0187E0A03DB80710F0A05DB74050E079
:1003800028E630E091E007C0F9018491480F511D43
:100390009F5F2F5F3F4F9617B8F3633038F0CD0162
:1003A00083709070892B11F44F5F5F4F8DE691E061
:1003B000A89F9001A99F300DB89F300D11242150A6
:1003C00030401396B695A795B695A7952A0F3B1F73
:1003D000240F351FC9010895EF92FF920F931F93C9
:1003E000CF93DF93EC017A018B0180E89CEBA2E9CB
:1003F000B7ECE80EF91E0A1F1B1FC801B7012CE35A
:1004000030E040E050E00E94710B6D83C801B701FD
:100410002CE330E040E050E00E94710B122F032FDC
:10042000F42EE52E622F732F842F952F2CE330E0CE
:1004300040E050E00E94710B6C83612F702F8F2D74
:100440009E2D2CE330E040E050E00E94710B122F13
:10045000032FF42EE52E622F732F842F952F28E182
:1004600030E040E050E00E94710B6B83612F702FF1
:100470008F2D9E2D28E130E040E050E00E94710B6E
:1004800060E0A3E9BEEF70E0862F90E0837090708B
:10049000892B09F471E0E62FEF5F472F50E0CA0186
:1004A00083599E4F2817390738F0CD01841B950BCF
:1004B000280F391F6E2FE7CF688341E0E42FF0E06B
:1004C000E959FF4F8491772319F0423009F48F5F87
:1004D00090E0542F5F5F2817390720F0281B390B55
:1004E000452FECCF4983822F8F5F8A83DF91CF9195
:1004F0001F910F91FF90EF9008950F931F938C0120
:10050000FC01808190E0618142810E94B801A0E0FD
:10051000B0E0BC01CD0128E130E040E050E00E94B5
:10052000520BF8012381620F711D811D911D2CE377
:1005300030E040E050E00E94520BF8012481620F4D
:10054000711D811D911D2CE330E040E050E00E94C0
:10055000520B9B01AC01F8018581280F311D411D13
:10056000511D20583C4B4249574CB901CA011F91BB
:100570000F91089581E00895BF92CF92DF92EF929C
:10058000FF920F931F93DF93CF9300D000D000D042
:10059000CDB7DEB703EA11E0C80168E670E00E945B
:1005A0009B03C80160E00E941D04C8010E94600412
:1005B000C80168E670E047E050E00E947104C8019D
:1005C0000E94AE039FE7B92EB822C8010E94AE0375
:1005D000C82EC8010E94AE03D82EC8010E94AE03E7
:1005E000C8010E94AE03E82EC8010E94AE03F82E97
:1005F000C8010E94AE03282F30E0B4E0359527955E
:10060000BA95E1F74AEF5FEFB901649F9001659FEA
:10061000300D749F300D1124820F90E02B2D30E0AF
:10062000A4E035952795AA95E1F7B901649F90015B
:10063000659F300D749F300D1124B20E2C2D30E0CB
:10064000F4E035952795FA95E1F7B901649F90019B
:10065000659F300D749F300D1124C20E2D2D30E09A
:10066000E4E035952795EA95E1F7B901649F90019B
:10067000659F300D749F300D1124D20E2E2D30E069
:1006800074E0359527957A95E1F7B901649F90015B
:10069000659F300D749F300D1124E20E2F2D30E038
:1006A00064E0359527956A95E1F7B901649F90015B
:1006B000659F300D749F300D1124F20E282F3F2DB1
:1006C0004E2D5D2D6C2D7B2D80E026960FB6F89477
:1006D000DEBF0FBECDBFCF91DF911F910F91FF9075
:1006E000EF90DF90CF90BF90089583EA91E068E6A5
:1006F00070E00E949B0383EA91E060E00E941D0489
:1007000083EA91E00E94600483EA91E068E670E089
:1007100041E050E00E94710483EA91E00E94AE0340
:1007200020E090E0880F892F881F990B892B09F40E
:1007300021E0822F089581E08093A20160937F01E0
:100740001092A0011092A101089520917E0130E045
:1007500080917D01281B3109C901089540917D01D7
:1007600080917E01481718F02FEF3FEF0AC0E42F69
:10077000F0E0E35AFE4F8081282F30E04F5F409336
:100780007D01C9010895E0917D0180917E01E81706
:1007900018F0EFEFFFEF06C0F0E0E35AFE4F808164
:1007A000E82FF0E0CF01089508951092A60110926D
:1007B000A50188EE93E0A0E0B0E08093A7019093BC
:1007C000A801A093A901B093AA0180E491E09093BD
:1007D000A4018093A3010895CF92DF92EF92FF923C
:1007E0000F931F93CF93DF937C016B018A0180915C
:1007F000A2018823A1F0C0E0D0E00DC0D701ED91A7
:10080000FC91D601AC0FBD1F0190F081E02DC70116
:100810006C9109952196C017D10780F304C0CB01D4
:10082000642F0E941E05C801DF91CF911F910F9187
:10083000FF90EF90DF90CF900895DF93CF930F92CA
:10084000CDB7DEB7FC0169838091A2018823C9F08E
:100850008091A101803238F081E090E0938382831F
:1008600020E030E015C08091A001E82FF0E0E058D2
:10087000FE4F998190838F5F8093A0018093A101A7
:1008800005C0CE01019661E00E941E0521E030E026
:10089000C9010F90CF91DF9108950F93062F80919A
:1008A0007F0160E871E04091A10121E00E94C9044C
:1008B0001092A0011092A1011092A2010F9108952F
:1008C00061E00E944D040895413208F040E2862F15
:1008D0006DE571E00E94800410927D0180937E019D
:1008E000089521E00E946404089510927D01109201
:1008F0007E011092A0011092A1010E94CA060895E3
:10090000382F413210F040E042C08091AF0188237F
:10091000E1F791E09093AF012093B1018FEF8093C5
:100920001C021092D70141504093D8014F5F909321
:10093000B0018091B001330F832B8093B00180917F
:10094000B201813041F41092B2018091B0018093E4
:10095000BB0085EC01C085EE8093BC008091AF01A7
:100960008130E1F38091D701841710F44091D701D1
:1009700020E030E00AC0FB01E20FF31FD901A954C7
:10098000BE4F8C9180832F5F3F4F2417A0F3842F9D
:1009900008950F931F93582F122F413210F081E0CA
:1009A0004AC08091AF018823E1F782E08093AF01D4
:1009B0000093B1018FEF80931C021092D7014093F6
:1009C000D801A7EBB1E0FB0102C081918D938E2F7E
:1009D000861B8417D0F31092B0018091B001550F9F
:1009E000852B8093B0018091B201813041F4109247
:1009F000B2018091B0018093BB0085EC01C085EE0F
:100A00008093BC00112321F08091AF018230E1F38B
:100A100080911C028F3F11F480E00DC080911C0278
:100A2000803211F482E007C080911C02803311F003
:100A300084E001C083E01F910F910895482F613237
:100A400010F081E008958091AF01843011F082E0D0
:100A500008956093FA01A9EDB1E0842F9C01F9019A
:100A600002C081918D938E2F841B8617D0F380E076
:100A700008951F920F920FB60F9211242F933F9358
:100A80004F935F936F937F938F939F93AF93BF9396
:100A9000EF93FF938091B90090E0887F907080364B
:100AA000910509F4F2C081369105CCF588329105A3
:100AB00009F47BC089329105B4F48031910509F4C1
:100AC0006FC0813191053CF4009709F447C1089744
:100AD00009F04FC165C08831910509F466C080975F
:100AE00009F047C182C08034910509F4A4C0813463
:100AF000910544F48033910509F482C0C89709F048
:100B000038C189C08035910509F489C088359105BF
:100B100009F496C08834910509F02BC1AEC088391C
:100B2000910509F413C189399105ECF488379105D1
:100B300009F4ABC0893791054CF48836910509F466
:100B4000A4C08037910509F014C19FC08838910571
:100B500009F4FCC08039910509F49DC080389105E5
:100B600009F007C198C0803B910509F4C6C0813BDC
:100B700091054CF4803A910509F49FC0883A91059B
:100B800009F0F7C0BAC0803C910509F4E3C0883C85
:100B9000910509F4DFC0883B910509F0EAC0C2C0A5
:100BA0008091B0018093BB00CFC09091D70180911C
:100BB000D801981768F49091D701E92FF0E0E95433
:100BC000FE4F80818093BB009F5F9093D701BCC094
:100BD0008091B101882309F44BC085ED8093BC005E
:100BE0008091BC0084FDFCCFC2C080E280931C02D7
:100BF00085ED8093BC008091BC0084FDFCCFB7C024
:100C000080E380931C0285ED8093BC008091BC0042
:100C100084FDFCCFACC088E380931C029BC0809114
:100C2000D7019091BB00E82FF0E0E954FE4F90838C
:100C30008F5F8093D7019091D7018091D80182C0B6
:100C40008091D7019091BB00E82FF0E0E954FE4F6E
:100C500090838F5F8093D7018091B101882341F009
:100C600085ED8093BC008091BC0084FDFCCF7FC0EB
:100C700081E08093B20184EA6EC085ED8093BC0070
:100C80008091BC0084FDFCCF72C083E08093AF01F3
:100C900010921B0259C080911B02803208F056C08E
:100CA00080911B029091BB00E82FF0E0E550FE4FD1
:100CB00090838F5F80931B0247C080911B0280321C
:100CC00030F4E0911B02F0E0E550FE4F108285ED1C
:100CD0008093BC008091BC0084FDFCCF1092AF01DA
:100CE00060911B02E091B501F091B6018BEF91E0AC
:100CF00070E0099510921B022DC084E08093AF0133
:100D00001092F9011092FA01E091B301F091B4014F
:100D100009958091FA01882329F481E08093FA01F2
:100D20001092D9019091F901E92FF0E0E752FE4FBE
:100D300080818093BB009F5F9093F9019091F901AE
:100D40008091FA01981710F485EC01C085E8809332
:100D5000BC000FC085EC8093BC0009C010921C023F
:100D600085ED8093BC008091BC0084FDFCCF109287
:100D7000AF01FF91EF91BF91AF919F918F917F91C3
:100D80006F915F914F913F912F910F900FBE0F90F8
:100D90001F9018951092AF0181E08093B1011092DD
:100DA000B20182E161E00E94C40783E161E00E9438
:100DB000C407E9EBF0E080818E7F808380818D7FA6
:100DC000808388E48093B80085E48093BC00089514
:100DD0001F920F920FB60F9211242F933F938F9370
:100DE0009F93AF93BF938091210290912202A09193
:100DF0002302B0912402309125020196A11DB11D5C
:100E0000232F2D5F2D3720F02D570196A11DB11DE9
:100E1000209325028093210290932202A093230223
:100E2000B093240280911D0290911E02A0911F0296
:100E3000B09120020196A11DB11D80931D029093D7
:100E40001E02A0931F02B0932002BF91AF919F9109
:100E50008F913F912F910F900FBE0F901F9018957B
:100E60009B01AC017FB7F89480911D0290911E0206
:100E7000A0911F02B091200266B5A89B05C06F3FEC
:100E800019F00196A11DB11D7FBFBA2FA92F982F70
:100E90008827860F911DA11DB11D62E0880F991F43
:100EA000AA1FBB1F6A95D1F7BC012DC0FFB7F894EC
:100EB00080911D0290911E02A0911F02B09120020C
:100EC000E6B5A89B05C0EF3F19F00196A11DB11D25
:100ED000FFBFBA2FA92F982F88278E0F911DA11D14
:100EE000B11DE2E0880F991FAA1FBB1FEA95D1F739
:100EF000861B970B885E9340C8F2215030404040DB
:100F0000504068517C4F211531054105510571F65E
:100F10000895789484B5826084BD84B5816084BD71
:100F200085B5826085BD85B5816085BDEEE6F0E062
:100F3000808181608083E1E8F0E0108280818260BE
:100F40008083808181608083E0E8F0E0808181603F
:100F50008083E1EBF0E0808184608083E0EBF0E06F
:100F6000808181608083EAE7F0E080818460808313
:100F700080818260808380818160808380818068BD
:100F800080831092C1000895482F50E0CA01865412
:100F90009F4FFC012491CA018A559F4FFC019491F7
:100FA0004E565F4FFA013491332309F440C0222397
:100FB00051F1233071F0243028F42130A1F0223097
:100FC00011F514C02630B1F02730C1F02430D9F427
:100FD00004C0809180008F7703C0809180008F7D56
:100FE0008093800010C084B58F7702C084B58F7D58
:100FF00084BD09C08091B0008F7703C08091B0009C
:101000008F7D8093B000E32FF0E0EE0FFF1FE258DA
:10101000FF4FA591B4912FB7F894662321F48C91DA
:101020009095892302C08C91892B8C932FBF0895B2
:1010300008951F920F920FB60F9211242F933F9392
:101040004F938F939F93EF93FF938091C00082FD06
:101050001DC04091C60020916602309167022F5F4B
:101060003F4F2F733070809168029091690228176A
:10107000390771F0E0916602F0916702EA5DFD4F79
:101080004083309367022093660202C08091C600BD
:10109000FF91EF919F918F914F913F912F910F90E1
:1010A0000FBE0F901F901895E091BA02F091BB020D
:1010B000E05CFF4F8191919120813181821B930BE4
:1010C0008F739070892B11F00E94180808951F9259
:1010D0000F920FB60F9211242F933F938F939F93EC
:1010E000EF93FF932091AA023091AB028091AC0262
:1010F0009091AD022817390731F48091C1008F7D9E
:101100008093C10014C0E091AC02F091AD02E659A9
:10111000FD4F20818091AC029091AD0201968F73BA
:1011200090709093AD028093AC022093C600FF9123
:10113000EF919F918F913F912F910F900FBE0F9044
:101140001F901895AF92BF92DF92EF92FF920F938C
:101150001F93CF93DF93EC017A018B01DD244030A4
:1011600081EE580780E0680780E0780711F0DD2401
:10117000D39491E0A92EB12CEC89FD89DD2069F092
:10118000C50108A002C0880F991F0A94E2F7808366
:1011900060E079E08DE390E005C0108260E874E8DB
:1011A0008EE190E0A80197010E94710B2150304020
:1011B00040405040569547953795279580E120301F
:1011C000380720F0DD2011F0DD24D6CFE889F98939
:1011D0003083EA89FB89208319A2EE89FF89408147
:1011E00021E030E0C9010C8C02C0880F991F0A94DD
:1011F000E2F7482B4083EE89FF894081C9010D8CBD
:1012000002C0880F991F0A94E2F7482B4083EE89A9
:10121000FF894081C9010E8C02C0880F991F0A9472
:10122000E2F7482B4083EE89FF8980810F8C02C052
:10123000220F331F0A94E2F7209528232083DF91A1
:10124000CF911F910F91FF90EF90DF90BF90AF90E3
:101250000895DC011C96ED91FC911D97E05CFF4F19
:101260002191319180819181281B390B2F7330702E
:10127000C9010895DC011C96ED91FC911D97E05C7D
:10128000FF4F20813181E054F040DF01AE5BBF4F62
:101290008D919C9111972817390719F42FEF3FEF83
:1012A00007C08D919C91E80FF91F8081282F30E0B5
:1012B000C9010895DC011C96ED91FC911D97E05C3D
:1012C000FF4F20813181E054F040DF01AE5BBF4F22
:1012D0008D919C9111972817390719F42FEF3FEF43
:1012E00010C08D919C911197E80FF91F20818D916D
:1012F0009C91119701968F73907011969C938E9389
:1013000030E0C9010895DC0191968C919197882372
:1013100039F05496ED91FC915597808186FFF9CF75
:1013200091961C920895CF93DF93EC01EE85FF8593
:10133000E05CFF4F20813181E054F0402F5F3F4F50
:101340002F733070DF01AE5BBF4F8D919C91119771
:1013500028173907D1F3E05CFF4F80819181E05479
:10136000F040E80FF91F6083EE85FF85E05CFF4FDA
:1013700031832083EE89FF89208181E090E00F8C0A
:1013800002C0880F991F0A94E2F7282B208381E07E
:1013900089A3EC89FD8980818064808381E090E06D
:1013A000DF91CF9108951092B1021092B00288EEB1
:1013B00093E0A0E0B0E08093B2029093B302A093D8
:1013C000B402B093B50280E591E09093AF028093B0
:1013D000AE0286E292E09093BB028093BA028AE664
:1013E00092E09093BD028093BC0285EC90E09093D4
:1013F000BF028093BE0284EC90E09093C102809380
:10140000C00280EC90E09093C3028093C20281EC12
:1014100090E09093C5028093C40282EC90E0909398
:10142000C7028093C60286EC90E09093C902809335
:10143000C80284E08093CA0283E08093CB0287E0F5
:101440008093CC0285E08093CD0281E08093CE0230
:101450000895CF93DF930E9489070E949D01C4E500
:10146000D8E00E9493002097E1F30E945408F9CF3E
:10147000CF92DF92EF92FF920F931F93CF93DF9360
:101480007C016B018A01C0E0D0E00FC0D6016D91F4
:101490006D01D701ED91FC910190F081E02DC70124
:1014A0000995C80FD91F015010400115110571F79A
:1014B000CE01DF91CF911F910F91FF90EF90DF90C0
:1014C000CF900895DC01ED91FC910190F081E02D29
:1014D00009950895EF92FF920F931F938C01DC0101
:1014E000ED91FC910190F081E02D6DE009957C017A
:1014F000D801ED91FC910190F081E02DC8016AE0E6
:1015000009959C012E0D3F1DC9011F910F91FF9060
:10151000EF900895CF93DF93EC016115710519F4F5
:1015200020E030E00FC0DB010D900020E9F71197BB
:10153000A61BB70BE881F9810280F381E02DAD0194
:1015400009959C01C901DF91CF9108954F925F9257
:101550007F928F929F92AF92BF92CF92DF92EF9243
:10156000FF920F931F93DF93CF93CDB7DEB7A19771
:101570000FB6F894DEBF0FBECDBF2C01742ECB0189
:10158000223008F42AE019A231E2C32ED12CCC0E6D
:10159000DD1E822E9924AA24BB24672D752FA50158
:1015A00094010E94710B79018A01C801B701A5015C
:1015B00094010E94520B472D461B0894C108D10884
:1015C0004A3014F4405D01C0495CF6014083E114E7
:1015D000F1040105110521F07E2C5F2DC801DDCF3E
:1015E000C201B6010E948A0AA1960FB6F894DEBF26
:1015F0000FBECDBFCF91DF911F910F91FF90EF9064
:10160000DF90CF90BF90AF909F908F907F905F9032
:101610004F900895DC012115310541F4ED91FC91C5
:101620000190F081E02D642F099508950E94A60A8B
:101630000895EF92FF920F931F939A017B0100E0B0
:1016400010E0B801A7010E940A0B1F910F91FF90B3
:10165000EF900895EF92FF920F931F939A01E62E59
:10166000FF2400E010E0B801A7010E940A0B1F91BF
:101670000F91FF90EF9008950E948A0A0895EF92CB
:10168000FF920F931F937C010E948A0A8C01C7016D
:101690000E946A0A080F191FC8011F910F91FF903D
:1016A000EF900895629FD001739FF001829FE00D3B
:1016B000F11D649FE00DF11D929FF00D839FF00DD1
:1016C000749FF00D659FF00D9927729FB00DE11D7D
:1016D000F91F639FB00DE11DF91FBD01CF0111245A
:1016E0000895A1E21A2EAA1BBB1BFD010DC0AA1F63
:1016F000BB1FEE1FFF1FA217B307E407F50720F07B
:10170000A21BB30BE40BF50B661F771F881F991FF5
:101710001A9469F760957095809590959B01AC013E
:10172000BD01CF010895EE0FFF1F0590F491E02D4C
:061730000994F894FFCFBC
:101736002073696E63652031393730203D20007390
:10174600203D20006400206E6F77202B2037642018
:101756002B203330733A2000525443206973204EB5
:101766004F542072756E6E696E672100000000008E
:101776001D04EC03A503AE03C303D403000000005D
:0C1786009309380A29095A093A09830915
:00000001FF
