:100000000C9462000C948A000C948A000C948A0070
:100010000C948A000C948A000C948A000C948A0038
:100020000C948A000C948A000C948A000C948A0028
:100030000C948A000C948A000C948A000C948A0018
:100040000C9451020C948A000C94E3030C94310438
:100050000C948A000C948A000C948A000C948A00F8
:100060000C948A000C948A000000000024002700F1
:100070002A0000000000250028002B0000000000DE
:1000800023002600290004040404040404040202DA
:100090000202020203030303030301020408102007
:1000A0004080010204081020010204081020000012
:1000B0000007000201000003040600000000000029
:1000C00000009D0511241FBECFEFD8E0DEBFCDBFDD
:1000D00011E0A0E0B1E0EEE3F5E102C005900D9281
:1000E000AC37B107D9F712E0ACE7B1E001C01D921F
:1000F000A734B107E1F710E0C4ECD0E004C02297C8
:10010000FE010E94990AC23CD107C9F70E94F3057B
:100110000C949D0A0C9400006F927F928F929F9294
:10012000AF92BF92CF92DF92EF92FF920F931F9305
:100130005B016C0139014A01C801B701A6019501B3
:100140000E94EF099B01AC01C401B3010E94370872
:100150007B018C0185E2C82E82E0D82EC60160E0CA
:1001600071E00E943A07C601A701B80122E030E021
:100170000E942108B701C8011F910F91FF90EF90D5
:10018000DF90CF90BF90AF909F908F907F906F90B7
:100190000895CF92DF92EF92FF920F931F93609199
:1001A00084017091850180918601909187010E9460
:1001B00037089B01AC0160E070E088EC92E40E949B
:1001C000A0087B018C0195E2C92E92E0D92EC601D0
:1001D00060E171E00E943A07C601A701B80122E080
:1001E00030E00E942408B701C8011F910F91FF90D1
:1001F000EF90DF90CF9008950F931F930E940D0909
:10020000DC01CB010E942D03AA2797FDA095BA2FF0
:10021000BC01CD010E943B09609388017093890164
:1002200080938A0190938B0105E212E0C8016FE18F
:1002300071E00E943A0740918801509189016091D4
:100240008A0170918B01C80122E030E00E942408ED
:10025000209188013091890140918A0150918B0150
:10026000B901CA011F910F9108950F931F930E9426
:100270000D09DC01CB010E942D03AA2797FDA09553
:10028000BA2FBC01CD010E943B0960938401709399
:100290008501809386019093870105E212E0C801F1
:1002A00069E371E00E943A07409184015091850111
:1002B0006091860170918701C80122E030E00E94C0
:1002C000240820918401309185014091860150914C
:1002D0008701B901CA011F910F910895EF92FF9212
:1002E0000F931F93809162010E942D03AA2797FD0F
:1002F000A095BA2FBC01CD010E943B0960937C01FF
:1003000070937D0180937E0190937F0180916401C1
:100310000E942D03AA2797FDA095BA2FBC01CD01FD
:100320000E943B0960938001709381018093820158
:10033000909383018091660161E00E948E03409159
:100340007C0150917D0160917E0170917F0185E279
:1003500092E022E030E00E94240860917C017091DC
:100360007D0180917E0190917F010E940D090E9484
:1003700099028091660160E00E948E0360917C0189
:1003800070917D0180917E0190917F010E940D0905
:100390000E94990285E292E00E94F3041816190661
:1003A0000CF06CC085E292E00E94240590936901F4
:1003B0008093680121E38133920791F021E3823336
:1003C0009207C9F08053914349F560917C01709187
:1003D0007D0180917E0190917F010E94350126C0B0
:1003E00060917C0170917D0180917E0190917F01EF
:1003F0000E94FC001BC060917C0170917D01809186
:100400007E0190917F012091880130918901409176
:100410008A0150918B010E94C90008C085E292E0D8
:1004200065E670E74AE050E00E941B0760917C019E
:1004300070917D0180917E0190917F0120918801D2
:100440003091890140918A0150918B01E0908C019B
:10045000F0908D0100918E0110918F010E948C000F
:100460006093900170939101809392019093930116
:1004700068EE73E080E090E00E9499021F910F9176
:10048000FF90EF9008958091660161E00E944F0314
:1004900085E292E040E855E260E070E00E946C0482
:1004A00008951F920F920FB60F9211242F933F932E
:1004B0008F939F93AF93BF938091980190919901EF
:1004C000A0919A01B0919B0130919C010196A11DD0
:1004D000B11D232F2D5F2D3720F02D570196A11D23
:1004E000B11D20939C018093980190939901A09352
:1004F0009A01B0939B018091940190919501A091F4
:100500009601B09197010196A11DB11D80939401B0
:1005100090939501A0939601B0939701BF91AF91ED
:100520009F918F913F912F910F900FBE0F901F9031
:1005300018959B01AC017FB7F8948091940190913C
:100540009501A0919601B091970166B5A89B05C051
:100550006F3F19F00196A11DB11D7FBFBA2FA92FC2
:10056000982F8827860F911DA11DB11D62E0880F6D
:10057000991FAA1FBB1F6A95D1F7BC012DC0FFB7F9
:10058000F8948091940190919501A0919601B09179
:100590009701E6B5A89B05C0EF3F19F00196A11D94
:1005A000B11DFFBFBA2FA92F982F88278E0F911D3D
:1005B000A11DB11DE2E0880F991FAA1FBB1FEA957C
:1005C000D1F7861B970B885E9340C8F221503040CC
:1005D0004040504068517C4F21153105410551057F
:1005E00071F60895789484B5826084BD84B5816085
:1005F00084BD85B5826085BD85B5816085BDEEE62B
:10060000F0E0808181608083E1E8F0E01082808109
:1006100082608083808181608083E0E8F0E0808177
:1006200081608083E1EBF0E0808184608083E0EB97
:10063000F0E0808181608083EAE7F0E0808184607F
:1006400080838081826080838081816080838081DB
:10065000806880831092C1000895982F8E3008F032
:100660009E50977080916A018295880F880F807CD8
:10067000892B80937C0080917A00806480937A003B
:1006800080917A0086FDFCCF20917800409179001E
:10069000942F80E030E0282B392BC9010895CF93A7
:1006A000DF93482F50E0CA0186569F4FFC013491DA
:1006B0004A575F4FFA018491882369F190E0880FCF
:1006C000991FFC01E859FF4FA591B491FC01EE5828
:1006D000FF4FC591D491662351F42FB7F8948C91B4
:1006E000932F909589238C93888189230BC0623046
:1006F00061F42FB7F8948C91932F909589238C9364
:100700008881832B88832FBF06C09FB7F8948C9174
:10071000832B8C939FBFDF91CF910895482F50E09A
:10072000CA0182559F4FFC012491CA0186569F4FF2
:10073000FC0194914A575F4FFA013491332309F435
:1007400040C0222351F1233071F0243028F42130AD
:10075000A1F0223011F514C02630B1F02730C1F0DD
:100760002430D9F404C0809180008F7703C0809139
:1007700080008F7D8093800010C084B58F7702C089
:1007800084B58F7D84BD09C08091B0008F7703C090
:100790008091B0008F7D8093B000E32FF0E0EE0FEA
:1007A000FF1FEE58FF4FA591B4912FB7F894662321
:1007B00021F48C919095892302C08C91892B8C9384
:1007C0002FBF089508951F920F920FB60F92112414
:1007D0002F933F934F938F939F93EF93FF9380912A
:1007E000C00082FD1DC04091C6002091DD01309106
:1007F000DE012F5F3F4F2F7330708091DF019091AA
:10080000E0012817390771F0E091DD01F091DE0178
:10081000E356FE4F40833093DE012093DD0102C09A
:100820008091C600FF91EF919F918F914F913F91E1
:100830002F910F900FBE0F901F901895E0913102ED
:10084000F0913202E05CFF4F8191919120813181E2
:10085000821B930B8F739070892B11F00E94E2031F
:1008600008951F920F920FB60F9211242F933F936A
:100870008F939F93EF93FF93209121023091220257
:1008800080912302909124022817390731F4809136
:10089000C1008F7D8093C10014C0E0912302F091CC
:1008A0002402EF51FE4F2081809123029091240277
:1008B00001968F739070909324028093230220936B
:1008C000C600FF91EF919F918F913F912F910F90D3
:1008D0000FBE0F901F901895AF92BF92DF92EF92CC
:1008E000FF920F931F93CF93DF93EC017A018B015B
:1008F000DD24403081EE580780E0680780E078070B
:1009000011F0DD24D39491E0A92EB12CEC89FD895E
:10091000DD2069F0C50108A002C0880F991F0A9464
:10092000E2F7808360E079E08DE390E005C010821B
:1009300060E874E88EE190E0A80197010E94750AD2
:100940002150304040405040569547953795279567
:1009500080E12030380720F0DD2011F0DD24D6CFF3
:10096000E889F9893083EA89FB89208319A2EE8915
:10097000FF89408121E030E0C9010C8C02C0880F62
:10098000991F0A94E2F7482B4083EE89FF89408142
:10099000C9010D8C02C0880F991F0A94E2F7482BF9
:1009A0004083EE89FF894081C9010E8C02C0880F07
:1009B000991F0A94E2F7482B4083EE89FF898081D2
:1009C0000F8C02C0220F331F0A94E2F720952823D0
:1009D0002083DF91CF911F910F91FF90EF90DF90D7
:1009E000BF90AF900895DC011C96ED91FC911D978E
:1009F000E05CFF4F2191319180819181281B390B5F
:100A00002F733070C9010895DC011C96ED91FC91A3
:100A10001D97E05CFF4F20813181E054F040DF0101
:100A2000AE5BBF4F8D919C9111972817390719F430
:100A30002FEF3FEF07C08D919C91E80FF91F808148
:100A4000282F30E0C9010895DC011C96ED91FC913E
:100A50001D97E05CFF4F20813181E054F040DF01C1
:100A6000AE5BBF4F8D919C9111972817390719F4F0
:100A70002FEF3FEF10C08D919C911197E80FF91F58
:100A800020818D919C91119701968F739070119692
:100A90009C938E9330E0C9010895DC0191968C916E
:100AA0009197882339F05496ED91FC915597808168
:100AB00086FFF9CF91961C920895CF93DF93EC01B6
:100AC000EE85FF85E05CFF4F20813181E054F040EE
:100AD0002F5F3F4F2F733070DF01AE5BBF4F8D91A3
:100AE0009C91119728173907D1F3E05CFF4F808163
:100AF0009181E054F040E80FF91F6083EE85FF8597
:100B0000E05CFF4F31832083EE89FF89208181E003
:100B100090E00F8C02C0880F991F0A94E2F7282BEF
:100B2000208381E089A3EC89FD89808180648083B2
:100B300081E090E0DF91CF91089510922802109209
:100B4000270288EE93E0A0E0B0E080932902909322
:100B50002A02A0932B02B0932C028FE691E090938F
:100B60002602809325028DE991E0909332028093D2
:100B7000310281EE91E0909334028093330285EC50
:100B800090E0909336028093350284EC90E090934D
:100B900038028093370280EC90E090933A02809381
:100BA000390281EC90E090933C0280933B0282EC0E
:100BB00090E090933E0280933D0286EC90E090930B
:100BC000400280933F0284E08093410283E080935F
:100BD000420287E08093430285E08093440281E0F3
:100BE000809345020895CF93DF930E94F2020E9402
:100BF0004302CEE1D4E00E946E012097E1F30E940F
:100C00001E04F9CFCF92DF92EF92FF920F931F93C2
:100C1000CF93DF937C016B018A01C0E0D0E00FC06D
:100C2000D6016D916D01D701ED91FC910190F0819C
:100C3000E02DC7010995C80FD91F015010400115BB
:100C4000110571F7CE01DF91CF911F910F91FF90A8
:100C5000EF90DF90CF900895EF92FF920F931F9344
:100C60008C01DC01ED91FC910190F081E02D6DE0B3
:100C700009957C01D801ED91FC910190F081E02D66
:100C8000C8016AE009959C012E0D3F1DC9011F9105
:100C90000F91FF90EF900895CF93DF93EC016115D2
:100CA000710519F420E030E00FC0DB010D90002049
:100CB000E9F71197A61BB70BE881F9810280F38150
:100CC000E02DAD0109959C01C901DF91CF910895F7
:100CD0004F925F927F928F929F92AF92BF92CF92EC
:100CE000DF92EF92FF920F931F93DF93CF93CDB7D5
:100CF000DEB7A1970FB6F894DEBF0FBECDBF2C01B3
:100D0000742ECB01223008F42AE019A231E2C32E5E
:100D1000D12CCC0EDD1E822E9924AA24BB24672D53
:100D2000752FA50194010E94750A79018A01C801F5
:100D3000B701A50194010E94560A472D461B08944D
:100D4000C108D1084A3014F4405D01C0495CF60185
:100D50004083E114F1040105110521F07E2C5F2D83
:100D6000C801DDCFC201B6010E944C06A1960FB6A4
:100D7000F894DEBF0FBECDBFCF91DF911F910F91D1
:100D8000FF90EF90DF90CF90BF90AF909F908F90AB
:100D90007F905F904F900895DC012115310541F45B
:100DA000ED91FC910190F081E02D642F099508955B
:100DB0000E9468060895CF92DF92EF92FF920F9300
:100DC0001F93CF93DF93EC016A017B01211531055D
:100DD00041F4E881F9810190F081E02D642F0995BB
:100DE0001FC02A303105D1F477FF17C0E881F9819F
:100DF0000190F081E02D6DE209958C014427552783
:100E0000BA014C195D096E097F09CE012AE00E94E2
:100E100068069801280F391F04C02AE00E9468065E
:100E20009C01C901DF91CF911F910F91FF90EF902D
:100E3000DF90CF900895CF92DF92EF92FF920F93C1
:100E40001F936C017B019A010027F7FC0095102F7E
:100E5000B801A7010E94DB068C01C6010E942C0686
:100E6000080F191FC8011F910F91FF90EF90DF909D
:100E7000CF9008950E944C0608957F928F929F9282
:100E8000AF92BF92CF92DF92EF92FF920F931F9398
:100E9000CF93DF934C017A018B01722ECB01BA0103
:100EA000A80197010E94520A882321F0C40164E539
:100EB00071E021C0C0E0D0E057016801E894D7F8A4
:100EC000C601B5012FEF3FEF4FE75FE70E94520ADF
:100ED000882351F4C601B5012FEF3FEF4FE75FE7DD
:100EE0000E949C08181614F0C1E0D0E0219739F058
:100EF000C40168E571E00E944C06EC0193C0C80192
:100F0000B7012FEF3FEF4FE75FE40E94EB091816A0
:100F100054F0C801B7012FEF3FEF4FE75FEC0E949D
:100F20009C08882324F4C4016CE571E0E4CFC80177
:100F3000B70120E030E040E050E00E949C0887FDCF
:100F400003C0C0E0D0E00EC0D401ED91FC9101904F
:100F5000F081E02DC4016DE20995EC0117FB1095BD
:100F600017F9109520E030E040E05FE3DD240BC08E
:100F7000CA01B90120E030E040E251E40E94A0083B
:100F80009B01AC01D394D71498F3C801B7010E9418
:100F900038085B016C010E940D097B018C01C401C2
:100FA000B801A7012AE030E00E94CC06C80FD91F83
:100FB000772039F0C40160E671E00E944C06C80F4A
:100FC000D91FC801B7010E9439099B01AC01C601B4
:100FD000B5010E94370824C020E030E040E251E42F
:100FE0000E94EF097B018C010E9408095B016C01E2
:100FF000CC24B7FCC094DC2CC401B601A5012AE0C6
:1010000030E00E94DB06C80FD91FC601B5010E945F
:101010003B099B01AC01C801B7010E9437087A94D3
:101020007720D1F6CE01DF91CF911F910F91FF90E4
:10103000EF90DF90CF90BF90AF909F908F907F9078
:1010400008950E943D070895EF92FF920F931F931A
:101050007C010E943D078C01C7010E942C06080FED
:10106000191FC8011F910F91FF90EF9008955058DC
:10107000BB27AA270ED075C166D130F06BD120F006
:1010800031F49F3F11F41EF45BC10EF4E095E7FBD1
:1010900051C1E92F77D180F3BA176207730784072C
:1010A000950718F071F49EF58FC10EF4E0950B2EA4
:1010B000BA2FA02D0B01B90190010C01CA01A001AA
:1010C0001124FF27591B99F0593F50F4503E68F105
:1010D0001A16F040A22F232F342F4427585FF3CF46
:1010E000469537952795A795F0405395C9F77EF417
:1010F0001F16BA0B620B730B840BBAF09150A1F060
:10110000FF0FBB1F661F771F881FC2F70EC0BA0FE5
:10111000621F731F841F48F4879577956795B7956D
:10112000F7959E3F08F0B3CF9395880F08F0992765
:10113000EE0F979587950895D9D008F481E008952A
:101140000CD00FC107D140F0FED030F021F45F3F4A
:1011500019F0F0C0511139C1F3C014D198F399239B
:10116000C9F35523B1F3951B550BBB27AA2762176B
:101170007307840738F09F5F5F4F220F331F441FB0
:10118000AA1FA9F333D00E2E3AF0E0E830D09150E8
:101190005040E695001CCAF729D0FE2F27D0660FD5
:1011A000771F881FBB1F261737074807AB07B0E814
:1011B00009F0BB0B802DBF01FF2793585F4F2AF02A
:1011C0009E3F510568F0B6C000C15F3FECF3983E0A
:1011D000DCF3869577956795B795F7959F5FC9F787
:1011E000880F911D9695879597F90895E1E0660F10
:1011F000771F881FBB1F621773078407BA0720F089
:10120000621B730B840BBA0BEE1F88F7E0950895F1
:1012100004D06894B111D9C00895BCD088F09F570C
:1012200090F0B92F9927B751A0F0D1F0660F771F32
:10123000881F991F1AF0BA95C9F712C0B13081F012
:10124000C3D0B1E00895C0C0672F782F8827B85F5A
:1012500039F0B93FCCF3869577956795B395D9F773
:101260003EF490958095709561957F4F8F4F9F4F7D
:101270000895E89409C097FB3EF490958095709589
:1012800061957F4F8F4F9F4F9923A9F0F92F96E9D2
:10129000BB279395F695879577956795B795F11147
:1012A000F8CFFAF4BB0F11F460FF1BC06F5F7F4FE4
:1012B0008F4F9F4F16C0882311F096E911C07723F6
:1012C00021F09EE8872F762F05C0662371F096E8FF
:1012D000862F70E060E02AF09A95660F771F881FCE
:1012E000DAF7880F9695879597F90895990F000872
:1012F000550FAA0BE0E8FEEF16161706E807F907E8
:10130000C0F012161306E407F50798F0621B730B82
:10131000840B950B39F40A2661F0232B242B252B03
:1013200021F408950A2609F4A140A6958FEF811DA6
:10133000811D089597F99F6780E870E060E0089547
:101340009FEF80EC089500240A94161617061806DD
:101350000906089500240A941216130614060506B9
:101360000895092E0394000C11F4882352F0BB0F4A
:1013700040F4BF2B11F460FF04C06F5F7F4F8F4FAD
:101380009F4F089557FD9058440F551F59F05F3FE8
:1013900071F04795880F97FB991F61F09F3F79F097
:1013A00087950895121613061406551FF2CF469519
:1013B000F1DF08C0161617061806991FF1CF86959B
:1013C0007105610508940895E894BB27662777277F
:1013D000CB0197F908958ADF08F48FEF08950BD0B9
:1013E000C0CFB1DF28F0B6DF18F0952309F0A2CF07
:1013F000A7CF1124EACFC6DFA0F3959FD1F3950FB5
:1014000050E0551F629FF001729FBB27F00DB11D88
:10141000639FAA27F00DB11DAA1F649F6627B00D18
:10142000A11D661F829F2227B00DA11D621F739F01
:10143000B00DA11D621F839FA00D611D221F749F0F
:101440003327A00D611D231F849F600D211D822F56
:10145000762F6A2F11249F5750408AF0E1F088239D
:101460004AF0EE0FFF1FBB1F661F771F881F9150AA
:101470005040A9F79E3F510570F05CCFA6CF5F3F6B
:10148000ECF3983EDCF3869577956795B795F795DD
:10149000E7959F5FC1F7FE2B880F911D9695879565
:1014A00097F9089523DF880B990B0895629FD00167
:1014B000739FF001829FE00DF11D649FE00DF11D0F
:1014C000929FF00D839FF00D749FF00D659FF00DBE
:1014D0009927729FB00DE11DF91F639FB00DE11DAB
:1014E000F91FBD01CF0111240895A1E21A2EAA1BF4
:1014F000BB1BFD010DC0AA1FBB1FEE1FFF1FA217C4
:10150000B307E407F50720F0A21BB30BE40BF50BC0
:10151000661F771F881F991F1A9469F76095709549
:10152000809590959B01AC01BD01CF010895EE0F10
:0E153000FF1F0590F491E02D0994F894FFCF71
:10153E004C6971756964206C6576656C203D200080
:10154E00536C6F706520666F756E64203D2000468B
:10155E00756C6C2043616C6962726174696F6E2088
:10156E0056616C7565203D2000456D707479204381
:10157E00616C6962726174696F6E2056616C75651B
:10158E00203D20006E616E00696E66006F7666000B
:10159E002E00120013000D000A0001000000005D75
:0C15AE00050206F304240504054D0500A9
:00000001FF
