:100000000C9403010C9430010C9430010C943001D9
:100010000C9430010C9430010C9430010C9430019C
:100020000C9430010C9430010C9430010C9430018C
:100030000C9430010C9430010C9430010C9430017C
:100040000C9430010C9430010C9430010C9430016C
:100050000C9430010C9430010C9430010C94FA0291
:100060000C9430010C9418050C9460060C9430012B
:100070000C9430010C9430010C9430010C9430013C
:100080000C9430010C9430010C9430010C9430012C
:100090000C9458050C949F060C9430010C9430017C
:1000A0000C9430010C9430010C9430010C9430010C
:1000B0000C9430010C9430010C9430010C943001FC
:1000C0000C9430010C9430010C9430010C94980580
:1000D0000C94DE060C9430010C94D8050C941D078A
:1000E0000C94300100002100240027002A002D007C
:1000F0003000330001010000040107010A01000083
:100100002200250028002B002E00310034000201BF
:100110000000050108010B0100002000230026005B
:1001200029002C002F00320000010000030106010D
:10013000090105050505070508080808020202026D
:100140000A0A080804040404010101010101010173
:100150000303030303030303040707070C0C0C0C3E
:100160000C0C0C0C02020202060606060606060627
:100170000B0B0B0B0B0B0B0B0102102020080810B4
:100180002040102040800201020108040201010207
:1001900004081020408080402010080402018004E0
:1001A000020180402010080402010804020101023B
:1001B0000408102040800102040810204080000044
:1001C000090A02080B0C0D070603040100000000D9
:1001D000000000000000000000000000000000001F
:1001E0000000000000000000000011100F000000DF
:1001F00000000000000000000000000000000000FF
:10020000000000008D0811241FBECFEFD1E2DEBF39
:10021000CDBF00E00CBF12E0A0E0B2E0EEEDFCE1EB
:1002200000E00BBF02C007900D92AA37B107D9F7C3
:100230001BBE15E0AAE7B2E001C01D92A534B107CC
:10024000E1F712E0C6E0D2E004C02297FE010E946E
:10025000690EC430D107C9F70E94C3090C946D0E12
:100260000C9400006F927F928F929F92AF92BF92F8
:10027000CF92DF92EF92FF920F931F935B016C017D
:1002800039014A01C801B701A60195010E94BF0DBD
:100290009B01AC01C401B3010E94070C7B018C01DE
:1002A0008DEBC82E84E0D82EC60160E072E00E947B
:1002B0000A0BC601A701B80122E030E00E94F10B51
:1002C000B701C8011F910F91FF90EF90DF90CF9081
:1002D000BF90AF909F908F907F906F900895CF9236
:1002E000DF92EF92FF920F931F93609182027091C1
:1002F000830280918402909185020E94070C9B01E9
:10030000AC0160E070E088EC92E40E94700C7B012C
:100310008C019DEBC92E94E0D92EC60160E172E0FC
:100320000E940A0BC601A701B80122E030E00E943A
:10033000F40B1F910F91FF90EF90DF90CF900895F5
:100340000F931F930E94DD0CDC01CB010E94FD0383
:10035000AA2797FDA095BA2FBC01CD010E940B0DD5
:10036000609386027093870280938802909389023B
:100370000DEB14E0C8016FE172E00E940A0B40919E
:100380008602509187026091880270918902C801AB
:1003900022E030E00E94F40B209186023091870227
:1003A0004091880250918902B901CA011F910F91B1
:1003B00008950F931F930E94DD0CDC01CB010E9476
:1003C000FD03AA2797FDA095BA2FBC01CD010E947D
:1003D0000B0D60938202709383028093840290934A
:1003E00085020DEB14E0C80169E372E00E940A0B7C
:1003F0004091820250918302609184027091850243
:10040000C80122E030E00E94F40B2091820230917A
:1004100083024091840250918502B901CA011F9163
:100420000F910895EF92FF920F931F9380916202B4
:100430000E94FD03AA2797FDA095BA2FBC01CD010C
:100440000E940B0D60937A0270937B0280937C0272
:1004500090937D02809164020E94FD03AA2797FD7C
:10046000A095BA2FBC01CD010E940B0D60937E02B6
:1004700070937F0280938002909381028091660244
:1004800061E00E94E40440917A0250917B02609105
:100490007C0270917D028DEB94E022E030E00E94BE
:1004A000F40B60917A0270917B0280917C029091B2
:1004B0007D020E94DD0C0E9442038091660260E092
:1004C0000E94E40460917A0270917B0280917C0228
:1004D00090917D020E94DD0C0E9442038DEB94E01E
:1004E0000E94E307181619060CF071C08DEB94E01A
:1004F0000E94140890939302809392028233910594
:1005000081F083339105C1F0C19789F560917A023A
:1005100070917B0280917C0290917D020E94D901B2
:100520002EC060917A0270917B0280917C02909142
:100530007D020E94A00123C060917A0270917B022B
:1005400080917C0290917D022091860230918702F9
:100550004091880250918902E0908A02F0908B02CB
:1005600000918C0210918D020E946F0108C08DEBEA
:1005700094E065E670E74AE050E00E94EB0A609183
:100580007A0270917B0280917C0290917D02209191
:100590008602309187024091880250918902E09052
:1005A0008A02F0908B0200918C0210918D020E94C1
:1005B000320160938E0270938F0280939002909329
:1005C000910268EE73E080E090E00E9442031F9188
:1005D0000F91FF90EF9008958091660261E00E9474
:1005E00031048DEB94E040E855E260E070E00E9459
:1005F0005C0708951F920F920FB60F9211242F934C
:100600003F938F939F93AF93BF9380919802909164
:100610009902A0919A02B0919B0230919C0201969E
:10062000A11DB11D232F2D5F2D3720F02D570196D1
:10063000A11DB11D20939C02809398029093990272
:10064000A0939A02B0939B0280919402909195029C
:10065000A0919602B09197020196A11DB11D8093C1
:10066000940290939502A0939602B0939702BF9143
:10067000AF919F918F913F912F910F900FBE0F904F
:100680001F9018959B01AC017FB7F894809194025C
:1006900090919502A0919602B091970266B5A89BA1
:1006A00005C06F3F19F00196A11DB11D7FBFBA2F84
:1006B000A92F982F8827860F911DA11DB11D62E0DB
:1006C000880F991FAA1FBB1F6A95D1F7BC012DC0C7
:1006D000FFB7F8948091940290919502A0919602B0
:1006E000B0919702E6B5A89B05C0EF3F19F00196BF
:1006F000A11DB11DFFBFBA2FA92F982F88278E0FDC
:10070000911DA11DB11DE2E0880F991FAA1FBB1FFB
:10071000EA95D1F7861B970B885E9340C8F221506B
:1007200030404040504068517C4F21153105410513
:10073000510571F60895789484B5826084BD84B5BE
:10074000816084BD85B5826085BD85B5816085BDCC
:10075000EEE6F0E0808181608083E1E8F0E01082E5
:10076000808182608083808181608083E0E8F0E026
:10077000808181608083E1EBF0E080818460808310
:10078000E0EBF0E0808181608083E1E9F0E080814E
:1007900082608083808181608083E0E9F0E08081F5
:1007A00081608083E1EAF0E08081826080838081E3
:1007B00081608083E0EAF0E0808181608083E1E213
:1007C000F1E0808182608083808181608083E0E2CB
:1007D000F1E0808181608083EAE7F0E080818460DD
:1007E000808380818260808380818160808380813A
:1007F000806880831092C1000895382F863308F0F6
:10080000365320917B00832F86958695869590E0C0
:100810008170907043E0880F991F4A95E1F7277F18
:10082000282B20937B003770809168028295880F77
:10083000880F807C832B80937C0080917A00806479
:1008400080937A0080917A0086FDFCCF2091780019
:1008500040917900942F80E030E0282B392BC9019A
:100860000895CF93DF93482F50E0CA0188589E4FD8
:10087000FC0134914E5C5E4FFA018491882369F14A
:1008800090E0880F991FFC01EC51FF4FA591B491A6
:10089000FC01E250FF4FC591D491662351F42FB76C
:1008A000F8948C91932F909589238C938881892338
:1008B0000BC0623061F42FB7F8948C91932F909510
:1008C00089238C938881832B88832FBF06C09FB791
:1008D000F8948C91832B8C939FBFDF91CF910895D7
:1008E000893009F449C08A30A0F4843051F1853050
:1008F00040F4823079F1833000F5813009F063C033
:1009000026C0873079F1883098F5863009F05BC0D1
:1009100025C08D3009F442C08E3028F48B30B1F1FF
:100920008C30C0F52DC0803109F442C0813109F40A
:1009300045C08F3009F047C037C0809180008F7765
:1009400003C0809180008F7D80938000089584B5DE
:100950008F7702C084B58F7D84BD08958091B000EB
:100960008F7703C08091B0008F7D8093B000089591
:10097000809190008F7707C0809190008F7D03C099
:1009800080919000877F8093900008958091A000CF
:100990008F7707C08091A0008F7D03C08091A00059
:1009A000877F8093A0000895809120018F7703C0F6
:1009B000809120018F7D80932001089580912001F6
:1009C000877F809320010895FF920F931F93F62E47
:1009D000482F50E0CA0182549E4FFC012491CA0165
:1009E00088589E4FFC0114914E5C5E4FFA010491B1
:1009F0000023C9F0222319F0822F0E947004E02FF7
:100A0000F0E0EE0FFF1FE250FF4FA591B4919FB7AA
:100A1000F894FF2021F48C911095812302C08C91D1
:100A2000812B8C939FBF1F910F91FF900895089584
:100A30001F920F920FB60F920BB60F9211242F93A5
:100A40003F934F938F939F93EF93FF938091C000B9
:100A500082FD1DC04091C6002091DD023091DE0272
:100A60002F5F3F4F2F7330708091DF029091E00233
:100A70002817390771F0E091DD02F091DE02E356AC
:100A8000FD4F40833093DE022093DD0202C080914F
:100A9000C600FF91EF919F918F914F913F912F91C0
:100AA0000F900BBE0F900FBE0F901F9018950895DA
:100AB0001F920F920FB60F920BB60F9211242F9325
:100AC0003F934F938F939F93EF93FF938091C80031
:100AD00082FD1DC04091CE002091650330916603D8
:100AE0002F5F3F4F2F7330708091670390916803A1
:100AF0002817390771F0E0916503F0916603EB5D0B
:100B0000FC4F4083309366032093650302C08091BD
:100B1000CE00FF91EF919F918F914F913F912F9137
:100B20000F900BBE0F900FBE0F901F901895089559
:100B30001F920F920FB60F920BB60F9211242F93A4
:100B40003F934F938F939F93EF93FF938091D000A8
:100B500082FD1DC04091D6002091ED033091EE033F
:100B60002F5F3F4F2F7330708091EF039091F00310
:100B70002817390771F0E091ED03F091EE03E3558A
:100B8000FC4F40833093EE032093ED0302C080912D
:100B9000D600FF91EF919F918F914F913F912F91AF
:100BA0000F900BBE0F900FBE0F901F9018950895D9
:100BB0001F920F920FB60F920BB60F9211242F9324
:100BC0003F934F938F939F93EF93FF9380913001C7
:100BD00082FD1DC04091360120917504309176044C
:100BE0002F5F3F4F2F73307080917704909178047E
:100BF0002817390771F0E0917504F0917604EB5CE9
:100C0000FB4F4083309376042093750402C080919B
:100C10003601FF91EF919F918F914F913F912F91CD
:100C20000F900BBE0F900FBE0F901F901895E09184
:100C3000C904F091CA04E05CFF4F81919191208139
:100C40003181821B930B8F739070892B11F00E945E
:100C50001705E091EB04F091EC04E05CFF4F81910B
:100C6000919120813181821B930B8F739070892B1E
:100C700011F00E945705E0910D05F0910E05E05C22
:100C8000FF4F8191919120813181821B930B8F7352
:100C90009070892B11F00E949705E0912F05F0913B
:100CA0003005E05CFF4F8191919120813181821B61
:100CB000930B8F739070892B11F00E94D7050895C4
:100CC0001F920F920FB60F920BB60F9211242F9313
:100CD0003F938F939F93EF93FF9320912103309144
:100CE000220380912303909124032817390731F4BC
:100CF0008091C1008F7D8093C10014C0E0912303D7
:100D0000F0912403EF51FD4F2081809123039091B6
:100D1000240301968F739070909324038093230390
:100D20002093C600FF91EF919F918F913F912F915A
:100D30000F900BBE0F900FBE0F901F9018951F9233
:100D40000F920FB60F920BB60F9211242F933F9371
:100D50008F939F93EF93FF932091A9033091AA0360
:100D60008091AB039091AC032817390731F480913F
:100D7000C9008F7D8093C90014C0E091AB03F0914E
:100D8000AC03E759FC4F20818091AB039091AC03F9
:100D900001968F7390709093AC038093AB03209374
:100DA000CE00FF91EF919F918F913F912F910F90E6
:100DB0000BBE0F900FBE0F901F9018951F920F92B1
:100DC0000FB60F920BB60F9211242F933F938F9370
:100DD0009F93EF93FF9320913104309132048091DF
:100DE0003304909134042817390731F48091D100ED
:100DF0008F7D8093D10014C0E0913304F0913404CE
:100E0000EF50FC4F2081809133049091340401967F
:100E10008F73907090933404809333042093D600A2
:100E2000FF91EF919F918F913F912F910F900BBE6A
:100E30000F900FBE0F901F9018951F920F920FB634
:100E40000F920BB60F9211242F933F938F939F9382
:100E5000EF93FF932091B9043091BA048091BB04C1
:100E60009091BC042817390731F4809131018F7DAE
:100E70008093310114C0E091BB04F091BC04E758A9
:100E8000FB4F20818091BB049091BC0401968F732D
:100E900090709093BC048093BB0420933601FF9123
:100EA000EF919F918F913F912F910F900BBE0F90DB
:100EB0000FBE0F901F901895AF92BF92DF92EF92E6
:100EC000FF920F931F93CF93DF93EC017A018B0175
:100ED000DD24403081EE580780E0680780E0780725
:100EE00011F0DD24D39491E0A92EB12CEC89FD8979
:100EF000DD2069F0C50108A002C0880F991F0A947F
:100F0000E2F7808360E079E08DE390E005C0108235
:100F100060E874E88EE190E0A80197010E94450E18
:100F20002150304040405040569547953795279581
:100F300080E12030380720F0DD2011F0DD24D6CF0D
:100F4000E889F9893083EA89FB89208319A2EE892F
:100F5000FF89408121E030E0C9010C8C02C0880F7C
:100F6000991F0A94E2F7482B4083EE89FF8940815C
:100F7000C9010D8C02C0880F991F0A94E2F7482B13
:100F80004083EE89FF894081C9010E8C02C0880F21
:100F9000991F0A94E2F7482B4083EE89FF898081EC
:100FA0000F8C02C0220F331F0A94E2F720952823EA
:100FB0002083DF91CF911F910F91FF90EF90DF90F1
:100FC000BF90AF900895DC011C96ED91FC911D97A8
:100FD000E05CFF4F2191319180819181281B390B79
:100FE0002F733070C9010895DC011C96ED91FC91BE
:100FF0001D97E05CFF4F20813181E054F040DF011C
:10100000AE5BBF4F8D919C9111972817390719F44A
:101010002FEF3FEF07C08D919C91E80FF91F808162
:10102000282F30E0C9010895DC011C96ED91FC9158
:101030001D97E05CFF4F20813181E054F040DF01DB
:10104000AE5BBF4F8D919C9111972817390719F40A
:101050002FEF3FEF10C08D919C911197E80FF91F72
:1010600020818D919C91119701968F7390701196AC
:101070009C938E9330E0C9010895DC0191968C9188
:101080009197882339F05496ED91FC915597808182
:1010900086FFF9CF91961C920895CF93DF93EC01D0
:1010A000EE85FF85E05CFF4F20813181E054F04008
:1010B0002F5F3F4F2F733070DF01AE5BBF4F8D91BD
:1010C0009C91119728173907D1F3E05CFF4F80817D
:1010D0009181E054F040E80FF91F6083EE85FF85B1
:1010E000E05CFF4F31832083EE89FF89208181E01E
:1010F00090E00F8C02C0880F991F0A94E2F7282B0A
:10110000208381E089A3EC89FD89808180648083CC
:1011100081E090E0DF91CF9108951F931092C00479
:101120001092BF0428EE33E040E050E02093C10469
:101130003093C2044093C3045093C4046DE672E03C
:101140007093BE046093BD048DE992E09093CA044D
:101150008093C90481EE92E09093CC048093CB04F9
:1011600085EC90E09093CE048093CD0484EC90E0E5
:101170009093D0048093CF0480EC90E09093D204BD
:101180008093D10481EC90E09093D4048093D304B5
:1011900082EC90E09093D6048093D50486EC90E0A6
:1011A0009093D8048093D70414E01093D904B3E04B
:1011B000B093DA04A7E0A093DB04F5E0F093DC043D
:1011C000E1E0E093DD041092E2041092E104209348
:1011D000E3043093E4044093E5045093E6047093F1
:1011E000E0046093DF0485E293E09093EC04809345
:1011F000EB0489E693E09093EE048093ED048DEC8C
:1012000090E09093F0048093EF048CEC90E0909346
:10121000F2048093F10488EC90E09093F4048093BE
:10122000F30489EC90E09093F6048093F5048AEC43
:1012300090E09093F8048093F7048EEC90E0909304
:10124000FA048093F9041093FB04B093FC04A09378
:10125000FD04F093FE04E093FF0410920405109245
:101260000305209305053093060540930705509329
:10127000080570930205609301058DEA93E0909351
:101280000E0580930D0581EF93E0909310058093F8
:101290000F0585ED90E0909312058093110584ED84
:1012A00090E0909314058093130580ED90E0909367
:1012B00016058093150581ED90E0909318058093B5
:1012C000170582ED90E090931A058093190586ED3D
:1012D00090E090931C0580931B0510931D05B0931F
:1012E0001E05A0931F05F0932005E09321051092A1
:1012F0002605109225052093270530932805409355
:10130000290550932A05709324056093230585E3EE
:1013100094E09093300580932F0589E794E09093B3
:1013200032058093310585E391E0909334058093F5
:10133000330584E391E0909336058093350580E38F
:1013400091E0909338058093370581E391E0909385
:101350003A058093390582E391E090933C058093B0
:101360003B0586E391E090933E0580933D05109305
:101370003F05B0934005A0934105F0934205E093EB
:1013800043051F910895CF93DF930E949B030E9412
:10139000EC02C7E1D6E00E9412022097E1F30E941E
:1013A0001706F9CFCF92DF92EF92FF920F931F9320
:1013B000CF93DF937C016B018A01C0E0D0E00FC0C6
:1013C000D6016D916D01D701ED91FC910190F081F5
:1013D000E02DC7011995C80FD91F01501040011504
:1013E000110571F7CE01DF91CF911F910F91FF9001
:1013F000EF90DF90CF900895EF92FF920F931F939D
:101400008C01DC01ED91FC910190F081E02D6DE00B
:1014100019957C01D801ED91FC910190F081E02DAE
:10142000C8016AE019959C012E0D3F1DC9011F914D
:101430000F91FF90EF900895CF93DF93EC0161152A
:10144000710519F420E030E00FC0DB010D900020A1
:10145000E9F71197A61BB70BE881F9810280F381A8
:10146000E02DAD0119959C01C901DF91CF9108953F
:101470004F925F927F928F929F92AF92BF92CF9244
:10148000DF92EF92FF920F931F93DF93CF93CDB72D
:10149000DEB7A1970FB6F894DEBF0FBECDBF2C010B
:1014A000742ECB01223008F42AE019A231E2C32EB7
:1014B000D12CCC0EDD1E822E9924AA24BB24672DAC
:1014C000752FA50194010E94450E79018A01C8017A
:1014D000B701A50194010E94260E472D461B0894D2
:1014E000C108D1084A3014F4405D01C0495CF601DE
:1014F0004083E114F1040105110521F07E2C5F2DDC
:10150000C801DDCFC201B6010E941C0AA1960FB628
:10151000F894DEBF0FBECDBFCF91DF911F910F9129
:10152000FF90EF90DF90CF90BF90AF909F908F9003
:101530007F905F904F900895DC012115310541F4B3
:10154000ED91FC910190F081E02D642F19950895A3
:101550000E94380A0895CF92DF92EF92FF920F9384
:101560001F93CF93DF93EC016A017B0121153105B5
:1015700041F4E881F9810190F081E02D642F199503
:101580001FC02A303105D1F477FF17C0E881F981F7
:101590000190F081E02D6DE219958C0144275527CB
:1015A000BA014C195D096E097F09CE012AE00E943B
:1015B000380A9801280F391F04C02AE00E94380A0F
:1015C0009C01C901DF91CF911F910F91FF90EF9086
:1015D000DF90CF900895CF92DF92EF92FF920F931A
:1015E0001F936C017B019A010027F7FC0095102FD7
:1015F000B801A7010E94AB0A8C01C6010E94FC0938
:10160000080F191FC8011F910F91FF90EF90DF90F5
:10161000CF9008950E941C0A08957F928F929F9206
:10162000AF92BF92CF92DF92EF92FF920F931F93F0
:10163000CF93DF934C017A018B01722ECB01BA015B
:10164000A80197010E94220E882321F0C40164E5BD
:1016500072E021C0C0E0D0E057016801E894D7F8FB
:10166000C601B5012FEF3FEF4FE75FE70E94220E63
:10167000882351F4C601B5012FEF3FEF4FE75FE735
:101680000E946C0C181614F0C1E0D0E0219739F0DC
:10169000C40168E572E00E941C0AEC0193C0C80115
:1016A000B7012FEF3FEF4FE75FE40E94BB0D181625
:1016B00054F0C801B7012FEF3FEF4FE75FEC0E94F6
:1016C0006C0C882324F4C4016CE572E0E4CFC801FB
:1016D000B70120E030E040E050E00E946C0C87FD54
:1016E00003C0C0E0D0E00EC0D401ED91FC910190A8
:1016F000F081E02DC4016DE21995EC0117FB109506
:1017000017F9109520E030E040E05FE3DD240BC0E6
:10171000CA01B90120E030E040E251E40E94700CBF
:101720009B01AC01D394D71498F3C801B7010E9470
:10173000080C5B016C010E94DD0C7B018C01C40173
:10174000B801A7012AE030E00E949C0AC80FD91F07
:10175000772039F0C40160E672E00E941C0AC80FCD
:10176000D91FC801B7010E94090D9B01AC01C60138
:10177000B5010E94070C24C020E030E040E251E4B3
:101780000E94BF0D7B018C010E94D80C5B016C0193
:10179000CC24B7FCC094DC2CC401B601A5012AE01E
:1017A00030E00E94AB0AC80FD91FC601B5010E94E4
:1017B0000B0D9B01AC01C801B7010E94070C7A9484
:1017C0007720D1F6CE01DF91CF911F910F91FF903D
:1017D000EF90DF90CF90BF90AF909F908F907F90D1
:1017E00008950E940D0B0895EF92FF920F931F939F
:1017F0007C010E940D0B8C01C7010E94FC09080F9F
:10180000191FC8011F910F91FF90EF900895505834
:10181000BB27AA270ED075C166D130F06BD120F05E
:1018200031F49F3F11F41EF45BC10EF4E095E7FB29
:1018300051C1E92F77D180F3BA1762077307840784
:10184000950718F071F49EF58FC10EF4E0950B2EFC
:10185000BA2FA02D0B01B90190010C01CA01A00102
:101860001124FF27591B99F0593F50F4503E68F15D
:101870001A16F040A22F232F342F4427585FF3CF9E
:10188000469537952795A795F0405395C9F77EF46F
:101890001F16BA0B620B730B840BBAF09150A1F0B8
:1018A000FF0FBB1F661F771F881FC2F70EC0BA0F3E
:1018B000621F731F841F48F4879577956795B795C6
:1018C000F7959E3F08F0B3CF9395880F08F09927BE
:1018D000EE0F979587950895D9D008F481E0089583
:1018E0000CD00FC107D140F0FED030F021F45F3FA3
:1018F00019F0F0C0511139C1F3C014D198F39923F4
:10190000C9F35523B1F3951B550BBB27AA276217C3
:101910007307840738F09F5F5F4F220F331F441F08
:10192000AA1FA9F333D00E2E3AF0E0E830D0915040
:101930005040E695001CCAF729D0FE2F27D0660F2D
:10194000771F881FBB1F261737074807AB07B0E86C
:1019500009F0BB0B802DBF01FF2793585F4F2AF082
:101960009E3F510568F0B6C000C15F3FECF3983E62
:10197000DCF3869577956795B795F7959F5FC9F7DF
:10198000880F911D9695879597F90895E1E0660F68
:10199000771F881FBB1F621773078407BA0720F0E1
:1019A000621B730B840BBA0BEE1F88F7E09508954A
:1019B00004D06894B111D9C00895BCD088F09F5765
:1019C00090F0B92F9927B751A0F0D1F0660F771F8B
:1019D000881F991F1AF0BA95C9F712C0B13081F06B
:1019E000C3D0B1E00895C0C0672F782F8827B85FB3
:1019F00039F0B93FCCF3869577956795B395D9F7CC
:101A00003EF490958095709561957F4F8F4F9F4FD5
:101A10000895E89409C097FB3EF4909580957095E1
:101A200061957F4F8F4F9F4F9923A9F0F92F96E92A
:101A3000BB279395F695879577956795B795F1119F
:101A4000F8CFFAF4BB0F11F460FF1BC06F5F7F4F3C
:101A50008F4F9F4F16C0882311F096E911C077234E
:101A600021F09EE8872F762F05C0662371F096E857
:101A7000862F70E060E02AF09A95660F771F881F26
:101A8000DAF7880F9695879597F90895990F0008CA
:101A9000550FAA0BE0E8FEEF16161706E807F90740
:101AA000C0F012161306E407F50798F0621B730BDB
:101AB000840B950B39F40A2661F0232B242B252B5C
:101AC00021F408950A2609F4A140A6958FEF811DFF
:101AD000811D089597F99F6780E870E060E00895A0
:101AE0009FEF80EC089500240A9416161706180636
:101AF0000906089500240A94121613061406050612
:101B00000895092E0394000C11F4882352F0BB0FA2
:101B100040F4BF2B11F460FF04C06F5F7F4F8F4F05
:101B20009F4F089557FD9058440F551F59F05F3F40
:101B300071F04795880F97FB991F61F09F3F79F0EF
:101B400087950895121613061406551FF2CF469571
:101B5000F1DF08C0161617061806991FF1CF8695F3
:101B60007105610508940895E894BB2766277727D7
:101B7000CB0197F908958ADF08F48FEF08950BD011
:101B8000C0CFB1DF28F0B6DF18F0952309F0A2CF5F
:101B9000A7CF1124EACFC6DFA0F3959FD1F3950F0D
:101BA00050E0551F629FF001729FBB27F00DB11DE1
:101BB000639FAA27F00DB11DAA1F649F6627B00D71
:101BC000A11D661F829F2227B00DA11D621F739F5A
:101BD000B00DA11D621F839FA00D611D221F749F68
:101BE0003327A00D611D231F849F600D211D822FAF
:101BF000762F6A2F11249F5750408AF0E1F08823F6
:101C00004AF0EE0FFF1FBB1F661F771F881F915002
:101C10005040A9F79E3F510570F05CCFA6CF5F3FC3
:101C2000ECF3983EDCF3869577956795B795F79535
:101C3000E7959F5FC1F7FE2B880F911D96958795BD
:101C400097F9089523DF880B990B0895629FD001BF
:101C5000739FF001829FE00DF11D649FE00DF11D67
:101C6000929FF00D839FF00D749FF00D659FF00D16
:101C70009927729FB00DE11DF91F639FB00DE11D03
:101C8000F91FBD01CF0111240895A1E21A2EAA1B4C
:101C9000BB1BFD010DC0AA1FBB1FEE1FFF1FA2171C
:101CA000B307E407F50720F0A21BB30BE40BF50B19
:101CB000661F771F881F991F1A9469F760957095A2
:101CC000809590959B01AC01BD01CF010895EE0F69
:0E1CD000FF1F0590F491E02D1994F894FFCFBA
:101CDE004C6971756964206C6576656C203D2000D9
:101CEE00536C6F706520666F756E64203D200046E4
:101CFE00756C6C2043616C6962726174696F6E20E1
:101D0E0056616C7565203D2000456D7074792043D9
:101D1E00616C6962726174696F6E2056616C756573
:101D2E00203D20006E616E00696E66006F76660063
:101D3E002E003A003B000D0001000000004D08D2BD
:0A1D4E0009E3071408F4073D08003C
:00000001FF
