:100000000C9415010C9442010C9442010C94420191
:100010000C9442010C9442010C9442010C94420154
:100020000C9442010C9442010C9442010C94420144
:100030000C9442010C9442010C9442010C94420134
:100040000C9442010C9442010C9442010C94420124
:100050000C9442010C9442010C9442010C94BE2277
:100060000C9442010C9424250C946C260C944201AF
:100070000C9442010C9442010C9442010C944201F4
:100080000C9442010C9442010C9442010C944201E4
:100090000C9464250C94AB260C9442010C94D61F4E
:1000A0000C9442010C9442010C9442010C944201C4
:1000B0000C9442010C9442010C9442010C944201B4
:1000C0000C9442010C9442010C9442010C94A4251E
:1000D0000C94EA260C9442010C94E4250C942927F4
:1000E0000C9442011F1C1F1E1F1E1F1F1E1F1E1FC0
:1000F0007C3C3E5E2B3D3F2F5B5D3B2C2A225C000F
:1001000000002100240027002A002D0030003300C9
:1001100001010000040107010A010000220025007E
:1001200028002B002E0031003400020100000501E0
:1001300008010B01000020002300260029002C00EC
:100140002F0032000001000003010601090105052E
:100150000505070508080808020202020A0A08083D
:10016000040404040101010101010101030303036B
:1001700003030303040707070C0C0C0C0C0C0C0CFA
:100180000202020206060606060606060B0B0B0B0B
:100190000B0B0B0B01021020200808102040102030
:1001A000408002010201080402010102040810203B
:1001B0004080804020100804020180040201804039
:1001C00020100804020108040201010204081020A2
:1001D000408001020408102040800000090A020843
:1001E0000B0C0D07060304010000000000000000D6
:1001F00000000000000000000000000000000000FF
:1002000000000000000011100F00000000000000BE
:1002100000000000000000000000000000000000DE
:100220006B01A40A360C721E992811241FBECFEF51
:10023000D1E2DEBFCDBF00E00CBF14E0A0E0B2E031
:10024000E2E7FDE500E00BBF02C007900D92AE3E75
:10025000B107D9F71BBE1BE0AEEEB4E001C01D92A2
:10026000AA30B107E1F712E0CAE2D2E004C0229757
:10027000FE010E94B32EC032D107C9F70E94CF29D8
:100280000C94B72E0C940000FB01DC0104C08D918E
:100290000190801921F441505040C8F7881B990BF8
:1002A0000895FC018191861721F08823D9F79927B9
:1002B00008953197CF010895FB01DC014150504072
:1002C00048F001900D920020C9F701C01D924150E5
:1002D0005040E0F7089586E395E040E050E060E0AC
:1002E00070E00E94590908958BED97E00E94121F5B
:1002F0000E94EA0908956F927F928F929F92AF9227
:10030000BF92CF92DF92EF92FF920F931F935B0108
:100310006C0139014A01C801B701A60195010E948B
:10032000092E9B01AC01C401B3010E94512C7B0139
:100330008C018EE7C82E8AE0D82EC60160E072E0FC
:100340000E94412BC601A701B80122E030E00E94C3
:10035000282CB701C8011F910F91FF90EF90DF90FB
:10036000CF90BF90AF909F908F907F906F900895A7
:100370000F931F93DF93CF93CDB7DEB7A1970FB63F
:10038000F894DEBF0FBECDBF8E010F5F1F4FC801B7
:1003900063E475E040E152E023E10E94760DC8017C
:1003A0000E945F0B882309F498C00E94EC092C8FEF
:1003B0003D8F4E8F5F8F68A379A3A6E3B5E0FE0162
:1003C0007C9686E001900D928150E1F74091F00417
:1003D0005091F1046091F2047091F3048E010F5F6B
:1003E0001F4FC80122E030E00E94282CC8016CE1B8
:1003F00072E00E94412BC80160913F054AE050E045
:100400000E94D02AC8016CE172E00E94412BC80111
:1004100060913D054AE050E00E94D02AC8016CE19D
:1004200072E00E94412B409110055091110560919E
:10043000120570911305C80122E030E00E94282CBB
:10044000C8016CE172E00E94412BC801609138053F
:100450004AE050E00E94D02AC8016FE20E94082AB8
:10046000C801609137054AE050E00E94D02AC801D7
:100470006FE20E94082A6091360570E06053784F61
:10048000C8014AE050E00E94BF2AC80160E20E9411
:10049000082AC801609139054AE050E00E94D02A3C
:1004A000C8016AE30E94082AC80160913A054AE03F
:1004B00050E00E94D02AC8016AE30E94082AC801BD
:1004C00060913B054AE050E00E94D02AC8010E949A
:1004D000102AC8010E946C0B06C08EE79AE06FE1FB
:1004E00072E00E943E2CCE0101960E941D0BA19647
:1004F0000FB6F894DEBF0FBECDBFCF91DF911F9135
:100500000F9108958EE79AE069E372E00E94412B13
:100510008091940461E00E940D2483E495E0609151
:1005200094040E949B0E882329F48EE79AE061E5EB
:1005300072E004C08EE79AE06DE672E00E943E2C05
:1005400008958091960461E00E94C02408958EE78A
:100550009AE00E94EF27181619060CF07FC18EE76B
:100560009AE00E9420288633910509F4F2C087336F
:100570009105B4F48333910509F477C08433910570
:100580003CF48133910509F1C29709F05FC141C084
:100590008433910509F48DC0C59709F057C1B5C0E2
:1005A0008933910509F44FC18A33910544F48733A7
:1005B000910509F4FAC0C89709F048C119C18053E0
:1005C0009143039708F042C108956091F604709139
:1005D000F7048091F8049091F9042AE037ED43E2A2
:1005E0005CE30E94522C6093F6047093F7048093AE
:1005F000F8049093F90420E030E040E151E40E94D7
:10060000052E88230CF42AC180E090E0A0E1B1E43B
:1006100023C06091F6047091F7048091F8049091E2
:10062000F9042AE037ED43E25CE30E94512C609329
:10063000F6047093F7048093F8049093F90420E093
:1006400030E040E450E40E94B62C18160CF406C1C9
:1006500080E090E0A0E4B0E48093F6049093F70487
:10066000A093F804B093F904089560910205709185
:10067000030580910405909105052AE037ED43E2DA
:100680005CE30E94522C60930205709303058093F3
:1006900004059093050520E030E040E151E40E941C
:1006A000052E88230CF4DAC080E090E0A0E1B1E4EC
:1006B00023C060910205709103058091040590911B
:1006C00005052AE037ED43E25CE30E94512C60937C
:1006D00002057093030580930405909305052AE0B5
:1006E00037ED43E25CE30E94B62C18160CF4B6C05A
:1006F0008AE097EDA3E2BCE38093020590930305A3
:10070000A0930405B09305050895609106057091C6
:100710000705809108059091090520E030E040E848
:100720005FE30E94522C6093060570930705809347
:1007300008059093090520E030E048E452E40E9467
:10074000052E88230CF48AC080E090E0A8E4B2E48F
:1007500023C060910605709107058091080590916E
:10076000090520E030E040E85FE30E94512C6093EF
:10077000060570930705809308059093090520E00E
:1007800030E040E050E00E94B62C18160CF466C031
:1007900080E090E0A0E0B0E080930605909307052C
:1007A000A0930805B0930905089560910A0570911A
:1007B0000B0580910C0590910D0520E030E040E89C
:1007C0005FE30E94522C60930A0570930B0580939F
:1007D0000C0590930D0520E030E048EC52E40E94B7
:1007E000052E8823DCF180E090E0A8ECB2E422C082
:1007F00060910A0570910B0580910C0590910D0593
:1008000020E030E040E85FE30E94512C60930A054D
:1008100070930B0580930C0590930D0520E030E05C
:1008200040E050E00E94B62C1816C4F080E090E042
:10083000A0E0B0E080930A0590930B05A0930C050F
:10084000B0930D0508950E94A10208958EE79AE0E5
:1008500062E371E34AE050E00E94222B0895609128
:100860003D0570E0882777FD8095982F0E94552DD3
:1008700020910A0530910B0540910C0550910D0512
:100880000E94052E8823CCF060913F0570E08827F8
:1008900077FD8095982F0E94552D20910605309167
:1008A000070540910805509109050E94052E8823EF
:1008B00024F08091900461E003C08091900460E096
:1008C0000E94C02408958CE261E00E940D248CE215
:1008D00061E00E94C02408958091EE049091EF049D
:1008E000892B09F064C0809192040E94D9239093CF
:1008F0000F0580930E05AA2797FDA095BA2FBC017E
:10090000CD010E94552D20E030E040E85AE30E94DE
:10091000092E20E030E040EA50E40E94092E9B01BD
:10092000AC016093140570931505809316059093A0
:10093000170560E070E088E492E40E94BA2C20E0A1
:1009400030E040E251E40E94512C9B01AC016093E5
:1009500018057093190580931A0590931B0560E0A4
:1009600070E080E89FE30E94BA2C2AE037ED4FE761
:1009700053E40E94092E6093100570931105809333
:100980001205909313058EE79AE06FE772E00E94DC
:10099000412B409110055091110560911205709105
:1009A00013058EE79AE022E030E00E942B2C089598
:1009B000CF92DF92EF92FF920F931F9360912405E5
:1009C0007091250580912605909127050E94512C54
:1009D0009B01AC0160E070E088EC92E40E94BA2CCC
:1009E0007B018C019EE7C92E9AE0D92EC6016EE8E4
:1009F00072E00E94412BC601A701B80122E030E05D
:100A00000E942B2C1F910F91FF90EF90DF90CF90C1
:100A100008950F931F930E94272DDC01CB010E94A4
:100A2000D923AA2797FDA095BA2FBC01CD010E941A
:100A3000552D609328057093290580932A0590937E
:100A40002B050EE71AE0C8016DE972E00E94412B08
:100A5000409128055091290560912A0570912B0538
:100A6000C80122E030E00E942B2C20912805309113
:100A7000290540912A0550912B05B901CA011F9102
:100A80000F9108950F931F930E94272DDC01CB0136
:100A90000E94D923AA2797FDA095BA2FBC01CD01AA
:100AA0000E94552D6093240570932505809326059B
:100AB000909327050EE71AE0C80167EB72E00E94E9
:100AC000412B409124055091250560912605709198
:100AD0002705C80122E030E00E942B2C209124053C
:100AE000309125054091260550912705B901CA018D
:100AF0001F910F910895EF92FF920F931F93809192
:100B0000A0040E94D923AA2797FDA095BA2FBC0163
:100B1000CD010E94552D60931C0570931D05809397
:100B20001E0590931F058091A2040E94D923AA2735
:100B300097FDA095BA2FBC01CD010E94552D609361
:100B400020057093210580932205909323058EE75D
:100B50009AE00E94EF27181619060CF072C08EE773
:100B60009AE00E942028909335058093340521E374
:100B70008133920791F021E382339207C9F08053C9
:100B8000914389F560911C0570911D0580911E05AA
:100B900090911F050E9442052EC060911C05709126
:100BA0001D0580911E0590911F050E94090523C017
:100BB00060911C0570911D0580911E0590911F0587
:100BC000209128053091290540912A0550912B0547
:100BD000E0902C05F0902D0500912E0510912F0529
:100BE0000E94D80408C08EE79AE065E670E74AE004
:100BF00050E00E94222B60911C0570911D05809190
:100C00001E0590911F0520912805309129054091DE
:100C10002A0550912B05E0902C05F0902D050091B0
:100C20002E0510912F050E947B0160933005709373
:100C3000310580933205909333050E94222DCB011C
:100C400000C01F910F91FF90EF9008950E947B05C7
:100C50002091A4043091A5048217930734F00FC0AB
:100C60008091960461E00E94C0240E947B0520913F
:100C7000A6043091A7048217930794F308958091F6
:100C8000960460E00E94C02408951F93CF93DF93E1
:100C900010E0C7E0D0E08CE20E94F324892BD9F366
:100CA0008DE290E00E946D238CE20E94F32481305B
:100CB000910539F40C2E02C0880F991F0A94E2F7AF
:100CC000182B8CE20E94F3240197D9F321978FEF20
:100CD000CF3FD80701F7812FDF91CF911F91089562
:100CE000CF93DF9310923C058CE260E00E94C02419
:100CF00067E170E080E090E00E9414238CE261E004
:100D00000E94C02488E290E00E946D238CE260E0A3
:100D10000E940D248CE20E94F324882311F081E0CC
:100D200030C080E590E00E946D238CE20E94F324A5
:100D3000882311F482E025C080E590E00E946D23B5
:100D4000CDE3D5E00E944506899385E0C234D807FB
:100D5000C9F78CE261E00E940D248CE261E00E9400
:100D6000C02480913E0590913D05890F90913F05EB
:100D7000890F90914005890F90914105981719F0BE
:100D800083E080933C05DF91CF9108956F927F922D
:100D90008F929F92AF92BF92CF92DF92EF92FF928B
:100DA0000F931F930E94700680913C05813071F172
:100DB000813028F0823079F18330B9F531C08EE787
:100DC0009AE062ED72E00E94412B8EE79AE060911A
:100DD0003D054AE050E00E94D02A8EE79AE066EE98
:100DE00072E00E943E2C8EE79AE06AEE72E00E946A
:100DF000412B8EE79AE060913F054AE050E00E9467
:100E0000D02A8EE79AE069EF72E013C08EE79AE08D
:100E10006FEF72E00EC08EE79AE067E273E009C000
:100E20008EE79AE06FE473E004C08EE79AE06CE628
:100E300073E00E943E2C80918A040E94D923AA2745
:100E400097FDA095BA2FBC01CD010E94552D2EE42F
:100E500031ED41E95CE30E94092E21EC3AEC41EFCF
:100E60005FE30E94512C3B014C016093F0047093AE
:100E7000F1048093F2049093F304E090F604F09070
:100E8000F7040091F8041091F904A0900205B090C5
:100E90000305C0900405D0900505C801B701A6015F
:100EA00095010E94512C6093FA047093FB04809387
:100EB000FC049093FD04C801B701A60195010E94AE
:100EC000522C6093FE047093FF048093000590936E
:100ED0000105C401B301A80197010E94B62C882323
:100EE00051F480918E0460E00E94C02480918C04B3
:100EF00060E00E94C024E090F004F090F1040091C2
:100F0000F2041091F304C801B7012091FA04309162
:100F1000FB044091FC045091FD040E94052E88239F
:100F2000F4F0C801B7012091FE043091FF04409114
:100F30000005509101050E94B62C181684F080918E
:100F4000F4049091F504892B51F480918E0460E0B3
:100F50000E94C02480918C0460E00E94C0246091B3
:100F6000F0047091F1048091F2049091F3042091C7
:100F7000FA043091FB044091FC045091FD040E945E
:100F8000B62C882384F48091F4049091F504892B85
:100F900051F480918C0461E00E94C02480918E0401
:100FA00060E00E94C024E090F004F090F104009111
:100FB000F2041091F304C801B7012091FA043091B2
:100FC000FB044091FC045091FD040E94052E8823EF
:100FD000F4F0C801B7012091F6043091F704409174
:100FE000F8045091F9040E94B62C882384F480916F
:100FF000F4049091F504019751F480918C0461E020
:101000000E94C02480918E0460E00E94C024609100
:10101000F0047091F1048091F2049091F304209116
:10102000FE043091FF0440910005509101050E949B
:10103000052E181684F48091F4049091F504892B00
:1010400051F480918E0461E00E94C02480918C0450
:1010500060E00E94C024E090F004F090F104009160
:10106000F2041091F304C801B7012091FE043091FD
:10107000FF0440910005509101050E94B62C1816FE
:10108000F4F0C801B7012091F6043091F7044091C3
:10109000F8045091F9040E94052E181684F48091EA
:1010A000F4049091F504029751F480918E0461E06C
:1010B0000E94C02480918C0460E00E94C0248EE7CE
:1010C0009AE062E973E00E94412B6091F404709110
:1010D000F5048EE79AE04AE050E00E94222B8EE76A
:1010E0009AE06AE973E00E94412B4091F604509126
:1010F000F7046091F8047091F9048EE79AE022E019
:1011000030E00E942B2C8EE79AE066EA73E00E94A2
:10111000412B4091020550910305609104057091A7
:1011200005058EE79AE022E030E00E942B2C8EE746
:101130009AE062EB73E00E94412B4091F0045091E1
:10114000F1046091F2047091F3048EE79AE022E0DA
:1011500030E00E942B2C1F910F91FF90EF90DF90B9
:10116000CF90BF90AF909F908F907F906F90089599
:101170000E94C6060E946C040E942F040E9426064C
:101180000E94B8010E94A70208950F931F938091B7
:101190008C0461E00E940D2480918E0461E00E9425
:1011A0000D248091900461E00E940D2480919604AA
:1011B00061E00E940D240E9463040EE71AE0C8015A
:1011C00040E855E260E070E00E9468276CE271E060
:1011D00080E090E00E941423C80168EB73E00E9455
:1011E0003E2CC8016BED73E00E943E2C6CEB72E06C
:1011F00080E090E00E9414231F910F9108950F93B7
:101200001F9301E415E06091980470919904C8015E
:101210000E94BC0A6093F6047093F7048093F8046C
:101220009093F90460919A0470919B04C8010E9404
:10123000BC0A6093020570930305809304059093A4
:10124000050560919C0470919D04C8010E94070BE4
:1012500090E0A0E0B0E0BC01CD010E94532D60936E
:101260000605709307058093080590930905609122
:101270009E0470919F04C8010E94070B90E0A0E0BB
:10128000B0E0BC01CD010E94532D60930A0570931C
:101290000B0580930C0590930D051F910F910895F8
:1012A0000E94FF080E94C5080E9474010E948202E9
:1012B0000895EF92FF920F931F93CF93DF93EC016A
:1012C0007A018B0180E89CEBA2E9B7ECE80EF91EED
:1012D0000A1F1B1FC801B7012CE330E040E050E0BB
:1012E0000E948F2E6D83C801B7012CE330E040E0EF
:1012F00050E00E948F2E122F032FF42EE52E622F26
:10130000732F842F952F2CE330E040E050E00E94B3
:101310008F2E6C83612F702F8F2D9E2D2CE330E04C
:1013200040E050E00E948F2E122F032FF42EE52E66
:10133000622F732F842F952F28E130E040E050E09A
:101340000E948F2E6B83612F702F8F2D9E2D28E191
:1013500030E040E050E00E948F2E60E0A3E9BEEF55
:1013600070E0862F90E083709070892B09F471E013
:10137000E62FEF5F472F50E0CA0183599E4F281791
:10138000390738F0CD01841B950B280F391F6E2FBC
:10139000E7CF688341E0E42FF0E0ED51FF4F849107
:1013A000772319F0423009F48F5F90E0542F5F5F8C
:1013B0002817390720F0281B390B452FECCF49831C
:1013C000822F8F5F8A83DF91CF911F910F91FF90C2
:1013D000EF90089581E00895BF92CF92DF92EF924F
:1013E000FF920F931F93DF93CF9300D000D0CDB720
:1013F000DEB70BED17E0C80168E670E00E94381E0A
:10140000C80160E00E94BA1EC8010E94FD1EC8010A
:1014100068E670E047E050E00E940E1FC8010E949D
:101420004B1E9FE7B92EB822C8010E944B1EC82E42
:10143000C8010E944B1ED82EC8010E944B1EC80135
:101440000E944B1EE82EC8010E944B1EF82EC801B8
:101450000E944B1E282F30E0B4E035952795BA95B1
:10146000E1F74AEF5FEFB901649F9001659F300D8E
:10147000749F300D1124820F90E02B2D30E0A4E0FA
:1014800035952795AA95E1F7B901649F9001659F6D
:10149000300D749F300D1124B20E2C2D30E0F4E08D
:1014A00035952795FA95E1F7B901649F9001659FFD
:1014B000300D749F300D1124C20E2D2D30E0E4E06C
:1014C00035952795EA95E1F7B901649F9001659FED
:1014D000300D749F300D1124D20E2E2D30E074E0AB
:1014E000359527957A95E1F7B901649F9001659F3D
:1014F000300D749F300D1124E20E2F2D30E064E08A
:10150000359527956A95E1F7B901649F9001659F2C
:10151000300D749F300D1124F20E282F3F2D4E2DCB
:101520005D2D6C2D7B2D80E026960FB6F894DEBFE6
:101530000FBECDBFCF91DF911F910F91FF90EF9024
:10154000DF90CF90BF90089584E690E0909342059D
:101550008093410508958091A8049091A90486176D
:10156000970714F081E008958EE79AE060E074E058
:101570000E943E2C80E008950F931F93DF93CF933A
:1015800000D00F92CDB7DEB78B016C5F7F4F0E940A
:10159000AB0A882321F470E060E090E017C0B80146
:1015A000FE0131969E012B5F3F4F09C0F999FECF96
:1015B00072BD61BDF89A80B581936F5F7F4FE2176E
:1015C000F307A1F779816A819B818C81272F362FC0
:1015D000492F582FB901CA010F900F900F900F900B
:1015E000CF91DF911F910F910895CF93DF93EB017E
:1015F0006F5F7F4F0E94AB0A882331F0F999FECFCD
:10160000D2BDC1BDF89A80B5DF91CF9108950E94F7
:10161000F50A0895FC011382128288EE93E0A0E09F
:10162000B0E084839583A683B78389EB94E09183AC
:101630008083128E118E14860895FC0189EB94E04C
:10164000918380830895DF93CF930F92CDB7DEB758
:10165000FC016983A081B18112962D913C91139771
:10166000BE016F5F7F4F41E050E0F90119950F9087
:10167000CF91DF910895DC015996ED91FC915A9735
:10168000309719F420E030E018C023893489458967
:10169000568982859385A485B585281B390B4A0B0D
:1016A0005B0B2030B0E83B07B0E04B07B0E05B07D6
:1016B00020F02FEF3FE740E050E0C9010895DC0142
:1016C0005996ED91FC915A97309711F480E0089566
:1016D0008581811181E00895CF93DF93EC01898D9D
:1016E0009A8D009741F00E942413898D9A8D0E9453
:1016F00026221A8E198EDF91CF910895FC01818DDB
:10170000928D009711F00E94DA120895DF93CF9323
:101710000F92CDB7DEB7FC01818D928D009749F015
:10172000BE016F5F7F4F41E050E00E94FB130197C5
:1017300019F02FEF3FEF03C08981282F30E0C90156
:101740000F90CF91DF910895EF92FF920F931F9327
:10175000DF93CF930F92CDB7DEB77C01DC015996B2
:101760008D919C915A97009719F400E010E01FC0EA
:10177000BE016F5F7F4F41E050E00E94FB13019775
:1017800019F00FEF1FEF13C08981082F10E0D70168
:101790005996ED91FC915A974285538564857585DC
:1017A0004150504060407040CF010E941412C80167
:1017B0000F90CF91DF911F910F91FF90EF900895BF
:1017C000CF93DF93EC01E98DFA8D309761F01382AE
:1017D0001282CF010E9440169C01E98DFA8D828110
:1017E0009381892B31F081E090E09B838A8320E014
:1017F00030E0C901DF91CF910895EF92FF920F93EE
:101800001F93CF93DF93EC01F62EE72E8A011B8204
:101810001A8288EE93E0A0E0B0E08C839D83AE83D3
:10182000BF8389EB94E0998388838DE190E00E94E7
:1018300089219A8F898F009791F0DC018F2D9E2D41
:101840009C01F9018DE101900D928150E1F7CE01EB
:101850000C96B8014CE050E00E945C01188EDF91BC
:10186000CF911F910F91FF90EF900895109248052E
:101870001092490510924C0510924E0582E090E0BE
:10188000A0E0B0E080934F0590935005A0935105E0
:10189000B0935205109266051092700510926F0574
:1018A00089EC94E090936E0580936D05109272051B
:1018B00008952F923F924F925F926F927F928F92F4
:1018C0009F92AF92BF92CF92DF92EF92FF920F93CF
:1018D0001F93DF93CF93CDB7DEB7C754D0400FB679
:1018E000F894DEBF0FBECDBF582E492EFB013A0142
:1018F000190184A595A5998B888B29EC34E03F8745
:101900002E8786A58A8B87A58B8B80A991A9A2A9F2
:10191000B3A98C8B9D8BAE8BBF8B84A995A9A6A9EF
:10192000B7A9888F998FAA8FBB8F80AD91ADA2ADDB
:10193000B3AD8C8F9D8FAE8FBF8F84AD88A3FD9686
:1019400081919191A191B19189A39AA3ABA3BCA3D9
:1019500081919191A191B1918DA39EA3AFA3B8A7BD
:10196000808191819AA789A71EA61DA63CA72BA7B7
:1019700018AA7A018E01025F1F4F3BE2A32EB12C01
:10198000AC0EBD1E4E010894811C911C35C0D701C0
:101990008C918F3221F40894E11CF11C2DC0422F50
:1019A0004E194D3008F04CE0C42EDD24C401B701BF
:1019B000A6010E945C01F401EC0DFD1D1082C50121
:1019C0000E942413C501B801A40121E00E946C18F3
:1019D000882351F4E52DF42D1382128289EC94E0D2
:1019E00091838083158266C0EC0CFD1CC8010E94A7
:1019F0002413C50158018C01C7016FE270E00E94F9
:101A000051019C01009719F6E618F708F101F182DF
:101A1000E082E52DF42DD80112968D919C911397BB
:101A20009383828389EC94E09183808314968C91D4
:101A30001497848315968C911597858316962D910E
:101A40003D914D915C91199726833783408751874B
:101A50001A962D913D914D915C911D972287338768
:101A6000448755871E962D913D914D915C915197DC
:101A700026873787408B518B52968C915297828B59
:101A800053962D913D914D915C915697238B348BBC
:101A9000458B568B57962D913D914D915C915A9760
:101AA000278B308F418F528F5B968D919C915C97E5
:101AB000948F838F852D942DC95BDF4F0FB6F894DB
:101AC000DEBF0FBECDBFCF91DF911F910F91FF9071
:101AD000EF90DF90CF90BF90AF909F908F907F90CE
:101AE0006F905F904F903F902F9008959F92AF928C
:101AF000BF92CF92DF92EF92FF920F931F93DF93EB
:101B0000CF93CDB7DEB7C657D0400FB6F894DEBF3F
:101B10000FBECDBFC82E992E8A01D22E43E0A42E2F
:101B2000B12CAC0EBD1EC501A8019E012F5F3F4F19
:101B30000E94590CE980FA80E00EF11EF7018081C5
:101B400049EC54E02885882309F03FC08D819E81AF
:101B50009BA38AA359A348A38F818CA32DA3898516
:101B60009A85AB85BC858EA39FA3A8A7B9A78D85B1
:101B70009E85AF85B8898AA79BA7ACA7BDA7898991
:101B80009A89AB89BC898EA79FA7A8ABB9AB8D8971
:101B90008AAB8E899F89A88DB98D8BAB9CABADAB81
:101BA000BEAB8A8D9B8DAC8DBD8D8FAB98AFA9AF31
:101BB000BAAF8E8D9F8D9CAF8BAF8C2D992DBE01B2
:101BC000605E7F4F4AE754E09FC0FE01FF9611829E
:101BD00010825EAF4DAFFE01EE5BFF4F10822223FD
:101BE000A9F02250CE01CD96223048F46DE675E082
:101BF000A7012D2D0E946C18882381F407C0B50120
:101C0000A7012D2D0E946C18882329F48C2D992D65
:101C10000E940A0B7BC0C5010E942413F6E0DF225C
:101C200059F0FE01E05BFF4F408151816281738179
:101C3000CE01CD960E9414129E01265A3F4FFE01FE
:101C4000FF9680819181F9019383828389EC94E0EE
:101C500091838083FE01EF5BFF4F8081F9018483D4
:101C6000FE01EE5BFF4F8081F9018583FE01ED5B94
:101C7000FF4F80819181A281B381F901868397838F
:101C8000A087B187FE01E95BFF4F80819181A2812E
:101C9000B381F90182879387A487B587FE01E55B4D
:101CA000FF4F80819181A281B381F9018687978757
:101CB000A08BB18BFE01E15BFF4F8081F901828B2C
:101CC000FE01E05BFF4F80819181A281B381F90128
:101CD000838B948BA58BB68BFE01EC5AFF4F8081D2
:101CE0009181A281B381F901878B908FA18FB28FEF
:101CF000FE01E85AFF4F80819181F901948F838F13
:101D00008C2D992DB901A7010E94FD0B8C2D992DC9
:101D1000CA58DF4F0FB6F894DEBF0FBECDBFCF91CC
:101D2000DF911F910F91FF90EF90DF90CF90BF90C8
:101D3000AF909F9008950F931F93CF93DF93EC0183
:101D4000462F61E00E9400118823D1F08E01045FCC
:101D50001F4FC801BE0141E00E940D1A882339F4CB
:101D6000C801BE0140E00E940D1A882349F0CE014F
:101D70008A96B8010E945A15882319F081E001C0A3
:101D800080E0DF91CF911F910F910895FC016730A2
:101D900020F086E1858380E00895262F30E060FD05
:101DA00002C0663019F48DB58E7F02C08DB581609A
:101DB0008DBD8CB58C7F8CBD4CB522FD02C090E0F2
:101DC00001C092E036952795822F8170842B892B54
:101DD0008CBD81E00895FF920F931F93CF93DF9303
:101DE0008B010E940623EB01FF24FA94FEBC0DB484
:101DF00007FEFDCF8EB58F3F11F481E008C00E9431
:101E000006236C1B7D0B6017710780F380E0DF9168
:101E1000CF911F910F91FF900895FC01848160E0A4
:101E20000E94C0240895FC01848161E00E94C024C6
:101E30000895DC016EBDFA0120E030E00DB407FE2C
:101E4000FDCF80818EBD0DB407FEFDCF81818EBD9B
:101E50002E5F3F4F329682E02030380779F70DB47D
:101E600007FEFDCF8FEF8EBD0DB407FEFDCF8FEFC8
:101E70008EBD0DB407FEFDCF8FEF8EBD0DB407FEF6
:101E8000FDCF8EB51A968C931A978F71853011F409
:101E900081E0089581E115968C931597CD010E94FC
:101EA000130F80E00895FF920F931F93CF93DF935A
:101EB000EC010E9406238B01FF24FA9409C00E94C2
:101EC0000623601B710B6D52714010F08FE00DC046
:101ED000FEBC0DB407FEFDCF8EB58A878F3F79F328
:101EE0008E3F11F481E006C08DE08D83CE010E940B
:101EF000130F80E0DF91CF911F910F91FF90089514
:101F0000CF93DF93EC018E818823D1F08FEF8EBDCC
:101F10002F8138854FEF04C00DB407FEFDCF4EBDB5
:101F20002F5F3F4FC901019781509240A8F3388736
:101F30002F830DB407FEFDCFCE010E94130F1E822A
:101F4000DF91CF910895DF92EF92FF920F931F934D
:101F5000CF93DF93EC01D62E79018A010E94800F86
:101F6000CE010E940D0FCE016CE271E00E94EB0EDB
:101F70008D2D80648EBD0DB407FEFDCF28E130E0CD
:101F8000D801C701022E04C0B695A79597958795ED
:101F90000A94D2F78EBD0DB407FEFDCF2850304015
:101FA0008FEF283F380761F7DD2011F485E906C07F
:101FB00088E0D81611F487E801C08FEF8EBD0DB40C
:101FC00007FEFDCF90E02FEF2EBD0DB407FEFDCF35
:101FD0008EB587FF02C09150B9F78A87DF91CF9104
:101FE0001F910F91FF90EF90DF900895CF92DF92B5
:101FF000EF92FF920F931F93CF93DF93EC017A013F
:102000008B016901411551056105710511F482E1EA
:1020100037C08B85833039F029E0EE0CFF1C001FA0
:10202000111F2A95D1F7CE0168E1A80197010E94FE
:10203000A30F882311F084E023C0CE016EEFA60128
:102040000E94190F8823E9F0CE0168E572E00E9432
:10205000EB0E882311F485E113C0CE016DE020E082
:1020600030E040E050E00E94A30F882341F48FEF5E
:102070008EBD0DB407FEFDCF8EB5882379F084E1C7
:102080008D83CE010E94130F80E0DF91CF911F91CD
:102090000F91FF90EF90DF90CF900895CE010E94B6
:1020A000130F81E0F2CF8F929F92AF92BF92CF92A7
:1020B000DF92EF92FF920F931F93CF93DF93EC0188
:1020C0005A016B0149010115110509F47BC0C801D2
:1020D000820F931F8150924008F06FC08E81882339
:1020E00071F088819981AA81BB81481759076A07D5
:1020F0007B0729F48F8198858816990618F5A882A0
:10210000B982CA82DB828B85833039F069E0AA0C00
:10211000BB1CCC1CDD1C6A95D1F7CE0161E1A60188
:1021200095010E94A30F882319F083E08D8345C099
:10213000CE010E94530F882309F43FC018861F82E6
:1021400081E08E838FEF8EBD8F8198852FEF05C044
:102150000DB407FEFDCF2EBD019688159905C0F37D
:1021600098878F83D801119720E030E09FEF0BC054
:102170000DB407FEFDCF8EB5F701E20FF31F80838C
:102180009EBD2F5F3F4F2A173B0790F30DB407FE0C
:10219000FDCF8EB5AE0DBF1D8C932F813885200FDE
:1021A000311F38872F838985882319F020503240CA
:1021B00048F0CE010E94800F05C0CE010E94130F8F
:1021C00080E001C081E0DF91CF911F910F91FF90DE
:1021D000EF90DF90CF90BF90AF909F908F90089539
:1021E000EF92FF920F931F93790120E030E000E01F
:1021F00012E00E9453101F910F91FF90EF900895ED
:10220000BF92CF92DF92EF92FF920F931F93CF93E3
:10221000DF93EC01B62E1B8619861E821D824C832D
:102220000E9406236B018C8161E00E940D24CE0187
:102230000E94130F82E360E00E940D2483E361E0BB
:102240000E940D2484E361E00E940D2485E361E097
:102250000E940D2485E361E00E94C02483E58CBDCB
:102260008DB58E7F8DBD80E09FEF9EBD0DB407FEC6
:10227000FDCF8F5F8A30C9F7CE010E940D0F09C0D4
:102280000E9406236C197D09615D774010F081E0A2
:102290005EC0CE0160E020E030E040E050E00E940F
:1022A000A30F182F8A87813059F7CE0168E02AEAF8
:1022B00031E040E050E00E94A30F82FF02C01B8784
:1022C00011C080E02FEF2EBD0DB407FEFDCF9EB5EF
:1022D0008F5F8430C1F79A879A3A11F082E037C055
:1022E00082E08B878B85823021F0EE24FF248701EA
:1022F0000FC0E12CF12C012DF0E41F2F09C00E942A
:1023000006236C197D09615D774010F088E01FC0DD
:10231000CE0167E320E030E040E050E00E94A30FF0
:10232000CE0169E2A80197010E94A30F8A87882342
:1023300031F78B85823031F5CE016AE320E030E061
:1023400040E050E00E94A30F882339F086E08D839F
:10235000CE010E94130F80E01CC08FEF8EBD0DB424
:1023600007FEFDCF8EB5807C803C11F483E08B8727
:1023700080E09FEF9EBD0DB407FEFDCF2EB58F5FB1
:102380008330C1F7CE010E94130FCE016B2D0E9446
:10239000C60EDF91CF911F910F91FF90EF90DF90CC
:1023A000CF90BF900895CF93DF93EC01DB0180E0E5
:1023B00090E020E2FD01E80FF91F208301968B30A9
:1023C0009105C1F757E040E021C02E3219F080EFAF
:1023D00090E007C05A3019F15AE048E017C03217B0
:1023E000F1F0FC01019634913323C9F75417B8F08A
:1023F0002132A8F02F3798F4822F81568A3108F4C1
:102400002052FD01E40FF11D20834F5F299122230B
:10241000E1F690E08C91803219F091E001C090E0FB
:10242000892FDF91CF9108956F927F928F929F9223
:10243000AF92BF92CF92DF92EF92FF920F931F93D2
:10244000CF93DF93EC017A018B012D81222309F4D4
:1024500080C08B899C89AD89BE8984179507A607A2
:10246000B70708F476C085C0E114F1040105110531
:1024700049F41E821F82188619861A861B861C86BE
:102480001D8665C02A853B854C855D85EB8DFC8D61
:10249000858590E0099621503040404050403901F8
:1024A0004A01082E04C096948794779467940A94FE
:1024B000D2F72F5F3F4F4F4F5F4F0894E108F1086D
:1024C000010911095701680104C0D694C794B79453
:1024D000A7948A95D2F70894E11CF11C011D111DE7
:1024E000A614B704C804D90428F021153105410504
:1024F000510549F48F89988DA98DBA8D8E839F835C
:10250000A887B98716C0A618B708C808D90811C087
:102510004E815F81688579858B8D9C8D94010E94A9
:10252000EE1B0894A108B108C108D108882331F432
:1025300010C086E0882E912C8C0E9D1EA114B10433
:10254000C104D10429F7EA86FB860C871D8781E048
:1025500001C080E0DF91CF911F910F91FF90EF902C
:10256000DF90CF90BF90AF909F908F907F906F90B3
:102570000895223009F078CFE6CFCF93DF93EC01B6
:10258000462F6E857F85888999890E94D219882374
:1025900019F420E030E00AC08A89282F30E095E065
:1025A000220F331F9A95E1F722573A4FC901DF9165
:1025B000CF9108950F931F93CF93DF938C01FC016C
:1025C00085818823D9F1848187FF35C0C80161E006
:1025D0000E94BD12EC01009789F1F80185818230DB
:1025E00040F483899489A589B6898C8F9D8FAE8F9D
:1025F000BF8FF8018789908D9B8F8A8F8789908DF7
:10260000A18DB28DCD01AA27BB279D8B8C8BE0912C
:102610008C05F0918D05309751F0BE016A5E7F4FB9
:10262000CE0148961995888D998D9B8B8A8BF801E0
:1026300084818F7784830E94731901C080E0DF91C9
:10264000CF911F910F910895CF93DF93EC010E94DA
:10265000DA12882311F01D8281E0DF91CF91089575
:102660006F927F928F929F92AF92BF92CF92DF92A2
:10267000EF92FF920F931F93DF93CF9300D00F92AF
:10268000CDB7DEB77C015A016B01DC0115968C9148
:102690001597813009F08FC014968C9181FF8BC003
:1026A0009EC00097A105B10511F481E085C0F70136
:1026B0006284738484849584C701B601A5010E9455
:1026C0001412882309F477C0D7015B968D919C91F1
:1026D0005C97A114B104C104D10489F457964D91BB
:1026E0005D916D917C915A970E94611C882309F439
:1026F00062C0F701178A108E118E128E3DC0D7016D
:1027000016964D915D916D917C9119979E012F5F69
:102710003F4F0E94EE1B882309F44DC0D7015B9602
:10272000ED91FC915C9749815A816B817C8187890D
:10273000803129F088EF9FEFAFEFBFE004C088EF52
:102740009FEFA0E0B0E0481759076A077B07A0F4A5
:10275000CF010E94611C882371F1F70146815781E6
:1027600060857185838D948D0FEF1FEF2FEF3FE014
:102770000E94521B8823F9F0D7015396AD92BD9267
:10278000CD92DC92569714968C911497806814968B
:102790008C93C7010E94DA12882369F0B601A50163
:1027A0006A147B048C049D0410F4B401A301C701D6
:1027B0000E94141201C080E00F900F900F900F90B4
:1027C000CF91DF911F910F91FF90EF90DF90CF900D
:1027D000BF90AF909F908F907F906F900895F7017A
:1027E00083899489A589B68984179507A607B707B1
:1027F00008F057CFE0CF2F923F924F925F926F92A7
:102800007F928F929F92AF92BF92CF92DF92EF9280
:10281000FF920F931F93CF93DF93EC012A018D81D9
:10282000882309F4C6C08C8180FFC3C0D8C02501AD
:102830004E185F084B0176E0272E312C2C0E3D1EE2
:102840003201B1C02A853B854C855D856FEFA62E90
:1028500061E0B62EA222B3228D8179018A0199E02E
:1028600016950795F794E7949A95D1F7EB8DFC8D23
:10287000823049F4428D538D648D758D4E0D5F1DF0
:10288000601F711F3FC0D480DA94DE20A114B10410
:10289000D9F4DD20C9F4211531054105510549F46C
:1028A0008F89988DA98DBA8D8E839F83A887B987CC
:1028B0000BC04E815F8168857985CF0191010E94AF
:1028C000EE1B882309F475C0EB8DFC8D4E815F8172
:1028D000688579854250504060407040058404C04E
:1028E000440F551F661F771F0A94D2F78685978578
:1028F000A089B189480F591F6A1F7B1F4D0D511DBB
:10290000611D711D80E092E08A199B0963018615A3
:10291000970508F46C018C8186FD06C080E0C8161E
:1029200082E0D80609F073C08091AA049091AB04AC
:10293000A091AC04B091AD04481759076A077B0712
:1029400009F465C080918E0790918F0795018601EB
:1029500074010E945310882361F18C0C9D1C12C0DD
:10296000950122573A4FA9014C0D5D1DD401F90183
:1029700002C081918D93E417F507D9F7E21BF30BA1
:102980008E0E9F1E960140E050E08A859B85AC85A7
:10299000BD85820F931FA41FB51F8A879B87AC87B5
:1029A000BD876C187D086114710409F04BCFA2013A
:1029B00002C04FEF5FEFCA01DF91CF911F910F91DE
:1029C000FF90EF90DF90CF90BF90AF909F908F904F
:1029D0007F906F905F904F903F902F900895AB88BD
:1029E000BC88CD88DE88EA84FB840C851D859A012D
:1029F00040E050E0D601C5018E199F09A00BB10B34
:102A000082179307A407B50708F411CF13CFCB01A2
:102A1000BA0140E00E94D219882309F0A1CFC9CFA2
:102A2000CF92DF92EF92FF920F931F93DF93CF939A
:102A30000F92CDB7DEB76C01FC018581823070F05A
:102A4000E284F38404851585C601BE016F5F7F4F64
:102A500041E050E00E94FB13019769F020E030E074
:102A6000C9010F90CF91DF911F910F91FF90EF90CF
:102A7000DF90CF900895F60182859385A485B58572
:102A80004F96A11DB11D82879387A487B587F5E076
:102A900016950795F794E794FA95D1F78E2D8F70D8
:102AA000282F30E0E5E0220F331FEA95E1F72257A7
:102AB0003A4FD6CF0F931F93CF93DF93EC018B0147
:102AC0008D81882309F041C0FB0187898031B1F4F1
:102AD00082E08D831F8A188E198E1A8E808D918DBB
:102AE000A0E0B0E045E0880F991FAA1FBB1F4A95E0
:102AF000D1F78B8B9C8BAD8BBE8B15C0803229F5AB
:102B000083E08D83FB01428D538D648D758D4F8BDA
:102B1000588F698F7A8F9E012D5E3F4FC8010E94AA
:102B2000BA1C882391F01C8F0B8F81E08C831E824E
:102B30001F82188619861A861B861C861D861E868D
:102B40001F86188A198A1A8A01C080E0DF91CF9106
:102B50001F910F9108951F93CF93DF93EC01142FD2
:102B6000E62FF0E075E0EE0FFF1F7A95E1F7E257F0
:102B7000FA4F8385817121F0842F827409F054C04B
:102B80006A8B8091AA049091AB04A091AC04B0919F
:102B9000AD048E879F87A88BB98B84899589A0E027
:102BA000B0E0BC0155274427828D938DA0E0B0E0B2
:102BB000482B592B6A2B7B2B4F8B588F698F7A8F21
:102BC000838590E088719070009751F4848D958D85
:102BD000A68DB78D8B8B9C8BAD8BBE8B81E00CC093
:102BE000409711F59E012D5E3F4F8B8D9C8D0E946D
:102BF000BA1C8823C9F084E08D83812F8F708C8369
:102C00001E821F82188619861A861B861C861D86C0
:102C100016FD02C081E009C0CE0140E050E060E056
:102C200070E00E94301301C080E0DF91CF911F91CE
:102C30000895CF93DF93EC019C012A5F3F4F8B8D6A
:102C40009C8D41E050E060E070E00E94291D8823E7
:102C5000A1F08F89988DA98DBA8D0097A105B10536
:102C600059F48E819F81A885B9858F8B988FA98F04
:102C7000BA8F8C8180688C8381E0DF91CF91089539
:102C80002F923F924F925F927F928F929F92AF923C
:102C9000BF92CF92DF92EF92FF920F931F93DF9339
:102CA000CF9300D000D0CDB7DEB76C01162F072F21
:102CB0005E834D83DC0115968C911597813009F068
:102CC00070C114968C9181FF6CC18EC1F60143894D
:102CD00054896589768982859385A485B58584170D
:102CE0009507A607B70731F0C6010E941412882382
:102CF00009F457C1812F902F9C0129012D803E801E
:102D000017C1D6015B96ED91FC915C97DA01C90180
:102D100019E0B695A795979587951A95D1F7748080
:102D20007A9478227FEF872E71E0972E8222932269
:102D3000772009F04EC08114910409F04AC0D601F1
:102D400016964D915D916D917C91199741155105A4
:102D50006105710581F457968D919D910D90BC91FF
:102D6000A02D0097A105B10549F1F601868397834F
:102D7000A087B1872EC0CF019E012F5F3F4F0E94D9
:102D8000EE1B882309F414C129813A814B815C81AF
:102D9000D6015B96ED91FC915C978789803129F093
:102DA00088EF9FEFAFEFBFE004C088EF9FEFA0E098
:102DB000B0E0281739074A075B0730F0C6010E94C8
:102DC0001916882331F4EDC0F60126833783408736
:102DD000518780E092E08819990951018215930585
:102DE00008F45C01D6015B96ED91FC915C97169618
:102DF000ED90FD900D911C9119978EEF9FEFAFEF25
:102E0000BFEFE80EF91E0A1F1B1F058404C0EE0C5D
:102E1000FF1C001F111F0A94D2F786859785A08991
:102E2000B189E80EF91E0A1F1B1FE70CF11C011DDA
:102E3000111D90E0A91692E0B90651F58091AA04FF
:102E40009091AB04A091AC04B091AD048E159F0598
:102E5000A007B10761F48FEF9FEFAFEFBFEF809353
:102E6000AA049093AB04A093AC04B093AD048091FA
:102E70008E0790918F07B801A70192010E94F60F6B
:102E8000882309F48EC0A0E0B2E04A0E5B1E3EC06B
:102E90008114910409F5F601228533854485558511
:102EA00083899489A589B689281739074A075B075A
:102EB00098F00E947319882309F473C0E092AA0461
:102EC000F092AB040093AC041093AD048091900792
:102ED00081608093900708C0C801B70141E00E945B
:102EE000D219882309F45DC0940122573A4FA901F1
:102EF0004A0D5B1DD201F90102C08D918193E41747
:102F0000F507D9F7E21BF30B4E0E5F1E2A183B089C
:102F1000950140E050E0F60182859385A485B58552
:102F2000820F931FA41FB51F82879387A487B5873D
:102F3000D6011A962D913D914D915C911D972114CA
:102F4000310409F0DECE53968D919D910D90BC9188
:102F5000A02D82179307A407B50748F4F601238B29
:102F6000348B458B568B84818068848311C080911B
:102F70008C0590918D05892B59F08D819E81892B2F
:102F800039F0D60114968C911497806814968C931E
:102F9000F601848183FF0EC0C6010E94DA128823E5
:102FA00049F481E090E0D60113969C938E9312979A
:102FB0001E821D828D819E8126960FB6F894DEBFFB
:102FC0000FBECDBFCF91DF911F910F91FF90EF907A
:102FD000DF90CF90BF90AF909F908F907F905F9049
:102FE0004F903F902F90089582FD70CE83CEDF9357
:102FF000CF930F92CDB7DEB76983BE016F5F7F4F6E
:1030000041E050E00E9440160F90CF91DF9108956B
:10301000DF92EF92FF920F931F93CF93DF93EC0118
:103020000E941916882309F44EC0EB8DFC8DEE80AA
:10303000FF80088519858EEF9FEFAFEFBFEFE80E99
:10304000F91E0A1F1B1F058404C0EE0CFF1C001F85
:10305000111F0A94D2F786859785A089B189E80E59
:10306000F91E0A1F1B1FD4800894E108F10801090A
:1030700011090BC0C801B7016D0D711D811D911D96
:103080000E94AE198823F9F0DA94DD2099F7EB8DD0
:10309000FC8D20E032E040E050E0058404C0220FC7
:1030A000331F441F551F0A94D2F78B899C89AD8921
:1030B000BE89820F931FA41FB51F8B8B9C8BAD8B7A
:1030C000BE8B81E001C080E0DF91CF911F910F9115
:1030D000FF90EF90DF9008956F927F928F929F9272
:1030E000AF92BF92CF92DF92EF92FF920F931F9316
:1030F000DF93CF93CDB7DEB72B970FB6F894DEBF33
:103100000FBECDBF5C016B01822EDC0115968C9148
:10311000882309F0D2C0CA018E010F5F1F4FB8018A
:103120000E94D311882309F4C8C0F601838D948DC1
:10313000D5015C969C938E935B97168217821086BE
:103140001186D6011A961D921D921D921C921D97F2
:103150009924380141C0C6010E941015FC01009756
:1031600009F4ABC085E016950795F794E7948A9526
:10317000D1F71E2D1F708081882311F0853ED1F478
:10318000992091F4D50152961C9352972091AA044C
:103190003091AB044091AC045091AD041E962D9338
:1031A0003D934D935C9351978081882399F49924A2
:1031B000939421C0C301BF014BE050E00E94440141
:1031C000009751F4882D8073803309F476C0C501CF
:1031D000612F6FC099249394F601E284F3840485EF
:1031E000158583899489A589B689E816F9060A07A1
:1031F0001B0708F4B0CF882D8271823109F05DC0C1
:10320000992041F0C50161E00E94BD128C01009738
:1032100089F453C0D60115968C91823009F44DC0C3
:10322000C6010E940818882309F447C0F501128AD4
:103230000EE815E080E2D8011D928A95E9F7D801E1
:10324000FE0131968BE001900D928150E1F7E09103
:103250008C05F0918D05309739F0B801625F7F4F92
:10326000C8014096199509C081E298E2F801918B56
:10327000808B80E098E097878687D80150968D9163
:103280009C91519753969C938E93529759969C93E9
:103290008E9358971E968D919C911F9757969C934D
:1032A0008E9356970E947319882339F0C501F50152
:1032B0006289482D0E94AB1501C080E02B960FB6A5
:1032C000F894DEBF0FBECDBFCF91DF911F910F915C
:1032D000FF90EF90DF90CF90BF90AF909F908F9036
:1032E0007F906F90089580919007882399F1409185
:1032F000AA045091AB046091AC047091AD0480912C
:103300008E0790918F072EE835E00E94F60F8823F4
:1033100019F1409191075091920760919307709134
:103320009407411551056105710591F080918E0753
:1033300090918F072EE835E00E94F60F882361F008
:10334000109291071092920710929307109294078F
:103350001092900781E0089580E00895EF92FF9227
:103360000F931F937B018C010E9473198823A9F08E
:10337000EEE8F5E0119287E0EE38F807D9F7E09231
:10338000AA04F092AB040093AC041093AD048091B6
:10339000900781608093900781E01F910F91FF90CB
:1033A000EF900895DF92EF92FF920F931F937B01AE
:1033B0008C01D42E8091AA049091AB04A091AC040E
:1033C000B091AD048E159F05A007B107C1F00E9412
:1033D00073198823D9F080918E0790918F07B801D7
:1033E000A7012EE835E00E94F010882379F0E092E2
:1033F000AA04F092AB040093AC041093AD04809146
:1034000090078D298093900781E001C080E01F9193
:103410000F91FF90EF90DF9008958F929F92AF925F
:10342000BF92CF92DF92EF92FF920F931F93CF93B1
:10343000DF936C01142F70938F0760938E074423E2
:1034400021F488249924540140C0453008F01CC15F
:1034500060E070E080E090E040E00E94D2198823B4
:1034600009F412C1C12FD0E02197FE0174E0EE0FE4
:10347000FF1F7A95E1F7E257FA4FE254FE4F808141
:10348000EE5BF14090E08F779070892B09F0FCC0E3
:10349000E653FE4F80819181A281B38184369105EC
:1034A000A105B10508F4F0C064E0CC0FDD1F6A95FA
:1034B000E1F7CC5AD84F88809980AA80BB808114CC
:1034C0009104A104B10409F4DFC0C501B40140E0D6
:1034D0000E94D219882309F4D7C080919905909150
:1034E0009A058050924009F0CFC020919E0522237A
:1034F00009F4CAC080919C0590919D05892B09F41F
:10350000C3C080919B05882309F4BEC0F601228BBD
:1035100080919B058483158661E070E007C04F5F52
:10352000F60145874150483008F0AEC0F6014585A8
:10353000848190E09B01042E02C0220F331F0A9465
:10354000E2F78217930759F72091A4053091A5055A
:103550002115310519F040E050E008C02091B20576
:103560003091B3054091B4055091B505F60125831E
:10357000368347835087E0909C05F0909D0500E0DE
:1035800010E0E80CF91C0A1D1B1DE38AF48A058B68
:10359000168B80919F059091A005918F808F6091EF
:1035A0009E0570E080E090E00E94702E6E0D7F1D01
:1035B000801F911FF601628F738F848F958F2091EA
:1035C0009F053091A00555E0220F331F5A95E1F772
:1035D00021503E4F232F3327269540E050E0260F01
:1035E000371F481F591F26873787408B518B809183
:1035F000A1059091A205009719F0A0E0B0E008C0E5
:103600008091AE059091AF05A091B005B091B10544
:1036100085017401E21AF30A040B150BA801970146
:10362000280F391F4A1F5B1FF601058404C05695F9
:103630004795379527950A94D2F721873287438794
:103640005487253FFFE03F07F0E04F07F0E05F07BA
:1036500010F48CE006C0255F3F4F4040504028F4F6
:1036600080E1F601878B81E010C08091BA059091CE
:10367000BB05A091BC05B091BD05F601828F938F6B
:10368000A48FB58F80E2EECF80E0DF91CF911F91C4
:103690000F91FF90EF90DF90CF90BF90AF909F90F1
:1036A0008F9008954F925F926F927F928F929F9228
:1036B000AF92BF92CF92DF92EF92FF920F931F9340
:1036C000CF93DF93EC016A017B012801390142307D
:1036D00051056105710508F46FC089859A85AB8530
:1036E000BC850196A11DB11D84179507A607B707D4
:1036F00008F462C02B893C894D895E898F898031AD
:1037000029F499278F2D7E2D6D2D09C0C701B60193
:1037100017E096958795779567951A95D1F74B01A0
:103720005C01820E931EA41EB51E8091AA04909186
:10373000AB04A091AC04B091AD0488169906AA061A
:10374000BB0639F0C501B40140E00E94D2198823BC
:1037500099F18F89803149F4F601F070EE0FFF1F67
:10376000E257FA4F518240820DC0F601EF77F070B8
:10377000EE0FFF1FEE0FFF1FE257FA4F40825182FC
:1037800062827382809190078160809390078A891A
:10379000823080F08D819E81AF81B885880E991E20
:1037A000AA1EBB1E8092910790929207A092930747
:1037B000B092940781E001C080E0DF91CF911F912A
:1037C0000F91FF90EF90DF90CF90BF90AF909F90C0
:1037D0008F907F906F905F904F900895CF92DF927F
:1037E000EF92FF920F931F93CF93DF93EC017A0137
:1037F0008B01690189859A85AB85BC850196A11DE0
:10380000B11D84179507A607B70708F450C02B8988
:103810003C894D895E898F89803129F49927812FD0
:10382000702F6F2D09C0C801B701E7E09695879505
:1038300077956795EA95D1F7260F371F481F591FCF
:103840008091AA049091AB04A091AC04B091AD0416
:10385000281739074A075B0739F0CA01B90140E068
:103860000E94D219882319F18F89803159F4F70108
:10387000F070EE0FFF1FE257FA4F80819181A0E0B8
:10388000B0E00EC0F701EF77F070EE0FFF1FEE0F04
:10389000FF1FE257FA4F80819181A281B381BF70EF
:1038A000F60180839183A283B38381E001C080E02D
:1038B000DF91CF911F910F91FF90EF90DF90CF900C
:1038C0000895AF92BF92CF92DF92EF92FF920F9343
:1038D0001F93DF93CF9300D00F92CDB7DEB76C016B
:1038E0007A018B0182E090E0A0E0B0E0F6018083F5
:1038F0009183A283B3835E010894A11CB11CC6010D
:10390000B801A70195010E94EE1B882319F1C60199
:10391000B801A70100E010E020E030E00E94521B57
:103920008823C1F0E980FA800B811C81F601878928
:10393000803129F088EF9FEFAFEFBFE004C088EF40
:103940009FEFA0E0B0E0E816F9060A071B07B8F2FF
:1039500081E001C080E00F900F900F900F90CF9109
:10396000DF911F910F91FF90EF90DF90CF90BF906C
:10397000AF9008954F925F926F927F928F929F9235
:10398000AF92BF92CF92DF92EF92FF920F931F936D
:10399000DF93CF9300D00F92CDB7DEB76C01498390
:1039A0005A836B837C833901EE24FF2487012E0127
:1039B0000894411C511C812CA2E09A2EA12CB12C00
:1039C00049815A816B817C81C60192010E94EE1B64
:1039D000882351F1D501C401F601058404C0880F84
:1039E000991FAA1FBB1F0A94D2F7E80EF91E0A1FDF
:1039F0001B1F29813A814B815C818789803129F0A5
:103A000088EF9FEFAFEFBFE004C088EF9FEFA0E02B
:103A1000B0E0281739074A075B0790F2F301E0820C
:103A2000F1820283138381E00F900F900F900F902B
:103A3000CF91DF911F910F91FF90EF90DF90CF908A
:103A4000BF90AF909F908F907F906F905F904F90BE
:103A500008952F923F924F925F926F927F928F9232
:103A60009F92AF92BF92CF92DF92EF92FF920F930D
:103A70001F93DF93CF93CDB7DEB72F970FB6F89490
:103A8000DEBF0FBECDBF1C014A875B876C877D8779
:103A90003F872E87D9010D911D912D913C910115E4
:103AA00011052105310549F0480159010894811C8F
:103AB000911CA11CB11C198610C0FC018080918052
:103AC000A280B38019868A859B85AC85BD850197C8
:103AD000A105B10511F491E09987D10119968D9155
:103AE0009D910D90BC91A02D0196A11DB11D8D83BE
:103AF0009E83AF83B8877501640144245524320145
:103B00008E010F5F1F4FF10181859285A385B485DA
:103B1000481659066A067B0608F090C08D819E8182
:103B2000AF81B8858C159D05AE05BF0550F482E0C8
:103B3000882E912CA12CB12CB2E0CB2ED12CE12CD3
:103B4000F12CC101B701A60198010E94EE1B882348
:103B500009F474C089819A81AB81BC81A701960167
:103B60002F5F3F4F4F4F5F4F0097A105B10519F0F1
:103B700049015A010DC0281939094A095B098A858A
:103B80009B85AC85BD85281739074A075B0759F027
:103B90000894411C511C611C711C0894C11CD11C4F
:103BA000E11CF11CB0CFC101A601B7010FEF1FEF5F
:103BB0002FEF3FE00E94521B882399F43FC026015B
:103BC000370108944108510861087108C101B30127
:103BD000A201970186010E94521B882379F173018B
:103BE00062018C149D04AE04BF0448F3AE85BF850A
:103BF0004D915D916D917C91411551056105710566
:103C000039F0C101950184010E94521B8823B1F053
:103C1000EE85FF8580829182A282B382F985FF239F
:103C200059F00894811C911CA11CB11CD1018D92EA
:103C30009D92AD92BC92139781E001C080E02F96D7
:103C40000FB6F894DEBF0FBECDBFCF91DF911F91AD
:103C50000F91FF90EF90DF90CF90BF90AF909F902B
:103C60008F907F906F905F904F903F902F9008952E
:103C700081E08093DA076093B7071092D80710921B
:103C8000D90708952091B60730E08091B507281B29
:103C90003109C90108954091B5078091B6074817C9
:103CA00018F02FEF3FEF0AC0E42FF0E0EB56F84F8B
:103CB0008081282F30E04F5F4093B507C9010895F8
:103CC000E091B5078091B607E81718F0EFEFFFEF26
:103CD00006C0F0E0EB56F84F8081E82FF0E0CF010E
:103CE000089508951092DE071092DD0788EE93E0A4
:103CF000A0E0B0E08093DF079093E007A093E10796
:103D0000B093E20781ED94E09093DC078093DB07AA
:103D10000895CF92DF92EF92FF920F931F93CF936C
:103D2000DF937C016B018A018091DA078823A1F07F
:103D3000C0E0D0E00DC0D701ED91FC91D601AC0FF1
:103D4000BD1F0190F081E02DC7016C91199521965E
:103D5000C017D10780F304C0CB01642F0E94BB1FA2
:103D6000C801DF91CF911F910F91FF90EF90DF90ED
:103D7000CF900895DF93CF930F92CDB7DEB7FC01BC
:103D800069838091DA078823C9F08091D90780324E
:103D900038F081E090E09383828320E030E015C02A
:103DA0008091D807E82FF0E0E854F84F998190838C
:103DB0008F5F8093D8078093D90705C0CE01019605
:103DC00061E00E94BB1F21E030E0C9010F90CF915C
:103DD000DF9108950F93062F8091B70768EB77E086
:103DE0004091D90721E00E94661F1092D8071092D7
:103DF000D9071092DA070F91089561E00E94EA1E38
:103E00000895413208F040E2862F65E977E00E948C
:103E10001D1F1092B5078093B607089521E00E94F8
:103E2000011F08951092B5071092B6071092D80797
:103E30001092D9070E946B210895382F413210F05B
:103E400040E042C08091E7078823E1F791E090933A
:103E5000E7072093E9078FEF8093540810920F082B
:103E60004150409310084F5F9093E8078091E80716
:103E7000330F832B8093E8078091EA07813041F468
:103E80001092EA078091E8078093BB0085EC01C09F
:103E900085EE8093BC008091E7078130E1F380914B
:103EA0000F08841710F440910F0820E030E00AC09A
:103EB000FB01E20FF31FD901A151B84F8C91808310
:103EC0002F5F3F4F2417A0F3842F08950F931F9364
:103ED000582F122F413210F081E04AC08091E7073D
:103EE0008823E1F782E08093E7070093E9078FEFEB
:103EF0008093540810920F0840931008AFEEB7E07B
:103F0000FB0102C081918D938E2F861B8417D0F305
:103F10001092E8078091E807550F852B8093E807FA
:103F20008091EA07813041F41092EA078091E80716
:103F30008093BB0085EC01C085EE8093BC0011230B
:103F400021F08091E7078230E1F3809154088F3FA0
:103F500011F480E00DC080915408803211F482E0A9
:103F600007C080915408803311F084E001C083E0E1
:103F70001F910F910895482F613210F081E008954C
:103F80008091E707843011F082E008956093320851
:103F9000A1E1B8E0842F9C01F90102C081918D93C9
:103FA0008E2F841B8617D0F380E008951F920F9206
:103FB0000FB60F920BB60F9211242F933F934F938E
:103FC0005F936F937F938F939F93AF93BF93EF9381
:103FD000FF938091B90090E0887F907080369105C2
:103FE00009F4F2C081369105CCF58832910509F4C7
:103FF0007BC089329105B4F48031910509F46FC01A
:10400000813191053CF4009709F447C1089709F004
:104010004FC165C08831910509F466C0809709F0E9
:1040200047C182C08034910509F4A4C08134910550
:1040300044F48033910509F482C0C89709F038C16F
:1040400089C08035910509F489C08835910509F446
:1040500096C08834910509F02BC1AEC0883991050E
:1040600009F413C189399105ECF48837910509F4F5
:10407000ABC0893791054CF48836910509F4A4C08A
:104080008037910509F014C19FC08838910509F463
:10409000FCC08039910509F49DC08038910509F074
:1040A00007C198C0803B910509F4C6C0813B9105CA
:1040B0004CF4803A910509F49FC0883A910509F0C3
:1040C000F7C0BAC0803C910509F4E3C0883C910573
:1040D00009F4DFC0883B910509F0EAC0C2C08091B5
:1040E000E8078093BB00CFC090910F088091100823
:1040F000981768F490910F08E92FF0E0E151F84F1C
:1041000080818093BB009F5F90930F08BCC080911B
:10411000E907882309F44BC085ED8093BC008091AA
:10412000BC0084FDFCCFC2C080E28093540885EDC2
:104130008093BC008091BC0084FDFCCFB7C080E3BD
:104140008093540885ED8093BC008091BC0084FD71
:10415000FCCFACC088E3809354089BC080910F08CB
:104160009091BB00E82FF0E0E151F84F90838F5F12
:1041700080930F0890910F088091100882C0809161
:104180000F089091BB00E82FF0E0E151F84F9083C9
:104190008F5F80930F088091E907882341F085EDB8
:1041A0008093BC008091BC0084FDFCCF7FC081E087
:1041B0008093EA0784EA6EC085ED8093BC0080910D
:1041C000BC0084FDFCCF72C083E08093E7071092AF
:1041D000530859C080915308803208F056C080912E
:1041E00053089091BB00E82FF0E0ED5CF74F90830F
:1041F0008F5F8093530847C080915308803230F41A
:10420000E0915308F0E0ED5CF74F108285ED80936C
:10421000BC008091BC0084FDFCCF1092E707609148
:104220005308E091ED07F091EE0783E398E070E02A
:104230001995109253082DC084E08093E7071092DF
:10424000310810923208E091EB07F091EC071995D4
:1042500080913208882329F481E0809332081092FB
:10426000110890913108E92FF0E0EF5EF74F80815F
:104270008093BB009F5F90933108909131088091AB
:104280003208981710F485EC01C085E88093BC00D3
:104290000FC085EC8093BC0009C01092540885EDD6
:1042A0008093BC008091BC0084FDFCCF1092E70796
:1042B000FF91EF91BF91AF919F918F917F916F91FE
:1042C0005F914F913F912F910F900BBE0F900FBEBA
:1042D0000F901F9018951092E70781E08093E907EF
:1042E0001092EA0784E161E00E94C02485E161E068
:1042F0000E94C024E9EBF0E080818E7F8083808182
:104300008D7F808388E48093B80085E48093BC002F
:1043100008950F931F93CF93DF93BC0182309105D3
:1043200010F462E070E0E091080BF091090BA0E05E
:10433000B0E040E050E024C080819181861797076B
:10434000D0F08617970771F482819381109729F036
:1043500013969C938E9312972CC09093090B809385
:10436000080B27C04115510519F08417950718F45B
:10437000EF018D01AC01DF01828193819C01F90184
:104380003097D1F641155105F9F0CA01861B970BFC
:104390008430910580F48A819B810115110521F0FB
:1043A000F8019383828304C09093090B8093080BD8
:1043B000FE01329645C0FE01E80FF91F619371932B
:1043C0000297998388833CC08091060B9091070BDC
:1043D000892B41F48091B0049091B1049093070B24
:1043E0008093060B4091B2045091B30441155105DE
:1043F00041F44DB75EB78091AE049091AF04481B75
:10440000590B2091060B3091070B24173507B0F498
:10441000CA01821B930B8617970780F0AB014E5F92
:104420005F4F8417950750F0420F531F5093070BAF
:104430004093060BF9016193719302C0E0E0F0E054
:10444000CF01DF91CF911F910F910895CF93DF930B
:104450009C01009709F48FC0EC0122971B821A82FD
:104460006091080B7091090B6115710581F48881C9
:104470009981820F931F2091060B3091070B28170B
:10448000390739F5D093070BC093060B74C0DB01D5
:1044900040E050E0AC17BD0708F1BB83AA83FE01E2
:1044A00021913191E20FF31FAE17BF0779F48D917F
:1044B0009C911197280F391F2E5F3F4F3983288316
:1044C00012968D919C9113979B838A834115510578
:1044D00071F4D093090BC093080B4DC012968D91C7
:1044E0009C911397AD01009711F0DC01D3CFDA0155
:1044F0001396DC93CE931297FA0121913191E20F3A
:10450000F31FCE17DF0769F488819981280F391FBF
:104510002E5F3F4FFA01318320838A819B819383F1
:104520008283E0E0F0E0DB0112968D919C9113977D
:10453000009719F0BC01FD01F6CFAB014E5F5F4F54
:10454000DB018D919C91840F951F2091060B30917A
:10455000070B2817390779F4309729F41092090BC3
:104560001092080B02C013821282425050405093A6
:10457000070B4093060BDF91CF9108951F920F9286
:104580000FB60F9211242F933F938F939F93AF9366
:10459000BF938091590890915A08A0915B08B091FF
:1045A0005C0830915D080196A11DB11D232F2D5F80
:1045B0002D3720F02D570196A11DB11D20935D08C8
:1045C0008093590890935A08A0935B08B0935C08B5
:1045D0008091550890915608A0915708B0915808BD
:1045E0000196A11DB11D8093550890935608A09384
:1045F0005708B0935808BF91AF919F918F913F9109
:104600002F910F900FBE0F901F9018958FB7F894B1
:104610002091590830915A0840915B0850915C08EC
:104620008FBFB901CA0108959B01AC017FB7F8940F
:104630008091550890915608A0915708B09158085C
:1046400066B5A89B05C06F3F19F00196A11DB11D6D
:104650007FBFBA2FA92F982F8827860F911DA11DE4
:10466000B11D62E0880F991FAA1FBB1F6A95D1F781
:10467000BC012DC0FFB7F894809155089091560861
:10468000A0915708B0915808E6B5A89B05C0EF3F28
:1046900019F00196A11DB11DFFBFBA2FA92F982FA8
:1046A00088278E0F911DA11DB11DE2E0880F991F73
:1046B000AA1FBB1FEA95D1F7861B970B885E934014
:1046C000C8F2215030404040504068517C4F211585
:1046D00031054105510571F60895019739F0880FAC
:1046E000991F880F991F02970197F1F70895789401
:1046F00084B5826084BD84B5816084BD85B58260E7
:1047000085BD85B5816085BDEEE6F0E08081816084
:104710008083E1E8F0E01082808182608083808184
:1047200081608083E0E8F0E0808181608083E1EB5C
:10473000F0E0808184608083E0EBF0E08081816044
:104740008083E1E9F0E08081826080838081816004
:104750008083E0E9F0E0808181608083E1EAF0E03D
:10476000808182608083808181608083E0EAF0E0E4
:10477000808181608083E1E2F1E0808182608083DA
:10478000808181608083E0E2F1E0808181608083CC
:10479000EAE7F0E0808184608083808182608083AA
:1047A0008081816080838081806880831092C100D5
:1047B0000895382F863308F0365320917B00832FDD
:1047C00086958695869590E08170907043E0880F7D
:1047D000991F4A95E1F7277F282B20937B0037709C
:1047E0008091B4048295880F880F807C832B8093FE
:1047F0007C0080917A00806480937A0080917A00B6
:1048000086FDFCCF2091780040917900942F80E0C4
:1048100030E0282B392BC9010895CF93DF93482F1F
:1048200050E0CA018C569E4FFC013491425B5E4FB2
:10483000FA018491882369F190E0880F991FFC01A7
:10484000E050FF4FA591B491FC01E65EFE4FC5918B
:10485000D491662351F42FB7F8948C91932F9095AF
:1048600089238C93888189230BC0623061F42FB730
:10487000F8948C91932F909589238C938881832B26
:1048800088832FBF06C09FB7F8948C91832B8C939D
:104890009FBFDF91CF910895893009F449C08A30D4
:1048A000A0F4843051F1853040F4823079F18330C6
:1048B00000F5813009F063C026C0873079F1883077
:1048C00098F5863009F05BC025C08D3009F442C0F0
:1048D0008E3028F48B30B1F18C30C0F52DC0803192
:1048E00009F442C0813109F445C08F3009F047C056
:1048F00037C0809180008F7703C0809180008F7DCA
:1049000080938000089584B58F7702C084B58F7D31
:1049100084BD08958091B0008F7703C08091B0006E
:104920008F7D8093B0000895809190008F7707C0AD
:10493000809190008F7D03C080919000877F80934D
:10494000900008958091A0008F7707C08091A0000B
:104950008F7D03C08091A000877F8093A000089581
:10496000809120018F7703C0809120018F7D8093FB
:104970002001089580912001877F80932001089570
:10498000FF920F931F93F62E482F50E0CA018652D4
:104990009E4FFC012491CA018C569E4FFC0114913C
:1049A000425B5E4FFA0104910023C9F0222319F003
:1049B000822F0E944C24E02FF0E0EE0FFF1FE65EF6
:1049C000FE4FA591B4919FB7F894FF2021F48C91EC
:1049D0001095812302C08C91812B8C939FBF1F91D6
:1049E0000F91FF9008950F931F93482F50E0CA0135
:1049F00086529E4FFC012491CA018C569E4FFC01A9
:104A00000491425B5E4FFA011491112319F420E0E6
:104A100030E015C0222319F0822F0E944C24812FF0
:104A200090E0880F991F8C5C9E4FFC01A591B4917A
:104A30008C9120E030E0802311F021E030E0C901CA
:104A40001F910F91089508951F920F920FB60F9224
:104A50000BB60F9211242F933F934F938F939F93F5
:104A6000EF93FF938091C00082FD1DC04091C6006E
:104A700020919E0830919F082F5F3F4F2F73307019
:104A80008091A0089091A1082817390771F0E09152
:104A90009E08F0919F08E25AF74F408330939F0899
:104AA00020939E0802C08091C600FF91EF919F91D4
:104AB0008F914F913F912F910F900BBE0F900FBE92
:104AC0000F901F90189508951F920F920FB60F9296
:104AD0000BB60F9211242F933F934F938F939F9375
:104AE000EF93FF938091C80082FD1DC04091CE00DE
:104AF00020912609309127092F5F3F4F2F73307087
:104B000080912809909129092817390771F0E091BF
:104B10002609F0912709EA51F74F4083309327097E
:104B20002093260902C08091CE00FF91EF919F91C2
:104B30008F914F913F912F910F900BBE0F900FBE11
:104B40000F901F90189508951F920F920FB60F9215
:104B50000BB60F9211242F933F934F938F939F93F4
:104B6000EF93FF938091D00082FD1DC04091D6004D
:104B70002091AE093091AF092F5F3F4F2F733070F6
:104B80008091B0099091B1092817390771F0E0912F
:104B9000AE09F091AF09E259F64F40833093AF0967
:104BA0002093AE0902C08091D600FF91EF919F91B2
:104BB0008F914F913F912F910F900BBE0F900FBE91
:104BC0000F901F90189508951F920F920FB60F9295
:104BD0000BB60F9211242F933F934F938F939F9374
:104BE000EF93FF938091300182FD1DC0409136010B
:104BF0002091360A3091370A2F5F3F4F2F73307064
:104C00008091380A9091390A2817390771F0E0919C
:104C1000360AF091370AEA50F64F40833093370A4C
:104C20002093360A02C080913601FF91EF919F9147
:104C30008F914F913F912F910F900BBE0F900FBE10
:104C40000F901F901895E0918A0AF0918B0AE05C12
:104C5000FF4F8191919120813181821B930B8F7342
:104C60009070892B11F00E942325E091AC0AF091FD
:104C7000AD0AE05CFF4F8191919120813181821BCF
:104C8000930B8F739070892B11F00E946325E09134
:104C9000CE0AF091CF0AE05CFF4F81919191208183
:104CA0003181821B930B8F739070892B11F00E94BE
:104CB000A325E091F00AF091F10AE05CFF4F8191A9
:104CC000919120813181821B930B8F739070892B7E
:104CD00011F00E94E32508951F920F920FB60F92D4
:104CE0000BB60F9211242F933F938F939F93EF93C3
:104CF000FF932091E2083091E3088091E4089091BD
:104D0000E5082817390731F48091C1008F7D809321
:104D1000C10014C0E091E408F091E508EE55F74FAA
:104D200020818091E4089091E50801968F7390703E
:104D30009093E5088093E4082093C600FF91EF91DB
:104D40009F918F913F912F910F900BBE0F900FBEAF
:104D50000F901F9018951F920F920FB60F920BB6DF
:104D60000F9211242F933F938F939F93EF93FF9371
:104D700020916A0930916B0980916C0990916D09BD
:104D80002817390731F48091C9008F7D8093C900BD
:104D900014C0E0916C09F0916D09E65DF64F208139
:104DA00080916C0990916D0901968F73907090932A
:104DB0006D0980936C092093CE00FF91EF919F9134
:104DC0008F913F912F910F900BBE0F900FBE0F90C0
:104DD0001F9018951F920F920FB60F920BB60F925D
:104DE00011242F933F938F939F93EF93FF932091E1
:104DF000F2093091F3098091F4099091F50928178F
:104E0000390731F48091D1008F7D8093D10014C097
:104E1000E091F409F091F509EE54F64F208180916C
:104E2000F4099091F50901968F7390709093F509AC
:104E30008093F4092093D600FF91EF919F918F9179
:104E40003F912F910F900BBE0F900FBE0F901F90B0
:104E500018951F920F920FB60F920BB60F92112456
:104E60002F933F938F939F93EF93FF9320917A0A11
:104E700030917B0A80917C0A90917D0A281739072E
:104E800031F4809131018F7D8093310114C0E09124
:104E90007C0AF0917D0AE65CF54F208180917C0AC6
:104EA00090917D0A01968F73907090937D0A809304
:104EB0007C0A20933601FF91EF919F918F913F9152
:104EC0002F910F900BBE0F900FBE0F901F90189553
:104ED000AF92BF92DF92EF92FF920F931F93CF9307
:104EE000DF93EC017A018B01DD24403081EE58071D
:104EF00080E0680780E0780711F0DD24D39491E02A
:104F0000A92EB12CEC89FD89DD2069F0C50108A02E
:104F100002C0880F991F0A94E2F7808360E079E06D
:104F20008DE390E005C0108260E874E88EE190E0C7
:104F3000A80197010E948F2E2150304040405040E0
:104F4000569547953795279580E12030380720F012
:104F5000DD2011F0DD24D6CFE889F9893083EA8994
:104F6000FB89208319A2EE89FF89408121E030E08E
:104F7000C9010C8C02C0880F991F0A94E2F7482BD4
:104F80004083EE89FF894081C9010D8C02C0880FE2
:104F9000991F0A94E2F7482B4083EE89FF894081EC
:104FA000C9010E8C02C0880F991F0A94E2F7482BA2
:104FB0004083EE89FF8980810F8C02C0220F331F4E
:104FC0000A94E2F7209528232083DF91CF911F9147
:104FD0000F91FF90EF90DF90BF90AF900895DC01AC
:104FE0001C96ED91FC911D97E05CFF4F2191319152
:104FF00080819181281B390B2F733070C90108956E
:10500000DC011C96ED91FC911D97E05CFF4F208127
:105010003181E054F040DF01AE5BBF4F8D919C9138
:1050200011972817390719F42FEF3FEF07C08D911B
:105030009C91E80FF91F8081282F30E0C901089565
:10504000DC011C96ED91FC911D97E05CFF4F2081E7
:105050003181E054F040DF01AE5BBF4F8D919C91F8
:1050600011972817390719F42FEF3FEF10C08D91D2
:105070009C911197E80FF91F20818D919C911197B8
:1050800001968F73907011969C938E9330E0C901B6
:105090000895DC0191968C919197882339F054966C
:1050A000ED91FC915597808186FFF9CF91961C92E6
:1050B0000895CF93DF93EC01EE85FF85E05CFF4F11
:1050C00020813181E054F0402F5F3F4F2F733070CB
:1050D000DF01AE5BBF4F8D919C9111972817390767
:1050E000D1F3E05CFF4F80819181E054F040E80F04
:1050F000F91F6083EE85FF85E05CFF4F31832083DD
:10510000EE89FF89208181E090E00F8C02C0880F3A
:10511000991F0A94E2F7282B208381E089A3EC8968
:10512000FD8980818064808381E090E0DF91CF9170
:1051300008951F931092810A1092800A28EE33E09E
:1051400040E050E02093820A3093830A4093840A1F
:105150005093850A61EE74E070937F0A60937E0A33
:105160008EE598E090938B0A80938A0A82EA98E011
:1051700090938D0A80938C0A85EC90E090938F0A2F
:1051800080938E0A84EC90E09093910A8093900A29
:1051900080EC90E09093930A8093920A81EC90E0E7
:1051A0009093950A8093940A82EC90E09093970AEA
:1051B0008093960A86EC90E09093990A8093980ADF
:1051C00014E010939A0AB3E0B0939B0AA7E0A0936F
:1051D0009C0AF5E0F0939D0AE1E0E0939E0A1092AC
:1051E000A30A1092A20A2093A40A3093A50A40931E
:1051F000A60A5093A70A7093A10A6093A00A86EEAC
:1052000098E09093AD0A8093AC0A8AE299E090937B
:10521000AF0A8093AE0A8DEC90E09093B10A809330
:10522000B00A8CEC90E09093B30A8093B20A88ECB9
:1052300090E09093B50A8093B40A89EC90E0909343
:10524000B70A8093B60A8AEC90E09093B90A8093EB
:10525000B80A8EEC90E09093BB0A8093BA0A109340
:10526000BC0AB093BD0AA093BE0AF093BF0AE093B4
:10527000C00A1092C50A1092C40A2093C60A30933D
:10528000C70A4093C80A5093C90A7093C30A60932F
:10529000C20A8EE699E09093CF0A8093CE0A82EB01
:1052A00099E09093D10A8093D00A85ED90E0909395
:1052B000D30A8093D20A84ED90E09093D50A80932C
:1052C000D40A80ED90E09093D70A8093D60A81EDBE
:1052D00090E09093D90A8093D80A82ED90E0909361
:1052E000DB0A8093DA0A86ED90E09093DD0A8093E2
:1052F000DC0A1093DE0AB093DF0AA093E00AF09371
:10530000E10AE093E20A1092E70A1092E60A20937B
:10531000E80A3093E90A4093EA0A5093EB0A709343
:10532000E50A6093E40A86EF99E09093F10A80938E
:10533000F00A8AE39AE09093F30A8093F20A85E3F5
:1053400091E09093F50A8093F40A84E391E09093BE
:10535000F70A8093F60A80E391E09093F90A80932C
:10536000F80A81E391E09093FB0A8093FA0A82E3C2
:1053700091E09093FD0A8093FC0A86E391E090937C
:10538000FF0A8093FE0A1093000BB093010BA093C9
:10539000020BF093030BE093040B1F910895CF933E
:1053A000DF930E9477230E945009C3E2D6E20E9455
:1053B000B8082097E1F30E942326F9CFCF92DF921D
:1053C000EF92FF920F931F93CF93DF937C016B01BA
:1053D0008A01C0E0D0E00FC0D6016D916D01D70108
:1053E000ED91FC910190F081E02DC7011995C80F56
:1053F000D91F015010400115110571F7CE01DF9141
:10540000CF911F910F91FF90EF90DF90CF90089573
:10541000DC01ED91FC910190F081E02D199508954A
:10542000EF92FF920F931F938C01DC01ED91FC91A1
:105430000190F081E02D6DE019957C01D801ED918E
:10544000FC910190F081E02DC8016AE019959C0162
:105450002E0D3F1DC9011F910F91FF90EF900895F0
:10546000CF93DF93EC016115710519F420E030E072
:105470000FC0DB010D900020E9F71197A61BB70BB9
:10548000E881F9810280F381E02DAD0119959C013D
:10549000C901DF91CF9108954F925F927F928F92D1
:1054A0009F92AF92BF92CF92DF92EF92FF920F93B3
:1054B0001F93DF93CF93CDB7DEB7A1970FB6F894C4
:1054C000DEBF0FBECDBF2C01742ECB01223008F4FD
:1054D0002AE019A231E2C32ED12CCC0EDD1E822E81
:1054E0009924AA24BB24672D752FA50194010E943D
:1054F0008F2E79018A01C801B701A50194010E948C
:10550000702E472D461B0894C108D1084A3014F468
:10551000405D01C0495CF6014083E114F1040105DE
:10552000110521F07E2C5F2DC801DDCFC201B6012F
:105530000E94302AA1960FB6F894DEBF0FBECDBFF1
:10554000CF91DF911F910F91FF90EF90DF90CF905F
:10555000BF90AF909F908F907F905F904F900895F5
:10556000DC012115310541F4ED91FC910190F081B0
:10557000E02D642F199508950E944C2A0895EF920A
:10558000FF920F931F939A017B0100E010E0B80196
:10559000A7010E94B02A1F910F91FF90EF900895EC
:1055A000EF92FF920F931F939A01E62EFF2400E0E3
:1055B00010E0B801A7010E94B02A1F910F91FF903F
:1055C000EF900895CF92DF92EF92FF920F931F9387
:1055D000CF93DF93EC016A017B012115310541F482
:1055E000E881F9810190F081E02D642F19951FC0A9
:1055F0002A303105D1F477FF17C0E881F981019095
:10560000F081E02D6DE219958C0144275527BA01F0
:105610004C195D096E097F09CE012AE00E944C2ACF
:105620009801280F391F04C02AE00E944C2A9C01CF
:10563000C901DF91CF911F910F91FF90EF90DF9003
:10564000CF900895CF92DF92EF92FF920F931F9326
:105650006C017B019A010027F7FC0095102FB8011F
:10566000A7010E94E22A8C01C6010E94102A080F9D
:10567000191FC8011F910F91FF90EF90DF90CF90FD
:1056800008950E94302A08957F928F929F92AF9240
:10569000BF92CF92DF92EF92FF920F931F93CF931F
:1056A000DF934C017A018B01722ECB01BA01A80164
:1056B00097010E946C2E882321F0C4016CE774E0EE
:1056C00021C0C0E0D0E057016801E894D7F8C601D6
:1056D000B5012FEF3FEF4FE75FE70E946C2E882365
:1056E00051F4C601B5012FEF3FEF4FE75FE70E948E
:1056F000B62C181614F0C1E0D0E0219739F0C4019F
:1057000060E874E00E94302AEC0193C0C801B70140
:105710002FEF3FEF4FE75FE40E94052E181654F07D
:10572000C801B7012FEF3FEF4FE75FEC0E94B62CA7
:10573000882324F4C40164E874E0E4CFC801B7010D
:1057400020E030E040E050E00E94B62C87FD03C02E
:10575000C0E0D0E00EC0D401ED91FC910190F08149
:10576000E02DC4016DE21995EC0117FB109517F9B6
:10577000109520E030E040E05FE3DD240BC0CA017B
:10578000B90120E030E040E251E40E94BA2C9B01D4
:10579000AC01D394D71498F3C801B7010E94522CDE
:1057A0005B016C010E94272D7B018C01C401B801B3
:1057B000A7012AE030E00E94B02AC80FD91F772045
:1057C00039F0C40168E874E00E94302AC80FD91F7C
:1057D000C801B7010E94532D9B01AC01C601B50160
:1057E0000E94512C24C020E030E040E251E40E94AD
:1057F000092E7B018C010E94222D5B016C01CC24BF
:10580000B7FCC094DC2CC401B601A5012AE030E04D
:105810000E94E22AC80FD91FC601B5010E94552D6A
:105820009B01AC01C801B7010E94512C7A947720EA
:10583000D1F6CE01DF91CF911F910F91FF90EF90A4
:10584000DF90CF90BF90AF909F908F907F90089502
:105850000E94442B0895EF92FF920F931F937C01B7
:105860000E94442B8C01C7010E94102A080F191FA7
:10587000C8011F910F91FF90EF900895EF92FF9252
:105880000F931F937C010E94302A8C01C7010E9454
:10589000102A080F191FC8011F910F91FF90EF9058
:1058A00008955058BB27AA270ED075C166D130F095
:1058B0006BD120F031F49F3F11F41EF45BC10EF464
:1058C000E095E7FB51C1E92F77D180F3BA17620762
:1058D00073078407950718F071F49EF58FC10EF4D5
:1058E000E0950B2EBA2FA02D0B01B90190010C01F0
:1058F000CA01A0011124FF27591B99F0593F50F408
:10590000503E68F11A16F040A22F232F342F44275F
:10591000585FF3CF469537952795A795F040539557
:10592000C9F77EF41F16BA0B620B730B840BBAF027
:105930009150A1F0FF0FBB1F661F771F881FC2F792
:105940000EC0BA0F621F731F841F48F487957795A6
:105950006795B795F7959E3F08F0B3CF9395880F5D
:1059600008F09927EE0F979587950895D9D008F4F8
:1059700081E008950CD00FC107D140F0FED030F087
:1059800021F45F3F19F0F0C0511139C1F3C014D1B7
:1059900098F39923C9F35523B1F3951B550BBB27F6
:1059A000AA2762177307840738F09F5F5F4F220FA3
:1059B000331F441FAA1FA9F333D00E2E3AF0E0E89C
:1059C00030D091505040E695001CCAF729D0FE2FE8
:1059D00027D0660F771F881FBB1F2617370748077A
:1059E000AB07B0E809F0BB0B802DBF01FF27935830
:1059F0005F4F2AF09E3F510568F0B6C000C15F3F7F
:105A0000ECF3983EDCF3869577956795B795F79517
:105A10009F5FC9F7880F911D9695879597F908950F
:105A2000E1E0660F771F881FBB1F621773078407AB
:105A3000BA0720F0621B730B840BBA0BEE1F88F7BA
:105A4000E095089504D06894B111D9C00895BCD0F0
:105A500088F09F5790F0B92F9927B751A0F0D1F057
:105A6000660F771F881F991F1AF0BA95C9F712C0E1
:105A7000B13081F0C3D0B1E00895C0C0672F782F56
:105A80008827B85F39F0B93FCCF38695779567954D
:105A9000B395D9F73EF490958095709561957F4FB9
:105AA0008F4F9F4F0895E89409C097FB3EF490955F
:105AB0008095709561957F4F8F4F9F4F9923A9F0E7
:105AC000F92F96E9BB279395F69587957795679576
:105AD000B795F111F8CFFAF4BB0F11F460FF1BC0BA
