:100000000C9474000C949C000C949C000C949C0028
:100010000C949C000C949C000C949C000C949C00F0
:100020000C949C000C949C000C949C000C949C00E0
:100030000C949C000C949C000C949C000C949C00D0
:100040000C949A200C949C000C9497220C94E5221A
:100050000C949C000C949C000C949C000C949C00B0
:100060000C94B61D0C949C001F1C1F1E1F1E1F1FEE
:100070001E1F1E1F7C3C3E5E2B3D3F2F5B5D3B2CBD
:100080002A225C0000000000240027002A00000053
:100090000000250028002B0000000000230026009F
:1000A00029000404040404040404020202020202FB
:1000B000030303030303010204081020408001022C
:1000C00004081020010204081020000000070002AC
:1000D0000100000304060000000000000000E10031
:1000E0008D08150A521C512411241FBECFEFD8E0F1
:1000F000DEBFCDBF13E0A0E0B1E0E0E9F3E502C070
:1001000005900D92A639B107D9F717E0A6E9B3E03B
:1001100001C01D92AA39B107E1F710E0C8EED0E0A6
:1001200004C02297FE010E948B29CE3DD107C9F75A
:100130000E94A7240C94C6290C940000FB01DC014A
:1001400004C08D910190801921F441505040C8F7AE
:10015000881B990B0895FC018191861721F0882353
:10016000D9F7992708953197CF010895FB01DC0154
:100170004150504048F001900D920020C9F701C055
:100180001D9241505040E0F70895A0E0B0E0EBEC44
:10019000F0E00C9499297C01EB018A01690109C006
:1001A000CE012196F6010995F70181937F01015057
:1001B000104001151105A1F7CDB7DEB7E8E00C94AA
:1001C000B52984EC93E040E050E060E070E00E94EC
:1001D0003907089589E696E00E94F21C0E94CA073A
:1001E00008950F931F93DF93CF93CDB7DEB7A197F9
:1001F0000FB6F894DEBF0FBECDBF8E010F5F1F4F4D
:10020000C80161ED73E040E051E023E10E94550B2D
:10021000C8010E943E09882309F498C00E94CC07B7
:100220002C8F3D8F4E8F5F8F68A379A3A4ECB3E032
:10023000FE017C9686E001900D928150E1F740919D
:1002400098035091990360919A0370919B038E01DA
:100250000F5F1F4FC80122E030E00E940027C80155
:100260006CE071E00E941926C8016091CD034AE05C
:1002700050E00E94A825C8016CE071E00E94192698
:10028000C8016091CB034AE050E00E94A825C80154
:100290006CE071E00E9419264091B8035091B903B7
:1002A0006091BA037091BB03C80122E030E00E9464
:1002B0000027C8016CE071E00E941926C801609116
:1002C000C6034AE050E00E94A825C8016FE20E94E0
:1002D000E024C8016091C5034AE050E00E94A825CF
:1002E000C8016FE20E94E0246091C40370E0605393
:1002F000784FC8014AE050E00E949725C80160E2AB
:100300000E94E024C8016091C7034AE050E00E94C7
:10031000A825C8016AE30E94E024C8016091C803CF
:100320004AE050E00E94A825C8016AE30E94E02448
:10033000C8016091C9034AE050E00E94A825C801A5
:100340000E94E824C8010E944B0906C084E797E098
:100350006FE071E00E941627CE0101960E94FC0812
:10036000A1960FB6F894DEBF0FBECDBFCF91DF913F
:100370001F910F91089584E797E069E271E00E9470
:1003800019268091440361E00E94B02181ED93E041
:1003900065E30E947A0C882329F484E797E061E4FE
:1003A00071E004C084E797E06DE571E00E941627D4
:1003B00008958091460361E00E94EF21089584E74B
:1003C00097E00E94A723181619060CF077C184E75E
:1003D00097E00E94D8238533910509F4C6C086337F
:1003E00091059CF48233910509F443C08333910550
:1003F00024F4C19709F05AC118C08333910509F458
:1004000064C0C49709F052C184C08733910509F4D0
:10041000FCC0873391050CF4CCC08833910509F4F6
:1004200017C1C99709F042C13EC160919E03709106
:100430009F038091A0039091A1032AE037ED43E24E
:100440005CE30E942A2760939E0370939F0380932E
:10045000A0039093A10320E030E040E151E40E942A
:10046000DD2888230CF42AC180E090E0A0E1B1E40B
:1004700023C060919E0370919F038091A00390918F
:10048000A1032AE037ED43E25CE30E942927609351
:100490009E0370939F038093A0039093A10320E099
:1004A00030E040E450E40E948E2718160CF406C198
:1004B00080E090E0A0E4B0E480939E0390939F03DB
:1004C000A093A003B093A10308956091AA03709133
:1004D000AB038091AC039091AD032AE037ED43E28A
:1004E0005CE30E942A276093AA037093AB03809376
:1004F000AC039093AD0320E030E040E151E40E9472
:10050000DD2888230CF4DAC080E090E0A0E1B1E4BB
:1005100023C06091AA037091AB038091AC039091CA
:10052000AD032AE037ED43E25CE30E9429276093A4
:10053000AA037093AB038093AC039093AD032AE0BE
:1005400037ED43E25CE30E948E2718160CF4B6C028
:100550008AE097EDA3E2BCE38093AA039093AB03F8
:10056000A093AC03B093AD0308956091AE03709176
:10057000AF038091B0039091B10320E030E040E8F8
:100580005FE30E942A276093AE037093AF038093CA
:10059000B0039093B10320E030E048E452E40E94BD
:1005A000DD2888230CF48AC080E090E0A8E4B2E45F
:1005B00023C06091AE037091AF038091B00390911E
:1005C000B10320E030E040E85FE30E942927609318
:1005D000AE037093AF038093B0039093B10320E018
:1005E00030E040E050E00E948E2718160CF466C000
:1005F00080E090E0A0E0B0E08093AE039093AF0382
:10060000A093B003B093B10308956091B2037091C9
:10061000B3038091B4039091B50320E030E040E84B
:100620005FE30E942A276093B2037093B303809321
:10063000B4039093B50320E030E048EC52E40E940C
:10064000DD288823DCF180E090E0A8ECB2E422C051
:100650006091B2037091B3038091B4039091B5039C
:1006600020E030E040E85FE30E9429276093B20376
:100670007093B3038093B4039093B50320E030E00C
:1006800040E050E00E948E271816C4F080E090E011
:10069000A0E0B0E08093B2039093B303A093B403BF
:1006A000B093B50308950E94D901089584E797E0B7
:1006B00069E37DE24AE050E00E94FA2508956091E6
:1006C000CB0370E0882777FD8095982F0E942D2816
:1006D0002091B2033091B3034091B4035091B5031C
:1006E0000E94DD288823CCF06091CD0370E088273C
:1006F00077FD8095982F0E942D282091AE03309190
:10070000AF034091B0035091B1030E94DD288823CC
:1007100024F080913C0361E003C080913C0360E0E1
:100720000E94EF21089585E461E00E94B02185E4F4
:1007300061E00E94EF2108950F931F938091400381
:100740000E9443228C0180913E030E944322012B90
:1007500031F4892B59F48091460361E005C001977B
:1007600029F48091460360E00E94EF211F910F91D0
:1007700008958091960390919703892B09F064C0A6
:10078000809142030E948E219093B7038093B60319
:10079000AA2797FDA095BA2FBC01CD010E942D2854
:1007A00020E030E040E85AE30E94E12820E030E019
:1007B00040EA50E40E94E1289B01AC016093BC0335
:1007C0007093BD038093BE039093BF0360E070E01D
:1007D00088E492E40E94922720E030E040E251E475
:1007E0000E9429279B01AC016093C0037093C10351
:1007F0008093C2039093C30360E070E080E89FE3BE
:100800000E9492272AE037ED4FE753E40E94E12847
:100810006093B8037093B9038093BA039093BB03BA
:1008200084E797E06FE671E00E9419264091B803D3
:100830005091B9036091BA037091BB0384E797E0CC
:1008400022E030E00E94032708951F93CF93DF93A7
:1008500010E0C7E0D0E085E40E944322892BD9F361
:100860008DE290E00E94492185E40E94432281307C
:10087000910539F40C2E02C0880F991F0A94E2F7F3
:10088000182B85E40E9443220197D9F321978FEF1B
:10089000CF3FD80701F7812FDF91CF911F910895A6
:1008A000CF93DF931092CA0385E460E00E94EF21AA
:1008B00067E170E080E090E00E94F02085E461E074
:1008C0000E94EF2188E290E00E94492185E460E0E7
:1008D0000E94B02185E40E944322882311F081E028
:1008E00030C080E590E00E94492185E40E944322C7
:1008F000882311F482E025C080E590E00E94492120
:10090000CBECD3E00E942504899383E0C03DD80757
:10091000C9F785E461E00E94B02185E461E00E94AE
:10092000EF218091CC039091CB03890F9091CD035F
:10093000890F9091CE03890F9091CF03981719F0EA
:1009400083E08093CA03DF91CF9108956F927F92E5
:100950008F929F92AF92BF92CF92DF92EF92FF92CF
:100960000F931F930E9450048091CA03813071F14C
:10097000813028F0823079F18330B9F531C084E7D5
:1009800097E06EE771E00E94192684E797E0609196
:10099000CB034AE050E00E94A82584E797E062E993
:1009A00071E00E94162784E797E066E971E00E94F3
:1009B000192684E797E06091CD034AE050E00E9459
:1009C000A82584E797E065EA71E013C084E797E023
:1009D0006BEA71E00EC084E797E063ED71E009C057
:1009E00084E797E06BEF71E004C084E797E068E18B
:1009F00072E00E941627809136030E948E21AA275A
:100A000097FDA095BA2FBC01CD010E942D282EE4A0
:100A100031ED41E95CE30E94E12821EC3AEC41EF41
:100A20005FE30E9429273B014C0160939803709378
:100A3000990380939A0390939B03E0909E03F09018
:100A40009F030091A0031091A103A090AA03B0906E
:100A5000AB03C090AC03D090AD03C801B701A601B1
:100A600095010E9429276093A2037093A3038093AA
:100A7000A4039093A503C801B701A60195010E94A4
:100A80002A276093A6037093A7038093A8039093EB
:100A9000A903C401B301A80197010E948E278823EE
:100AA00051F480913A0360E00E94EF218091380375
:100AB00060E00E94EF21E0909803F090990300918C
:100AC0009A0310919B03C801B7012091A2033091B2
:100AD000A3034091A4035091A5030E94DD2888231D
:100AE000F4F0C801B7012091A6033091A70340910B
:100AF000A8035091A9030E948E27181684F08091B4
:100B00009C0390919D03892B51F480913A0360E0FE
:100B10000E94EF218091380360E00E94EF216091F4
:100B200098037091990380919A0390919B0320916F
:100B3000A2033091A3034091A4035091A5030E9406
:100B40008E27882384F480919C0390919D03892BA8
:100B500051F48091380361E00E94EF2180913A03C3
:100B600060E00E94EF21E0909803F09099030091DB
:100B70009A0310919B03C801B7012091A203309101
:100B8000A3034091A4035091A5030E94DD2888236C
:100B9000F4F0C801B70120919E0330919F0340916A
:100BA000A0035091A1030E948E27882384F4809192
:100BB0009C0390919D03019751F48091380361E06B
:100BC0000E94EF2180913A0360E00E94EF21609142
:100BD00098037091990380919A0390919B032091BF
:100BE000A6033091A7034091A8035091A9030E9446
:100BF000DD28181684F480919C0390919D03892B25
:100C000051F480913A0361E00E94EF218091380312
:100C100060E00E94EF21E0909803F090990300912A
:100C20009A0310919B03C801B7012091A60330914C
:100C3000A7034091A8035091A9030E948E2718167C
:100C4000F4F0C801B70120919E0330919F034091B9
:100C5000A0035091A1030E94DD28181684F480910E
:100C60009C0390919D03029751F480913A0361E0B7
:100C70000E94EF218091380360E00E94EF2184E719
:100C800097E06EE372E00E94192660919C037091D8
:100C90009D0384E797E04AE050E00E94FA2584E74C
:100CA00097E066E472E00E94192640919E035091FD
:100CB0009F036091A0037091A10384E797E022E075
:100CC00030E00E94032784E797E062E572E00E942B
:100CD00019264091AA035091AB036091AC03709127
:100CE000AD0384E797E022E030E00E94032784E729
:100CF00097E06EE572E00E941926409198035091AA
:100D0000990360919A0370919B0384E797E022E036
:100D100030E00E9403271F910F91FF90EF90DF902A
:100D2000CF90BF90AF909F908F907F906F900895DD
:100D30000E94A6040E94B9030E945F030E949C03C4
:100D40000E94F1000E94DF0108950F931F9380918C
:100D5000380361E00E94B02180913A0361E00E9473
:100D6000B02180913C0361E00E94B0218091460354
:100D700061E00E94B0210E94930304E717E0C801DC
:100D800040E855E260E070E00E9420236CE271E0F0
:100D900080E090E00E94F020C80164E672E00E94CA
:100DA0001627C80167E872E00E9416276CEB72E014
:100DB00080E090E00E94F0201F910F9108950F9322
:100DC0001F930FEC13E06091480370914903C80131
:100DD0000E94BA0860939E0370939F038093A003C0
:100DE0009093A10360914A0370914B03C8010E9444
:100DF000BA086093AA037093AB038093AC039093FB
:100E0000AD0360914C0370914D03C8010E94B70877
:100E100090E0A0E0B0E0BC01CD010E942B286093DF
:100E2000AE037093AF038093B0039093B1036091CE
:100E30004E0370914F03C8010E94B70890E0A0E0F4
:100E4000B0E0BC01CD010E942B286093B2037093E7
:100E5000B3038093B4039093B5031F910F9108954A
:100E60000E94DF060E94A5060E94EA000E94BB01C4
:100E70000895EF92FF920F931F93CF93DF93EC01AE
:100E80007A018B0180E89CEBA2E9B7ECE80EF91E31
:100E90000A1F1B1FC801B7012CE330E040E050E0FF
:100EA0000E9467296D83C801B7012CE330E040E060
:100EB00050E00E946729122F032FF42EE52E622F97
:100EC000732F842F952F2CE330E040E050E00E94F8
:100ED00067296C83612F702F8F2D9E2D2CE330E0BE
:100EE00040E050E00E946729122F032FF42EE52ED8
:100EF000622F732F842F952F28E130E040E050E0DF
:100F00000E9467296B83612F702F8F2D9E2D28E102
:100F100030E040E050E00E94672960E0A3E9BEEFC6
:100F200070E0862F90E083709070892B09F471E057
:100F3000E62FEF5F472F50E0CA0183599E4F2817D5
:100F4000390738F0CD01841B950B280F391F6E2F00
:100F5000E7CF688341E0E42FF0E0E959FF4F849147
:100F6000772319F0423009F48F5F90E0542F5F5FD0
:100F70002817390720F0281B390B452FECCF498360
:100F8000822F8F5F8A83DF91CF911F910F91FF9006
:100F9000EF90089581E00895BF92CF92DF92EF9293
:100FA000FF920F931F93DF93CF9300D000D000D018
:100FB000CDB7DEB709E616E0C80168E670E00E942A
:100FC000181CC80160E00E949A1CC8010E94DD1C28
:100FD000C80168E670E047E050E00E94EE1CC801DE
:100FE0000E942B1C9FE7B92EB822C8010E942B1C1F
:100FF000C82EC8010E942B1CD82EC8010E942B1C91
:10100000C8010E942B1CE82EC8010E942B1CF82E40
:10101000C8010E942B1C282F30E0B4E0359527959D
:10102000BA95E1F74AEF5FEFB901649F9001659FC0
:10103000300D749F300D1124820F90E02B2D30E085
:10104000A4E035952795AA95E1F7B901649F900131
:10105000659F300D749F300D1124B20E2C2D30E0A1
:10106000F4E035952795FA95E1F7B901649F900171
:10107000659F300D749F300D1124C20E2D2D30E070
:10108000E4E035952795EA95E1F7B901649F900171
:10109000659F300D749F300D1124D20E2E2D30E03F
:1010A00074E0359527957A95E1F7B901649F900131
:1010B000659F300D749F300D1124E20E2F2D30E00E
:1010C00064E0359527956A95E1F7B901649F900131
:1010D000659F300D749F300D1124F20E282F3F2D87
:1010E0004E2D5D2D6C2D7B2D80E026960FB6F8944D
:1010F000DEBF0FBECDBFCF91DF911F910F91FF904B
:10110000EF90DF90CF90BF9008959C01F999FECFAA
:1011100032BD21BDF89A80B5089584E690E09093A1
:10112000D0038093CF030895809150039091510391
:101130008617970714F081E0089584E797E06CEA3A
:1011400072E00E94162780E00895CF93DF93EB01B1
:101150006F5F7F4F0E949408882331F0F999FECF8A
:10116000D2BDC1BDF89A80B5DF91CF9108950E949C
:10117000A50808950F931F93DF93CF9300D000D05D
:10118000CDB7DEB78B016C5F7F4F0E949408882338
:1011900021F470E060E090E00DC0CE010196B8014E
:1011A00044E050E025E838E00E94C50079816A817A
:1011B0009B818C81272F362F492F582FB901CA01C7
:1011C0000F900F900F900F90CF91DF911F910F9183
:1011D0000895FC011382128288EE93E0A0E0B0E053
:1011E00084839583A683B78381E693E0918380838C
:1011F000128E118E14860895FC0181E693E091838E
:1012000080830895DF93CF930F92CDB7DEB7FC01B3
:101210006983A081B18112962D913C911397BE01F3
:101220006F5F7F4F41E050E0F90109950F90CF913A
:10123000DF910895DC015996ED91FC915A97309712
:1012400019F420E030E018C0238934894589568993
:1012500082859385A485B585281B390B4A0B5B0BCA
:101260002030B0E83B07B0E04B07B0E05B0720F070
:101270002FEF3FE740E050E0C9010895DC015996A7
:10128000ED91FC915A97309711F480E00895858193
:10129000811181E00895CF93DF93EC01898D9A8DC0
:1012A000009741F00E940311898D9A8D0E940220BF
:1012B0001A8E198EDF91CF910895FC01818D928D48
:1012C000009711F00E94B9100895DF93CF930F9209
:1012D000CDB7DEB7FC01818D928D009749F0BE013C
:1012E0006F5F7F4F41E050E00E94DA11019719F0E3
:1012F0002FEF3FEF03C08981282F30E0C9010F9005
:10130000CF91DF910895EF92FF920F931F93DF9398
:10131000CF930F92CDB7DEB77C01DC0159968D914A
:101320009C915A97009719F400E010E01FC0BE018D
:101330006F5F7F4F41E050E00E94DA11019719F092
:101340000FEF1FEF13C08981082F10E0D7015996C6
:10135000ED91FC915A97428553856485758541507E
:10136000504060407040CF010E94F30FC8010F90C1
:10137000CF91DF911F910F91FF90EF900895CF9340
:10138000DF93EC01E98DFA8D309761F013821282C0
:10139000CF010E941F149C01E98DFA8D82819381F7
:1013A000892B31F081E090E09B838A8320E030E05C
:1013B000C901DF91CF910895EF92FF920F931F9390
:1013C000CF93DF93EC01F62EE72E8A011B821A825F
:1013D00088EE93E0A0E0B0E08C839D83AE83BF8372
:1013E00081E693E0998388838DE190E00E94651FF8
:1013F0009A8F898F009791F0DC018F2D9E2D9C0193
:10140000F9018DE101900D928150E1F7CE010C962A
:10141000B8014CE050E00E94B600188EDF91CF91E9
:101420001F910F91FF90EF9008951092D6031092A4
:10143000D7031092DA031092DC0382E090E0A0E080
:10144000B0E08093DD039093DE03A093DF03B093BD
:10145000E0031092F4031092FE031092FD0381E763
:1014600093E09093FC038093FB0310920004089593
:101470002F923F924F925F926F927F928F929F92A4
:10148000AF92BF92CF92DF92EF92FF920F931F9392
:10149000DF93CF93CDB7DEB7C754D0400FB6F894E3
:1014A000DEBF0FBECDBF582E492EFB013A011901F8
:1014B00084A595A5998B888B21E733E03F872E87FC
:1014C00086A58A8B87A58B8B80A991A9A2A9B3A990
:1014D0008C8B9D8BAE8BBF8B84A995A9A6A9B7A930
:1014E000888F998FAA8FBB8F80AD91ADA2ADB3AD20
:1014F0008C8F9D8FAE8FBF8F84AD88A3FD96819119
:101500009191A191B19189A39AA3ABA3BCA381911D
:101510009191A191B1918DA39EA3AFA3B8A7808112
:1015200091819AA789A71EA61DA63CA72BA718AA3A
:101530007A018E01025F1F4F3BE2A32EB12CAC0E4D
:10154000BD1E4E010894811C911C35C0D7018C91A1
:101550008F3221F40894E11CF11C2DC0422F4E194A
:101560004D3008F04CE0C42EDD24C401B701A601C3
:101570000E94B600F401EC0DFD1D1082C5010E9411
:101580000311C501B801A40121E00E944C16882373
:1015900051F4E52DF42D1382128281E793E09183BB
:1015A0008083158266C0EC0CFD1CC8010E940311EB
:1015B000C50158018C01C7016FE270E00E94AB00C9
:1015C0009C01009719F6E618F708F101F182E08214
:1015D000E52DF42DD80112968D919C91139793834C
:1015E000828381E793E09183808314968C91149792
:1015F000848315968C911597858316962D913D9130
:101600004D915C91199726833783408751871A96AD
:101610002D913D914D915C911D9722873387448791
:1016200055871E962D913D914D915C91519726873E
:101630003787408B518B52968C915297828B539661
:101640002D913D914D915C915697238B348B458B19
:10165000568B57962D913D914D915C915A97278BC2
:10166000308F418F528F5B968D919C915C97948FB8
:10167000838F852D942DC95BDF4F0FB6F894DEBFA5
:101680000FBECDBFCF91DF911F910F91FF90EF90D3
:10169000DF90CF90BF90AF909F908F907F906F9092
:1016A0005F904F903F902F9008959F92AF92BF927E
:1016B000CF92DF92EF92FF920F931F93DF93CF931E
:1016C000CDB7DEB7C657D0400FB6F894DEBF0FBE19
:1016D000CDBFC82E992E8A01D22E43E0A42EB12C64
:1016E000AC0EBD1EC501A8019E012F5F3F4F0E9499
:1016F000380AE980FA80E00EF11EF701808141E7A7
:1017000053E02885882309F03FC08D819E819BA3EB
:101710008AA359A348A38F818CA32DA389859A8579
:10172000AB85BC858EA39FA3A8A7B9A78D859E85F1
:10173000AF85B8898AA79BA7ACA7BDA789899A89D5
:10174000AB89BC898EA79FA7A8ABB9AB8D898AABA3
:101750008E899F89A88DB98D8BAB9CABADABBEAB91
:101760008A8D9B8DAC8DBD8D8FAB98AFA9AFBAAF75
:101770008E8D9F8D9CAF8BAF8C2D992DBE01605EA1
:101780007F4F46E253E09FC0FE01FF961182108218
:101790005EAF4DAFFE01EE5BFF4F10822223A9F03A
:1017A0002250CE01CD96223048F46BEF73E0A701B2
:1017B0002D2D0E944C16882381F407C0B501A70186
:1017C0002D2D0E944C16882329F48C2D992D0E94D2
:1017D000E9087BC0C5010E940311F6E0DF2259F041
:1017E000FE01E05BFF4F4081518162817381CE0138
:1017F000CD960E94F30F9E01265A3F4FFE01FF96A1
:1018000080819181F9019383828381E793E09183C1
:101810008083FE01EF5BFF4F8081F9018483FE012D
:10182000EE5BFF4F8081F9018583FE01ED5BFF4F89
:1018300080819181A281B381F90186839783A087FA
:10184000B187FE01E95BFF4F80819181A281B38165
:10185000F90182879387A487B587FE01E55BFF4F77
:1018600080819181A281B381F90186879787A08BBE
:10187000B18BFE01E15BFF4F8081F901828BFE019C
:10188000E05BFF4F80819181A281B381F901838B5D
:10189000948BA58BB68BFE01EC5AFF4F8081918112
:1018A000A281B381F901878B908FA18FB28FFE0146
:1018B000E85AFF4F80819181F901948F838F8C2D9D
:1018C000992DB901A7010E94DC098C2D992DCA58C8
:1018D000DF4F0FB6F894DEBF0FBECDBFCF91DF91C3
:1018E0001F910F91FF90EF90DF90CF90BF90AF903E
:1018F0009F9008950F931F93CF93DF93EC01462F92
:1019000061E00E94DF0E8823D1F08E01045F1F4F3B
:10191000C801BE0141E00E94ED17882339F4C801D7
:10192000BE0140E00E94ED17882349F0CE018A965F
:10193000B8010E943913882319F081E001C080E0CA
:10194000DF91CF911F910F910895FC01673020F036
:1019500086E1858380E00895262F30E060FD02C097
:10196000663019F48DB58E7F02C08DB581608DBD56
:101970008CB58C7F8CBD4CB522FD02C090E001C0BF
:1019800092E036952795822F8170842B892B8CBD10
:1019900081E00895FF920F931F93CF93DF938B0104
:1019A0000E94E220EB01FF24FA94FEBC0DB407FE76
:1019B000FDCF8EB58F3F11F481E008C00E94E22078
:1019C0006C1B7D0B6017710780F380E0DF91CF9176
:1019D0001F910F91FF900895FC01848160E00E94A7
:1019E000EF210895FC01848161E00E94EF210895B8
:1019F000DC016EBDFA0120E030E00DB407FEFDCF42
:101A000080818EBD0DB407FEFDCF81818EBD2E5F1E
:101A10003F4F329682E02030380779F70DB407FE49
:101A2000FDCF8FEF8EBD0DB407FEFDCF8FEF8EBDC6
:101A30000DB407FEFDCF8FEF8EBD0DB407FEFDCFB9
:101A40008EB51A968C931A978F71853011F481E0B8
:101A5000089581E115968C931597CD010E94F20CA3
:101A600080E00895FF920F931F93CF93DF93EC01D3
:101A70000E94E2208B01FF24FA9409C00E94E22018
:101A8000601B710B6D52714010F08FE00DC0FEBCF9
:101A90000DB407FEFDCF8EB58A878F3F79F38E3F59
:101AA00011F481E006C08DE08D83CE010E94F20C1E
:101AB00080E0DF91CF911F910F91FF900895CF9318
:101AC000DF93EC018E818823D1F08FEF8EBD2F81C3
:101AD00038854FEF04C00DB407FEFDCF4EBD2F5F1C
:101AE0003F4FC901019781509240A8F338872F8357
:101AF0000DB407FEFDCFCE010E94F20C1E82DF91D5
:101B0000CF910895DF92EF92FF920F931F93CF939F
:101B1000DF93EC01D62E79018A010E945F0DCE0180
:101B20000E94EC0CCE016CE271E00E94CA0C8D2D7B
:101B300080648EBD0DB407FEFDCF28E130E0D801F2
:101B4000C701022E04C0B695A795979587950A946C
:101B5000D2F78EBD0DB407FEFDCF285030408FEF79
:101B6000283F380761F7DD2011F485E906C088E0D9
:101B7000D81611F487E801C08FEF8EBD0DB407FEB3
:101B8000FDCF90E02FEF2EBD0DB407FEFDCF8EB53B
:101B900087FF02C09150B9F78A87DF91CF911F91DB
:101BA0000F91FF90EF90DF900895CF92DF92EF9228
:101BB000FF920F931F93CF93DF93EC017A018B0178
:101BC0006901411551056105710511F482E137C0C4
:101BD0008B85833039F029E0EE0CFF1C001F111FAC
:101BE0002A95D1F7CE0168E1A80197010E94820DE4
:101BF000882311F084E023C0CE016EEFA6010E947D
:101C0000F80C8823E9F0CE0168E572E00E94CA0C66
:101C1000882311F485E113C0CE016DE020E030E0AF
:101C200040E050E00E94820D882341F48FEF8EBD8A
:101C30000DB407FEFDCF8EB5882379F084E18D8346
:101C4000CE010E94F20C80E0DF91CF911F910F91A5
:101C5000FF90EF90DF90CF900895CE010E94F20C9C
:101C600081E0F2CF8F929F92AF92BF92CF92DF929C
:101C7000EF92FF920F931F93CF93DF93EC015A01E2
:101C80006B0149010115110509F47BC0C801820FE0
:101C9000931F8150924008F06FC08E81882371F0AD
:101CA00088819981AA81BB81481759076A077B07F8
:101CB00029F48F8198858816990618F5A882B9822B
:101CC000CA82DB828B85833039F069E0AA0CBB1CA9
:101CD000CC1CDD1C6A95D1F7CE0161E1A60195010E
:101CE0000E94820D882319F083E08D8345C0CE01C8
:101CF0000E94320D882309F43FC018861F8281E0BC
:101D00008E838FEF8EBD8F8198852FEF05C00DB428
:101D100007FEFDCF2EBD019688159905C0F3988763
:101D20008F83D801119720E030E09FEF0BC00DB4F6
:101D300007FEFDCF8EB5F701E20FF31F80839EBD36
:101D40002F5F3F4F2A173B0790F30DB407FEFDCFDF
:101D50008EB5AE0DBF1D8C932F813885200F311F9E
:101D600038872F838985882319F02050324048F026
:101D7000CE010E945F0D05C0CE010E94F20C80E0F2
:101D800001C081E0DF91CF911F910F91FF90EF9003
:101D9000DF90CF90BF90AF909F908F900895EF927B
:101DA000FF920F931F93790120E030E000E012E0F2
:101DB0000E94320E1F910F91FF90EF900895BF92F5
:101DC000CF92DF92EF92FF920F931F93CF93DF9307
:101DD000EC01B62E1B8619861E821D824C830E9442
:101DE000E2206B018C8161E00E94B021CE010E9453
:101DF000F20C8CE060E00E94B0218BE061E00E9478
:101E0000B0218DE061E00E94B0218AE061E00E9493
:101E1000B0218AE061E00E94EF2183E58CBD8DB5A1
:101E20008E7F8DBD80E09FEF9EBD0DB407FEFDCF80
:101E30008F5F8A30C9F7CE010E94EC0C09C00E9466
:101E4000E2206C197D09615D774010F081E05EC091
:101E5000CE0160E020E030E040E050E00E94820DE2
:101E6000182F8A87813059F7CE0168E02AEA31E0DD
:101E700040E050E00E94820D82FF02C01B8711C02B
:101E800080E02FEF2EBD0DB407FEFDCF9EB58F5F16
:101E90008430C1F79A879A3A11F082E037C082E025
:101EA0008B878B85823021F0EE24FF2487010FC0C1
:101EB000E12CF12C012DF0E41F2F09C00E94E2203B
:101EC0006C197D09615D774010F088E01FC0CE017C
:101ED00067E320E030E040E050E00E94820DCE0158
:101EE00069E2A80197010E94820D8A87882331F751
:101EF0008B85823031F5CE016AE320E030E040E0AE
:101F000050E00E94820D882339F086E08D83CE0157
:101F10000E94F20C80E01CC08FEF8EBD0DB407FE56
:101F2000FDCF8EB5807C803C11F483E08B8780E010
:101F30009FEF9EBD0DB407FEFDCF2EB58F5F8330A2
:101F4000C1F7CE010E94F20CCE016B2D0E94A50CB0
:101F5000DF91CF911F910F91FF90EF90DF90CF9085
:101F6000BF900895CF93DF93EC01DB0180E090E018
:101F700020E2FD01E80FF91F208301968B309105C7
:101F8000C1F757E040E021C02E3219F084E790E01D
:101F900007C05A3019F15AE048E017C03217F1F083
:101FA000FC01019634913323C9F75417B8F021325C
:101FB000A8F02F3798F4822F81568A3108F42052E6
:101FC000FD01E40FF11D20834F5F29912223E1F6EB
:101FD00090E08C91803219F091E001C090E0892F5F
:101FE000DF91CF9108956F927F928F929F92AF92DF
:101FF000BF92CF92DF92EF92FF920F931F93CF93F6
:10200000DF93EC017A018B012D81222309F480C03A
:102010008B899C89AD89BE8984179507A607B70768
:1020200008F476C085C0E114F1040105110549F4F6
:102030001E821F82188619861A861B861C861D869C
:1020400065C02A853B854C855D85EB8DFC8D85853E
:1020500090E00996215030404040504039014A01FB
:10206000082E04C096948794779467940A94D2F7C4
:102070002F5F3F4F4F4F5F4F0894E108F108010970
:1020800011095701680104C0D694C794B794A79466
:102090008A95D2F70894E11CF11C011D111DA614AC
:1020A000B704C804D90428F02115310541055105AC
:1020B00049F48F89988DA98DBA8D8E839F83A887C7
:1020C000B98716C0A618B708C808D90811C04E812C
:1020D0005F81688579858B8D9C8D94010E94CE19D6
:1020E0000894A108B108C108D108882331F410C0B0
:1020F00086E0882E912C8C0E9D1EA114B104C10483
:10210000D10429F7EA86FB860C871D8781E001C090
:1021100080E0DF91CF911F910F91FF90EF90DF90C2
:10212000CF90BF90AF909F908F907F906F900895C9
:10213000223009F078CFE6CFCF93DF93EC01462F22
:102140006E857F85888999890E94B217882319F442
:1021500020E030E00AC08A89282F30E095E0220F85
:10216000331F9A95E1F7245E3B4FC901DF91CF9170
:1021700008950F931F93CF93DF938C01FC0185810A
:102180008823D9F1848187FF35C0C80161E00E94AE
:102190009C10EC01009789F1F8018581823040F4B0
:1021A00083899489A589B6898C8F9D8FAE8FBF8FC7
:1021B000F8018789908D9B8F8A8F8789908DA18D5B
:1021C000B28DCD01AA27BB279D8B8C8BE0911A0481
:1021D000F0911B04309751F0BE016A5E7F4FCE0133
:1021E00048960995888D998D9B8B8A8BF8018481FF
:1021F0008F7784830E94531701C080E0DF91CF91D5
:102200001F910F910895CF93DF93EC010E94B910B5
:10221000882311F01D8281E0DF91CF9108956F92A4
:102220007F928F929F92AF92BF92CF92DF92EF9266
:10223000FF920F931F93DF93CF9300D000D0CDB7C1
:10224000DEB77C015A016B01DC0115968C91159764
:10225000813009F08FC014968C9181FF8BC09EC095
:102260000097A105B10511F481E085C0F7016284F2
:10227000738484849584C701B601A5010E94F30F7D
:10228000882309F477C0D7015B968D919C915C9768
:10229000A114B104C104D10489F457964D915D9104
:1022A0006D917C915A970E94411A882309F462C06B
:1022B000F701178A108E118E128E3DC0D701169627
:1022C0004D915D916D917C9119979E012F5F3F4FCC
:1022D0000E94CE19882309F44DC0D7015B96ED9179
:1022E000FC915C9749815A816B817C81878980311F
:1022F00029F088EF9FEFAFEFBFE004C088EF9FEFBA
:10230000A0E0B0E0481759076A077B07A0F4CF01A7
:102310000E94411A882371F1F70146815781608537
:102320007185838D948D0FEF1FEF2FEF3FE00E949B
:1023300032198823F9F0D7015396AD92BD92CD9210
:10234000DC92569714968C911497806814968C930F
:10235000C7010E94B910882369F0B601A5016A146B
:102360007B048C049D0410F4B401A301C7010E94F6
:10237000F30F01C080E00F900F900F900F90CF915E
:10238000DF911F910F91FF90EF90DF90CF90BF9062
:10239000AF909F908F907F906F900895F701838901
:1023A0009489A589B68984179507A607B70708F009
:1023B00057CFE0CF2F923F924F925F926F927F92D2
:1023C0008F929F92AF92BF92CF92DF92EF92FF9245
:1023D0000F931F93CF93DF93EC012A018D81882304
:1023E00009F4C6C08C8180FFC3C0D8C025014E1837
:1023F0005F084B0176E0272E312C2C0E3D1E32015A
:10240000B1C02A853B854C855D856FEFA62E61E0C6
:10241000B62EA222B3228D8179018A0199E0169508
:102420000795F794E7949A95D1F7EB8DFC8D823060
:1024300049F4428D538D648D758D4E0D5F1D601F67
:10244000711F3FC0D480DA94DE20A114B104D9F406
:10245000DD20C9F4211531054105510549F48F8965
:10246000988DA98DBA8D8E839F83A887B9870BC05D
:102470004E815F8168857985CF0191010E94CE19D7
:10248000882309F475C0EB8DFC8D4E815F816885D2
:1024900079854250504060407040058404C0440F2C
:1024A000551F661F771F0A94D2F786859785A089E6
:1024B000B189480F591F6A1F7B1F4D0D511D611DAA
:1024C000711D80E092E08A199B09630186159705CA
:1024D00008F46C018C8186FD06C080E0C81682E09D
:1024E000D80609F073C08091520390915303A091D4
:1024F0005403B0915503481759076A077B0709F43D
:1025000065C080911C0690911D069501860174019D
:102510000E94320E882361F18C0C9D1C12C0950123
:10252000245E3B4FA9014C0D5D1DD401F90102C091
:1025300081918D93E417F507D9F7E21BF30B8E0E0B
:102540009F1E960140E050E08A859B85AC85BD8545
:10255000820F931FA41FB51F8A879B87AC87BD87F7
:102560006C187D086114710409F04BCFA20102C000
:102570004FEF5FEFCA01DF91CF911F910F91FF9055
:10258000EF90DF90CF90BF90AF909F908F907F9013
:102590006F905F904F903F902F900895AB88BC88CC
:1025A000CD88DE88EA84FB840C851D859A0140E095
:1025B00050E0D601C5018E199F09A00BB10B8217FF
:1025C0009307A407B50708F411CF13CFCB01BA01C5
:1025D00040E00E94B217882309F0A1CFC9CFCF9263
:1025E000DF92EF92FF920F931F93DF93CF930F929F
:1025F000CDB7DEB76C01FC018581823070F0E284DA
:10260000F38404851585C601BE016F5F7F4F41E0ED
:1026100050E00E94DA11019769F020E030E0C90132
:102620000F90CF91DF911F910F91FF90EF90DF906E
:10263000CF900895F60182859385A485B5854F9640
:10264000A11DB11D82879387A487B587F5E01695F4
:102650000795F794E794FA95D1F78E2D8F70282F70
:1026600030E0E5E0220F331FEA95E1F7245E3B4FAF
:10267000D6CF0F931F93CF93DF93EC018B018D8106
:10268000882309F041C0FB0187898031B1F482E0E1
:102690008D831F8A188E198E1A8E808D918DA0E0E1
:1026A000B0E045E0880F991FAA1FBB1F4A95D1F7DC
:1026B0008B8B9C8BAD8BBE8B15C0803229F583E054
:1026C0008D83FB01428D538D648D758D4F8B588F9B
:1026D000698F7A8F9E012D5E3F4FC8010E949A1A22
:1026E000882391F01C8F0B8F81E08C831E821F82C8
:1026F000188619861A861B861C861D861E861F86CE
:10270000188A198A1A8A01C080E0DF91CF911F913F
:102710000F9108951F93CF93DF93EC01142FE62FB1
:10272000F0E075E0EE0FFF1F7A95E1F7E45EFB4FF6
:102730008385817121F0842F827409F054C06A8BE3
:102740008091520390915303A0915403B09155038B
:102750008E879F87A88BB98B84899589A0E0B0E08C
:10276000BC0155274427828D938DA0E0B0E0482B13
:10277000592B6A2B7B2B4F8B588F698F7A8F8385D0
:1027800090E088719070009751F4848D958DA68D9E
:10279000B78D8B8B9C8BAD8BBE8B81E00CC0409733
:1027A00011F59E012D5E3F4F8B8D9C8D0E949A1AD4
:1027B0008823C9F084E08D83812F8F708C831E82E3
:1027C0001F82188619861A861B861C861D8616FD92
:1027D00002C081E009C0CE0140E050E060E070E05E
:1027E0000E940F1101C080E0DF91CF911F910895E9
:1027F000CF93DF93EC019C012A5F3F4F8B8D9C8D23
:1028000041E050E060E070E00E94091B8823A1F0E5
:102810008F89988DA98DBA8D0097A105B10559F4BE
:102820008E819F81A885B9858F8B988FA98FBA8F4C
:102830008C8180688C8381E0DF91CF9108952F9205
:102840003F924F925F927F928F929F92AF92BF92F0
:10285000CF92DF92EF92FF920F931F93DF93CF936C
:1028600000D000D000D0CDB7DEB76C01162F072FF7
:102870005E834D83DC0115968C911597813009F0AC
:1028800070C114968C9181FF6CC18EC1F601438991
:1028900054896589768982859385A485B585841751
:1028A0009507A607B70731F0C6010E94F30F8823EA
:1028B00009F457C1812F902F9C0129012D803E8062
:1028C00017C1D6015B96ED91FC915C97DA01C901C5
:1028D00019E0B695A795979587951A95D1F77480C5
:1028E0007A9478227FEF872E71E0972E82229322AE
:1028F000772009F04EC08114910409F04AC0D60136
:1029000016964D915D916D917C91199741155105E8
:102910006105710581F457968D919D910D90BC9143
:10292000A02D0097A105B10549F1F6018683978393
:10293000A087B1872EC0CF019E012F5F3F4F0E941D
:10294000CE19882309F414C129813A814B815C8115
:10295000D6015B96ED91FC915C978789803129F0D7
:1029600088EF9FEFAFEFBFE004C088EF9FEFA0E0DC
:10297000B0E0281739074A075B0730F0C6010E940C
:10298000F813882331F4EDC0F6012683378340879E
:10299000518780E092E088199909510182159305C9
:1029A00008F45C01D6015B96ED91FC915C9716965C
:1029B000ED90FD900D911C9119978EEF9FEFAFEF69
:1029C000BFEFE80EF91E0A1F1B1F058404C0EE0CA2
:1029D000FF1C001F111F0A94D2F786859785A089D6
:1029E000B189E80EF91E0A1F1B1FE70CF11C011D1F
:1029F000111D90E0A91692E0B90651F5809152039D
:102A000090915303A0915403B09155038E159F05E7
:102A1000A007B10761F48FEF9FEFAFEFBFEF809397
:102A2000520390935303A0935403B09355038091A2
:102A30001C0690911D06B801A70192010E94D50DB8
:102A4000882309F48EC0A0E0B2E04A0E5B1E3EC0AF
:102A50008114910409F5F601228533854485558555
:102A600083899489A589B689281739074A075B079E
:102A700098F00E945317882309F473C0E092520320
:102A8000F0925303009354031093550380911E0654
:102A9000816080931E0608C0C801B70141E00E9412
:102AA000B217882309F45DC09401245E3B4FA9014D
:102AB0004A0D5B1DF901D20102C08D918193E4178B
:102AC000F507D9F7E21BF30B4E0E5F1E2A183B08E1
:102AD000950140E050E0F60182859385A485B58597
:102AE000820F931FA41FB51F82879387A487B58782
:102AF000D6011A962D913D914D915C911D9721140F
:102B0000310409F0DECE53968D919D910D90BC91CC
:102B1000A02D82179307A407B50748F4F601238B6D
:102B2000348B458B568B84818068848311C080915F
:102B30001A0490911B04892B59F08D819E81892B59
:102B400039F0D60114968C911497806814968C9362
:102B5000F601848183FF0EC0C6010E94B91088234C
:102B600049F481E090E0D60113969C938E931297DE
:102B70001E821D828D819E8126960FB6F894DEBF3F
:102B80000FBECDBFCF91DF911F910F91FF90EF90BE
:102B9000DF90CF90BF90AF909F908F907F905F908D
:102BA0004F903F902F90089582FD70CE83CEDF939B
:102BB000CF930F92CDB7DEB76983BE016F5F7F4FB2
:102BC00041E050E00E941F140F90CF91DF910895D3
:102BD000DF92EF92FF920F931F93CF93DF93EC015D
:102BE0000E94F813882309F44EC0EB8DFC8DEE8013
:102BF000FF80088519858EEF9FEFAFEFBFEFE80EDE
:102C0000F91E0A1F1B1F058404C0EE0CFF1C001FC9
:102C1000111F0A94D2F786859785A089B189E80E9D
:102C2000F91E0A1F1B1FD4800894E108F10801094E
:102C300011090BC0C801B7016D0D711D811D911DDA
:102C40000E948E178823F9F0DA94DD2099F7EB8D36
:102C5000FC8D20E032E040E050E0058404C0220F0B
:102C6000331F441F551F0A94D2F78B899C89AD8965
:102C7000BE89820F931FA41FB51F8B8B9C8BAD8BBE
:102C8000BE8B81E001C080E0DF91CF911F910F9159
:102C9000FF90EF90DF9008956F927F928F929F92B6
:102CA000AF92BF92CF92DF92EF92FF920F931F935A
:102CB000DF93CF93CDB7DEB72B970FB6F894DEBF77
:102CC0000FBECDBF5C016B01822EDC0115968C918D
:102CD000882309F0D2C0CA018E010F5F1F4FB801CF
:102CE0000E94B20F882309F4C8C0F601838D948D29
:102CF000D5015C969C938E935B9716821782108603
:102D00001186D6011A961D921D921D921C921D9736
:102D10009924380141C0C6010E94EF12FC010097BE
:102D200009F4ABC085E016950795F794E7948A956A
:102D3000D1F71E2D1F708081882311F0853ED1F4BC
:102D4000992091F4D50152961C93529720915203E9
:102D50003091530340915403509155031E962D9387
:102D60003D934D935C9351978081882399F49924E6
:102D7000939421C0C301BF014BE050E00E949E002C
:102D8000009751F4882D8073803309F476C0C50113
:102D9000612F6FC099249394F601E284F384048533
:102DA000158583899489A589B689E816F9060A07E5
:102DB0001B0708F4B0CF882D8271823109F05DC005
:102DC000992041F0C50161E00E949C108C010097A0
:102DD00089F453C0D60115968C91823009F44DC008
:102DE000C6010E94E815882309F447C0F501128A3C
:102DF0000CE114E080E2D8011D928A95E9F7D80130
:102E0000FE0131968BE001900D928150E1F7E09147
:102E10001A04F0911B04309739F0B801625F7F4FBC
:102E2000C8014096099509C081E298E2F801918BAA
:102E3000808B80E098E097878687D80150968D91A7
:102E40009C91519753969C938E93529759969C932D
:102E50008E9358971E968D919C911F9757969C9391
:102E60008E9356970E945317882339F0C501F501B8
:102E70006289482D0E948A1301C080E02B960FB60C
:102E8000F894DEBF0FBECDBFCF91DF911F910F91A0
:102E9000FF90EF90DF90CF90BF90AF909F908F907A
:102EA0007F906F90089580911E06882399F140913C
:102EB00052035091530360915403709155038091D4
:102EC0001C0690911D062CE134E00E94D50D88234C
:102ED00019F140911F0650912006609121067091D2
:102EE0002206411551056105710591F080911C067E
:102EF00090911D062CE134E00E94D50D882361F0ED
:102F000010921F061092200610922106109222069F
:102F100010921E0681E0089580E00895EF92FF92DE
:102F20000F931F937B018C010E9453178823A9F0F4
:102F3000ECE1F4E0119286E0EC31F807D9F7E09289
:102F40005203F0925303009354031093550380915E
:102F50001E06816080931E0681E01F910F91FF90F5
:102F6000EF900895DF92EF92FF920F931F937B01F2
:102F70008C01D42E8091520390915303A09154035D
:102F8000B09155038E159F05A007B107C1F00E94AF
:102F900053178823D9F080911C0690911D06B80123
:102FA000A7012CE134E00E94CF0E882379F0E09253
:102FB0005203F092530300935403109355038091EE
:102FC0001E068D2980931E0681E001C080E01F91BE
:102FD0000F91FF90EF90DF9008958F929F92AF92A4
:102FE000BF92CF92DF92EF92FF920F931F93CF93F6
:102FF000DF936C01142F70931D0660931C0644230D
:1030000021F488249924540140C0453008F01CC1A3
:1030100060E070E080E090E040E00E94B21788231A
:1030200009F412C1C12FD0E02197FE0174E0EE0F28
:10303000FF1F7A95E1F7E45EFB4FE254FE4F80817B
:10304000EE5BF14090E08F779070892B09F0FCC027
:10305000E653FE4F80819181A281B3818436910530
:10306000A105B10508F4F0C064E0CC0FDD1F6A953E
:10307000E1F7CE51DA4F88809980AA80BB80811415
:103080009104A104B10409F4DFC0C501B40140E01A
:103090000E94B217882309F4D7C080912704909129
:1030A00028048050924009F0CFC020912C042223A4
:1030B00009F4CAC080912A0490912B04892B09F449
:1030C000C3C080912904882309F4BEC0F601228B75
:1030D000809129048483158661E070E007C04F5F0A
:1030E000F60145874150483008F0AEC0F6014585ED
:1030F000848190E09B01042E02C0220F331F0A94AA
:10310000E2F78217930759F7209132043091330484
:103110002115310519F040E050E008C0209140042D
:10312000309141044091420450914304F6012583BB
:10313000368347835087E0902A04F0902B0400E008
:1031400010E0E80CF91C0A1D1B1DE38AF48A058BAC
:10315000168B80912D0490912E04918F808F609119
:103160002C0470E080E090E00E9448296E0D7F1DE5
:10317000801F911FF601628F738F848F958F20912E
:103180002D0430912E0455E0220F331F5A95E1F79C
:1031900021503E4F232F3327269540E050E0260F45
:1031A000371F481F591F26873787408B518B8091C7
:1031B0002F0490913004009719F0A0E0B0E008C00F
:1031C00080913C0490913D04A0913E04B0913F0455
:1031D00085017401E21AF30A040B150BA80197018B
:1031E000280F391F4A1F5B1FF601058404C056953E
:1031F0004795379527950A94D2F7218732874387D9
:103200005487253FFFE03F07F0E04F07F0E05F07FE
:1032100010F48CE006C0255F3F4F4040504028F43A
:1032200080E1F601878B81E010C080914804909185
:103230004904A0914A04B0914B04F601828F938F08
:10324000A48FB58F80E2EECF80E0DF91CF911F9108
:103250000F91FF90EF90DF90CF90BF90AF909F9035
:103260008F9008954F925F926F927F928F929F926C
:10327000AF92BF92CF92DF92EF92FF920F931F9384
:10328000CF93DF93EC016A017B01280139014230C1
:1032900051056105710508F46FC089859A85AB8574
:1032A000BC850196A11DB11D84179507A607B70718
:1032B00008F462C02B893C894D895E898F898031F1
:1032C00029F499278F2D7E2D6D2D09C0C701B601D8
:1032D00017E096958795779567951A95D1F74B01E5
:1032E0005C01820E931EA41EB51E80915203909124
:1032F0005303A0915403B091550388169906AA066A
:10330000BB0639F0C501B40140E00E94B217882322
:1033100099F18F89803149F4F601F070EE0FFF1FAB
:10332000E45EFB4F518240820DC0F601EF77F070F2
:10333000EE0FFF1FEE0FFF1FE45EFB4F4082518236
:103340006282738280911E06816080931E068A8944
:10335000823080F08D819E81AF81B885880E991E64
:10336000AA1EBB1E80921F0690922006A0922106E4
:10337000B092220681E001C080E0DF91CF911F91E1
:103380000F91FF90EF90DF90CF90BF90AF909F9004
:103390008F907F906F905F904F900895CF92DF92C3
:1033A000EF92FF920F931F93CF93DF93EC017A017B
:1033B0008B01690189859A85AB85BC850196A11D24
:1033C000B11D84179507A607B70708F450C02B89CD
:1033D0003C894D895E898F89803129F49927812F15
:1033E000702F6F2D09C0C801B701E7E0969587954A
:1033F00077956795EA95D1F7260F371F481F591F14
:103400008091520390915303A0915403B0915503BE
:10341000281739074A075B0739F0CA01B90140E0AC
:103420000E94B217882319F18F89803159F4F7016E
:10343000F070EE0FFF1FE45EFB4F80819181A0E0F2
:10344000B0E00EC0F701EF77F070EE0FFF1FEE0F48
:10345000FF1FE45EFB4F80819181A281B381BF7029
:10346000F60180839183A283B38381E001C080E071
:10347000DF91CF911F910F91FF90EF90DF90CF9050
:103480000895AF92BF92CF92DF92EF92FF920F9387
:103490001F93DF93CF9300D000D0CDB7DEB76C0180
:1034A0007A018B0182E090E0A0E0B0E0F601808339
:1034B0009183A283B3835E010894A11CB11CC60151
:1034C000B801A70195010E94CE19882319F1C60100
:1034D000B801A70100E010E020E030E00E943219BE
:1034E0008823C1F0E980FA800B811C81F60187896D
:1034F000803129F088EF9FEFAFEFBFE004C088EF85
:103500009FEFA0E0B0E0E816F9060A071B07B8F243
:1035100081E001C080E00F900F900F900F90CF914D
:10352000DF911F910F91FF90EF90DF90CF90BF90B0
:10353000AF9008954F925F926F927F928F929F9279
:10354000AF92BF92CF92DF92EF92FF920F931F93B1
:10355000DF93CF9300D000D0CDB7DEB76C014983A5
:103560005A836B837C833901EE24FF2487012E016B
:103570000894411C511C812CA2E09A2EA12CB12C44
:1035800049815A816B817C81C60192010E94CE19CA
:10359000882351F1D501C401F601058404C0880FC8
:1035A000991FAA1FBB1F0A94D2F7E80EF91E0A1F23
:1035B0001B1F29813A814B815C818789803129F0E9
:1035C00088EF9FEFAFEFBFE004C088EF9FEFA0E070
:1035D000B0E0281739074A075B0790F2F301E08251
:1035E000F1820283138381E00F900F900F900F9070
:1035F000CF91DF911F910F91FF90EF90DF90CF90CF
:10360000BF90AF909F908F907F906F905F904F9002
:1036100008952F923F924F925F926F927F928F9276
:103620009F92AF92BF92CF92DF92EF92FF920F9351
:103630001F93DF93CF93CDB7DEB72F970FB6F894D4
:10364000DEBF0FBECDBF1C014A875B876C877D87BD
:103650003F872E87D9010D911D912D913C91011528
:1036600011052105310549F0480159010894811CD3
:10367000911CA11CB11C198610C0FC018080918096
:10368000A280B38019868A859B85AC85BD8501970C
:10369000A105B10511F491E09987D10119968D9199
:1036A0009D910D90BC91A02D0196A11DB11D8D8302
:1036B0009E83AF83B8877501640144245524320189
:1036C0008E010F5F1F4FF10181859285A385B4851F
:1036D000481659066A067B0608F090C08D819E81C7
:1036E000AF81B8858C159D05AE05BF0550F482E00D
:1036F000882E912CA12CB12CB2E0CB2ED12CE12C18
:10370000F12CC101B701A60198010E94CE198823AE
:1037100009F474C089819A81AB81BC81A7019601AB
:103720002F5F3F4F4F4F5F4F0097A105B10519F035
:1037300049015A010DC0281939094A095B098A85CE
:103740009B85AC85BD85281739074A075B0759F06B
:103750000894411C511C611C711C0894C11CD11C93
:10376000E11CF11CB0CFC101A601B7010FEF1FEFA3
:103770002FEF3FE00E943219882399F43FC02601C1
:10378000370108944108510861087108C101B3016B
:10379000A201970186010E943219882379F17301F1
:1037A00062018C149D04AE04BF0448F3AE85BF854E
:1037B0004D915D916D917C914115510561057105AA
:1037C00039F0C101950184010E9432198823B1F0BA
:1037D000EE85FF8580829182A282B382F985FF23E4
:1037E00059F00894811C911CA11CB11CD1018D922F
:1037F0009D92AD92BC92139781E001C080E02F961C
:103800000FB6F894DEBF0FBECDBFCF91DF911F91F1
:103810000F91FF90EF90DF90CF90BF90AF909F906F
:103820008F907F906F905F904F903F902F90089572
:1038300081E08093680660934506109266061092B8
:10384000670608952091440630E080914306281BC6
:103850003109C901089540914306809144064817F3
:1038600018F02FEF3FEF0AC0E42FF0E0ED5DF94FC5
:103870008081282F30E04F5F40934306C9010895AF
:10388000E091430680914406E81718F0EFEFFFEF50
:1038900006C0F0E0ED5DF94F8081E82FF0E0CF0148
:1038A0000895089510926C0610926B0688EE93E0CE
:1038B000A0E0B0E080936D0690936E06A0936F0633
:1038C000B093700689E793E090936A068093690647
:1038D0000895CF92DF92EF92FF920F931F93CF93B1
:1038E000DF937C016B018A01809168068823A1F037
:1038F000C0E0D0E00DC0D701ED91FC91D601AC0F36
:10390000BD1F0190F081E02DC7016C9109952196B2
:10391000C017D10780F304C0CB01642F0E949B1D08
:10392000C801DF91CF911F910F91FF90EF90DF9031
:10393000CF900895DF93CF930F92CDB7DEB7FC0100
:103940006983809168068823C9F080916706803278
:1039500038F081E090E09383828320E030E015C06E
:1039600080916606E82FF0E0EA5BF94F9981908339
:103970008F5F809366068093670605C0CE0101962F
:1039800061E00E949B1D21E030E0C9010F90CF91C2
:10399000DF9108950F93062F8091450666E476E047
:1039A0004091670621E00E94461D10926606109223
:1039B0006706109268060F91089561E00E94CA1C84
:1039C0000895413208F040E2862F63E276E00E94DB
:1039D000FD1C1092430680934406089521E00E9446
:1039E000E11C089510924306109244061092660658
:1039F000109267060E94471F0895382F413210F039
:103A000040E042C0809175068823E1F791E09093F1
:103A10007506209377068FEF8093E20610929D063D
:103A2000415040939E064F5F9093760680917606B4
:103A3000330F832B8093760680917806813041F492
:103A400010927806809176068093BB0085EC01C0C9
:103A500085EE8093BC00809175068130E1F3809102
:103A60009D06841710F440919D0620E030E00AC0C6
:103A7000FB01E20FF31FD901A358B94F8C9180834A
:103A80002F5F3F4F2417A0F3842F08950F931F93A8
:103A9000582F122F413210F081E04AC080917506F4
:103AA0008823E1F782E080937506009377068FEF15
:103AB0008093E20610929D0640939E06ADE7B6E025
:103AC000FB0102C081918D938E2F861B8417D0F34A
:103AD0001092760680917606550F852B8093760698
:103AE00080917806813041F41092780680917606B4
:103AF0008093BB0085EC01C085EE8093BC00112350
:103B000021F0809175068230E1F38091E2068F3FCB
:103B100011F480E00DC08091E206803211F482E061
:103B200007C08091E206803311F084E001C083E099
:103B30001F910F910895482F613210F081E0089590
:103B400080917506843011F082E008956093C0067C
:103B5000AFE9B6E0842F9C01F90102C081918D93F9
:103B60008E2F841B8617D0F380E008951F920F924A
:103B70000FB60F9211242F933F934F935F936F9340
:103B80007F938F939F93AF93BF93EF93FF93809116
:103B9000B90090E0887F90708036910509F4F2C0FA
:103BA00081369105CCF58832910509F47BC08932C4
:103BB0009105B4F48031910509F46FC0813191050C
:103BC0003CF4009709F447C1089709F04FC165C05C
:103BD0008831910509F466C0809709F047C182C019
:103BE0008034910509F4A4C08134910544F48033F4
:103BF000910509F482C0C89709F038C189C08035A1
:103C0000910509F489C08835910509F496C0883476
:103C1000910509F02BC1AEC08839910509F413C193
:103C200089399105ECF48837910509F4ABC08937DF
:103C300091054CF48836910509F4A4C080379105AC
:103C400009F014C19FC08838910509F4FCC080397F
:103C5000910509F49DC08038910509F007C198C00D
:103C6000803B910509F4C6C0813B91054CF4803A34
:103C7000910509F49FC0883A910509F0F7C0BAC0D0
:103C8000803C910509F4E3C0883C910509F4DFC04C
:103C9000883B910509F0EAC0C2C080917606809306
:103CA000BB00CFC090919D0680919E06981768F446
:103CB00090919D06E92FF0E0E358F94F80818093C1
:103CC000BB009F5F90939D06BCC0809177068823C0
:103CD00009F44BC085ED8093BC008091BC0084FD4D
:103CE000FCCFC2C080E28093E20685ED8093BC00E9
:103CF0008091BC0084FDFCCFB7C080E38093E206D6
:103D000085ED8093BC008091BC0084FDFCCFACC0ED
:103D100088E38093E2069BC080919D069091BB0052
:103D2000E82FF0E0E358F94F90838F5F80939D0672
:103D300090919D0680919E0682C080919D069091F3
:103D4000BB00E82FF0E0E358F94F90838F5F80933A
:103D50009D0680917706882341F085ED8093BC0015
:103D60008091BC0084FDFCCF7FC081E08093780609
:103D700084EA6EC085ED8093BC008091BC0084FD18
:103D8000FCCF72C083E0809375061092E10659C0A3
:103D90008091E106803208F056C08091E106909152
:103DA000BB00E82FF0E0EF53F94F90838F5F8093D3
:103DB000E10647C08091E106803230F4E091E106EF
:103DC000F0E0EF53F94F108285ED8093BC008091B5
:103DD000BC0084FDFCCF109275066091E106E09175
:103DE0007B06F0917C0681EC96E070E009951092DC
:103DF000E1062DC084E0809375061092BF061092F4
:103E0000C006E0917906F0917A0609958091C00686
:103E1000882329F481E08093C00610929F06909138
:103E2000BF06E92FF0E0E156F94F80818093BB0097
:103E30009F5F9093BF069091BF068091C006981730
:103E400010F485EC01C085E88093BC000FC085ECC0
:103E50008093BC0009C01092E20685ED8093BC00FF
:103E60008091BC0084FDFCCF10927506FF91EF910C
:103E7000BF91AF919F918F917F916F915F914F9182
:103E80003F912F910F900FBE0F901F901895109299
:103E9000750681E0809377061092780682E161E0F2
:103EA0000E94EF2183E161E00E94EF21E9EBF0E065
:103EB00080818E7F808380818D7F808388E4809362
:103EC000B80085E48093BC0008950F931F93CF93AF
:103ED000DF93BC018230910510F462E070E0E09164
:103EE0009807F0919907A0E0B0E040E050E024C0CE
:103EF0008081918186179707D0F08617970771F414
:103F000082819381109729F013969C938E93129738
:103F10002CC0909399078093980727C041155105AD
:103F200019F08417950718F4EF018D01AC01DF013A
:103F3000828193819C01F9013097D1F64115510599
:103F4000F9F0CA01861B970B8430910580F48A81B1
:103F50009B810115110521F0F8019383828304C030
:103F60009093990780939807FE01329645C0FE0111
:103F7000E80FF91F619371930297998388833CC07E
:103F80008091960790919707892B41F4809158036F
:103F900090915903909397078093960740915A0305
:103FA00050915B034115510541F44DB75EB78091C7
:103FB000560390915703481B590B20919607309157
:103FC000970724173507B0F4CA01821B930B861795
:103FD000970780F0AB014E5F5F4F8417950750F055
:103FE000420F531F5093970740939607F90161932F
:103FF000719302C0E0E0F0E0CF01DF91CF911F911B
:104000000F910895CF93DF939C01009709F48FC01F
:10401000EC0122971B821A82609198077091990790
:104020006115710581F488819981820F931F209118
:104030009607309197072817390739F5D0939707D6
:10404000C093960774C0DB0140E050E0AC17BD0799
:1040500008F1BB83AA83FE0121913191E20FF31F86
:10406000AE17BF0779F48D919C911197280F391FD6
:104070002E5F3F4F3983288312968D919C91139721
:104080009B838A834115510571F4D0939907C0939E
:1040900098074DC012968D919C911397AD01009792
:1040A00011F0DC01D3CFDA011396DC93CE93129793
:1040B000FA0121913191E20FF31FCE17DF0769F466
:1040C00088819981280F391F2E5F3F4FFA01318374
:1040D00020838A819B8193838283E0E0F0E0DB018F
:1040E00012968D919C911397009719F0BC01FD01D8
:1040F000F6CFAB014E5F5F4FDB018D919C91840F3A
:10410000951F20919607309197072817390779F462
:10411000309729F4109299071092980702C01382E1
:104120001282425050405093970740939607DF9178
:10413000CF9108951F920F920FB60F9211242F93D3
:104140003F938F939F93AF93BF938091E706909196
:10415000E806A091E906B091EA063091EB060196D7
:10416000A11DB11D232F2D5F2D3720F02D57019656
:10417000A11DB11D2093EB068093E7069093E806FE
:10418000A093E906B093EA068091E3069091E406D5
:10419000A091E506B091E6060196A11DB11D8093A0
:1041A000E3069093E406A093E506B093E606BF917C
:1041B000AF919F918F913F912F910F900FBE0F90D4
:1041C0001F9018958FB7F8942091E7063091E80674
:1041D0004091E9065091EA068FBFB901CA010895DE
:1041E0009B01AC017FB7F8948091E3069091E406BF
:1041F000A091E506B091E60666B5A89B05C06F3FA5
:1042000019F00196A11DB11D7FBFBA2FA92F982FBC
:104210008827860F911DA11DB11D62E0880F991F8F
:10422000AA1FBB1F6A95D1F7BC012DC0FFB7F89438
:104230008091E3069091E406A091E506B091E60630
:10424000E6B5A89B05C0EF3F19F00196A11DB11D71
:10425000FFBFBA2FA92F982F88278E0F911DA11D60
:10426000B11DE2E0880F991FAA1FBB1FEA95D1F785
:10427000861B970B885E9340C8F221503040404027
:10428000504068517C4F211531054105510571F6AB
:104290000895019739F0880F991F880F991F029789
:1042A0000197F1F70895789484B5826084BD84B550
:1042B000816084BD85B5826085BD85B5816085BD21
:1042C000EEE6F0E0808181608083E1E8F0E010823A
:1042D000808182608083808181608083E0E8F0E07B
:1042E000808181608083E1EBF0E080818460808365
:1042F000E0EBF0E0808181608083EAE7F0E080819C
:1043000084608083808182608083808181608083FB
:104310008081806880831092C1000895982F8E302C
:1043200008F09E50977080915C038295880F880FEB
:10433000807C892B80937C0080917A0080648093BC
:104340007A0080917A0086FDFCCF20917800409120
:104350007900942F80E030E0282B392BC901089593
:10436000CF93DF93482F50E0CA018A549F4FFC013E
:1043700034914E555F4FFA018491882369F190E0A2
:10438000880F991FFC01EC57FF4FA591B491FC01D8
:10439000E257FF4FC591D491662351F42FB7F8949B
:1043A0008C91932F909589238C93888189230BC0BE
:1043B000623061F42FB7F8948C91932F90958923F4
:1043C0008C938881832B88832FBF06C09FB7F89476
:1043D0008C91832B8C939FBFDF91CF910895482FB1
:1043E00050E0CA0186539F4FFC012491CA018A54B0
:1043F0009F4FFC0194914E555F4FFA013491332346
:1044000009F440C0222351F1233071F0243028F404
:104410002130A1F0223011F514C02630B1F0273040
:10442000C1F02430D9F404C0809180008F7703C09C
:10443000809180008F7D8093800010C084B58F773D
:1044400002C084B58F7D84BD09C08091B0008F7794
:1044500003C08091B0008F7D8093B000E32FF0E027
:10446000EE0FFF1FE257FF4FA591B4912FB7F894BD
:10447000662321F48C919095892302C08C91892B1D
:104480008C932FBF0895682F70E0CB0186539F4F08
:10449000FC012491CB018A549F4FFC0144916E553D
:1044A0007F4FFB019491992319F420E030E03CC048
:1044B000222351F1233071F0243028F42130A1F06F
:1044C000223011F514C02630B1F02730C1F024306D
:1044D000D9F404C0809180008F7703C08091800060
:1044E0008F7D8093800010C084B58F7702C084B523
:1044F0008F7D84BD09C08091B0008F7703C080910B
:10450000B0008F7D8093B000892F90E0880F991FB5
:1045100088569F4FFC01A591B4918C9120E030E02A
:10452000842311F021E030E0C901089508951F921D
:104530000F920FB60F9211242F933F934F938F93A7
:104540009F93EF93FF938091C00082FD1DC0409127
:10455000C60020912C0730912D072F5F3F4F2F73FE
:10456000307080912E0790912F072817390771F02E
:10457000E0912C07F0912D07E451F94F40833093DF
:104580002D0720932C0702C08091C600FF91EF9168
:104590009F918F914F913F912F910F900FBE0F9050
:1045A0001F901895E0918007F0918107E05CFF4F24
:1045B0008191919120813181821B930B8F73907037
:1045C000892B11F00E94962208951F920F920FB628
:1045D0000F9211242F933F938F939F93EF93FF9309
:1045E0002091700730917107809172079091730745
:1045F0002817390731F48091C1008F7D8093C10065
:1046000014C0E0917207F0917307E05DF84F2081CC
:10461000809172079091730701968F7390709093B9
:104620007307809372072093C600FF91EF919F91CB
:104630008F913F912F910F900FBE0F901F90189563
:10464000AF92BF92DF92EF92FF920F931F93CF939F
:10465000DF93EC017A018B01DD24403081EE5807B5
:1046600080E0680780E0780711F0DD24D39491E0C2
:10467000A92EB12CEC89FD89DD2069F0C50108A0C7
:1046800002C0880F991F0A94E2F7808360E079E006
:104690008DE390E005C0108260E874E88EE190E060
:1046A000A80197010E9467292150304040405040A6
:1046B000569547953795279580E12030380720F0AB
:1046C000DD2011F0DD24D6CFE889F9893083EA892D
:1046D000FB89208319A2EE89FF89408121E030E027
:1046E000C9010C8C02C0880F991F0A94E2F7482B6D
:1046F0004083EE89FF894081C9010D8C02C0880F7B
:10470000991F0A94E2F7482B4083EE89FF89408184
:10471000C9010E8C02C0880F991F0A94E2F7482B3A
:104720004083EE89FF8980810F8C02C0220F331FE6
:104730000A94E2F7209528232083DF91CF911F91DF
:104740000F91FF90EF90DF90BF90AF900895DC0144
:104750001C96ED91FC911D97E05CFF4F21913191EA
:1047600080819181281B390B2F733070C901089506
:10477000DC011C96ED91FC911D97E05CFF4F2081C0
:104780003181E054F040DF01AE5BBF4F8D919C91D1
:1047900011972817390719F42FEF3FEF07C08D91B4
:1047A0009C91E80FF91F8081282F30E0C9010895FE
:1047B000DC011C96ED91FC911D97E05CFF4F208180
:1047C0003181E054F040DF01AE5BBF4F8D919C9191
:1047D00011972817390719F42FEF3FEF10C08D916B
:1047E0009C911197E80FF91F20818D919C91119751
:1047F00001968F73907011969C938E9330E0C9014F
:104800000895DC0191968C919197882339F0549604
:10481000ED91FC915597808186FFF9CF91961C927E
:104820000895CF93DF93EC01EE85FF85E05CFF4FA9
:1048300020813181E054F0402F5F3F4F2F73307063
:10484000DF01AE5BBF4F8D919C91119728173907FF
:10485000D1F3E05CFF4F80819181E054F040E80F9C
:10486000F91F6083EE85FF85E05CFF4F3183208375
:10487000EE89FF89208181E090E00F8C02C0880FD3
:10488000991F0A94E2F7282B208381E089A3EC8901
:10489000FD8980818064808381E090E0DF91CF9109
:1048A0000895109277071092760788EE93E0A0E0C3
:1048B000B0E08093780790937907A0937A07B0933C
:1048C0007B0789E893E090937507809374078CEEDB
:1048D00096E0909381078093800780E397E0909320
:1048E00083078093820785EC90E0909385078093FF
:1048F000840784EC90E0909387078093860780EC90
:1049000090E0909389078093880781EC90E09093E2
:104910008B0780938A0782EC90E090938D078093B9
:104920008C0786EC90E090938F0780938E0784E04D
:104930008093900783E08093910787E080939207AC
:1049400085E08093930781E0809394070895CF9347
:10495000DF930E9453210E943007C2EDD2E20E94F1
:1049600098062097E1F30E94D222F9CFCF92DF92EE
:10497000EF92FF920F931F93CF93DF937C016B0114
:104980008A01C0E0D0E00FC0D6016D916D01D70162
:10499000ED91FC910190F081E02DC7010995C80FC0
:1049A000D91F015010400115110571F7CE01DF919B
:1049B000CF911F910F91FF90EF90DF90CF900895CE
:1049C000DC01ED91FC910190F081E02D09950895B5
:1049D000EF92FF920F931F938C01DC01ED91FC91FC
:1049E0000190F081E02D6DE009957C01D801ED91F9
:1049F000FC910190F081E02DC8016AE009959C01CD
:104A00002E0D3F1DC9011F910F91FF90EF9008954A
:104A1000CF93DF93EC016115710519F420E030E0CC
:104A20000FC0DB010D900020E9F71197A61BB70B13
:104A3000E881F9810280F381E02DAD0109959C01A7
:104A4000C901DF91CF9108954F925F927F928F922B
:104A50009F92AF92BF92CF92DF92EF92FF920F930D
:104A60001F93DF93CF93CDB7DEB7A1970FB6F8941E
:104A7000DEBF0FBECDBF2C01742ECB01223008F457
:104A80002AE019A231E2C32ED12CCC0EDD1E822EDB
:104A90009924AA24BB24672D752FA50194010E9497
:104AA000672979018A01C801B701A50194010E9413
:104AB0004829472D461B0894C108D1084A3014F4F0
:104AC000405D01C0495CF6014083E114F104010539
:104AD000110521F07E2C5F2DC801DDCFC201B6018A
:104AE0000E940825A1960FB6F894DEBF0FBECDBF79
:104AF000CF91DF911F910F91FF90EF90DF90CF90BA
:104B0000BF90AF909F908F907F905F904F9008954F
:104B1000DC012115310541F4ED91FC910190F0810A
:104B2000E02D642F099508950E9424250895EF92A1
:104B3000FF920F931F939A017B0100E010E0B801F0
:104B4000A7010E9488251F910F91FF90EF90089573
:104B5000EF92FF920F931F939A01E62EFF2400E03D
:104B600010E0B801A7010E9488251F910F91FF90C6
:104B7000EF900895CF92DF92EF92FF920F931F93E1
:104B8000CF93DF93EC016A017B012115310541F4DC
:104B9000E881F9810190F081E02D642F09951FC013
:104BA0002A303105D1F477FF17C0E881F9810190EF
:104BB000F081E02D6DE209958C0144275527BA015B
:104BC0004C195D096E097F09CE012AE00E94242557
:104BD0009801280F391F04C02AE00E9424259C0157
:104BE000C901DF91CF911F910F91FF90EF90DF905E
:104BF000CF900895CF92DF92EF92FF920F931F9381
:104C00006C017B019A010027F7FC0095102FB80179
:104C1000A7010E94BA258C01C6010E94E824080F52
:104C2000191FC8011F910F91FF90EF90DF90CF9057
:104C300008950E94082508957F928F929F92AF92C7
:104C4000BF92CF92DF92EF92FF920F931F93CF9379
:104C5000DF934C017A018B01722ECB01BA01A801BE
:104C600097010E944429882321F0C40168E273E07F
:104C700021C0C0E0D0E057016801E894D7F8C60130
:104C8000B5012FEF3FEF4FE75FE70E9444298823EC
:104C900051F4C601B5012FEF3FEF4FE75FE70E94E8
:104CA0008E27181614F0C1E0D0E0219739F0C40126
:104CB0006CE273E00E940825EC0193C0C801B701C3
:104CC0002FEF3FEF4FE75FE40E94DD28181654F006
:104CD000C801B7012FEF3FEF4FE75FEC0E948E272F
:104CE000882324F4C40160E373E0E4CFC801B70172
:104CF00020E030E040E050E00E948E2787FD03C0B6
:104D0000C0E0D0E00EC0D401ED91FC910190F081A3
:104D1000E02DC4016DE20995EC0117FB109517F920
:104D2000109520E030E040E05FE3DD240BC0CA01D5
:104D3000B90120E030E040E251E40E9492279B015B
:104D4000AC01D394D71498F3C801B7010E942A2765
:104D50005B016C010E94FF277B018C01C401B8013B
:104D6000A7012AE030E00E948825C80FD91F7720CC
:104D700039F0C40164E373E00E940825C80FD91F0D
:104D8000C801B7010E942B289B01AC01C601B501E7
:104D90000E94292724C020E030E040E251E40E9434
:104DA000E1287B018C010E94FA275B016C01CC2475
:104DB000B7FCC094DC2CC401B601A5012AE030E0A8
:104DC0000E94BA25C80FD91FC601B5010E942D281F
:104DD0009B01AC01C801B7010E9429277A94772072
:104DE000D1F6CE01DF91CF911F910F91FF90EF90FF
:104DF000DF90CF90BF90AF909F908F907F9008955D
:104E00000E941C260895EF92FF920F931F937C013E
:104E10000E941C268C01C7010E94E824080F191F5C
:104E2000C8011F910F91FF90EF900895EF92FF92AC
:104E30000F931F937C010E9408258C01C7010E94DB
:104E4000E824080F191FC8011F910F91FF90EF90E0
:104E500008955058BB27AA270ED075C166D130F0EF
:104E60006BD120F031F49F3F11F41EF45BC10EF4BE
:104E7000E095E7FB51C1E92F77D180F3BA176207BC
:104E800073078407950718F071F49EF58FC10EF42F
:104E9000E0950B2EBA2FA02D0B01B90190010C014A
:104EA000CA01A0011124FF27591B99F0593F50F462
:104EB000503E68F11A16F040A22F232F342F4427BA
:104EC000585FF3CF469537952795A795F0405395B2
:104ED000C9F77EF41F16BA0B620B730B840BBAF082
:104EE0009150A1F0FF0FBB1F661F771F881FC2F7ED
:104EF0000EC0BA0F621F731F841F48F48795779501
:104F00006795B795F7959E3F08F0B3CF9395880FB7
:104F100008F09927EE0F979587950895D9D008F452
:104F200081E008950CD00FC107D140F0FED030F0E1
:104F300021F45F3F19F0F0C0511139C1F3C014D111
:104F400098F39923C9F35523B1F3951B550BBB2750
:104F5000AA2762177307840738F09F5F5F4F220FFD
:104F6000331F441FAA1FA9F333D00E2E3AF0E0E8F6
:104F700030D091505040E695001CCAF729D0FE2F42
:104F800027D0660F771F881FBB1F261737074807D4
:104F9000AB07B0E809F0BB0B802DBF01FF2793588A
:104FA0005F4F2AF09E3F510568F0B6C000C15F3FD9
:104FB000ECF3983EDCF3869577956795B795F79572
:104FC0009F5FC9F7880F911D9695879597F908956A
:104FD000E1E0660F771F881FBB1F62177307840706
:104FE000BA0720F0621B730B840BBA0BEE1F88F715
:104FF000E095089504D06894B111D9C00895BCD04B
:1050000088F09F5790F0B92F9927B751A0F0D1F0B1
:10501000660F771F881F991F1AF0BA95C9F712C03B
:10502000B13081F0C3D0B1E00895C0C0672F782FB0
:105030008827B85F39F0B93FCCF3869577956795A7
:10504000B395D9F73EF490958095709561957F4F13
:105050008F4F9F4F0895E89409C097FB3EF49095B9
:105060008095709561957F4F8F4F9F4F9923A9F041
:10507000F92F96E9BB279395F695879577956795D0
:10508000B795F111F8CFFAF4BB0F11F460FF1BC014
:105090006F5F7F4F8F4F9F4F16C0882311F096E9A7
:1050A00011C0772321F09EE8872F762F05C0662355
:1050B00071F096E8862F70E060E02AF09A95660F0E
:1050C000771F881FDAF7880F9695879597F90895C7
:1050D000990F0008550FAA0BE0E8FEEF1616170609
:1050E000E807F907C0F012161306E407F50798F071
:1050F000621B730B840B950B39F40A2661F0232B8A
:10510000242B252B21F408950A2609F4A140A69505
:105110008FEF811D811D089597F99F6780E870E0EA
:1051200060E008959FEF80EC089500240A9416161D
:10513000170618060906089500240A941216130685
:10514000140605060895092E0394000C11F4882313
:1051500052F0BB0F40F4BF2B11F460FF04C06F5F2F
:105160007F4F8F4F9F4F089557FD9058440F551F05
:1051700059F05F3F71F04795880F97FB991F61F0D9
:105180009F3F79F087950895121613061406551F50
:10519000F2CF4695F1DF08C0161617061806991FBC
:1051A000F1CF86957105610508940895E894BB27B1
:1051B00066277727CB0197F908958ADF08F48FEFE8
:1051C00008950BD0C0CFB1DF28F0B6DF18F09523DB
:1051D00009F0A2CFA7CF1124EACFC6DFA0F3959F95
:1051E000D1F3950F50E0551F629FF001729FBB27CE
:1051F000F00DB11D639FAA27F00DB11DAA1F649F7A
:105200006627B00DA11D661F829F2227B00DA11D2C
:10521000621F739FB00DA11D621F839FA00D611DB2
:10522000221F749F3327A00D611D231F849F600DD3
:10523000211D822F762F6A2F11249F5750408AF00C
:10524000E1F088234AF0EE0FFF1FBB1F661F771F98
:10525000881F91505040A9F79E3F510570F05CCFD8
:10526000A6CF5F3FECF3983EDCF386957795679584
:10527000B795F795E7959F5FC1F7FE2B880F911DB6
:105280009695879597F9089523DF880B990B0895D4
:10529000629FD001739FF001829FE00DF11D649F1A
:1052A000E00DF11D929FF00D839FF00D749FF00DA6
:1052B000659FF00D9927729FB00DE11DF91F639F47
:1052C000B00DE11DF91FBD01CF0111240895A1E228
:1052D0001A2EAA1BBB1BFD010DC0AA1FBB1FEE1F70
:1052E000FF1FA217B307E407F50720F0A21BB30BBB
:1052F000E40BF50B661F771F881F991F1A9469F737
:1053000060957095809590959B01AC01BD01CF0192
:105310000895EE0FFF1F0590F491E02D09942F9250
:105320003F924F925F926F927F928F929F92AF9235
:10533000BF92CF92DF92EF92FF920F931F93CF9382
:10534000DF93CDB7DEB7CA1BDB0B0FB6F894DEBF19
:105350000FBECDBF09942A88398848885F846E843F
:105360007D848C849B84AA84B984C884DF80EE8089
:10537000FD800C811B81AA81B981CE0FD11D0FB692
:10538000F894DEBF0FBECDBFED010895F894FFCFB6
:10539000646174616C6F672E637376002C20006506
:1053A00072726F72206F70656E696E6720646174CF
:1053B000616C6F672E63737600496E697469616C06
:1053C000697A696E6720534420636172642E2E2EC1
:1053D0000043617264204661696C65642C206F72C1
:1053E000206E6F742070726573656E7400636172F5
:1053F0006420696E697469616C697A65642E004C19
:1054000069676874206C6576656C203D20004C757A
:10541000636874766F636874696768656964203D62
:1054200020002520200054656D70657261747575CB
:1054300072203D2000202A432020004572726F72A6
:1054400020313A2044485420737461727420636F91
:105450006E646974696F6E2031206E6F74206D65A3
:10546000742E004572726F7220323A2044485420E4
:10547000737461727420636F6E646974696F6E20F7
:1054800032206E6F74206D65742E004572726F72DB
:1054900020333A2044485420636865636B73756D0C
:1054A000206572726F722E004572726F723A2055CB
:1054B0006E7265636F676E697A656420636F646599
:1054C00020656E636F756E74657265642E00706D15
:1054D000656D203D2000536574706F696E74203DCA
:1054E00020004879737465726973203D200070480C
:1054F000203D20004C75636874766F63687469673B
:10550000686569642C2074656D7065726174757569
:10551000722026207048005F5F5F5F5F5F5F5F5FA4
:105520005F5F5F5F5F5F5F5F5F5F5F5F5F5F5F5F8B
:105530005F5F5F5F5F5F5F5F5F0A0A004174746572
:105540006D707420746F207772697465206F757444
:1055500073696465206F6620454550524F4D206D3C
:10556000656D6F7279004578636565646564206D6B
:105570006178696D756D206E756D626572206F66FC
:10558000207772697465730043616E6E6F74206377
:1055900068616E6765206365696C696E672C20625F
:1055A000656C6F77206973737565642061646472DC
:1055B0006573736573002F006E616E00696E66001F
:1055C0006F7666002E003B002D002B002F00070099
:1055D00008004400350016000A00140028003C00B2
:1055E0000002FFFFFFFF80009A070000010000009B
:1055F000000209BF091A09650983095D0900000055
:1056000000D715B624000000009A1C691C221C2B30
:105610001C401C511C000000001124B624A723D8F4
:0656200023B82301240061
:00000001FF
