:100000000C9474000C949C000C949C000C949C0028
:100010000C949C000C949C000C949C000C949C00F0
:100020000C949C000C949C000C949C000C949C00E0
:100030000C949C000C949C000C949C000C949C00D0
:100040000C9428220C949C000C9425240C9473246A
:100050000C949C000C949C000C949C000C949C00B0
:100060000C94441F0C949C001F1C1F1E1F1E1F1F5E
:100070001E1F1E1F7C3C3E5E2B3D3F2F5B5D3B2CBD
:100080002A225C0000000000240027002A00000053
:100090000000250028002B0000000000230026009F
:1000A00029000404040404040404020202020202FB
:1000B000030303030303010204081020408001022C
:1000C00004081020010204081020000000070002AC
:1000D0000100000304060000000000000000E10031
:1000E0001B0AA30BE01DDF2511241FBECFEFD8E0B4
:1000F000DEBFCDBF13E0A0E0B1E0ECEAF6E502C060
:1001000005900D92AE3EB107D9F718E0AEEEB3E020
:1001100001C01D92AC30B107E1F710E0C8EED0E0AD
:1001200004C02297FE010E94192BCE3DD107C9F7CA
:100130000E9435260C94542B0C940000FB01DC012A
:1001400004C08D910190801921F441505040C8F7AE
:10015000881B990B0895FC018191861721F0882353
:10016000D9F7992708953197CF010895FB01DC0154
:100170004150504048F001900D920020C9F701C055
:100180001D9241505040E0F70895A0E0B0E0EBEC44
:10019000F0E00C94272B7C01EB018A01690109C076
:1001A000CE012196F6010995F70181937F01015057
:1001B000104001151105A1F7CDB7DEB7E8E00C94AA
:1001C000432B86E394E040E050E060E070E00E9462
:1001D000C70808958BED96E00E94801E0E94580982
:1001E00008956F927F928F929F92AF92BF92CF921B
:1001F000DF92EF92FF920F931F935B016C01390125
:100200004A01C801B701A60195010E946F2A9B010E
:10021000AC01C401B3010E94B7287B018C0186EEBA
:10022000C82E87E0D82EC60160E071E00E94A727A3
:10023000C601A701B80122E030E00E948E28B70174
:10024000C8011F910F91FF90EF90DF90CF90BF906A
:10025000AF909F908F907F906F9008950F931F9312
:10026000DF93CF93CDB7DEB7A1970FB6F894DEBF7B
:100270000FBECDBF8E010F5F1F4FC80163E474E056
:1002800040E151E023E10E94E30CC8010E94CC0A46
:10029000882309F498C00E945A092C8F3D8F4E8FF5
:1002A0005F8F68A379A3A6E3B4E0FE017C9686E0A5
:1002B00001900D928150E1F74091F0035091F103CC
:1002C0006091F2037091F3038E010F5F1F4FC8011D
:1002D00022E030E00E948E28C8016CE171E00E94AB
:1002E000A727C80160913F044AE050E00E943627EA
:1002F000C8016CE171E00E94A727C80160913D042C
:100300004AE050E00E943627C8016CE171E00E948B
:10031000A72740911004509111046091120470912C
:100320001304C80122E030E00E948E28C8016CE16D
:1003300071E00E94A727C801609138044AE050E0AC
:100340000E943627C8016FE20E946E26C8016091A4
:1003500037044AE050E00E943627C8016FE20E944D
:100360006E266091360470E06053784FC8014AE011
:1003700050E00E942527C80160E20E946E26C80155
:10038000609139044AE050E00E943627C8016AE3D0
:100390000E946E26C80160913A044AE050E00E9433
:1003A0003627C8016AE30E946E26C80160913B04AB
:1003B0004AE050E00E943627C8010E947626C80114
:1003C0000E94D90A06C086EE97E06FE171E00E94B4
:1003D000A428CE0101960E948A0AA1960FB6F8942D
:1003E000DEBF0FBECDBFCF91DF911F910F9108955A
:1003F00086EE97E069E371E00E94A727809194035D
:1004000061E00E943E2383E494E0609194030E94A3
:10041000080E882329F486EE97E061E571E004C0B8
:1004200086EE97E06DE671E00E94A4280895809121
:10043000960361E00E947D23089586EE97E00E9476
:100440003525181619060CF077C186EE97E00E9444
:1004500066258533910509F4C6C0863391059CF461
:100460008233910509F443C08333910524F4C19785
:1004700009F05AC118C08333910509F464C0C497C8
:1004800009F052C184C08733910509F4FCC0873359
:1004900091050CF4CCC08833910509F417C1C997B4
:1004A00009F042C13EC16091F6037091F70380915B
:1004B000F8039091F9032AE037ED43E25CE30E94F0
:1004C000B8286093F6037093F7038093F803909332
:1004D000F90320E030E040E151E40E946B2A8823D8
:1004E0000CF42AC180E090E0A0E1B1E423C0609167
:1004F000F6037091F7038091F8039091F9032AE0D5
:1005000037ED43E25CE30E94B7286093F6037093F3
:10051000F7038093F8039093F90320E030E040E480
:1005200050E40E941C2918160CF406C180E090E0EB
:10053000A0E4B0E48093F6039093F703A093F8034C
:10054000B093F903089560910204709103048091BF
:100550000404909105042AE037ED43E25CE30E9435
:10056000B82860930204709303048093040490936A
:10057000050420E030E040E151E40E946B2A88232A
:100580000CF4DAC080E090E0A0E1B1E423C0609117
:1005900002047091030480910404909105042AE000
:1005A00037ED43E25CE30E94B72860930204709346
:1005B000030480930404909305042AE037ED43E29A
:1005C0005CE30E941C2918160CF4B6C08AE097ED73
:1005D000A3E2BCE38093020490930304A093040479
:1005E000B09305040895609106047091070480910A
:1005F00008049091090420E030E040E85FE30E94A5
:10060000B8286093060470930704809308049093BD
:10061000090420E030E048E452E40E946B2A882379
:100620000CF48AC080E090E0A8E4B2E423C06091BA
:10063000060470910704809108049091090420E059
:1006400030E040E85FE30E94B728609306047093AF
:100650000704809308049093090420E030E040E010
:1006600050E00E941C2918160CF466C080E090E04F
:10067000A0E0B0E08093060490930704A0930804E0
:10068000B0930904089560910A0470910B0480915D
:100690000C0490910D0420E030E040E85FE30E94FC
:1006A000B82860930A0470930B0480930C04909311
:1006B0000D0420E030E048EC52E40E946B2A8823CD
:1006C000DCF180E090E0A8ECB2E422C060910A0482
:1006D00070910B0480910C0490910D0420E030E0A7
:1006E00040E85FE30E94B72860930A0470930B040C
:1006F00080930C0490930D0420E030E040E050E043
:100700000E941C291816C4F080E090E0A0E0B0E040
:1007100080930A0490930B04A0930C04B0930D04EF
:1007200008950E941702089586EE97E069E37DE23E
:100730004AE050E00E948827089560913D0470E0EF
:10074000882777FD8095982F0E94BB2920910A0465
:1007500030910B0440910C0450910D040E946B2ABF
:100760008823CCF060913F0470E0882777FD809566
:10077000982F0E94BB2920910604309107044091D4
:100780000804509109040E946B2A882324F0809168
:10079000900361E003C08091900360E00E947D239C
:1007A00008958CE261E00E943E238CE261E00E94A9
:1007B0007D2308958091EE039091EF03892B09F03A
:1007C00064C0809192030E941C2390930F04809335
:1007D0000E04AA2797FDA095BA2FBC01CD010E9457
:1007E000BB2920E030E040E85AE30E946F2A20E075
:1007F00030E040EA50E40E946F2A9B01AC01609314
:10080000140470931504809316049093170460E009
:1008100070E088E492E40E94202920E030E040E289
:1008200051E40E94B7289B01AC01609318047093B7
:10083000190480931A0490931B0460E070E080E830
:100840009FE30E9420292AE037ED4FE753E40E94FE
:100850006F2A609310047093110480931204909394
:10086000130486EE97E06FE771E00E94A72740919E
:10087000100450911104609112047091130486EEDB
:1008800097E022E030E00E9491280895CF92DF9215
:10089000EF92FF920F931F936091240470912504AF
:1008A00080912604909127040E94B7289B01AC01F7
:1008B00060E070E088EC92E40E9420297B018C01CA
:1008C00096EEC92E97E0D92EC6016EE871E00E941F
:1008D000A727C601A701B80122E030E00E949128B5
:1008E0001F910F91FF90EF90DF90CF9008950F939D
:1008F0001F930E948D29DC01CB010E941C23AA2793
:1009000097FDA095BA2FBC01CD010E94BB29609331
:1009100028047093290480932A0490932B0406EEF4
:1009200017E0C8016DE971E00E94A72740912804F3
:100930005091290460912A0470912B04C80122E08F
:1009400030E00E94912820912804309129044091A0
:100950002A0450912B04B901CA011F910F910895E7
:100960000F931F930E948D29DC01CB010E941C2351
:10097000AA2797FDA095BA2FBC01CD010E94BB29E3
:100980006093240470932504809326049093270495
:1009900006EE17E0C80167EB71E00E94A7274091BF
:1009A0002404509125046091260470912704C80105
:1009B00022E030E00E949128209124043091250407
:1009C0004091260450912704B901CA011F910F914B
:1009D0000895EF92FF920F931F938091A0030E94BE
:1009E0001C23AA2797FDA095BA2FBC01CD010E9418
:1009F000BB2960931C0470931D0480931E04909384
:100A00001F048091A2030E941C23AA2797FDA09592
:100A1000BA2FBC01CD010E94BB29609320047093C2
:100A20002104809322049093230486EE97E00E9491
:100A30003525181619060CF072C086EE97E00E9454
:100A40006625909335048093340421E38133920723
:100A500091F021E382339207C9F08053914389F5E5
:100A600060911C0470911D0480911E0490911F04DC
:100A70000E94B0042EC060911C0470911D048091EE
:100A80001E0490911F040E94770423C060911C04EF
:100A900070911D0480911E0490911F0420912804E0
:100AA0003091290440912A0450912B04E0902C04A9
:100AB000F0902D0400912E0410912F040E94460402
:100AC00008C086EE97E065E670E74AE050E00E94D5
:100AD000882760911C0470911D0480911E049091E0
:100AE0001F04209128043091290440912A04509138
:100AF0002B04E0902C04F0902D0400912E04109112
:100B00002F040E94F10060933004709331048093AD
:100B10003204909333040E948829CB0100C01F91B6
:100B20000F91FF90EF9008950E94E9042091A40393
:100B30003091A5038217930734F00FC0809196037C
:100B400061E00E947D230E94E9042091A603309178
:100B5000A7038217930794F308958091960360E0AA
:100B60000E947D2308951F93CF93DF9310E0C7E089
:100B7000D0E08CE20E94D123892BD9F38DE290E062
:100B80000E94D7228CE20E94D1238130910539F452
:100B90000C2E02C0880F991F0A94E2F7182B8CE2E2
:100BA0000E94D1230197D9F321978FEFCF3FD80728
:100BB00001F7812FDF91CF911F910895CF93DF939C
:100BC00010923C048CE260E00E947D2367E170E0BB
:100BD00080E090E00E947E228CE261E00E947D2312
:100BE00088E290E00E94D7228CE260E00E943E23DF
:100BF0008CE20E94D123882311F081E030C080E58F
:100C000090E00E94D7228CE20E94D123882311F425
:100C100082E025C080E590E00E94D722CDE3D4E0B9
:100C20000E94B305899384E0C234D807C9F78CE2E7
:100C300061E00E943E238CE261E00E947D2380916E
:100C40003E0490913D04890F90913F04890F90914B
:100C50004004890F90914104981719F083E0809324
:100C60003C04DF91CF9108956F927F928F929F9273
:100C7000AF92BF92CF92DF92EF92FF920F931F93AA
:100C80000E94DE0580913C04813071F1813028F0B2
:100C9000823079F18330B9F531C086EE97E062EDAC
:100CA00071E00E94A72786EE97E060913D044AE03C
:100CB00050E00E94362786EE97E066EE71E00E94D3
:100CC000A42886EE97E06AEE71E00E94A72786EEE0
:100CD00097E060913F044AE050E00E94362786EE9C
:100CE00097E069EF71E013C086EE97E06FEF71E077
:100CF0000EC086EE97E067E272E009C086EE97E0EC
:100D00006FE472E004C086EE97E06CE672E00E9449
:100D1000A42880918A030E941C23AA2797FDA095EE
:100D2000BA2FBC01CD010E94BB292EE431ED41E96F
:100D30005CE30E946F2A21EC3AEC41EF5FE30E94F2
:100D4000B7283B014C016093F0037093F10380934B
:100D5000F2039093F303E090F603F090F703009111
:100D6000F8031091F903A0900204B0900304C0901E
:100D70000404D0900504C801B701A60195010E94A2
:100D8000B7286093FA037093FB038093FC0390935E
:100D9000FD03C801B701A60195010E94B828609320
:100DA000FE037093FF038093000490930104C40139
:100DB000B301A80197010E941C29882351F4809156
:100DC0008E0360E00E947D2380918C0360E00E948E
:100DD0007D23E090F003F090F1030091F203109175
:100DE000F303C801B7012091FA033091FB0340914E
:100DF000FC035091FD030E946B2A8823F4F0C80184
:100E0000B7012091FE033091FF03409100045091FF
:100E100001040E941C29181684F08091F40390911B
:100E2000F503892B51F480918E0360E00E947D23AD
:100E300080918C0360E00E947D236091F0037091AB
:100E4000F1038091F2039091F3032091FA03309122
:100E5000FB034091FC035091FD030E941C29882351
:100E600084F48091F4039091F503892B51F48091DF
:100E70008C0361E00E947D2380918E0360E00E94DC
:100E80007D23E090F003F090F1030091F2031091C4
:100E9000F303C801B7012091FA033091FB0340919D
:100EA000FC035091FD030E946B2A8823F4F0C801D3
:100EB000B7012091F6033091F7034091F803509168
:100EC000F9030E941C29882384F48091F4039091F3
:100ED000F503019751F480918C0361E00E947D231A
:100EE00080918E0360E00E947D236091F0037091F9
:100EF000F1038091F2039091F3032091FE0330916E
:100F0000FF0340910004509101040E946B2A1816BF
:100F100084F48091F4039091F503892B51F480912E
:100F20008E0361E00E947D2380918C0360E00E942B
:100F30007D23E090F003F090F1030091F203109113
:100F4000F303C801B7012091FE033091FF034091E4
:100F50000004509101040E941C291816F4F0C801E5
:100F6000B7012091F6033091F7034091F8035091B7
:100F7000F9030E946B2A181684F48091F40390916F
:100F8000F503029751F480918E0361E00E947D2366
:100F900080918C0360E00E947D2386EE97E062E9F9
:100FA00072E00E94A7276091F4037091F50386EE2A
:100FB00097E04AE050E00E94882786EE97E06AE9D1
:100FC00072E00E94A7274091F6035091F7036091C9
:100FD000F8037091F90386EE97E022E030E00E947A
:100FE000912886EE97E066EA72E00E94A72740917A
:100FF000020450910304609104047091050486EE8C
:1010000097E022E030E00E94912886EE97E062EBC4
:1010100072E00E94A7274091F0035091F103609184
:10102000F2037091F30386EE97E022E030E00E9435
:1010300091281F910F91FF90EF90DF90CF90BF907C
:10104000AF909F908F907F906F9008950E9434068C
:101050000E94DA030E949D030E9494050E942E01C3
:101060000E941D0208950F931F9380918C0361E0ED
:101070000E943E2380918E0361E00E943E23809176
:10108000900361E00E943E238091960361E00E94FC
:101090003E230E94D10306EE17E0C80140E855E266
:1010A00060E070E00E94AE246CE271E080E090E0CD
:1010B0000E947E22C80168EB72E00E94A428C80149
:1010C0006BED72E00E94A4286CEB72E080E090E08F
:1010D0000E947E221F910F9108950F931F9301E4A8
:1010E00014E06091980370919903C8010E94480A26
:1010F0006093F6037093F7038093F8039093F903DA
:1011000060919A0370919B03C8010E94480A609302
:101110000204709303048093040490930504609187
:101120009C0370919D03C8010E94450A90E0A0E0D5
:10113000B0E0BC01CD010E94B92960930604709310
:101140000704809308049093090460919E037091B2
:101150009F03C8010E94450A90E0A0E0B0E0BC01F6
:10116000CD010E94B92960930A0470930B04809307
:101170000C0490930D041F910F9108950E946D0827
:101180000E9433080E94EA000E94F8010895EF923D
:10119000FF920F931F93CF93DF93EC017A018B01A2
:1011A00080E89CEBA2E9B7ECE80EF91E0A1F1B1FB2
:1011B000C801B7012CE330E040E050E00E94F52A7E
:1011C0006D83C801B7012CE330E040E050E00E949D
:1011D000F52A122F032FF42EE52E622F732F842F62
:1011E000952F2CE330E040E050E00E94F52A6C831C
:1011F000612F702F8F2D9E2D2CE330E040E050E0CA
:101200000E94F52A122F032FF42EE52E622F732F42
:10121000842F952F28E130E040E050E00E94F52A2D
:101220006B83612F702F8F2D9E2D28E130E040E0E1
:1012300050E00E94F52A60E0A3E9BEEF70E0862F3F
:1012400090E083709070892B09F471E0E62FEF5FD6
:10125000472F50E0CA0183599E4F2817390738F0AD
:10126000CD01841B950B280F391F6E2FE7CF6883A4
:1012700041E0E42FF0E0E959FF4F8491772319F022
:10128000423009F48F5F90E0542F5F5F28173907D1
:1012900020F0281B390B452FECCF4983822F8F5F1D
:1012A0008A83DF91CF911F910F91FF90EF90089566
:1012B00081E00895BF92CF92DF92EF92FF920F9359
:1012C0001F93DF93CF9300D000D000D0CDB7DEB70F
:1012D0000BED16E0C80168E670E00E94A61DC8018B
:1012E00060E00E94281EC8010E946B1EC80168E6CB
:1012F00070E047E050E00E947C1EC8010E94B91DCA
:101300009FE7B92EB822C8010E94B91DC82EC80196
:101310000E94B91DD82EC8010E94B91DC8010E94A3
:10132000B91DE82EC8010E94B91DF82EC8010E94FF
:10133000B91D282F30E0B4E035952795BA95E1F72F
:101340004AEF5FEFB901649F9001659F300D749F74
:10135000300D1124820F90E02B2D30E0A4E0359564
:101360002795AA95E1F7B901649F9001659F300D1B
:10137000749F300D1124B20E2C2D30E0F4E0359521
:101380002795FA95E1F7B901649F9001659F300DAB
:10139000749F300D1124C20E2D2D30E0E4E0359500
:1013A0002795EA95E1F7B901649F9001659F300D9B
:1013B000749F300D1124D20E2E2D30E074E035953F
:1013C00027957A95E1F7B901649F9001659F300DEB
:1013D000749F300D1124E20E2F2D30E064E035951E
:1013E00027956A95E1F7B901649F9001659F300DDB
:1013F000749F300D1124F20E282F3F2D4E2D5D2DA0
:101400006C2D7B2D80E026960FB6F894DEBF0FBEC4
:10141000CDBFCF91DF911F910F91FF90EF90DF90A3
:10142000CF90BF9008959C01F999FECF32BD21BDA8
:10143000F89A80B5089584E690E0909342048093F2
:10144000410408958091A8039091A90386179707F6
:1014500014F081E0089586EE97E060E073E00E946A
:10146000A42880E00895CF93DF93EB016F5F7F4F57
:101470000E94220A882331F0F999FECFD2BDC1BD66
:10148000F89A80B5DF91CF9108950E94330A0895AC
:101490000F931F93DF93CF9300D000D0CDB7DEB76B
:1014A0008B016C5F7F4F0E94220A882321F470E039
:1014B00060E090E00DC0CE010196B80144E050E03C
:1014C00023E13AE00E94C50079816A819B818C8189
:1014D000272F362F492F582FB901CA010F900F908F
:1014E0000F900F90CF91DF911F910F910895FC0104
:1014F0001382128288EE93E0A0E0B0E084839583AB
:10150000A683B78389EB93E091838083128E118E3B
:1015100014860895FC0189EB93E0918380830895FC
:10152000DF93CF930F92CDB7DEB7FC016983A08123
:10153000B18112962D913C911397BE016F5F7F4F41
:1015400041E050E0F90109950F90CF91DF910895A6
:10155000DC015996ED91FC915A97309719F420E0EF
:1015600030E018C02389348945895689828593855E
:10157000A485B585281B390B4A0B5B0B2030B0E8DE
:101580003B07B0E04B07B0E05B0720F02FEF3FE7F1
:1015900040E050E0C9010895DC015996ED91FC91BD
:1015A0005A97309711F480E008958581811181E088
:1015B0000895CF93DF93EC01898D9A8D009741F0C8
:1015C0000E949112898D9A8D0E9490211A8E198EF7
:1015D000DF91CF910895FC01818D928D009711F0DC
:1015E0000E9447120895DF93CF930F92CDB7DEB7D5
:1015F000FC01818D928D009749F0BE016F5F7F4F96
:1016000041E050E00E946813019719F02FEF3FEF7F
:1016100003C08981282F30E0C9010F90CF91DF915D
:101620000895EF92FF920F931F93DF93CF930F9242
:10163000CDB7DEB77C01DC0159968D919C915A970C
:10164000009719F400E010E01FC0BE016F5F7F4FEC
:1016500041E050E00E946813019719F00FEF1FEF6F
:1016600013C08981082F10E0D7015996ED91FC91A4
:101670005A97428553856485758541505040604036
:101680007040CF010E948111C8010F90CF91DF916E
:101690001F910F91FF90EF900895CF93DF93EC018E
:1016A000E98DFA8D309761F013821282CF010E948A
:1016B000AD159C01E98DFA8D82819381892B31F0E2
:1016C00081E090E09B838A8320E030E0C901DF91D4
:1016D000CF910895EF92FF920F931F93CF93DF93D3
:1016E000EC01F62EE72E8A011B821A8288EE93E027
:1016F000A0E0B0E08C839D83AE83BF8389EB93E051
:10170000998388838DE190E00E94F3209A8F898FDE
:10171000009791F0DC018F2D9E2D9C01F9018DE148
:1017200001900D928150E1F7CE010C96B8014CE08A
:1017300050E00E94B600188EDF91CF911F910F915B
:10174000FF90EF900895109248041092490410926F
:101750004C0410924E0482E090E0A0E0B0E0809350
:101760004F0490935004A0935104B09352041092EC
:1017700066041092700410926F0489EC93E09093C9
:101780006E0480936D041092720408952F923F921C
:101790004F925F926F927F928F929F92AF92BF9281
:1017A000CF92DF92EF92FF920F931F93DF93CF932D
:1017B000CDB7DEB7C754D0400FB6F894DEBF0FBE2A
:1017C000CDBF582E492EFB013A01190184A595A5DC
:1017D000998B888B29EC33E03F872E8786A58A8BEF
:1017E00087A58B8B80A991A9A2A9B3A98C8B9D8B6E
:1017F000AE8BBF8B84A995A9A6A9B7A9888F998F0D
:10180000AA8FBB8F80AD91ADA2ADB3AD8C8F9D8FF4
:10181000AE8FBF8F84AD88A3FD9681919191A191E8
:10182000B19189A39AA3ABA3BCA381919191A191FA
:10183000B1918DA39EA3AFA3B8A7808191819AA7F0
:1018400089A71EA61DA63CA72BA718AA7A018E0160
:10185000025F1F4F3BE2A32EB12CAC0EBD1E4E010A
:101860000894811C911C35C0D7018C918F3221F4D2
:101870000894E11CF11C2DC0422F4E194D3008F088
:101880004CE0C42EDD24C401B701A6010E94B600BD
:10189000F401EC0DFD1D1082C5010E949112C501DD
:1018A000B801A40121E00E94DA17882351F4E52D44
:1018B000F42D1382128289EC93E091838083158248
:1018C00066C0EC0CFD1CC8010E949112C5015801B4
:1018D0008C01C7016FE270E00E94AB009C01009791
:1018E00019F6E618F708F101F182E082E52DF42DF2
:1018F000D80112968D919C9113979383828389ECE2
:1019000093E09183808314968C9114978483159629
:101910008C911597858316962D913D914D915C91F3
:10192000199726833783408751871A962D913D91C9
:101930004D915C911D9722873387448755871E966A
:101940002D913D914D915C91519726873787408B22
:10195000518B52968C915297828B53962D913D913B
:101960004D915C915697238B348B458B568B5796B4
:101970002D913D914D915C915A97278B308F418FDE
:10198000528F5B968D919C915C97948F838F852D60
:10199000942DC95BDF4F0FB6F894DEBF0FBECDBFED
:1019A000CF91DF911F910F91FF90EF90DF90CF903B
:1019B000BF90AF909F908F907F906F905F904F906F
:1019C0003F902F9008959F92AF92BF92CF92DF9257
:1019D000EF92FF920F931F93DF93CF93CDB7DEB7B4
:1019E000C657D0400FB6F894DEBF0FBECDBFC82E8D
:1019F000992E8A01D22E43E0A42EB12CAC0EBD1E2E
:101A0000C501A8019E012F5F3F4F0E94C60BE980D0
:101A1000FA80E00EF11EF701808149EC53E0288541
:101A2000882309F03FC08D819E819BA38AA359A37F
:101A300048A38F818CA32DA389859A85AB85BC850E
:101A40008EA39FA3A8A7B9A78D859E85AF85B889CA
:101A50008AA79BA7ACA7BDA789899A89AB89BC89AE
:101A60008EA79FA7A8ABB9AB8D898AAB8E899F89BA
:101A7000A88DB98D8BAB9CABADABBEAB8A8D9B8D6E
:101A8000AC8DBD8D8FAB98AFA9AFBAAF8E8D9F8D4A
:101A90009CAF8BAF8C2D992DBE01605E7F4F4AE7C6
:101AA00053E09FC0FE01FF96118210825EAF4DAFE2
:101AB000FE01EE5BFF4F10822223A9F02250CE01DF
:101AC000CD96223048F46DE674E0A7012D2D0E94DA
:101AD000DA17882381F407C0B501A7012D2D0E94D4
:101AE000DA17882329F48C2D992D0E94770A7BC060
:101AF000C5010E949112F6E0DF2259F0FE01E05B81
:101B0000FF4F4081518162817381CE01CD960E9449
:101B100081119E01265A3F4FFE01FF9680819181DF
:101B2000F9019383828389EC93E091838083FE01A2
:101B3000EF5BFF4F8081F9018483FE01EE5BFF4F75
:101B40008081F9018583FE01ED5BFF4F80819181EA
:101B5000A281B381F90186839783A087B187FE01B3
:101B6000E95BFF4F80819181A281B381F901828776
:101B70009387A487B587FE01E55BFF4F8081918144
:101B8000A281B381F90186879787A08BB18BFE0173
:101B9000E15BFF4F8081F901828BFE01E05BFF4F2B
:101BA00080819181A281B381F901838B948BA58B74
:101BB000B68BFE01EC5AFF4F80819181A281B381E7
:101BC000F901878B908FA18FB28FFE01E85AFF4FEA
:101BD00080819181F901948F838F8C2D992DB9018A
:101BE000A7010E946A0B8C2D992DCA58DF4F0FB6A2
:101BF000F894DEBF0FBECDBFCF91DF911F910F9143
:101C0000FF90EF90DF90CF90BF90AF909F9008959E
:101C10000F931F93CF93DF93EC01462F61E00E9457
:101C20006D108823D1F08E01045F1F4FC801BE01E3
:101C300041E00E947B19882339F4C801BE0140E0CD
:101C40000E947B19882349F0CE018A96B8010E9430
:101C5000C714882319F081E001C080E0DF91CF91A3
:101C60001F910F910895FC01673020F086E1858374
:101C700080E00895262F30E060FD02C0663019F440
:101C80008DB58E7F02C08DB581608DBD8CB58C7F8A
:101C90008CBD4CB522FD02C090E001C092E03695AB
:101CA0002795822F8170842B892B8CBD81E008952C
:101CB000FF920F931F93CF93DF938B010E947022AB
:101CC000EB01FF24FA94FEBC0DB407FEFDCF8EB5E8
:101CD0008F3F11F481E008C00E9470226C1B7D0BC5
:101CE0006017710780F380E0DF91CF911F910F9112
:101CF000FF900895FC01848160E00E947D23089597
:101D0000FC01848161E00E947D230895DC016EBDA9
:101D1000FA0120E030E00DB407FEFDCF80818EBDDA
:101D20000DB407FEFDCF81818EBD2E5F3F4F3296F1
:101D300082E02030380779F70DB407FEFDCF8FEF32
:101D40008EBD0DB407FEFDCF8FEF8EBD0DB407FE27
:101D5000FDCF8FEF8EBD0DB407FEFDCF8EB51A9669
:101D60008C931A978F71853011F481E0089581E189
:101D700015968C931597CD010E94800E80E00895F2
:101D8000FF920F931F93CF93DF93EC010E94702279
:101D90008B01FF24FA9409C00E947022601B710B12
:101DA0006D52714010F08FE00DC0FEBC0DB407FE07
:101DB000FDCF8EB58A878F3F79F38E3F11F481E096
:101DC00006C08DE08D83CE010E94800E80E0DF9101
:101DD000CF911F910F91FF900895CF93DF93EC0166
:101DE0008E818823D1F08FEF8EBD2F8138854FEF04
:101DF00004C00DB407FEFDCF4EBD2F5F3F4FC9019C
:101E0000019781509240A8F338872F830DB407FEC5
:101E1000FDCFCE010E94800E1E82DF91CF910895EA
:101E2000DF92EF92FF920F931F93CF93DF93EC011A
:101E3000D62E79018A010E94ED0ECE010E947A0E03
:101E4000CE016CE271E00E94580E8D2D80648EBD33
:101E50000DB407FEFDCF28E130E0D801C701022E06
:101E600004C0B695A795979587950A94D2F78EBD2D
:101E70000DB407FEFDCF285030408FEF283F3807C4
:101E800061F7DD2011F485E906C088E0D81611F469
:101E900087E801C08FEF8EBD0DB407FEFDCF90E047
:101EA0002FEF2EBD0DB407FEFDCF8EB587FF02C00C
:101EB0009150B9F78A87DF91CF911F910F91FF90D1
:101EC000EF90DF900895CF92DF92EF92FF920F9301
:101ED0001F93CF93DF93EC017A018B0169014115C8
:101EE00051056105710511F482E137C08B8583309E
:101EF00039F029E0EE0CFF1C001F111F2A95D1F7C5
:101F0000CE0168E1A80197010E94100F882311F00B
:101F100084E023C0CE016EEFA6010E94860E8823C6
:101F2000E9F0CE0168E572E00E94580E882311F4B2
:101F300085E113C0CE016DE020E030E040E050E0EC
:101F40000E94100F882341F48FEF8EBD0DB407FE61
:101F5000FDCF8EB5882379F084E18D83CE010E9478
:101F6000800E80E0DF91CF911F910F91FF90EF9055
:101F7000DF90CF900895CE010E94800E81E0F2CFD5
:101F80008F929F92AF92BF92CF92DF92EF92FF9289
:101F90000F931F93CF93DF93EC015A016B0149011B
:101FA0000115110509F47BC0C801820F931F8150F0
:101FB000924008F06FC08E81882371F088819981EA
:101FC000AA81BB81481759076A077B0729F48F81CB
:101FD00098858816990618F5A882B982CA82DB828C
:101FE0008B85833039F069E0AA0CBB1CCC1CDD1C4E
:101FF0006A95D1F7CE0161E1A60195010E94100F0B
:10200000882319F083E08D8345C0CE010E94C00E65
:10201000882309F43FC018861F8281E08E838FEFEA
:102020008EBD8F8198852FEF05C00DB407FEFDCFC3
:102030002EBD019688159905C0F398878F83D80126
:10204000119720E030E09FEF0BC00DB407FEFDCFED
:102050008EB5F701E20FF31F80839EBD2F5F3F4FC8
:102060002A173B0790F30DB407FEFDCF8EB5AE0DDA
:10207000BF1D8C932F813885200F311F38872F8308
:102080008985882319F02050324048F0CE010E9403
:10209000ED0E05C0CE010E94800E80E001C081E0FF
:1020A000DF91CF911F910F91FF90EF90DF90CF9034
:1020B000BF90AF909F908F900895EF92FF920F93F3
:1020C0001F93790120E030E000E012E00E94C00F91
:1020D0001F910F91FF90EF900895BF92CF92DF92E2
:1020E000EF92FF920F931F93CF93DF93EC01B62EE5
:1020F0001B8619861E821D824C830E9470226B01F2
:102100008C8161E00E943E23CE010E94800E8CE013
:1021100060E00E943E238BE061E00E943E238DE060
:1021200061E00E943E238AE061E00E943E238AE053
:1021300061E00E947D2383E58CBD8DB58E7F8DBDD2
:1021400080E09FEF9EBD0DB407FEFDCF8F5F8A300C
:10215000C9F7CE010E947A0E09C00E9470226C1944
:102160007D09615D774010F081E05EC0CE0160E0E6
:1021700020E030E040E050E00E94100F182F8A87E6
:10218000813059F7CE0168E02AEA31E040E050E0C2
:102190000E94100F82FF02C01B8711C080E02FEF4A
:1021A0002EBD0DB407FEFDCF9EB58F5F8430C1F705
:1021B0009A879A3A11F082E037C082E08B878B854C
:1021C000823021F0EE24FF2487010FC0E12CF12C96
:1021D000012DF0E41F2F09C00E9470226C197D09A7
:1021E000615D774010F088E01FC0CE0167E320E01A
:1021F00030E040E050E00E94100FCE0169E2A801FB
:1022000097010E94100F8A87882331F78B858230CF
:1022100031F5CE016AE320E030E040E050E00E947A
:10222000100F882339F086E08D83CE010E94800E46
:1022300080E01CC08FEF8EBD0DB407FEFDCF8EB5C4
:10224000807C803C11F483E08B8780E09FEF9EBD13
:102250000DB407FEFDCF2EB58F5F8330C1F7CE01E1
:102260000E94800ECE016B2D0E94330EDF91CF9124
:102270001F910F91FF90EF90DF90CF90BF90089546
:10228000CF93DF93EC01DB0180E090E020E2FD01E1
:10229000E80FF91F208301968B309105C1F757E0B5
:1022A00040E021C02E3219F084E790E007C05A3098
:1022B00019F15AE048E017C03217F1F0FC0101961D
:1022C00034913323C9F75417B8F02132A8F02F37CF
:1022D00098F4822F81568A3108F42052FD01E40FD0
:1022E000F11D20834F5F29912223E1F690E08C912C
:1022F000803219F091E001C090E0892FDF91CF91F9
:1023000008956F927F928F929F92AF92BF92CF92D9
:10231000DF92EF92FF920F931F93CF93DF93EC0125
:102320007A018B012D81222309F480C08B899C893D
:10233000AD89BE8984179507A607B70708F476C04C
:1023400085C0E114F1040105110549F41E821F82C4
:10235000188619861A861B861C861D8665C02A85E6
:102360003B854C855D85EB8DFC8D858590E00996E0
:10237000215030404040504039014A01082E04C0ED
:1023800096948794779467940A94D2F72F5F3F4F7F
:102390004F4F5F4F0894E108F108010911095701F7
:1023A000680104C0D694C794B794A7948A95D2F7CD
:1023B0000894E11CF11C011D111DA614B704C804EA
:1023C000D90428F0211531054105510549F48F89BB
:1023D000988DA98DBA8D8E839F83A887B98716C0E3
:1023E000A618B708C808D90811C04E815F81688552
:1023F00079858B8D9C8D94010E945C1B0894A108AB
:10240000B108C108D108882331F410C086E0882EB5
:10241000912C8C0E9D1EA114B104C104D10429F786
:10242000EA86FB860C871D8781E001C080E0DF9192
:10243000CF911F910F91FF90EF90DF90CF90BF90C1
:10244000AF909F908F907F906F900895223009F009
:1024500078CFE6CFCF93DF93EC01462F6E857F8553
:10246000888999890E944019882319F420E030E076
:102470000AC08A89282F30E095E0220F331F9A95F1
:10248000E1F722573B4FC901DF91CF9108950F9398
:102490001F93CF93DF938C01FC0185818823D9F1B1
:1024A000848187FF35C0C80161E00E942A12EC01D7
:1024B000009789F1F8018581823040F483899489FD
:1024C000A589B6898C8F9D8FAE8FBF8FF8018789C4
:1024D000908D9B8F8A8F8789908DA18DB28DCD0134
:1024E000AA27BB279D8B8C8BE0918C04F0918D04E7
:1024F000309751F0BE016A5E7F4FCE014896099534
:10250000888D998D9B8B8A8BF80184818F7784834A
:102510000E94E11801C080E0DF91CF911F910F91DF
:102520000895CF93DF93EC010E944712882311F0A6
:102530001D8281E0DF91CF9108956F927F928F92FB
:102540009F92AF92BF92CF92DF92EF92FF920F9342
:102550001F93DF93CF9300D000D0CDB7DEB77C01BF
:102560005A016B01DC0115968C911597813009F0A9
:102570008FC014968C9181FF8BC09EC00097A105DF
:10258000B10511F481E085C0F7016284738484840D
:102590009584C701B601A5010E948111882309F421
:1025A00077C0D7015B968D919C915C97A114B10483
:1025B000C104D10489F457964D915D916D917C9140
:1025C0005A970E94CF1B882309F462C0F701178A2B
:1025D000108E118E128E3DC0D70116964D915D91D1
:1025E0006D917C9119979E012F5F3F4F0E945C1B5C
:1025F000882309F44DC0D7015B96ED91FC915C975F
:1026000049815A816B817C818789803129F088EFEB
:102610009FEFAFEFBFE004C088EF9FEFA0E0B0E016
:10262000481759076A077B07A0F4CF010E94CF1B08
:10263000882371F1F7014681578160857185838D0B
:10264000948D0FEF1FEF2FEF3FE00E94C01A8823F9
:10265000F9F0D7015396AD92BD92CD92DC92569788
:1026600014968C911497806814968C93C7010E94DD
:102670004712882369F0B601A5016A147B048C0413
:102680009D0410F4B401A301C7010E94811101C08F
:1026900080E00F900F900F900F90CF91DF911F91DE
:1026A0000F91FF90EF90DF90CF90BF90AF909F90F1
:1026B0008F907F906F900895F70183899489A58901
:1026C000B68984179507A607B70708F057CFE0CF5C
:1026D0002F923F924F925F926F927F928F929F9232
:1026E000AF92BF92CF92DF92EF92FF920F931F9320
:1026F000CF93DF93EC012A018D81882309F4C6C0B2
:102700008C8180FFC3C0D8C025014E185F084B01E3
:1027100076E0272E312C2C0E3D1E3201B1C02A85C9
:102720003B854C855D856FEFA62E61E0B62EA2221B
:10273000B3228D8179018A0199E016950795F79466
:10274000E7949A95D1F7EB8DFC8D823049F4428D58
:10275000538D648D758D4E0D5F1D601F711F3FC0C1
:10276000D480DA94DE20A114B104D9F4DD20C9F4B8
:10277000211531054105510549F48F89988DA98DA1
:10278000BA8D8E839F83A887B9870BC04E815F81E6
:1027900068857985CF0191010E945C1B882309F42B
:1027A00075C0EB8DFC8D4E815F81688579854250C7
:1027B000504060407040058404C0440F551F661FA0
:1027C000771F0A94D2F786859785A089B189480F2B
:1027D000591F6A1F7B1F4D0D511D611D711D80E02A
:1027E00092E08A199B0963018615970508F46C012C
:1027F0008C8186FD06C080E0C81682E0D80609F00C
:1028000073C08091AA039091AB03A091AC03B091E7
:10281000AD03481759076A077B0709F465C0809123
:102820008E0690918F069501860174010E94C00F5B
:10283000882361F18C0C9D1C12C0950122573B4FDF
:10284000A9014C0D5D1DD401F90102C081918D9348
:10285000E417F507D9F7E21BF30B8E0E9F1E9601C6
:1028600040E050E08A859B85AC85BD85820F931F33
:10287000A41FB51F8A879B87AC87BD876C187D080E
:102880006114710409F04BCFA20102C04FEF5FEF5A
:10289000CA01DF91CF911F910F91FF90EF90DF90D0
:1028A000CF90BF90AF909F908F907F906F905F90F0
:1028B0004F903F902F900895AB88BC88CD88DE88DC
:1028C000EA84FB840C851D859A0140E050E0D60126
:1028D000C5018E199F09A00BB10B82179307A4079E
:1028E000B50708F411CF13CFCB01BA0140E00E9425
:1028F0004019882309F0A1CFC9CFCF92DF92EF9280
:10290000FF920F931F93DF93CF930F92CDB7DEB754
:102910006C01FC018581823070F0E284F3840485CF
:102920001585C601BE016F5F7F4F41E050E00E94F8
:102930006813019769F020E030E0C9010F90CF9152
:10294000DF911F910F91FF90EF90DF90CF9008954E
:10295000F60182859385A485B5854F96A11DB11D8D
:1029600082879387A487B587F5E016950795F79436
:10297000E794FA95D1F78E2D8F70282F30E0E5E09F
:10298000220F331FEA95E1F722573B4FD6CF0F9323
:102990001F93CF93DF93EC018B018D81882309F086
:1029A00041C0FB0187898031B1F482E08D831F8AA9
:1029B000188E198E1A8E808D918DA0E0B0E045E0C2
:1029C000880F991FAA1FBB1F4A95D1F78B8B9C8B31
:1029D000AD8BBE8B15C0803229F583E08D83FB0162
:1029E000428D538D648D758D4F8B588F698F7A8F83
:1029F0009E012D5E3F4FC8010E94281C882391F044
:102A00001C8F0B8F81E08C831E821F821886198693
:102A10001A861B861C861D861E861F86188A198AA2
:102A20001A8A01C080E0DF91CF911F910F91089524
:102A30001F93CF93DF93EC01142FE62FF0E075E0A6
:102A4000EE0FFF1F7A95E1F7E257FB4F8385817107
:102A500021F0842F827409F054C06A8B8091AA03FC
:102A60009091AB03A091AC03B091AD038E879F878B
:102A7000A88BB98B84899589A0E0B0E0BC0155276B
:102A80004427828D938DA0E0B0E0482B592B6A2B10
:102A90007B2B4F8B588F698F7A8F838590E088715D
:102AA0009070009751F4848D958DA68DB78D8B8B8A
:102AB0009C8BAD8BBE8B81E00CC0409711F59E01C5
:102AC0002D5E3F4F8B8D9C8D0E94281C8823C9F062
:102AD00084E08D83812F8F708C831E821F821886E5
:102AE00019861A861B861C861D8616FD02C081E08B
:102AF00009C0CE0140E050E060E070E00E949D120D
:102B000001C080E0DF91CF911F910895CF93DF93B3
:102B1000EC019C012A5F3F4F8B8D9C8D41E050E082
:102B200060E070E00E94971C8823A1F08F89988D47
:102B3000A98DBA8D0097A105B10559F48E819F81A9
:102B4000A885B9858F8B988FA98FBA8F8C81806863
:102B50008C8381E0DF91CF9108952F923F924F9225
:102B60005F927F928F929F92AF92BF92CF92DF92AD
:102B7000EF92FF920F931F93DF93CF9300D000D07B
:102B800000D0CDB7DEB76C01162F072F5E834D83C3
:102B9000DC0115968C911597813009F070C114965F
:102BA0008C9181FF6CC18EC1F6014389548965897E
:102BB000768982859385A485B58584179507A607B0
:102BC000B70731F0C6010E948111882309F457C16B
:102BD000812F902F9C0129012D803E8017C1D601A5
:102BE0005B96ED91FC915C97DA01C90119E0B6950D
:102BF000A795979587951A95D1F774807A9478223E
:102C00007FEF872E71E0972E82229322772009F0A2
:102C10004EC08114910409F04AC0D60116964D9118
:102C20005D916D917C911997411551056105710573
:102C300081F457968D919D910D90BC91A02D009798
:102C4000A105B10549F1F60186839783A087B18775
:102C50002EC0CF019E012F5F3F4F0E945C1B882337
:102C600009F414C129813A814B815C81D6015B96BC
:102C7000ED91FC915C978789803129F088EF9FEF77
:102C8000AFEFBFE004C088EF9FEFA0E0B0E02817EF
:102C900039074A075B0730F0C6010E948615882372
:102CA00031F4EDC0F601268337834087518780E0F9
:102CB00092E08819990951018215930508F45C0185
:102CC000D6015B96ED91FC915C971696ED90FD9088
:102CD0000D911C9119978EEF9FEFAFEFBFEFE80EAC
:102CE000F91E0A1F1B1F058404C0EE0CFF1C001FE9
:102CF000111F0A94D2F786859785A089B189E80EBD
:102D0000F91E0A1F1B1FE70CF11C011D111D90E08D
:102D1000A91692E0B90651F58091AA039091AB03F0
:102D2000A091AC03B091AD038E159F05A007B1072C
:102D300061F48FEF9FEFAFEFBFEF8093AA03909303
:102D4000AB03A093AC03B093AD0380918E0690913A
:102D50008F06B801A70192010E94630F882309F42E
:102D60008EC0A0E0B2E04A0E5B1E3EC0811491040A
:102D700009F5F60122853385448555858389948933
:102D8000A589B689281739074A075B0798F00E947A
:102D9000E118882309F473C0E092AA03F092AB0310
:102DA0000093AC031093AD038091900681608093F3
:102DB000900608C0C801B70141E00E94401988236D
:102DC00009F45DC0940122573B4FA9014A0D5B1DD8
:102DD000F901D20102C08D918193E417F507D9F76B
:102DE000E21BF30B4E0E5F1E2A183B08950140E0D4
:102DF00050E0F60182859385A485B585820F931FE7
:102E0000A41FB51F82879387A487B587D6011A961A
:102E10002D913D914D915C911D972114310409F044
:102E2000DECE53968D919D910D90BC91A02D821771
:102E30009307A407B50748F4F601238B348B458B21
:102E4000568B84818068848311C080918C0490911A
:102E50008D04892B59F08D819E81892B39F0D60103
:102E600014968C911497806814968C93F601848143
:102E700083FF0EC0C6010E944712882349F481E0F7
:102E800090E0D60113969C938E9312971E821D821A
:102E90008D819E8126960FB6F894DEBF0FBECDBF02
:102EA000CF91DF911F910F91FF90EF90DF90CF9026
:102EB000BF90AF909F908F907F905F904F903F908A
:102EC0002F90089582FD70CE83CEDF93CF930F9223
:102ED000CDB7DEB76983BE016F5F7F4F41E050E041
:102EE0000E94AD150F90CF91DF910895DF92EF9280
:102EF000FF920F931F93CF93DF93EC010E948615EF
:102F0000882309F44EC0EB8DFC8DEE80FF80088590
:102F100019858EEF9FEFAFEFBFEFE80EF91E0A1F86
:102F20001B1F058404C0EE0CFF1C001F111F0A9418
:102F3000D2F786859785A089B189E80EF91E0A1F08
:102F40001B1FD4800894E108F108010911090BC086
:102F5000C801B7016D0D711D811D911D0E941C19C5
:102F60008823F9F0DA94DD2099F7EB8DFC8D20E0D1
:102F700032E040E050E0058404C0220F331F441FBC
:102F8000551F0A94D2F78B899C89AD89BE89820F1F
:102F9000931FA41FB51F8B8B9C8BAD8BBE8B81E0C9
:102FA00001C080E0DF91CF911F910F91FF90EF90D2
:102FB000DF9008956F927F928F929F92AF92BF920F
:102FC000CF92DF92EF92FF920F931F93DF93CF93F5
:102FD000CDB7DEB72B970FB6F894DEBF0FBECDBFCF
:102FE0005C016B01822EDC0115968C91882309F01F
:102FF000D2C0CA018E010F5F1F4FB8010E9440115D
:10300000882309F4C8C0F601838D948DD5015C96A0
:103010009C938E935B971682178210861186D60139
:103020001A961D921D921D921C921D97992438018B
:1030300041C0C6010E947D14FC01009709F4ABC099
:1030400085E016950795F794E7948A95D1F71E2D9C
:103050001F708081882311F0853ED1F4992091F46E
:10306000D50152961C9352972091AA033091AB033D
:103070004091AC035091AD031E962D933D934D931B
:103080005C9351978081882399F49924939421C06B
:10309000C301BF014BE050E00E949E00009751F435
:1030A000882D8073803309F476C0C501612F6FC00D
:1030B00099249394F601E284F38404851585838929
:1030C0009489A589B689E816F9060A071B0708F44A
:1030D000B0CF882D8271823109F05DC0992041F016
:1030E000C50161E00E942A128C01009789F453C047
:1030F000D60115968C91823009F44DC0C6010E940C
:103100007617882309F447C0F501128A0EE814E007
:1031100080E2D8011D928A95E9F7D801FE01319627
:103120008BE001900D928150E1F7E0918C04F091D9
:103130008D04309739F0B801625F7F4FC801409627
:10314000099509C081E298E2F801918B808B80E0BB
:1031500098E097878687D80150968D919C915197DA
:1031600053969C938E93529759969C938E9358970F
:103170001E968D919C911F9757969C938E93569770
:103180000E94E118882339F0C501F5016289482DB4
:103190000E94181501C080E02B960FB6F894DEBF90
:1031A0000FBECDBFCF91DF911F910F91FF90EF9098
:1031B000DF90CF90BF90AF909F908F907F906F9057
:1031C000089580919006882399F14091AA03509127
:1031D000AB036091AC037091AD0380918E0690912A
:1031E0008F062EE834E00E94630F882319F1409186
:1031F0009106509192066091930670919406411544
:1032000051056105710591F080918E0690918F06B0
:103210002EE834E00E94630F882361F0109291063B
:1032200010929206109293061092940610929006B5
:1032300081E0089580E00895EF92FF920F931F932D
:103240007B018C010E94E1188823A9F0EEE8F4E0EC
:10325000119286E0EE38F807D9F7E092AA03F092CF
:10326000AB030093AC031093AD0380919006816093
:103270008093900681E01F910F91FF90EF90089549
:10328000DF92EF92FF920F931F937B018C01D42E5C
:103290008091AA039091AB03A091AC03B091AD03D0
:1032A0008E159F05A007B107C1F00E94E118882381
:1032B000D9F080918E0690918F06B801A7012EE873
:1032C00034E00E945D10882379F0E092AA03F09226
:1032D000AB030093AC031093AD03809190068D294E
:1032E0008093900681E001C080E01F910F91FF90D4
:1032F000EF90DF9008958F929F92AF92BF92CF92FE
:10330000DF92EF92FF920F931F93CF93DF936C01A5
:10331000142F70938F0660938E06442321F4882423
:103320009924540140C0453008F01CC160E070E0B1
:1033300080E090E040E00E944019882309F412C127
:10334000C12FD0E02197FE0174E0EE0FFF1F7A95A8
:10335000E1F7E257FB4FE254FE4F8081EE5BF14014
:1033600090E08F779070892B09F0FCC0E653FE4FF8
:1033700080819181A281B38184369105A105B10537
:1033800008F4F0C064E0CC0FDD1F6A95E1F7CC5A79
:10339000D94F88809980AA80BB8081149104A104B0
:1033A000B10409F4DFC0C501B40140E00E94401936
:1033B000882309F4D7C08091990490919A04805091
:1033C000924009F0CFC020919E04222309F4CAC084
:1033D00080919C0490919D04892B09F4C3C0809135
:1033E0009B04882309F4BEC0F601228B80919B04C4
:1033F0008483158661E070E007C04F5FF601458762
:103400004150483008F0AEC0F6014585848190E017
:103410009B01042E02C0220F331F0A94E2F7821789
:10342000930759F72091A4043091A5042115310583
:1034300019F040E050E008C02091B2043091B3048C
:103440004091B4045091B504F60125833683478337
:103450005087E0909C04F0909D0400E010E0E80CA0
:10346000F91C0A1D1B1DE38AF48A058B168B8091BB
:103470009F049091A004918F808F60919E0470E0D2
:1034800080E090E00E94D62A6E0D7F1D801F911F64
:10349000F601628F738F848F958F20919F043091F6
:1034A000A00455E0220F331F5A95E1F721503E4FFB
:1034B000232F3327269540E050E0260F371F481F63
:1034C000591F26873787408B518B8091A10490919B
:1034D000A204009719F0A0E0B0E008C08091AE040B
:1034E0009091AF04A091B004B091B1048501740132
:1034F000E21AF30A040B150BA8019701280F391FD4
:103500004A1F5B1FF601058404C056954795379501
:1035100027950A94D2F72187328743875487253F1E
:10352000FFE03F07F0E04F07F0E05F0710F48CE0AA
:1035300006C0255F3F4F4040504028F480E1F6012F
:10354000878B81E010C08091BA049091BB04A09158
:10355000BC04B091BD04F601828F938FA48FB58F08
:1035600080E2EECF80E0DF91CF911F910F91FF902D
:10357000EF90DF90CF90BF90AF909F908F90089585
:103580004F925F926F927F928F929F92AF92BF9273
:10359000CF92DF92EF92FF920F931F93CF93DF931F
:1035A000EC016A017B0128013901423051056105B6
:1035B000710508F46FC089859A85AB85BC85019635
:1035C000A11DB11D84179507A607B70708F462C0AF
:1035D0002B893C894D895E898F89803129F499270F
:1035E0008F2D7E2D6D2D09C0C701B60117E0969570
:1035F0008795779567951A95D1F74B015C01820EF7
:10360000931EA41EB51E8091AA039091AB03A091B6
:10361000AC03B091AD0388169906AA06BB0639F033
:10362000C501B40140E00E944019882399F18F89B7
:10363000803149F4F601F070EE0FFF1FE257FB4FA7
:10364000518240820DC0F601EF77F070EE0FFF1F40
:10365000EE0FFF1FE257FB4F40825182628273825E
:10366000809190068160809390068A89823080F0F4
:103670008D819E81AF81B885880E991EAA1EBB1EC2
:103680008092910690929206A0929306B092940630
:1036900081E001C080E0DF91CF911F910F91FF90F9
:1036A000EF90DF90CF90BF90AF909F908F907F90E2
:1036B0006F905F904F900895CF92DF92EF92FF92BC
:1036C0000F931F93CF93DF93EC017A018B01690174
:1036D00089859A85AB85BC850196A11DB11D84178E
:1036E0009507A607B70708F450C02B893C894D8978
:1036F0005E898F89803129F49927812F702F6F2D52
:1037000009C0C801B701E7E0969587957795679559
:10371000EA95D1F7260F371F481F591F8091AA033A
:103720009091AB03A091AC03B091AD03281739077A
:103730004A075B0739F0CA01B90140E00E9440190D
:10374000882319F18F89803159F4F701F070EE0F59
:10375000FF1FE257FB4F80819181A0E0B0E00EC0D7
:10376000F701EF77F070EE0FFF1FEE0FFF1FE2572C
:10377000FB4F80819181A281B381BF70F60180836C
:103780009183A283B38381E001C080E0DF91CF9178
:103790001F910F91FF90EF90DF90CF900895AF921F
:1037A000BF92CF92DF92EF92FF920F931F93DF931E
:1037B000CF9300D000D0CDB7DEB76C017A018B017A
:1037C00082E090E0A0E0B0E0F60180839183A283E4
:1037D000B3835E010894A11CB11CC601B801A70106
:1037E00095010E945C1B882319F1C601B801A7014D
:1037F00000E010E020E030E00E94C01A8823C1F011
:10380000E980FA800B811C81F6018789803129F0DB
:1038100088EF9FEFAFEFBFE004C088EF9FEFA0E01D
:10382000B0E0E816F9060A071B07B8F281E001C00C
:1038300080E00F900F900F900F90CF91DF911F912C
:103840000F91FF90EF90DF90CF90BF90AF900895D1
:103850004F925F926F927F928F929F92AF92BF92A0
:10386000CF92DF92EF92FF920F931F93DF93CF934C
:1038700000D000D0CDB7DEB76C0149835A836B838B
:103880007C833901EE24FF2487012E010894411C1A
:10389000511C812CA2E09A2EA12CB12C49815A8175
:1038A0006B817C81C60192010E945C1B882351F1CF
:1038B000D501C401F601058404C0880F991FAA1F11
:1038C000BB1F0A94D2F7E80EF91E0A1F1B1F29819D
:1038D0003A814B815C818789803129F088EF9FEFA5
:1038E000AFEFBFE004C088EF9FEFA0E0B0E0281783
:1038F00039074A075B0790F2F301E082F182028305
:10390000138381E00F900F900F900F90CF91DF9174
:103910001F910F91FF90EF90DF90CF90BF90AF90ED
:103920009F908F907F906F905F904F9008952F920F
:103930003F924F925F926F927F928F929F92AF923F
:10394000BF92CF92DF92EF92FF920F931F93DF937C
:10395000CF93CDB7DEB72F970FB6F894DEBF0FBE6B
:10396000CDBF1C014A875B876C877D873F872E8789
:10397000D9010D911D912D913C9101151105210544
:10398000310549F0480159010894811C911CA11C82
:10399000B11C198610C0FC0180809180A280B38088
:1039A00019868A859B85AC85BD850197A105B105E2
:1039B00011F491E09987D10119968D919D910D9007
:1039C000BC91A02D0196A11DB11D8D839E83AF8357
:1039D000B887750164014424552432018E010F5FBC
:1039E0001F4FF10181859285A385B485481659063C
:1039F0006A067B0608F090C08D819E81AF81B885F4
:103A00008C159D05AE05BF0550F482E0882E912CE3
:103A1000A12CB12CB2E0CB2ED12CE12CF12CC10188
:103A2000B701A60198010E945C1B882309F474C0A9
:103A300089819A81AB81BC81A70196012F5F3F4F9D
:103A40004F4F5F4F0097A105B10519F049015A0189
:103A50000DC0281939094A095B098A859B85AC85FF
:103A6000BD85281739074A075B0759F00894411CA0
:103A7000511C611C711C0894C11CD11CE11CF11C5F
:103A8000B0CFC101A601B7010FEF1FEF2FEF3FE04D
:103A90000E94C01A882399F43FC026013701089478
:103AA0004108510861087108C101B301A2019701E1
:103AB00086010E94C01A882379F1730162018C1477
:103AC0009D04AE04BF0448F3AE85BF854D915D9162
:103AD0006D917C91411551056105710539F0C10168
:103AE000950184010E94C01A8823B1F0EE85FF85FC
:103AF00080829182A282B382F985FF2359F00894D3
:103B0000811C911CA11CB11CD1018D929D92AD9282
:103B1000BC92139781E001C080E02F960FB6F89415
:103B2000DEBF0FBECDBFCF91DF911F910F91FF90F0
:103B3000EF90DF90CF90BF90AF909F908F907F904D
:103B40006F905F904F903F902F90089581E0809309
:103B5000DA066093B7061092D8061092D906089537
:103B60002091B60630E08091B506281B3109C901C5
:103B700008954091B5068091B606481718F02FEFCA
:103B80003FEF0AC0E42FF0E0EB56F94F8081282F79
:103B900030E04F5F4093B506C9010895E091B50646
:103BA0008091B606E81718F0EFEFFFEF06C0F0E0DF
:103BB000EB56F94F8081E82FF0E0CF01089508958A
:103BC0001092DE061092DD0688EE93E0A0E0B0E0F1
:103BD0008093DF069093E006A093E106B093E2069F
:103BE00081ED93E09093DC068093DB060895CF92FD
:103BF000DF92EF92FF920F931F93CF93DF937C019D
:103C00006B018A018091DA068823A1F0C0E0D0E040
:103C10000DC0D701ED91FC91D601AC0FBD1F0190F5
:103C2000F081E02DC7016C9109952196C017D1074D
:103C300080F304C0CB01642F0E94291FC801DF91CB
:103C4000CF911F910F91FF90EF90DF90CF9008954B
:103C5000DF93CF930F92CDB7DEB7FC0169838091DC
:103C6000DA068823C9F08091D906803238F081E0E5
:103C700090E09383828320E030E015C08091D806E5
:103C8000E82FF0E0E854F94F998190838F5F80939B
:103C9000D8068093D90605C0CE01019661E00E9446
:103CA000291F21E030E0C9010F90CF91DF910895E5
:103CB0000F93062F8091B70668EB76E04091D90606
:103CC00021E00E94D41E1092D8061092D9061092BC
:103CD000DA060F91089561E00E94581E089541325E
:103CE00008F040E2862F65E976E00E948B1E109274
:103CF000B5068093B606089521E00E946F1E0895D0
:103D00001092B5061092B6061092D8061092D906F7
:103D10000E94D5200895382F413210F040E042C073
:103D20008091E7068823E1F791E09093E7062093DE
:103D3000E9068FEF8093540710920F07415040938C
:103D400010074F5F9093E8068091E806330F832BAE
:103D50008093E8068091EA06813041F41092EA06E9
:103D60008091E8068093BB0085EC01C085EE8093CE
:103D7000BC008091E7068130E1F380910F07841742
:103D800010F440910F0720E030E00AC0FB01E20F81
:103D9000F31FD901A151B94F8C9180832F5F3F4F01
:103DA0002417A0F3842F08950F931F93582F122FD9
:103DB000413210F081E04AC08091E7068823E1F7A4
:103DC00082E08093E7060093E9068FEF8093540723
:103DD00010920F0740931007AFEEB6E0FB0102C050
:103DE00081918D938E2F861B8417D0F31092E80655
:103DF0008091E806550F852B8093E8068091EA06AE
:103E0000813041F41092EA068091E8068093BB006D
:103E100085EC01C085EE8093BC00112321F08091D8
:103E2000E7068230E1F3809154078F3F11F480E080
:103E30000DC080915407803211F482E007C0809158
:103E40005407803311F084E001C083E01F910F918B
:103E50000895482F613210F081E008958091E706BF
:103E6000843011F082E0089560933207A1E1B7E059
:103E7000842F9C01F90102C081918D938E2F841BA8
:103E80008617D0F380E008951F920F920FB60F921D
:103E900011242F933F934F935F936F937F938F934F
:103EA0009F93AF93BF93EF93FF938091B90090E0FE
:103EB000887F90708036910509F4F2C081369105B3
:103EC000CCF58832910509F47BC089329105B4F4B0
:103ED0008031910509F46FC0813191053CF4009760
:103EE00009F447C1089709F04FC165C088319105B1
:103EF00009F466C0809709F047C182C080349105FB
:103F000009F4A4C08134910544F48033910509F487
:103F100082C0C89709F038C189C08035910509F47D
:103F200089C08835910509F496C08834910509F057
:103F30002BC1AEC08839910509F413C189399105A7
:103F4000ECF48837910509F4ABC0893791054CF43E
:103F50008836910509F4A4C08037910509F014C191
:103F60009FC08838910509F4FCC08039910509F497
:103F70009DC08038910509F007C198C0803B91052C
:103F800009F4C6C0813B91054CF4803A910509F4CF
:103F90009FC0883A910509F0F7C0BAC0803C9105EE
:103FA00009F4E3C0883C910509F4DFC0883B910522
:103FB00009F0EAC0C2C08091E8068093BB00CFC080
:103FC00090910F0780911007981768F490910F0750
:103FD000E92FF0E0E151F94F80818093BB009F5FB2
:103FE00090930F07BCC08091E906882309F44BC069
:103FF00085ED8093BC008091BC0084FDFCCFC2C0E5
:1040000080E28093540785ED8093BC008091BC00D2
:1040100084FDFCCFB7C080E38093540785ED809387
:10402000BC008091BC0084FDFCCFACC088E38093D1
:1040300054079BC080910F079091BB00E82FF0E0E0
:10404000E151F94F90838F5F80930F0790910F0795
:104050008091100782C080910F079091BB00E82FDC
:10406000F0E0E151F94F90838F5F80930F078091CB
:10407000E906882341F085ED8093BC008091BC0067
:1040800084FDFCCF7FC081E08093EA0684EA6EC0A5
:1040900085ED8093BC008091BC0084FDFCCF72C094
:1040A00083E08093E7061092530759C0809153072D
:1040B000803208F056C0809153079091BB00E82FE2
:1040C000F0E0ED5CF84F90838F5F8093530747C01B
:1040D00080915307803230F4E0915307F0E0ED5CBB
:1040E000F84F108285ED8093BC008091BC0084FD68
:1040F000FCCF1092E70660915307E091ED06F09136
:10410000EE0683E397E070E00995109253072DC007
:1041100084E08093E7061092310710923207E09115
:10412000EB06F091EC06099580913207882329F47B
:1041300081E0809332071092110790913107E92FA7
:10414000F0E0EF5EF84F80818093BB009F5F90931B
:1041500031079091310780913207981710F485EC60
:1041600001C085E88093BC000FC085EC8093BC0043
:1041700009C01092540785ED8093BC008091BC006B
:1041800084FDFCCF1092E706FF91EF91BF91AF91B4
:104190009F918F917F916F915F914F913F912F915F
:1041A0000F900FBE0F901F9018951092E70681E0B8
:1041B0008093E9061092EA0682E161E00E947D2385
:1041C00083E161E00E947D23E9EBF0E080818E7F56
:1041D000808380818D7F808388E48093B80085E42C
:1041E0008093BC0008950F931F93CF93DF93BC017E
:1041F0008230910510F462E070E0E0910A08F091DD
:104200000B08A0E0B0E040E050E024C08081918144
:1042100086179707D0F08617970771F482819381EC
:10422000109729F013969C938E9312972CC090931D
:104230000B0880930A0827C04115510519F084170F
:10424000950718F4EF018D01AC01DF0182819381A4
:104250009C01F9013097D1F641155105F9F0CA01D9
:10426000861B970B8430910580F48A819B81011510
:10427000110521F0F8019383828304C090930B0809
:1042800080930A08FE01329645C0FE01E80FF91F2F
:10429000619371930297998388833CC08091080849
:1042A00090910908892B41F48091B0039091B1035A
:1042B00090930908809308084091B2035091B3038A
:1042C0004115510541F44DB75EB78091AE03909111
:1042D000AF03481B590B2091080830910908241797
:1042E0003507B0F4CA01821B930B8617970780F03D
:1042F000AB014E5F5F4F8417950750F0420F531F7D
:104300005093090840930808F9016193719302C022
:10431000E0E0F0E0CF01DF91CF911F910F91089580
:10432000CF93DF939C01009709F48FC0EC01229793
:104330001B821A8260910A0870910B086115710541
:1043400081F488819981820F931F20910808309110
:1043500009082817390739F5D0930908C0930808C8
:1043600074C0DB0140E050E0AC17BD0708F1BB832F
:10437000AA83FE0121913191E20FF31FAE17BF070F
:1043800079F48D919C911197280F391F2E5F3F4F23
:104390003983288312968D919C9113979B838A83EE
:1043A0004115510571F4D0930B08C0930A084DC014
:1043B00012968D919C911397AD01009711F0DC013D
:1043C000D3CFDA011396DC93CE931297FA012191A1
:1043D0003191E20FF31FCE17DF0769F488819981CD
:1043E000280F391F2E5F3F4FFA01318320838A81C6
:1043F0009B8193838283E0E0F0E0DB0112968D9154
:104400009C911397009719F0BC01FD01F6CFAB0109
:104410004E5F5F4FDB018D919C91840F951F209122
:104420000808309109082817390779F4309729F4DA
:1044300010920B0810920A0802C013821282425096
:1044400050405093090840930808DF91CF91089598
:104450001F920F920FB60F9211242F933F938F93B9
:104460009F93AF93BF938091590790915A07A09162
:104470005B07B0915C0730915D070196A11DB11DEE
:10448000232F2D5F2D3720F02D570196A11DB11D33
:1044900020935D078093590790935A07A0935B0779
:1044A000B0935C078091550790915607A0915707EC
:1044B000B09158070196A11DB11D809355079093A7
:1044C0005607A0935707B0935807BF91AF919F919C
:1044D0008F913F912F910F900FBE0F901F901895C5
:1044E0008FB7F8942091590730915A0740915B0794
:1044F00050915C078FBFB901CA0108959B01AC01BF
:104500007FB7F8948091550790915607A09157076F
:10451000B091580766B5A89B05C06F3F19F001968A
:10452000A11DB11D7FBFBA2FA92F982F8827860FF5
:10453000911DA11DB11D62E0880F991FAA1FBB1F0D
:104540006A95D1F7BC012DC0FFB7F894809155074B
:1045500090915607A0915707B0915807E6B5A89BD0
:1045600005C0EF3F19F00196A11DB11DFFBFBA2F85
:10457000A92F982F88278E0F911DA11DB11DE2E054
:10458000880F991FAA1FBB1FEA95D1F7861B970BAF
:10459000885E9340C8F221503040404050406851FE
:1045A0007C4F211531054105510571F6089501979C
:1045B00039F0880F991F880F991F02970197F1F71B
:1045C0000895789484B5826084BD84B5816084BD8B
:1045D00085B5826085BD85B5816085BDEEE6F0E07C
:1045E000808181608083E1E8F0E0108280818260D8
:1045F0008083808181608083E0E8F0E08081816059
:104600008083E1EBF0E0808184608083E0EBF0E088
:10461000808181608083EAE7F0E08081846080832C
:1046200080818260808380818160808380818068D6
:1046300080831092C1000895982F8E3008F09E500C
:1046400097708091B4038295880F880F807C892BA6
:1046500080937C0080917A00806480937A008091BE
:104660007A0086FDFCCF2091780040917900942F4C
:1046700080E030E0282B392BC9010895CF93DF93D8
:10468000482F50E0CA018A549F4FFC0134914E5587
:104690005F4FFA018491882369F190E0880F991F98
:1046A000FC01EC57FF4FA591B491FC01E257FF4F7D
:1046B000C591D491662351F42FB7F8948C91932F20
:1046C000909589238C93888189230BC0623061F493
:1046D0002FB7F8948C91932F909589238C93888190
:1046E000832B88832FBF06C09FB7F8948C91832BB0
:1046F0008C939FBFDF91CF910895482F50E0CA015E
:1047000086539F4FFC012491CA018A549F4FFC019C
:1047100094914E555F4FFA013491332309F440C010
:10472000222351F1233071F0243028F42130A1F0FC
:10473000223011F514C02630B1F02730C1F02430FA
:10474000D9F404C0809180008F7703C080918000ED
:104750008F7D8093800010C084B58F7702C084B5B0
:104760008F7D84BD09C08091B0008F7703C0809198
:10477000B0008F7D8093B000E32FF0E0EE0FFF1FBD
:10478000E257FF4FA591B4912FB7F894662321F417
:104790008C919095892302C08C91892B8C932FBF8B
:1047A0000895682F70E0CB0186539F4FFC01249140
:1047B000CB018A549F4FFC0144916E557F4FFB0102
:1047C0009491992319F420E030E03CC0222351F168
:1047D000233071F0243028F42130A1F0223011F57B
:1047E00014C02630B1F02730C1F02430D9F404C011
:1047F000809180008F7703C0809180008F7D8093AF
:10480000800010C084B58F7702C084B58F7D84BDD1
:1048100009C08091B0008F7703C08091B0008F7D78
:104820008093B000892F90E0880F991F88569F4F82
:10483000FC01A591B4918C9120E030E0842311F02B
:1048400021E030E0C901089508951F920F920FB63C
:104850000F9211242F933F934F938F939F93EF9336
:10486000FF938091C00082FD1DC04091C600209141
:104870009E0730919F072F5F3F4F2F7330708091BD
:10488000A0079091A1072817390771F0E0919E07C2
:10489000F0919F07E25AF84F408330939F0720938F
:1048A0009E0702C08091C600FF91EF919F918F916A
:1048B0004F913F912F910F900FBE0F901F90189521
:1048C000E091F207F091F307E05CFF4F8191919145
:1048D00020813181821B930B8F739070892B11F093
:1048E0000E94242408951F920F920FB60F92112454
:1048F0002F933F938F939F93EF93FF932091E20722
:104900003091E3078091E4079091E5072817390774
:1049100031F48091C1008F7D8093C10014C0E0917B
:10492000E407F091E507EE55F84F20818091E40708
:104930009091E50701968F7390709093E5078093AF
:10494000E4072093C600FF91EF919F918F913F91D3
:104950002F910F900FBE0F901F901895AF92BF929E
:10496000DF92EF92FF920F931F93CF93DF93EC01AF
:104970007A018B01DD24403081EE580780E0680722
:1049800080E0780711F0DD24D39491E0A92EB12CBA
:10499000EC89FD89DD2069F0C50108A002C0880FFF
:1049A000991F0A94E2F7808360E079E08DE390E05C
:1049B00005C0108260E874E88EE190E0A8019701DC
:1049C0000E94F52A2150304040405040569547956E
:1049D0003795279580E12030380720F0DD2011F051
:1049E000DD24D6CFE889F9893083EA89FB892083E1
:1049F00019A2EE89FF89408121E030E0C9010C8CC9
:104A000002C0880F991F0A94E2F7482B4083EE8971
:104A1000FF894081C9010D8C02C0880F991F0A943B
:104A2000E2F7482B4083EE89FF894081C9010E8C53
:104A300002C0880F991F0A94E2F7482B4083EE8941
:104A4000FF8980810F8C02C0220F331F0A94E2F786
:104A5000209528232083DF91CF911F910F91FF9004
:104A6000EF90DF90BF90AF900895DC011C96ED9120
:104A7000FC911D97E05CFF4F2191319180819181E4
:104A8000281B390B2F733070C9010895DC011C9667
:104A9000ED91FC911D97E05CFF4F20813181E05446
:104AA000F040DF01AE5BBF4F8D919C9111972817AD
:104AB000390719F42FEF3FEF07C08D919C91E80F54
:104AC000F91F8081282F30E0C9010895DC011C9670
:104AD000ED91FC911D97E05CFF4F20813181E05406
:104AE000F040DF01AE5BBF4F8D919C91119728176D
:104AF000390719F42FEF3FEF10C08D919C9111975A
:104B0000E80FF91F20818D919C91119701968F7369
:104B1000907011969C938E9330E0C9010895DC014A
:104B200091968C919197882339F05496ED91FC9150
:104B30005597808186FFF9CF91961C920895CF9367
:104B4000DF93EC01EE85FF85E05CFF4F2081318132
:104B5000E054F0402F5F3F4F2F733070DF01AE5BAA
:104B6000BF4F8D919C91119728173907D1F3E05CC5
:104B7000FF4F80819181E054F040E80FF91F60837E
:104B8000EE85FF85E05CFF4F31832083EE89FF894E
:104B9000208181E090E00F8C02C0880F991F0A9459
:104BA000E2F7282B208381E089A3EC89FD898081AD
:104BB0008064808381E090E0DF91CF91089510922E
:104BC000E9071092E80788EE93E0A0E0B0E0809358
:104BD000EA079093EB07A093EC07B093ED0781EE03
:104BE00093E09093E7078093E6078EE597E0909334
:104BF000F3078093F20782EA97E09093F50780939A
:104C0000F40785EC90E09093F7078093F60784EC27
:104C100090E09093F9078093F80780EC90E09093F0
:104C2000FB078093FA0781EC90E09093FD07809357
:104C3000FC0782EC90E09093FF078093FE0786ECE0
:104C400090E0909301088093000884E0809302082C
:104C500083E08093030887E08093040885E08093D5
:104C6000050881E0809306080895CF93DF930E94A2
:104C7000E1220E94BE08C0E6D4E20E9426082097E6
:104C8000E1F30E946024F9CFCF92DF92EF92FF927E
:104C90000F931F93CF93DF937C016B018A01C0E0D8
:104CA000D0E00FC0D6016D916D01D701ED91FC915F
:104CB0000190F081E02DC7010995C80FD91F01505F
:104CC00010400115110571F7CE01DF91CF911F91B1
:104CD0000F91FF90EF90DF90CF900895DC01ED9160
:104CE000FC910190F081E02D09950895EF92FF92DB
:104CF0000F931F938C01DC01ED91FC910190F081E9
:104D0000E02D6DE009957C01D801ED91FC910190B9
:104D1000F081E02DC8016AE009959C012E0D3F1D30
:104D2000C9011F910F91FF90EF900895CF93DF93EA
:104D3000EC016115710519F420E030E00FC0DB01D2
:104D40000D900020E9F71197A61BB70BE881F981B8
:104D50000280F381E02DAD0109959C01C901DF912D
:104D6000CF9108954F925F927F928F929F92AF92D0
:104D7000BF92CF92DF92EF92FF920F931F93DF9338
:104D8000CF93CDB7DEB7A1970FB6F894DEBF0FBEB5
:104D9000CDBF2C01742ECB01223008F42AE019A2D9
:104DA00031E2C32ED12CCC0EDD1E822E9924AA24F2
:104DB000BB24672D752FA50194010E94F52A790166
:104DC0008A01C801B701A50194010E94D62A472D86
:104DD000461B0894C108D1084A3014F4405D01C054
:104DE000495CF6014083E114F1040105110521F04D
:104DF0007E2C5F2DC801DDCFC201B6010E94962630
:104E0000A1960FB6F894DEBF0FBECDBFCF91DF9154
:104E10001F910F91FF90EF90DF90CF90BF90AF90D8
:104E20009F908F907F905F904F900895DC012115A7
:104E3000310541F4ED91FC910190F081E02D642F5A
:104E4000099508950E94B2260895EF92FF920F935C
:104E50001F939A017B0100E010E0B801A7010E94B6
:104E600016271F910F91FF90EF900895EF92FF92F8
:104E70000F931F939A01E62EFF2400E010E0B80183
:104E8000A7010E9416271F910F91FF90EF900895A0
:104E9000CF92DF92EF92FF920F931F93CF93DF9306
:104EA000EC016A017B012115310541F4E881F981AA
:104EB0000190F081E02D642F09951FC02A30310543
:104EC000D1F477FF17C0E881F9810190F081E02DDE
:104ED0006DE209958C0144275527BA014C195D09EB
:104EE0006E097F09CE012AE00E94B2269801280FA0
:104EF000391F04C02AE00E94B2269C01C901DF913B
:104F0000CF911F910F91FF90EF90DF90CF90089578
:104F1000CF92DF92EF92FF920F931F936C017B0170
:104F20009A010027F7FC0095102FB801A7010E94F5
:104F300048278C01C6010E947626080F191FC80158
:104F40001F910F91FF90EF90DF90CF9008950E94F6
:104F5000962608957F928F929F92AF92BF92CF92A2
:104F6000DF92EF92FF920F931F93CF93DF934C0149
:104F70007A018B01722ECB01BA01A80197010E9420
:104F8000D22A882321F0C4016CE773E021C0C0E07D
:104F9000D0E057016801E894D7F8C601B5012FEFBA
:104FA0003FEF4FE75FE70E94D22A882351F4C60102
:104FB000B5012FEF3FEF4FE75FE70E941C2918165E
:104FC00014F0C1E0D0E0219739F0C40160E873E04B
:104FD0000E949626EC0193C0C801B7012FEF3FEF66
:104FE0004FE75FE40E946B2A181654F0C801B7011E
:104FF0002FEF3FEF4FE75FEC0E941C29882324F43A
:10500000C40164E873E0E4CFC801B70120E030E0F8
:1050100040E050E00E941C2987FD03C0C0E0D0E0C2
:105020000EC0D401ED91FC910190F081E02DC401FE
:105030006DE20995EC0117FB109517F9109520E02A
:1050400030E040E05FE3DD240BC0CA01B90120E09D
:1050500030E040E251E40E9420299B01AC01D3944E
:10506000D71498F3C801B7010E94B8285B016C01FE
:105070000E948D297B018C01C401B801A7012AE09F
:1050800030E00E941627C80FD91F772039F0C401DD
:1050900068E873E00E949626C80FD91FC801B701BF
:1050A0000E94B9299B01AC01C601B5010E94B72835
:1050B00024C020E030E040E251E40E946F2A7B01EE
:1050C0008C010E9488295B016C01CC24B7FCC09440
:1050D000DC2CC401B601A5012AE030E00E9448277B
:1050E000C80FD91FC601B5010E94BB299B01AC01A5
:1050F000C801B7010E94B7287A947720D1F6CE0173
:10510000DF91CF911F910F91FF90EF90DF90CF90A3
:10511000BF90AF909F908F907F9008950E94AA2794
:105120000895EF92FF920F931F937C010E94AA278C
:105130008C01C7010E947626080F191FC8011F9114
:105140000F91FF90EF900895EF92FF920F931F93AE
:105150007C010E9496268C01C7010E947626080FCA
:10516000191FC8011F910F91FF90EF90089550589B
:10517000BB27AA270ED075C166D130F06BD120F0C5
:1051800031F49F3F11F41EF45BC10EF4E095E7FB90
:1051900051C1E92F77D180F3BA17620773078407EB
:1051A000950718F071F49EF58FC10EF4E0950B2E63
:1051B000BA2FA02D0B01B90190010C01CA01A00169
:1051C0001124FF27591B99F0593F50F4503E68F1C4
:1051D0001A16F040A22F232F342F4427585FF3CF05
:1051E000469537952795A795F0405395C9F77EF4D6
:1051F0001F16BA0B620B730B840BBAF09150A1F01F
:10520000FF0FBB1F661F771F881FC2F70EC0BA0FA4
:10521000621F731F841F48F4879577956795B7952C
:10522000F7959E3F08F0B3CF9395880F08F0992724
:10523000EE0F979587950895D9D008F481E00895E9
:105240000CD00FC107D140F0FED030F021F45F3F09
:1052500019F0F0C0511139C1F3C014D198F399235A
:10526000C9F35523B1F3951B550BBB27AA2762172A
:105270007307840738F09F5F5F4F220F331F441F6F
:10528000AA1FA9F333D00E2E3AF0E0E830D09150A7
:105290005040E695001CCAF729D0FE2F27D0660F94
:1052A000771F881FBB1F261737074807AB07B0E8D3
:1052B00009F0BB0B802DBF01FF2793585F4F2AF0E9
:1052C0009E3F510568F0B6C000C15F3FECF3983EC9
:1052D000DCF3869577956795B795F7959F5FC9F746
:1052E000880F911D9695879597F90895E1E0660FCF
:1052F000771F881FBB1F621773078407BA0720F048
:10530000621B730B840BBA0BEE1F88F7E0950895B0
:1053100004D06894B111D9C00895BCD088F09F57CB
:1053200090F0B92F9927B751A0F0D1F0660F771FF1
:10533000881F991F1AF0BA95C9F712C0B13081F0D1
:10534000C3D0B1E00895C0C0672F782F8827B85F19
:1053500039F0B93FCCF3869577956795B395D9F732
:105360003EF490958095709561957F4F8F4F9F4F3C
:105370000895E89409C097FB3EF490958095709548
:1053800061957F4F8F4F9F4F9923A9F0F92F96E991
:10539000BB279395F695879577956795B795F11106
:1053A000F8CFFAF4BB0F11F460FF1BC06F5F7F4FA3
:1053B0008F4F9F4F16C0882311F096E911C07723B5
:1053C00021F09EE8872F762F05C0662371F096E8BE
:1053D000862F70E060E02AF09A95660F771F881F8D
:1053E000DAF7880F9695879597F90895990F000831
:1053F000550FAA0BE0E8FEEF16161706E807F907A7
:10540000C0F012161306E407F50798F0621B730B41
:10541000840B950B39F40A2661F0232B242B252BC2
:1054200021F408950A2609F4A140A6958FEF811D65
:10543000811D089597F99F6780E870E060E0089506
:105440009FEF80EC089500240A941616170618069C
:105450000906089500240A94121613061406050678
:105460000895092E0394000C11F4882352F0BB0F09
:1054700040F4BF2B11F460FF04C06F5F7F4F8F4F6C
:105480009F4F089557FD9058440F551F59F05F3FA7
:1054900071F04795880F97FB991F61F09F3F79F056
:1054A00087950895121613061406551FF2CF4695D8
:1054B000F1DF08C0161617061806991FF1CF86955A
:1054C0007105610508940895E894BB27662777273E
:1054D000CB0197F908958ADF08F48FEF08950BD078
:1054E000C0CFB1DF28F0B6DF18F0952309F0A2CFC6
:1054F000A7CF1124EACFC6DFA0F3959FD1F3950F74
:1055000050E0551F629FF001729FBB27F00DB11D47
:10551000639FAA27F00DB11DAA1F649F6627B00DD7
:10552000A11D661F829F2227B00DA11D621F739FC0
:10553000B00DA11D621F839FA00D611D221F749FCE
:105540003327A00D611D231F849F600D211D822F15
:10555000762F6A2F11249F5750408AF0E1F088235C
:105560004AF0EE0FFF1FBB1F661F771F881F915069
:105570005040A9F79E3F510570F05CCFA6CF5F3F2A
:10558000ECF3983EDCF3869577956795B795F7959C
:10559000E7959F5FC1F7FE2B880F911D9695879524
:1055A00097F9089523DF880B990B0895629FD00126
:1055B000739FF001829FE00DF11D649FE00DF11DCE
:1055C000929FF00D839FF00D749FF00D659FF00D7D
:1055D0009927729FB00DE11DF91F639FB00DE11D6A
:1055E000F91FBD01CF0111240895A1E21A2EAA1BB3
:1055F000BB1BFD010DC0AA1FBB1FEE1FFF1FA21783
:10560000B307E407F50720F0A21BB30BE40BF50B7F
:10561000661F771F881F991F1A9469F76095709508
:10562000809590959B01AC01BD01CF010895EE0FCF
:10563000FF1F0590F491E02D09942F923F924F9215
:105640005F926F927F928F929F92AF92BF92CF9212
:10565000DF92EF92FF920F931F93CF93DF93CDB71B
:10566000DEB7CA1BDB0B0FB6F894DEBF0FBECDBF93
:1056700009942A88398848885F846E847D848C8464
:105680009B84AA84B984C884DF80EE80FD800C816D
:105690001B81AA81B981CE0FD11D0FB6F894DEBF50
:0C56A0000FBECDBFED010895F894FFCFC0
:1056AC004C6971756964206C6576656C203D2000D1
:1056BC00646174616C6F672E637376002C200065D7
:1056CC0072726F72206F70656E696E6720646174A0
:1056DC00616C6F672E63737600496E697469616CD7
:1056EC00697A696E6720534420636172642E2E2E92
:1056FC000043617264204661696C65642C206F7292
:10570C00206E6F742070726573656E7400636172C5
:10571C006420696E697469616C697A65642E004CE9
:10572C0069676874206C6576656C203D2000536C4D
:10573C006F706520666F756E64203D200046756C39
:10574C006C2043616C6962726174696F6E20566182
:10575C006C7565203D2000456D7074792043616C3B
:10576C006962726174696F6E2056616C7565203D5B
:10577C0020004C75636874766F636874696768653C
:10578C006964203D20002520200054656D706572F1
:10579C006174757572203D2000202A43202000453D
:1057AC0072726F7220313A204448542073746172C3
:1057BC007420636F6E646974696F6E2031206E6F34
:1057CC0074206D65742E004572726F7220323A200F
:1057DC0044485420737461727420636F6E646974EE
:1057EC00696F6E2032206E6F74206D65742E0045CB
:1057FC0072726F7220333A20444854206368656398
:10580C006B73756D206572726F722E004572726FBC
:10581C00723A20556E7265636F676E697A656420A3
:10582C00636F646520656E636F756E746572656415
:10583C002E00706D656D203D2000536574706F698E
:10584C006E74203D20004879737465726973203D35
:10585C0020007048203D20004C75636874766F639F
:10586C0068746967686569642C2074656D7065720D
:10587C0061747575722026207048005F5F5F5F5FF2
:10588C005F5F5F5F5F5F5F5F5F5F5F5F5F5F5F5F1C
:10589C005F5F5F5F5F5F5F5F5F5F5F5F5F0A0A0015
:1058AC00417474656D707420746F207772697465BF
:1058BC00206F757473696465206F6620454550527E
:1058CC004F4D206D656D6F72790045786365656429
:1058DC006564206D6178696D756D206E756D62659E
:1058EC0072206F66207772697465730043616E6E07
:1058FC006F74206368616E6765206365696C696E9F
:10590C00672C2062656C6F772069737375656420F2
:10591C00616464726573736573002F006E616E0051
:10592C00696E66006F7666002E000E002D002E004C
:10593C002F0011000A0031000A00140028003C005E
:10594C0012001300140050000002FFFFFFFF800044
:10595C000C0800000100000000900A4D0BA80AF38F
:10596C000A110BEB0A00000000651744260000002A
:10597C0000281EF71DB01DB91DCE1DDF1D00000037
:0E598C00009F2544263525662546258F2500DB
:00000001FF
