:100000000C9475000C949D000C949D000C949D0024
:100010000C949D000C949D000C949D000C949D00EC
:100020000C949D000C949D000C949D000C949D00DC
:100030000C949D000C949D000C949D000C949D00CC
:100040000C944A220C949D000C9447240C94952403
:100050000C949D000C949D000C949D000C949D00AC
:100060000C94661F0C949D001F1C1F1E1F1E1F1F3B
:100070001E1F1E1F7C3C3E5E2B3D3F2F5B5D3B2CBD
:100080002A225C0000000000240027002A00000053
:100090000000250028002B0000000000230026009F
:1000A00029000404040404040404020202020202FB
:1000B000030303030303010204081020408001022C
:1000C00004081020010204081020000000070002AC
:1000D000010000030406000000000000000006010B
:1000E0003409F90A021E0126FF0011241FBECFEFBA
:1000F000D8E0DEBFCDBF13E0A0E0B1E0EEE1F7E570
:1001000002C005900D92A23FB107D9F718E0A2EF07
:10011000B3E001C01D92A131B107E1F710E0C8EED4
:10012000D0E004C02297FE010E94472BCE3DD107AC
:10013000C9F70E9457260C94822B0C940000FB01F7
:10014000DC0104C08D910190801921F44150504090
:10015000C8F7881B990B0895FC018191861721F03F
:100160008823D9F7992708953197CF010895FB0186
:10017000DC014150504048F001900D920020C9F739
:1001800001C01D9241505040E0F70895A0E0B0E05A
:10019000ECECF0E00C94552B7C01EB018A01690139
:1001A00009C0CE012196F6010995F70181937F01DF
:1001B0000150104001151105A1F7CDB7DEB7E8E0F9
:1001C0000C94712B8130910581F46F5F7F4FB1F4F6
:1001D00082EF93E00E9490098BE394E040E050E0CE
:1001E00060E070E00E94E0070895892B39F46F5FAA
:1001F0007F4F21F482EF93E00E94A309089580E0ED
:1002000090E06FEF7FEF0E94E200089581E090E0C0
:100210006FEF7FEF0E94E200089580EE96E00E946B
:10022000A21E0E94710808950F931F93DF93CF932E
:10023000CDB7DEB7A1970FB6F894DEBF0FBECDBF26
:100240008E010F5F1F4FC80168E474E040E151E088
:1002500023E10E94050DC8010E94E509882309F4E5
:1002600098C00E9473082C8F3D8F4E8F5F8F68A3BC
:1002700079A3ABE3B4E0FE017C9686E001900D9299
:100280008150E1F740910F045091100460911104E6
:10029000709112048E010F5F1F4FC80122E030E001
:1002A0000E94B028C8016CE171E00E94C927C80112
:1002B000609144044AE050E00E945827C8016CE174
:1002C00071E00E94C927C801609142044AE050E0F1
:1002D0000E945827C8016CE171E00E94C927409133
:1002E0002F04509130046091310470913204C801A0
:1002F00022E030E00E94B028C8016CE171E00E9469
:10030000C927C80160913D044AE050E00E94582787
:10031000C8016FE20E949026C80160913C044AE047
:1003200050E00E945827C8016FE20E949026609119
:100330003B0470E06053784FC8014AE050E00E94EF
:100340004727C80160E20E949026C80160913E04E0
:100350004AE050E00E945827C8016AE30E949026B4
:10036000C80160913F044AE050E00E945827C8014C
:100370006AE30E949026C801609140044AE050E080
:100380000E945827C8010E949826C8010E94F209BD
:1003900006C08BEE97E06FE171E00E94C628CE01A7
:1003A00001960E94A309A1960FB6F894DEBF0FBE76
:1003B000CDBFCF91DF911F910F9108950F931F93A0
:1003C0008C018BEE97E069E371E00E94C9278BEE08
:1003D00097E0B8010E94C62882E061E00E949F2356
:1003E000FFCFEF92FF921F93DF93CF93CDB7DEB78E
:1003F000A7970FB6F894DEBF0FBECDBF82E061E0D5
:100400000E94602383E061E00E94602388E494E01E
:100410006091A1030E942A0E882321F481E491E0D7
:100420000E94DE018BEE97E06DE571E00E94C62828
:10043000DE011196E4ECF1E08CE001900D92815028
:10044000E1F710E07E010894E11CF11C812F6AE0C5
:100450000E94172B805D8F83812F0E94172B905D48
:10046000988788E494E0B7010E94DC0B8823D1F5DB
:10047000CE010D9668E474E0A70123E10E94050D0A
:100480008F8598899093F5038093F40389899A89DD
:10049000AB89BC898093F6039093F703A093F8038C
:1004A000B093F9038D899E89AF89B88D8093FA0343
:1004B0009093FB03A093FC03B093FD03AEEFB3E076
:1004C000FE0179968DE001900D928150E1F78EA1A9
:1004D0009FA190930C0480930B04CE010D960E9473
:1004E000A30904C01F5F143609F0B0CF82EF93E078
:1004F0000E94E509882321F48FE691E00E94DE0145
:100500008BEE97E063E871E00E94C9278BEE97E0DD
:10051000BE016F5F7F4F0E94C6288BEE97E060E9B7
:1005200071E00E94C9278091A10361E00E946023CD
:1005300088E494E06091A1030E942A0E882329F4A4
:100540008BEE97E068EA71E004C08BEE97E06DE512
:1005500071E00E94C628A7960FB6F894DEBF0FBEC2
:10056000CDBFCF91DF911F91FF90EF9008958091C3
:10057000A30361E00E949F2308958BEE97E00E9401
:100580005725181619060CF077C18BEE97E00E94DC
:1005900088258533910509F4C6C0863391059CF4FE
:1005A0008233910509F443C08333910524F4C19744
:1005B00009F05AC118C08333910509F464C0C49787
:1005C00009F052C184C08733910509F4FCC0873318
:1005D00091050CF4CCC08833910509F417C1C99773
:1005E00009F042C13EC160911504709116048091DA
:1005F0001704909118042AE037ED43E25CE30E946F
:10060000DA2860931504709316048093170490936E
:10061000180420E030E040E151E40E948D2A882354
:100620000CF42AC180E090E0A0E1B1E423C0609125
:1006300015047091160480911704909118042AE013
:1006400037ED43E25CE30E94D92860931504709370
:100650001604809317049093180420E030E040E4DF
:1006600050E40E943E2918160CF406C180E090E088
:10067000A0E4B0E48093150490931604A0931704AB
:10068000B093180408956091210470912204809120
:100690002304909124042AE037ED43E25CE30E94B6
:1006A000DA286093210470932204809323049093AA
:1006B000240420E030E040E151E40E948D2A8823A8
:1006C0000CF4DAC080E090E0A0E1B1E423C06091D6
:1006D00021047091220480912304909124042AE043
:1006E00037ED43E25CE30E94D928609321047093C4
:1006F000220480932304909324042AE037ED43E2FC
:100700005CE30E943E2918160CF4B6C08AE097ED0F
:10071000A3E2BCE38093210490932204A0932304DA
:10072000B09324040895609125047091260480916B
:1007300027049091280420E030E040E85FE30E9425
:10074000DA286093250470932604809327049093FD
:10075000280420E030E048E452E40E948D2A8823F7
:100760000CF48AC080E090E0A8E4B2E423C0609179
:10077000250470912604809127049091280420E09C
:1007800030E040E85FE30E94D9286093250470932D
:100790002604809327049093280420E030E040E072
:1007A00050E00E943E2918160CF466C080E090E0EC
:1007B000A0E0B0E08093250490932604A093270442
:1007C000B093280408956091290470912A048091BF
:1007D0002B0490912C0420E030E040E85FE30E947D
:1007E000DA286093290470932A0480932B04909351
:1007F0002C0420E030E048EC52E40E948D2A88234B
:10080000DCF180E090E0A8ECB2E422C06091290421
:1008100070912A0480912B0490912C0420E030E008
:1008200040E85FE30E94D9286093290470932A046A
:1008300080932B0490932C0420E030E040E050E0C3
:100840000E943E291816C4F080E090E0A0E0B0E0DD
:100850008093290490932A04A0932B04B0932C0432
:1008600008950E94B70208958BEE97E069E37DE258
:100870004AE050E00E94AA2708958CE261E00E94BD
:1008800060238CE261E00E949F23089580910D0413
:1008900090910E04892B09F064C080919F030E94FF
:1008A0003E2390932E0480932D04AA2797FDA095B4
:1008B000BA2FBC01CD010E94DD2920E030E040E8E4
:1008C0005AE30E94912A20E030E040EA50E40E947E
:1008D000912A9B01AC01609333047093340480939C
:1008E00035049093360460E070E088E492E40E945E
:1008F000422920E030E040E251E40E94D9289B01E7
:10090000AC0160933704709338048093390490935A
:100910003A0460E070E080E89FE30E9442292AE008
:1009200037ED4FE753E40E94912A60932F047093B0
:10093000300480933104909332048BEE97E060EDA5
:1009400071E00E94C92740912F04509130046091BA
:100950003104709132048BEE97E022E030E00E9487
:10096000B32808951F93CF93DF9310E0C7E0D0E042
:100970008CE20E94F323892BD9F38DE290E00E9450
:10098000F9228CE20E94F3238130910539F40C2E78
:1009900002C0880F991F0A94E2F7182B8CE20E947C
:1009A000F3230197D9F321978FEFCF3FD80701F7B2
:1009B000812FDF91CF911F910895CF93DF931092F4
:1009C00041048CE260E00E949F2367E170E080E0D8
:1009D00090E00E94A0228CE261E00E949F2388E2C6
:1009E00090E00E94F9228CE260E00E9460238CE299
:1009F0000E94F323882311F081E030C080E590E06D
:100A00000E94F9228CE20E94F323882311F482E0F1
:100A100025C080E590E00E94F922C2E4D4E00E9463
:100A2000B204899384E0C734D807C9F78CE261E047
:100A30000E9460238CE261E00E949F238091430426
:100A400090914204890F90914404890F909145043C
:100A5000890F90914604981719F083E08093410420
:100A6000DF91CF9108956F927F928F929F92AF9274
:100A7000BF92CF92DF92EF92FF920F931F930E944B
:100A8000DD0480914104813071F1813028F08230A1
:100A900079F18330B9F531C08BEE97E06FED71E0FD
:100AA0000E94C9278BEE97E0609142044AE050E033
:100AB0000E9458278BEE97E063EF71E00E94C628F2
:100AC0008BEE97E067EF71E00E94C9278BEE97E00D
:100AD000609144044AE050E00E9458278BEE97E072
:100AE00066E072E013C08BEE97E06CE072E00EC03F
:100AF0008BEE97E064E372E009C08BEE97E06CE563
:100B000072E004C08BEE97E069E772E00E94C628AD
:100B1000809197030E943E23AA2797FDA095BA2FA4
:100B2000BC01CD010E94DD292EE431ED41E95CE3F9
:100B30000E94912A21EC3AEC41EF5FE30E94D92810
:100B40003B014C0160930F047093100480931104D7
:100B500090931204E0901504F0901604009117048D
:100B600010911804A0902104B0902204C090230496
:100B7000D0902404C801B701A60195010E94D9288C
:100B80006093190470931A0480931B0490931C04BF
:100B9000C801B701A60195010E94DA2860931D04DF
:100BA00070931E0480931F0490932004C401B3012A
:100BB000A80197010E943E29882351F480919B034C
:100BC00060E00E949F238091990360E00E949F2330
:100BD000E0900F04F09010040091110410911204A1
:100BE000C801B7012091190430911A0440911B04E7
:100BF00050911C040E948D2A8823F4F0C801B7018B
:100C000020911D0430911E0440911F045091200436
:100C10000E943E29181684F08091130490911404C8
:100C2000892B51F480919B0360E00E949F23809167
:100C3000990360E00E949F2360910F04709110045B
:100C400080911104909112042091190430911A049A
:100C500040911B0450911C040E943E29882384F477
:100C60008091130490911404892B51F4809199037D
:100C700061E00E949F2380919B0360E00E949F237C
:100C8000E0900F04F09010040091110410911204F0
:100C9000C801B7012091190430911A0440911B0436
:100CA00050911C040E948D2A8823F4F0C801B701DA
:100CB00020911504309116044091170450911804A6
:100CC0000E943E29882384F4809113049091140497
:100CD000019751F48091990361E00E949F238091D4
:100CE0009B0360E00E949F2360910F0470911004A9
:100CF000809111049091120420911D0430911E04E2
:100D000040911F04509120040E948D2A181684F4EB
:100D10008091130490911404892B51F480919B03CA
:100D200061E00E949F238091990360E00E949F23CD
:100D3000E0900F04F090100400911104109112043F
:100D4000C801B70120911D0430911E0440911F0479
:100D5000509120040E943E291816F4F0C801B701F2
:100D600020911504309116044091170450911804F5
:100D70000E948D2A181684F4809113049091140413
:100D8000029751F480919B0361E00E949F23809120
:100D9000990360E00E949F238BEE97E06FE972E079
:100DA0000E94C92760911304709114048BEE97E0A0
:100DB0004AE050E00E94AA278BEE97E067EA72E0D3
:100DC0000E94C927409115045091160460911704A0
:100DD000709118048BEE97E022E030E00E94B32877
:100DE0008BEE97E063EB72E00E94C92740912104EB
:100DF0005091220460912304709124048BEE97E0BB
:100E000022E030E00E94B3288BEE97E06FEB72E0B7
:100E10000E94C92740910F04509110046091110461
:100E2000709112048BEE97E022E030E00E94B3282C
:100E30001F910F91FF90EF90DF90CF90BF90AF90F8
:100E40009F908F907F906F9008950E9433050E942D
:100E500046040E9414010E94BD0268EE73E080E027
:100E600090E00E94A02208950F931F938091990310
:100E700061E00E94602380919B0361E00E946023F7
:100E800080919D0361E00E9460238091A30361E053
:100E90000E9460230E943D040BEE17E0C80140E869
:100EA00055E260E070E00E94D0246CE271E080E0E6
:100EB00090E00E94A022C80165EC72E00E94C62862
:100EC000C80168EE72E00E94C6286CEB72E080E018
:100ED00090E00E94A0221F910F9108950F931F93FD
:100EE00006E414E06091A5037091A603C8010E9476
:100EF000610960931504709316048093170490930E
:100F000018046091A7037091A803C8010E946109A9
:100F1000609321047093220480932304909324040B
:100F20006091A9037091AA03C8010E945E0990E034
:100F3000A0E0B0E0BC01CD010E94DB296093250454
:100F40007093260480932704909328046091AB0348
:100F50007091AC03C8010E945E0990E0A0E0B0E08F
:100F6000BC01CD010E94DB296093290470932A04FF
:100F700080932B0490932C041F910F9108950E944D
:100F80006E0768EE73E080E090E00E94A0220E946D
:100F9000340768EE73E080E090E00E94A0220E9497
:100FA0000D0168EE73E080E090E00E94A0220E94B4
:100FB000F10168EE73E080E090E00E94A0220895C5
:100FC000EF92FF920F931F93CF93DF93EC017A017F
:100FD0008B0180E89CEBA2E9B7ECE80EF91E0A1F32
:100FE0001B1FC801B7012CE330E040E050E00E9435
:100FF000232B6D83C801B7012CE330E040E050E0C3
:101000000E94232B122F032FF42EE52E622F732F15
:10101000842F952F2CE330E040E050E00E94232BFA
:101020006C83612F702F8F2D9E2D2CE330E040E0DC
:1010300050E00E94232B122F032FF42EE52E622F57
:10104000732F842F952F28E130E040E050E00E947C
:10105000232B6B83612F702F8F2D9E2D28E130E085
:1010600040E050E00E94232B60E0A3E9BEEF70E077
:10107000862F90E083709070892B09F471E0E62F41
:10108000EF5F472F50E0CA0183599E4F2817390759
:1010900038F0CD01841B950B280F391F6E2FE7CF39
:1010A000688341E0E42FF0E0E959FF4F8491772312
:1010B00019F0423009F48F5F90E0542F5F5F2817DA
:1010C000390720F0281B390B452FECCF4983822F9D
:1010D0008F5F8A83DF91CF911F910F91FF90EF90E7
:1010E000089581E00895BF92CF92DF92EF92FF9230
:1010F0000F931F93DF93CF9300D000D000D0CDB7D4
:10110000DEB700EE16E0C80168E670E00E94C81D78
:10111000C80160E00E944A1EC8010E948D1EC801DD
:1011200068E670E047E050E00E949E1EC8010E9401
:10113000DB1D9FE7B92EB822C8010E94DB1DC82E17
:10114000C8010E94DB1DD82EC8010E94DB1DC8010A
:101150000E94DB1DE82EC8010E94DB1DF82EC8018D
:101160000E94DB1D282F30E0B4E035952795BA9515
:10117000E1F74AEF5FEFB901649F9001659F300D81
:10118000749F300D1124820F90E02B2D30E0A4E0ED
:1011900035952795AA95E1F7B901649F9001659F60
:1011A000300D749F300D1124B20E2C2D30E0F4E080
:1011B00035952795FA95E1F7B901649F9001659FF0
:1011C000300D749F300D1124C20E2D2D30E0E4E05F
:1011D00035952795EA95E1F7B901649F9001659FE0
:1011E000300D749F300D1124D20E2E2D30E074E09E
:1011F000359527957A95E1F7B901649F9001659F30
:10120000300D749F300D1124E20E2F2D30E064E07C
:10121000359527956A95E1F7B901649F9001659F1F
:10122000300D749F300D1124F20E282F3F2D4E2DBE
:101230005D2D6C2D7B2D80E026960FB6F894DEBFD9
:101240000FBECDBFCF91DF911F910F91FF90EF9017
:10125000DF90CF90BF9008959C01F999FECF32BDE9
:1012600021BDF89A80B5089584E690E090934704F4
:101270008093460408958091AD039091AE03861744
:10128000970714F081E008958BEE97E06DE073E02E
:101290000E94C62880E00895CF93DF93EB016F5F33
:1012A0007F4F0E943B09882331F0F999FECFD2BDD0
:1012B000C1BDF89A80B5DF91CF9108950E944C0985
:1012C00008950F931F93DF93CF9300D000D0CDB735
:1012D000DEB78B016C5F7F4F0E943B09882321F4AE
:1012E00070E060E090E00DC0CE010196B80144E0EE
:1012F00050E02CE239E00E94C60079816A819B812E
:101300008C81272F362F492F582FB901CA010F90F2
:101310000F900F900F90CF91DF911F910F91089533
:10132000FC011382128288EE93E0A0E0B0E0848397
:101330009583A683B7838EEB93E091838083128E8F
:10134000118E14860895FC018EEB93E091838083C7
:101350000895DF93CF930F92CDB7DEB7FC01698379
:10136000A081B18112962D913C911397BE016F5FC0
:101370007F4F41E050E0F90109950F90CF91DF9147
:101380000895DC015996ED91FC915A97309719F424
:1013900020E030E018C02389348945895689828548
:1013A0009385A485B585281B390B4A0B5B0B203030
:1013B000B0E83B07B0E04B07B0E05B0720F02FEF51
:1013C0003FE740E050E0C9010895DC015996ED91F6
:1013D000FC915A97309711F480E00895858181112E
:1013E00081E00895CF93DF93EC01898D9A8D00976A
:1013F00041F00E94B312898D9A8D0E94B2211A8EFB
:10140000198EDF91CF910895FC01818D928D009707
:1014100011F00E9469120895DF93CF930F92CDB718
:10142000DEB7FC01818D928D009749F0BE016F5FA0
:101430007F4F41E050E00E948A13019719F02FEF8F
:101440003FEF03C08981282F30E0C9010F90CF9171
:10145000DF910895EF92FF920F931F93DF93CF9345
:101460000F92CDB7DEB77C01DC0159968D919C912E
:101470005A97009719F400E010E01FC0BE016F5F9B
:101480007F4F41E050E00E948A13019719F00FEF5F
:101490001FEF13C08981082F10E0D7015996ED91F5
:1014A000FC915A974285538564857585415050401B
:1014B00060407040CF010E94A311C8010F90CF91EE
:1014C000DF911F910F91FF90EF900895CF93DF93DD
:1014D000EC01E98DFA8D309761F013821282CF0111
:1014E0000E94CF159C01E98DFA8D82819381892B11
:1014F00031F081E090E09B838A8320E030E0C901F5
:10150000DF91CF910895EF92FF920F931F93CF93A6
:10151000DF93EC01F62EE72E8A011B821A8288EEF9
:1015200093E0A0E0B0E08C839D83AE83BF838EEB1D
:1015300093E0998388838DE190E00E9415219A8F32
:10154000898F009791F0DC018F2D9E2D9C01F90170
:101550008DE101900D928150E1F7CE010C96B8011A
:101560004CE050E00E94B700188EDF91CF911F91A0
:101570000F91FF90EF9008950F931F93CF93DF93F8
:101580008C01FB01C081D181FC01EC0FFD1F80812A
:101590008F3209F4219698012C0F3D1FA0E0B0E096
:1015A0000BC0FA01EA0FFB1F8083119621962F5F73
:1015B0003F4FAC30B10531F0F90180818F3211F02D
:1015C000882379F7A40FB51F1C92F801EC0FFD1FBB
:1015D00080818F3209F42196FB01D183C083C00F33
:1015E000D11F8881811181E0DF91CF911F910F91EF
:1015F000089510924D0410924E04109251041092CE
:10160000530482E090E0A0E0B0E080935404909313
:101610005504A0935604B093570410926B04109293
:101620007504109274048EEC93E09093730480938D
:101630007204109277040895EF92FF921F93DF9344
:10164000CF93CDB7DEB76D970FB6F894DEBF0FBE60
:10165000CDBF9C01AB011C821B828EEC93E09A8370
:1016600089831E827E010894E11CF11CC701B90127
:1016700021E00E94FC17182F882319F0C7010E944F
:10168000B312812F6D960FB6F894DEBF0FBECDBF9B
:10169000CF91DF911F91FF90EF9008952F923F928D
:1016A0004F925F926F927F928F929F92BF92CF9252
:1016B000DF92EF92FF920F931F93DF93CF93CDB7FB
:1016C000DEB7C954D0400FB6F894DEBF0FBECDBF11
:1016D0001C017B012A0139011B8A1A8A8EEC93E0D6
:1016E000998B888B1D8A18AA1FA69EA78DA71AAA58
:1016F0001A8219828B0120E1C22ED12CCC0EDD1E64
:1017000093E0892E912C8C0E9D1E03C0C80186018A
:101710006C01C101BE016F5F7F4FA4010E94BC0A32
:10172000B82E40E0882309F441E0C801B4019301D8
:10173000F2010995882339F40E151F0519F1C80126
:101740000E94B3121FC0BB20A9F0C601B801A401BA
:1017500021E00E94FC17B82E0E151F0519F0C801D4
:101760000E94B312BB2071F00E151F0579F6CE0151
:101770008D96CDCF0E151F0519F0C8010E94B3122A
:1017800081E001C080E0C75BDF4F0FB6F894DEBF99
:101790000FBECDBFCF91DF911F910F91FF90EF90C2
:1017A000DF90CF90BF909F908F907F906F905F90D1
:1017B0004F903F902F9008959B01BC01665D7F4F35
:1017C000C9014CE15BE020E030E00E944E0B08953F
:1017D0002F923F924F925F926F927F928F929F9241
:1017E000AF92BF92CF92DF92EF92FF920F931F932F
:1017F000DF93CF93CDB7DEB7C754D0400FB6F89480
:10180000DEBF0FBECDBF582E492EFB013A01190194
:1018100084A595A5998B888B2EEC33E03F872E8786
:1018200086A58A8B87A58B8B80A991A9A2A9B3A92C
:101830008C8B9D8BAE8BBF8B84A995A9A6A9B7A9CC
:10184000888F998FAA8FBB8F80AD91ADA2ADB3ADBC
:101850008C8F9D8FAE8FBF8F84AD88A3FD968191B5
:101860009191A191B19189A39AA3ABA3BCA38191BA
:101870009191A191B1918DA39EA3AFA3B8A78081AF
:1018800091819AA789A71EA61DA63CA72BA718AAD7
:101890007A018E01025F1F4F3BE2A32EB12CAC0EEA
:1018A000BD1E4E010894811C911C35C0D7018C913E
:1018B0008F3221F40894E11CF11C2DC0422F4E19E7
:1018C0004D3008F04CE0C42EDD24C401B701A60160
:1018D0000E94B700F401EC0DFD1D1082C5010E94AD
:1018E000B312C501B801A40121E00E94FC178823AE
:1018F00051F4E52DF42D138212828EEC93E0918346
:101900008083158266C0EC0CFD1CC8010E94B312D6
:10191000C50158018C01C7016FE270E00E94AC0064
:101920009C01009719F6E618F708F101F182E082B0
:10193000E52DF42DD80112968D919C9113979383E8
:1019400082838EEC93E09183808314968C9114971C
:10195000848315968C911597858316962D913D91CC
:101960004D915C91199726833783408751871A964A
:101970002D913D914D915C911D972287338744872E
:1019800055871E962D913D914D915C9151972687DB
:101990003787408B518B52968C915297828B5396FE
:1019A0002D913D914D915C915697238B348B458BB6
:1019B000568B57962D913D914D915C915A97278B5F
:1019C000308F418F528F5B968D919C915C97948F55
:1019D000838F852D942DC95BDF4F0FB6F894DEBF42
:1019E0000FBECDBFCF91DF911F910F91FF90EF9070
:1019F000DF90CF90BF90AF909F908F907F906F902F
:101A00005F904F903F902F9008959F92AF92BF921A
:101A1000CF92DF92EF92FF920F931F93DF93CF93BA
:101A2000CDB7DEB7C657D0400FB6F894DEBF0FBEB5
:101A3000CDBFC82E992E8A01D22E43E0A42EB12C00
:101A4000AC0EBD1EC501A8019E012F5F3F4F0E9435
:101A5000E80BE980FA80E00EF11EF70180814EEC80
:101A600053E02885882309F03FC08D819E819BA388
:101A70008AA359A348A38F818CA32DA389859A8516
:101A8000AB85BC858EA39FA3A8A7B9A78D859E858E
:101A9000AF85B8898AA79BA7ACA7BDA789899A8972
:101AA000AB89BC898EA79FA7A8ABB9AB8D898AAB40
:101AB0008E899F89A88DB98D8BAB9CABADABBEAB2E
:101AC0008A8D9B8DAC8DBD8D8FAB98AFA9AFBAAF12
:101AD0008E8D9F8D9CAF8BAF8C2D992DBE01605E3E
:101AE0007F4F47E853E09FC0FE01FF9611821082AE
:101AF0005EAF4DAFFE01EE5BFF4F10822223A9F0D7
:101B00002250CE01CD96223048F462E774E0A7015E
:101B10002D2D0E94FC17882381F407C0B501A70171
:101B20002D2D0E94FC17882329F48C2D992D0E94BD
:101B300090097BC0C5010E94B312F6E0DF2259F084
:101B4000FE01E05BFF4F4081518162817381CE01D4
:101B5000CD960E94A3119E01265A3F4FFE01FF968B
:101B600080819181F901938382838EEC93E091834C
:101B70008083FE01EF5BFF4F8081F9018483FE01CA
:101B8000EE5BFF4F8081F9018583FE01ED5BFF4F26
:101B900080819181A281B381F90186839783A08797
:101BA000B187FE01E95BFF4F80819181A281B38102
:101BB000F90182879387A487B587FE01E55BFF4F14
:101BC00080819181A281B381F90186879787A08B5B
:101BD000B18BFE01E15BFF4F8081F901828BFE0139
:101BE000E05BFF4F80819181A281B381F901838BFA
:101BF000948BA58BB68BFE01EC5AFF4F80819181AF
:101C0000A281B381F901878B908FA18FB28FFE01E2
:101C1000E85AFF4F80819181F901948F838F8C2D39
:101C2000992DB901A7010E94830A8C2D992DCA58BC
:101C3000DF4F0FB6F894DEBF0FBECDBFCF91DF915F
:101C40001F910F91FF90EF90DF90CF90BF90AF90DA
:101C50009F9008950F931F93CF93DF93EC01462F2E
:101C600061E00E948F108823D1F08E01045F1F4F26
:101C7000C801BE0141E00E949D19882339F4C801C2
:101C8000BE0140E00E949D19882349F0CE018A964A
:101C9000B8010E94E914882319F081E001C080E0B6
:101CA000DF91CF911F910F910895FC01673020F0D3
:101CB00086E1858380E00895262F30E060FD02C034
:101CC000663019F48DB58E7F02C08DB581608DBDF3
:101CD0008CB58C7F8CBD4CB522FD02C090E001C05C
:101CE00092E036952795822F8170842B892B8CBDAD
:101CF00081E00895FF920F931F93CF93DF938B01A1
:101D00000E949222EB01FF24FA94FEBC0DB407FE60
:101D1000FDCF8EB58F3F11F481E008C00E94922262
:101D20006C1B7D0B6017710780F380E0DF91CF9112
:101D30001F910F91FF900895FC01848160E00E9443
:101D40009F230895FC01848161E00E949F230895F0
:101D5000DC016EBDFA0120E030E00DB407FEFDCFDE
:101D600080818EBD0DB407FEFDCF81818EBD2E5FBB
:101D70003F4F329682E02030380779F70DB407FEE6
:101D8000FDCF8FEF8EBD0DB407FEFDCF8FEF8EBD63
:101D90000DB407FEFDCF8FEF8EBD0DB407FEFDCF56
:101DA0008EB51A968C931A978F71853011F481E055
:101DB000089581E115968C931597CD010E94A20E8E
:101DC00080E00895FF920F931F93CF93DF93EC0170
:101DD0000E9492228B01FF24FA9409C00E94922251
:101DE000601B710B6D52714010F08FE00DC0FEBC96
:101DF0000DB407FEFDCF8EB58A878F3F79F38E3FF6
:101E000011F481E006C08DE08D83CE010E94A20E08
:101E100080E0DF91CF911F910F91FF900895CF93B4
:101E2000DF93EC018E818823D1F08FEF8EBD2F815F
:101E300038854FEF04C00DB407FEFDCF4EBD2F5FB8
:101E40003F4FC901019781509240A8F338872F83F3
:101E50000DB407FEFDCFCE010E94A20E1E82DF91BF
:101E6000CF910895DF92EF92FF920F931F93CF933C
:101E7000DF93EC01D62E79018A010E940F0FCE016B
:101E80000E949C0ECE016CE271E00E947A0E8D2DB4
:101E900080648EBD0DB407FEFDCF28E130E0D8018F
:101EA000C701022E04C0B695A795979587950A9409
:101EB000D2F78EBD0DB407FEFDCF285030408FEF16
:101EC000283F380761F7DD2011F485E906C088E076
:101ED000D81611F487E801C08FEF8EBD0DB407FE50
:101EE000FDCF90E02FEF2EBD0DB407FEFDCF8EB5D8
:101EF00087FF02C09150B9F78A87DF91CF911F9178
:101F00000F91FF90EF90DF900895CF92DF92EF92C4
:101F1000FF920F931F93CF93DF93EC017A018B0114
:101F20006901411551056105710511F482E137C060
:101F30008B85833039F029E0EE0CFF1C001F111F48
:101F40002A95D1F7CE0168E1A80197010E94320FCE
:101F5000882311F084E023C0CE016EEFA6010E9419
:101F6000A80E8823E9F0CE0168E572E00E947A0E9F
:101F7000882311F485E113C0CE016DE020E030E04C
:101F800040E050E00E94320F882341F48FEF8EBD75
:101F90000DB407FEFDCF8EB5882379F084E18D83E3
:101FA000CE010E94A20E80E0DF91CF911F910F9190
:101FB000FF90EF90DF90CF900895CE010E94A20E87
:101FC00081E0F2CF8F929F92AF92BF92CF92DF9239
:101FD000EF92FF920F931F93CF93DF93EC015A017F
:101FE0006B0149010115110509F47BC0C801820F7D
:101FF000931F8150924008F06FC08E81882371F04A
:1020000088819981AA81BB81481759076A077B0794
:1020100029F48F8198858816990618F5A882B982C7
:10202000CA82DB828B85833039F069E0AA0CBB1C45
:10203000CC1CDD1C6A95D1F7CE0161E1A6019501AA
:102040000E94320F882319F083E08D8345C0CE01B2
:102050000E94E20E882309F43FC018861F8281E0A7
:102060008E838FEF8EBD8F8198852FEF05C00DB4C5
:1020700007FEFDCF2EBD019688159905C0F3988700
:102080008F83D801119720E030E09FEF0BC00DB493
:1020900007FEFDCF8EB5F701E20FF31F80839EBDD3
:1020A0002F5F3F4F2A173B0790F30DB407FEFDCF7C
:1020B0008EB5AE0DBF1D8C932F813885200F311F3B
:1020C00038872F838985882319F02050324048F0C3
:1020D000CE010E940F0F05C0CE010E94A20E80E02B
:1020E00001C081E0DF91CF911F910F91FF90EF90A0
:1020F000DF90CF90BF90AF909F908F900895EF9218
:10210000FF920F931F93790120E030E000E012E08E
:102110000E94E20F1F910F91FF90EF900895BF92E0
:10212000CF92DF92EF92FF920F931F93CF93DF93A3
:10213000EC01B62E1B8619861E821D824C830E94DE
:1021400092226B018C8161E00E946023CE010E948B
:10215000A20E8CE060E00E9460238BE061E00E94B0
:1021600060238DE061E00E9460238AE061E00E94CC
:1021700060238AE061E00E949F2383E58CBD8DB5DA
:102180008E7F8DBD80E09FEF9EBD0DB407FEFDCF1D
:102190008F5F8A30C9F7CE010E949C0E09C00E9451
:1021A00092226C197D09615D774010F081E05EC07C
:1021B000CE0160E020E030E040E050E00E94320FCD
:1021C000182F8A87813059F7CE0168E02AEA31E07A
:1021D00040E050E00E94320F82FF02C01B8711C016
:1021E00080E02FEF2EBD0DB407FEFDCF9EB58F5FB3
:1021F0008430C1F79A879A3A11F082E037C082E0C2
:102200008B878B85823021F0EE24FF2487010FC05D
:10221000E12CF12C012DF0E41F2F09C00E94922225
:102220006C197D09615D774010F088E01FC0CE0118
:1022300067E320E030E040E050E00E94320FCE0142
:1022400069E2A80197010E94320F8A87882331F73B
:102250008B85823031F5CE016AE320E030E040E04A
:1022600050E00E94320F882339F086E08D83CE0142
:102270000E94A20E80E01CC08FEF8EBD0DB407FE41
:10228000FDCF8EB5807C803C11F483E08B8780E0AD
:102290009FEF9EBD0DB407FEFDCF2EB58F5F83303F
:1022A000C1F7CE010E94A20ECE016B2D0E94550EE9
:1022B000DF91CF911F910F91FF90EF90DF90CF9022
:1022C000BF900895CF93DF93EC01DB0180E090E0B5
:1022D00020E2FD01E80FF91F208301968B30910564
:1022E000C1F757E040E021C02E3219F084E790E0BA
:1022F00007C05A3019F15AE048E017C03217F1F020
:10230000FC01019634913323C9F75417B8F02132F8
:10231000A8F02F3798F4822F81568A3108F4205282
:10232000FD01E40FF11D20834F5F29912223E1F687
:1023300090E08C91803219F091E001C090E0892FFB
:10234000DF91CF9108956F927F928F929F92AF927B
:10235000BF92CF92DF92EF92FF920F931F93CF9392
:10236000DF93EC017A018B012D81222309F480C0D7
:102370008B899C89AD89BE8984179507A607B70705
:1023800008F476C085C0E114F1040105110549F493
:102390001E821F82188619861A861B861C861D8639
:1023A00065C02A853B854C855D85EB8DFC8D8585DB
:1023B00090E00996215030404040504039014A0198
:1023C000082E04C096948794779467940A94D2F761
:1023D0002F5F3F4F4F4F5F4F0894E108F10801090D
:1023E00011095701680104C0D694C794B794A79403
:1023F0008A95D2F70894E11CF11C011D111DA61449
:10240000B704C804D90428F0211531054105510548
:1024100049F48F89988DA98DBA8D8E839F83A88763
:10242000B98716C0A618B708C808D90811C04E81C8
:102430005F81688579858B8D9C8D94010E947E1BC0
:102440000894A108B108C108D108882331F410C04C
:1024500086E0882E912C8C0E9D1EA114B104C1041F
:10246000D10429F7EA86FB860C871D8781E001C02D
:1024700080E0DF91CF911F910F91FF90EF90DF905F
:10248000CF90BF90AF909F908F907F906F90089566
:10249000223009F078CFE6CFCF93DF93EC01462FBF
:1024A0006E857F85888999890E946219882319F42D
:1024B00020E030E00AC08A89282F30E095E0220F22
:1024C000331F9A95E1F72D563B4FC901DF91CF910C
:1024D00008950F931F93CF93DF938C01FC018581A7
:1024E0008823D9F1848187FF35C0C80161E00E944B
:1024F0004C12EC01009789F1F8018581823040F49B
:1025000083899489A589B6898C8F9D8FAE8FBF8F63
:10251000F8018789908D9B8F8A8F8789908DA18DF7
:10252000B28DCD01AA27BB279D8B8C8BE0919104A6
:10253000F0919204309751F0BE016A5E7F4FCE0158
:1025400048960995888D998D9B8B8A8BF80184819B
:102550008F7784830E94031901C080E0DF91CF91BF
:102560001F910F910895CF93DF93EC010E946912A0
:10257000882311F01D8281E0DF91CF9108956F9241
:102580007F928F929F92AF92BF92CF92DF92EF9203
:10259000FF920F931F93DF93CF9300D000D0CDB75E
:1025A000DEB77C015A016B01DC0115968C91159701
:1025B000813009F08FC014968C9181FF8BC09EC032
:1025C0000097A105B10511F481E085C0F70162848F
:1025D000738484849584C701B601A5010E94A31168
:1025E000882309F477C0D7015B968D919C915C9705
:1025F000A114B104C104D10489F457964D915D91A1
:102600006D917C915A970E94F11B882309F462C056
:10261000F701178A108E118E128E3DC0D7011696C3
:102620004D915D916D917C9119979E012F5F3F4F68
:102630000E947E1B882309F44DC0D7015B96ED9163
:10264000FC915C9749815A816B817C8187898031BB
:1026500029F088EF9FEFAFEFBFE004C088EF9FEF56
:10266000A0E0B0E0481759076A077B07A0F4CF0144
:102670000E94F11B882371F1F70146815781608523
:102680007185838D948D0FEF1FEF2FEF3FE00E9438
:10269000E21A8823F9F0D7015396AD92BD92CD92FC
:1026A000DC92569714968C911497806814968C93AC
:1026B000C7010E946912882369F0B601A5016A1456
:1026C0007B048C049D0410F4B401A301C7010E9493
:1026D000A31101C080E00F900F900F900F90CF9149
:1026E000DF911F910F91FF90EF90DF90CF90BF90FF
:1026F000AF909F908F907F906F900895F70183899E
:102700009489A589B68984179507A607B70708F0A5
:1027100057CFE0CF2F923F924F925F926F927F926E
:102720008F929F92AF92BF92CF92DF92EF92FF92E1
:102730000F931F93CF93DF93EC012A018D818823A0
:1027400009F4C6C08C8180FFC3C0D8C025014E18D3
:102750005F084B0176E0272E312C2C0E3D1E3201F6
:10276000B1C02A853B854C855D856FEFA62E61E063
:10277000B62EA222B3228D8179018A0199E01695A5
:102780000795F794E7949A95D1F7EB8DFC8D8230FD
:1027900049F4428D538D648D758D4E0D5F1D601F04
:1027A000711F3FC0D480DA94DE20A114B104D9F4A3
:1027B000DD20C9F4211531054105510549F48F8902
:1027C000988DA98DBA8D8E839F83A887B9870BC0FA
:1027D0004E815F8168857985CF0191010E947E1BC2
:1027E000882309F475C0EB8DFC8D4E815F8168856F
:1027F00079854250504060407040058404C0440FC9
:10280000551F661F771F0A94D2F786859785A08982
:10281000B189480F591F6A1F7B1F4D0D511D611D46
:10282000711D80E092E08A199B0963018615970566
:1028300008F46C018C8186FD06C080E0C81682E039
:10284000D80609F073C08091AF039091B003A091B6
:10285000B103B091B203481759076A077B0709F41F
:1028600065C080919306909194069501860174014C
:102870000E94E20F882361F18C0C9D1C12C095010F
:102880002D563B4FA9014C0D5D1DD401F90102C02D
:1028900081918D93E417F507D9F7E21BF30B8E0EA8
:1028A0009F1E960140E050E08A859B85AC85BD85E2
:1028B000820F931FA41FB51F8A879B87AC87BD8794
:1028C0006C187D086114710409F04BCFA20102C09D
:1028D0004FEF5FEFCA01DF91CF911F910F91FF90F2
:1028E000EF90DF90CF90BF90AF909F908F907F90B0
:1028F0006F905F904F903F902F900895AB88BC8869
:10290000CD88DE88EA84FB840C851D859A0140E031
:1029100050E0D601C5018E199F09A00BB10B82179B
:102920009307A407B50708F411CF13CFCB01BA0161
:1029300040E00E946219882309F0A1CFC9CFCF924D
:10294000DF92EF92FF920F931F93DF93CF930F923B
:10295000CDB7DEB76C01FC018581823070F0E28476
:10296000F38404851585C601BE016F5F7F4F41E08A
:1029700050E00E948A13019769F020E030E0C9011D
:102980000F90CF91DF911F910F91FF90EF90DF900B
:10299000CF900895F60182859385A485B5854F96DD
:1029A000A11DB11D82879387A487B587F5E0169591
:1029B0000795F794E794FA95D1F78E2D8F70282F0D
:1029C00030E0E5E0220F331FEA95E1F72D563B4F4B
:1029D000D6CF0F931F93CF93DF93EC018B018D81A3
:1029E000882309F041C0FB0187898031B1F482E07E
:1029F0008D831F8A188E198E1A8E808D918DA0E07E
:102A0000B0E045E0880F991FAA1FBB1F4A95D1F778
:102A10008B8B9C8BAD8BBE8B15C0803229F583E0F0
:102A20008D83FB01428D538D648D758D4F8B588F37
:102A3000698F7A8F9E012D5E3F4FC8010E944A1C0C
:102A4000882391F01C8F0B8F81E08C831E821F8264
:102A5000188619861A861B861C861D861E861F866A
:102A6000188A198A1A8A01C080E0DF91CF911F91DC
:102A70000F9108951F93CF93DF93EC01142FE62F4E
:102A8000F0E075E0EE0FFF1F7A95E1F7ED56FB4F92
:102A90008385817121F0842F827409F054C06A8B80
:102AA0008091AF039091B003A091B103B091B203B4
:102AB0008E879F87A88BB98B84899589A0E0B0E029
:102AC000BC0155274427828D938DA0E0B0E0482BB0
:102AD000592B6A2B7B2B4F8B588F698F7A8F83856D
:102AE00090E088719070009751F4848D958DA68D3B
:102AF000B78D8B8B9C8BAD8BBE8B81E00CC04097D0
:102B000011F59E012D5E3F4F8B8D9C8D0E944A1CBE
:102B10008823C9F084E08D83812F8F708C831E827F
:102B20001F82188619861A861B861C861D8616FD2E
:102B300002C081E009C0CE0140E050E060E070E0FA
:102B40000E94BF1201C080E0DF91CF911F910895D4
:102B5000CF93DF93EC019C012A5F3F4F8B8D9C8DBF
:102B600041E050E060E070E00E94B91C8823A1F0D1
:102B70008F89988DA98DBA8D0097A105B10559F45B
:102B80008E819F81A885B9858F8B988FA98FBA8FE9
:102B90008C8180688C8381E0DF91CF9108952F92A2
:102BA0003F924F925F927F928F929F92AF92BF928D
:102BB000CF92DF92EF92FF920F931F93DF93CF9309
:102BC00000D000D000D0CDB7DEB76C01162F072F94
:102BD0005E834D83DC0115968C911597813009F049
:102BE00070C114968C9181FF6CC18EC1F60143892E
:102BF00054896589768982859385A485B5858417EE
:102C00009507A607B70731F0C6010E94A3118823D4
:102C100009F457C1812F902F9C0129012D803E80FE
:102C200017C1D6015B96ED91FC915C97DA01C90161
:102C300019E0B695A795979587951A95D1F7748061
:102C40007A9478227FEF872E71E0972E822293224A
:102C5000772009F04EC08114910409F04AC0D601D2
:102C600016964D915D916D917C9119974115510585
:102C70006105710581F457968D919D910D90BC91E0
:102C8000A02D0097A105B10549F1F6018683978330
:102C9000A087B1872EC0CF019E012F5F3F4F0E94BA
:102CA0007E1B882309F414C129813A814B815C8100
:102CB000D6015B96ED91FC915C978789803129F074
:102CC00088EF9FEFAFEFBFE004C088EF9FEFA0E079
:102CD000B0E0281739074A075B0730F0C6010E94A9
:102CE000A815882331F4EDC0F60126833783408789
:102CF000518780E092E08819990951018215930566
:102D000008F45C01D6015B96ED91FC915C971696F8
:102D1000ED90FD900D911C9119978EEF9FEFAFEF05
:102D2000BFEFE80EF91E0A1F1B1F058404C0EE0C3E
:102D3000FF1C001F111F0A94D2F786859785A08972
:102D4000B189E80EF91E0A1F1B1FE70CF11C011DBB
:102D5000111D90E0A91692E0B90651F58091AF03DC
:102D60009091B003A091B103B091B2038E159F056D
:102D7000A007B10761F48FEF9FEFAFEFBFEF809334
:102D8000AF039093B003A093B103B093B2038091CB
:102D9000930690919406B801A70192010E94850FB5
:102DA000882309F48EC0A0E0B2E04A0E5B1E3EC04C
:102DB0008114910409F5F6012285338544855585F2
:102DC00083899489A589B689281739074A075B073B
:102DD00098F00E940319882309F473C0E092AF03AE
:102DE000F092B0030093B1031093B2038091950663
:102DF00081608093950608C0C801B70141E00E9438
:102E00006219882309F45DC094012D563B4FA90136
:102E10004A0D5B1DF901D20102C08D918193E41727
:102E2000F507D9F7E21BF30B4E0E5F1E2A183B087D
:102E3000950140E050E0F60182859385A485B58533
:102E4000820F931FA41FB51F82879387A487B5871E
:102E5000D6011A962D913D914D915C911D972114AB
:102E6000310409F0DECE53968D919D910D90BC9169
:102E7000A02D82179307A407B50748F4F601238B0A
:102E8000348B458B568B84818068848311C08091FC
:102E9000910490919204892B59F08D819E81892B08
:102EA00039F0D60114968C911497806814968C93FF
:102EB000F601848183FF0EC0C6010E946912882337
:102EC00049F481E090E0D60113969C938E9312977B
:102ED0001E821D828D819E8126960FB6F894DEBFDC
:102EE0000FBECDBFCF91DF911F910F91FF90EF905B
:102EF000DF90CF90BF90AF909F908F907F905F902A
:102F00004F903F902F90089582FD70CE83CEDF9337
:102F1000CF930F92CDB7DEB76983BE016F5F7F4F4E
:102F200041E050E00E94CF150F90CF91DF910895BE
:102F3000DF92EF92FF920F931F93CF93DF93EC01F9
:102F40000E94A815882309F44EC0EB8DFC8DEE80FD
:102F5000FF80088519858EEF9FEFAFEFBFEFE80E7A
:102F6000F91E0A1F1B1F058404C0EE0CFF1C001F66
:102F7000111F0A94D2F786859785A089B189E80E3A
:102F8000F91E0A1F1B1FD4800894E108F1080109EB
:102F900011090BC0C801B7016D0D711D811D911D77
:102FA0000E943E198823F9F0DA94DD2099F7EB8D21
:102FB000FC8D20E032E040E050E0058404C0220FA8
:102FC000331F441F551F0A94D2F78B899C89AD8902
:102FD000BE89820F931FA41FB51F8B8B9C8BAD8B5B
:102FE000BE8B81E001C080E0DF91CF911F910F91F6
:102FF000FF90EF90DF9008956F927F928F929F9253
:10300000AF92BF92CF92DF92EF92FF920F931F93F6
:10301000DF93CF93CDB7DEB72B970FB6F894DEBF13
:103020000FBECDBF5C016B01822EDC0115968C9129
:10303000882309F0D2C0CA018E010F5F1F4FB8016B
:103040000E946211882309F4C8C0F601838D948D13
:10305000D5015C969C938E935B971682178210869F
:103060001186D6011A961D921D921D921C921D97D3
:103070009924380141C0C6010E949F14FC010097A9
:1030800009F4ABC085E016950795F794E7948A9507
:10309000D1F71E2D1F708081882311F0853ED1F459
:1030A000992091F4D50152961C9352972091AF0329
:1030B0003091B0034091B1035091B2031E962D930D
:1030C0003D934D935C9351978081882399F4992483
:1030D000939421C0C301BF014BE050E00E949F00C8
:1030E000009751F4882D8073803309F476C0C501B0
:1030F000612F6FC099249394F601E284F3840485D0
:10310000158583899489A589B689E816F9060A0781
:103110001B0708F4B0CF882D8271823109F05DC0A1
:10312000992041F0C50161E00E944C128C0100978A
:1031300089F453C0D60115968C91823009F44DC0A4
:10314000C6010E949817882309F447C0F501128A26
:1031500003E914E080E2D8011D928A95E9F7D801CD
:10316000FE0131968BE001900D928150E1F7E091E4
:103170009104F0919204309739F0B801625F7F4F6B
:10318000C8014096099509C081E298E2F801918B47
:10319000808B80E098E097878687D80150968D9144
:1031A0009C91519753969C938E93529759969C93CA
:1031B0008E9358971E968D919C911F9757969C932E
:1031C0008E9356970E940319882339F0C501F501A3
:1031D0006289482D0E943A1501C080E02B960FB6F7
:1031E000F894DEBF0FBECDBFCF91DF911F910F913D
:1031F000FF90EF90DF90CF90BF90AF909F908F9017
:103200007F906F90089580919506882399F1409161
:10321000AF035091B0036091B1037091B2038091FC
:1032200093069091940623E934E00E94850F882349
:1032300019F1409196065091970660919806709109
:103240009906411551056105710591F0809193062C
:103250009091940623E934E00E94850F882361F061
:103260001092960610929706109298061092990660
:103270001092950681E0089580E00895EF92FF9204
:103280000F931F937B018C010E9403198823A9F0DF
:10329000E3E9F4E0119286E0E339F807D9F7E09228
:1032A000AF03F092B0030093B1031093B203809187
:1032B000950681608093950681E01F910F91FF90A4
:1032C000EF900895DF92EF92FF920F931F937B018F
:1032D0008C01D42E8091AF039091B003A091B103E3
:1032E000B091B2038E159F05A007B107C1F00E94EF
:1032F00003198823D9F08091930690919406B80120
:10330000A70123E934E00E947F10882379F0E0923E
:10331000AF03F092B0030093B1031093B203809116
:1033200095068D298093950681E001C080E01F916C
:103330000F91FF90EF90DF9008958F929F92AF9240
:10334000BF92CF92DF92EF92FF920F931F93CF9392
:10335000DF936C01142F70939406609393064423BB
:1033600021F488249924540140C0453008F01CC140
:1033700060E070E080E090E040E00E946219882305
:1033800009F412C1C12FD0E02197FE0174E0EE0FC5
:10339000FF1F7A95E1F7ED56FB4FE254FE4F808117
:1033A000EE5BF14090E08F779070892B09F0FCC0C4
:1033B000E653FE4F80819181A281B38184369105CD
:1033C000A105B10508F4F0C064E0CC0FDD1F6A95DB
:1033D000E1F7C75AD94F88809980AA80BB808114B1
:1033E0009104A104B10409F4DFC0C501B40140E0B7
:1033F0000E946219882309F4D7C080919E0490919D
:103400009F048050924009F0CFC02091A304222352
:1034100009F4CAC08091A1049091A204892B09F4F7
:10342000C3C08091A004882309F4BEC0F601228B9A
:103430008091A0048483158661E070E007C04F5F2F
:10344000F60145874150483008F0AEC0F601458589
:10345000848190E09B01042E02C0220F331F0A9446
:10346000E2F78217930759F72091A9043091AA0433
:103470002115310519F040E050E008C02091B70453
:103480003091B8044091B9045091BA04F6012583F3
:10349000368347835087E090A104F090A20400E0B7
:1034A00010E0E80CF91C0A1D1B1DE38AF48A058B49
:1034B000168B8091A4049091A504918F808F6091C8
:1034C000A30470E080E090E00E94F82A6E0D7F1D5A
:1034D000801F911FF601628F738F848F958F2091CB
:1034E000A4043091A50455E0220F331F5A95E1F74B
:1034F00021503E4F232F3327269540E050E0260FE2
:10350000371F481F591F26873787408B518B809163
:10351000A6049091A704009719F0A0E0B0E008C0BD
:103520008091B3049091B404A091B504B091B60415
:1035300085017401E21AF30A040B150BA801970127
:10354000280F391F4A1F5B1FF601058404C05695DA
:103550004795379527950A94D2F721873287438775
:103560005487253FFFE03F07F0E04F07F0E05F079B
:1035700010F48CE006C0255F3F4F4040504028F4D7
:1035800080E1F601878B81E010C08091BF049091AB
:10359000C004A091C104B091C204F601828F938F40
:1035A000A48FB58F80E2EECF80E0DF91CF911F91A5
:1035B0000F91FF90EF90DF90CF90BF90AF909F90D2
:1035C0008F9008954F925F926F927F928F929F9209
:1035D000AF92BF92CF92DF92EF92FF920F931F9321
:1035E000CF93DF93EC016A017B012801390142305E
:1035F00051056105710508F46FC089859A85AB8511
:10360000BC850196A11DB11D84179507A607B707B4
:1036100008F462C02B893C894D895E898F8980318D
:1036200029F499278F2D7E2D6D2D09C0C701B60174
:1036300017E096958795779567951A95D1F74B0181
:103640005C01820E931EA41EB51E8091AF03909163
:10365000B003A091B103B091B20388169906AA06EF
:10366000BB0639F0C501B40140E00E94621988230D
:1036700099F18F89803149F4F601F070EE0FFF1F48
:10368000ED56FB4F518240820DC0F601EF77F0708E
:10369000EE0FFF1FEE0FFF1FED56FB4F40825182D2
:1036A00062827382809195068160809395068A89F3
:1036B000823080F08D819E81AF81B885880E991E01
:1036C000AA1EBB1E8092960690929706A09298061C
:1036D000B092990681E001C080E0DF91CF911F9107
:1036E0000F91FF90EF90DF90CF90BF90AF909F90A1
:1036F0008F907F906F905F904F900895CF92DF9260
:10370000EF92FF920F931F93CF93DF93EC017A0117
:103710008B01690189859A85AB85BC850196A11DC0
:10372000B11D84179507A607B70708F450C02B8969
:103730003C894D895E898F89803129F49927812FB1
:10374000702F6F2D09C0C801B701E7E096958795E6
:1037500077956795EA95D1F7260F371F481F591FB0
:103760008091AF039091B003A091B103B091B203E7
:10377000281739074A075B0739F0CA01B90140E049
:103780000E946219882319F18F89803159F4F70159
:10379000F070EE0FFF1FED56FB4F80819181A0E08E
:1037A000B0E00EC0F701EF77F070EE0FFF1FEE0FE5
:1037B000FF1FED56FB4F80819181A281B381BF70C5
:1037C000F60180839183A283B38381E001C080E00E
:1037D000DF91CF911F910F91FF90EF90DF90CF90ED
:1037E0000895AF92BF92CF92DF92EF92FF920F9324
:1037F0001F93DF93CF9300D000D0CDB7DEB76C011D
:103800007A018B0182E090E0A0E0B0E0F6018083D5
:103810009183A283B3835E010894A11CB11CC601ED
:10382000B801A70195010E947E1B882319F1C601EA
:10383000B801A70100E010E020E030E00E94E21AA9
:103840008823C1F0E980FA800B811C81F601878909
:10385000803129F088EF9FEFAFEFBFE004C088EF21
:103860009FEFA0E0B0E0E816F9060A071B07B8F2E0
:1038700081E001C080E00F900F900F900F90CF91EA
:10388000DF911F910F91FF90EF90DF90CF90BF904D
:10389000AF9008954F925F926F927F928F929F9216
:1038A000AF92BF92CF92DF92EF92FF920F931F934E
:1038B000DF93CF9300D000D0CDB7DEB76C01498342
:1038C0005A836B837C833901EE24FF2487012E0108
:1038D0000894411C511C812CA2E09A2EA12CB12CE1
:1038E00049815A816B817C81C60192010E947E1BB5
:1038F000882351F1D501C401F601058404C0880F65
:10390000991FAA1FBB1F0A94D2F7E80EF91E0A1FBF
:103910001B1F29813A814B815C818789803129F085
:1039200088EF9FEFAFEFBFE004C088EF9FEFA0E00C
:10393000B0E0281739074A075B0790F2F301E082ED
:10394000F1820283138381E00F900F900F900F900C
:10395000CF91DF911F910F91FF90EF90DF90CF906B
:10396000BF90AF909F908F907F906F905F904F909F
:1039700008952F923F924F925F926F927F928F9213
:103980009F92AF92BF92CF92DF92EF92FF920F93EE
:103990001F93DF93CF93CDB7DEB72F970FB6F89471
:1039A000DEBF0FBECDBF1C014A875B876C877D875A
:1039B0003F872E87D9010D911D912D913C910115C5
:1039C00011052105310549F0480159010894811C70
:1039D000911CA11CB11C198610C0FC018080918033
:1039E000A280B38019868A859B85AC85BD850197A9
:1039F000A105B10511F491E09987D10119968D9136
:103A00009D910D90BC91A02D0196A11DB11D8D839E
:103A10009E83AF83B8877501640144245524320125
:103A20008E010F5F1F4FF10181859285A385B485BB
:103A3000481659066A067B0608F090C08D819E8163
:103A4000AF81B8858C159D05AE05BF0550F482E0A9
:103A5000882E912CA12CB12CB2E0CB2ED12CE12CB4
:103A6000F12CC101B701A60198010E947E1B882399
:103A700009F474C089819A81AB81BC81A701960148
:103A80002F5F3F4F4F4F5F4F0097A105B10519F0D2
:103A900049015A010DC0281939094A095B098A856B
:103AA0009B85AC85BD85281739074A075B0759F008
:103AB0000894411C511C611C711C0894C11CD11C30
:103AC000E11CF11CB0CFC101A601B7010FEF1FEF40
:103AD0002FEF3FE00E94E21A882399F43FC02601AD
:103AE000370108944108510861087108C101B30108
:103AF000A201970186010E94E21A882379F17301DD
:103B000062018C149D04AE04BF0448F3AE85BF85EA
:103B10004D915D916D917C91411551056105710546
:103B200039F0C101950184010E94E21A8823B1F0A5
:103B3000EE85FF8580829182A282B382F985FF2380
:103B400059F00894811C911CA11CB11CD1018D92CB
:103B50009D92AD92BC92139781E001C080E02F96B8
:103B60000FB6F894DEBF0FBECDBFCF91DF911F918E
:103B70000F91FF90EF90DF90CF90BF90AF909F900C
:103B80008F907F906F905F904F903F902F9008950F
:103B900081E08093DF066093BC061092DD061092F0
:103BA000DE0608952091BB0630E08091BA06281BFE
:103BB0003109C90108954091BA068091BB064817A2
:103BC00018F02FEF3FEF0AC0E42FF0E0E656F94F70
:103BD0008081282F30E04F5F4093BA06C9010895D5
:103BE000E091BA068091BB06E81718F0EFEFFFEFFF
:103BF00006C0F0E0E656F94F8081E82FF0E0CF01F3
:103C0000089508951092E3061092E20688EE93E07C
:103C1000A0E0B0E08093E4069093E506A093E6066A
:103C2000B093E70686ED93E09093E1068093E0067B
:103C30000895CF92DF92EF92FF920F931F93CF934D
:103C4000DF937C016B018A018091DF068823A1F05C
:103C5000C0E0D0E00DC0D701ED91FC91D601AC0FD2
:103C6000BD1F0190F081E02DC7016C91099521964F
:103C7000C017D10780F304C0CB01642F0E944B1FF3
:103C8000C801DF91CF911F910F91FF90EF90DF90CE
:103C9000CF900895DF93CF930F92CDB7DEB7FC019D
:103CA00069838091DF068823C9F08091DE06803227
:103CB00038F081E090E09383828320E030E015C00B
:103CC0008091DD06E82FF0E0E354F94F998190836D
:103CD0008F5F8093DD068093DE0605C0CE010196DE
:103CE00061E00E944B1F21E030E0C9010F90CF91AD
:103CF000DF9108950F93062F8091BC066DEB76E05F
:103D00004091DE0621E00E94F61E1092DD06109220
:103D1000DE061092DF060F91089561E00E947A1E80
:103D20000895413208F040E2862F6AE976E00E9469
:103D3000AD1E1092BA068093BB06089521E00E9442
:103D4000911E08951092BA061092BB061092DD06DD
:103D50001092DE060E94F7200895382F413210F0AD
:103D600040E042C08091EC068823E1F791E0909317
:103D7000EC062093EE068FEF8093590710921407FC
:103D80004150409315074F5F9093ED068091ED06EB
:103D9000330F832B8093ED068091EF06813041F441
:103DA0001092EF068091ED068093BB0085EC01C078
:103DB00085EE8093BC008091EC068130E1F3809128
:103DC0001407841710F44091140720E030E00AC073
:103DD000FB01E20FF31FD901AC50B94F8C918083E6
:103DE0002F5F3F4F2417A0F3842F08950F931F9345
:103DF000582F122F413210F081E04AC08091EC061A
:103E00008823E1F782E08093EC060093EE068FEFC3
:103E1000809359071092140740931507A4EFB6E05A
:103E2000FB0102C081918D938E2F861B8417D0F3E6
:103E30001092ED068091ED06550F852B8093ED06CF
:103E40008091EF06813041F41092EF068091ED06EB
:103E50008093BB0085EC01C085EE8093BC001123EC
:103E600021F08091EC068230E1F3809159078F3F79
:103E700011F480E00DC080915907803211F482E086
:103E800007C080915907803311F084E001C083E0BE
:103E90001F910F910895482F613210F081E008952D
:103EA0008091EC06843011F082E00895609337072A
:103EB000A6E1B7E0842F9C01F90102C081918D93A6
:103EC0008E2F841B8617D0F380E008951F920F92E7
:103ED0000FB60F9211242F933F934F935F936F93DD
:103EE0007F938F939F93AF93BF93EF93FF938091B3
:103EF000B90090E0887F90708036910509F4F2C097
:103F000081369105CCF58832910509F47BC0893260
:103F10009105B4F48031910509F46FC081319105A8
:103F20003CF4009709F447C1089709F04FC165C0F8
:103F30008831910509F466C0809709F047C182C0B5
:103F40008034910509F4A4C08134910544F4803390
:103F5000910509F482C0C89709F038C189C080353D
:103F6000910509F489C08835910509F496C0883413
:103F7000910509F02BC1AEC08839910509F413C130
:103F800089399105ECF48837910509F4ABC089377C
:103F900091054CF48836910509F4A4C08037910549
:103FA00009F014C19FC08838910509F4FCC080391C
:103FB000910509F49DC08038910509F007C198C0AA
:103FC000803B910509F4C6C0813B91054CF4803AD1
:103FD000910509F49FC0883A910509F0F7C0BAC06D
:103FE000803C910509F4E3C0883C910509F4DFC0E9
:103FF000883B910509F0EAC0C2C08091ED0680932C
:10400000BB00CFC09091140780911507981768F4F2
:1040100090911407E92FF0E0EC50F94F80818093E4
:10402000BB009F5F90931407BCC08091EE0688236D
:1040300009F44BC085ED8093BC008091BC0084FDE9
:10404000FCCFC2C080E28093590785ED8093BC000D
:104050008091BC0084FDFCCFB7C080E380935907FA
:1040600085ED8093BC008091BC0084FDFCCFACC08A
:1040700088E3809359079BC0809114079091BB00FF
:10408000E82FF0E0EC50F94F90838F5F8093140796
:10409000909114078091150782C080911407909128
:1040A000BB00E82FF0E0EC50F94F90838F5F8093D6
:1040B00014078091EE06882341F085ED8093BC00C3
:1040C0008091BC0084FDFCCF7FC081E08093EF062F
:1040D00084EA6EC085ED8093BC008091BC0084FDB5
:1040E000FCCF72C083E08093EC061092580759C051
:1040F00080915807803208F056C0809158079091FF
:10410000BB00E82FF0E0E85CF84F90838F5F80936E
:10411000580747C080915807803230F4E091580723
:10412000F0E0E85CF84F108285ED8093BC00809150
:10413000BC0084FDFCCF1092EC0660915807E09122
:10414000F206F091F30688E397E070E0099510928B
:1041500058072DC084E08093EC0610923607109229
:104160003707E091F006F091F10609958091370745
:10417000882329F481E080933707109216079091E5
:104180003607E92FF0E0EA5EF84F80818093BB00AC
:104190009F5F909336079091360780913707981765
:1041A00010F485EC01C085E88093BC000FC085EC5D
:1041B0008093BC0009C01092590785ED8093BC0024
:1041C0008091BC0084FDFCCF1092EC06FF91EF9132
:1041D000BF91AF919F918F917F916F915F914F911F
:1041E0003F912F910F900FBE0F901F901895109236
:1041F000EC0681E08093EE061092EF0682E161E02A
:104200000E949F2383E161E00E949F23E9EBF0E09D
:1042100080818E7F808380818D7F808388E48093FE
:10422000B80085E48093BC0008950F931F93CF934B
:10423000DF93BC018230910510F462E070E0E09100
:104240000F08F0911008A0E0B0E040E050E024C07A
:104250008081918186179707D0F08617970771F4B0
:1042600082819381109729F013969C938E931297D5
:104270002CC09093100880930F0827C0411551055A
:1042800019F08417950718F4EF018D01AC01DF01D7
:10429000828193819C01F9013097D1F64115510536
:1042A000F9F0CA01861B970B8430910580F48A814E
:1042B0009B810115110521F0F8019383828304C0CD
:1042C0009093100880930F08FE01329645C0FE01BE
:1042D000E80FF91F619371930297998388833CC01B
:1042E00080910D0890910E08892B41F48091B503BF
:1042F0009091B60390930E0880930D084091B703F8
:104300005091B8034115510541F44DB75EB7809106
:10431000B3039091B403481B590B20910D083091C1
:104320000E0824173507B0F4CA01821B930B8617B9
:10433000970780F0AB014E5F5F4F8417950750F0F1
:10434000420F531F50930E0840930D08F9016193DB
:10435000719302C0E0E0F0E0CF01DF91CF911F91B7
:104360000F910895CF93DF939C01009709F48FC0BC
:10437000EC0122971B821A8260910F08709110083D
:104380006115710581F488819981820F931F2091B5
:104390000D0830910E082817390739F5D0930E080B
:1043A000C0930D0874C0DB0140E050E0AC17BD07BE
:1043B00008F1BB83AA83FE0121913191E20FF31F23
:1043C000AE17BF0779F48D919C911197280F391F73
:1043D0002E5F3F4F3983288312968D919C911397BE
:1043E0009B838A834115510571F4D0931008C093C3
:1043F0000F084DC012968D919C911397AD010097B7
:1044000011F0DC01D3CFDA011396DC93CE9312972F
:10441000FA0121913191E20FF31FCE17DF0769F402
:1044200088819981280F391F2E5F3F4FFA01318310
:1044300020838A819B8193838283E0E0F0E0DB012B
:1044400012968D919C911397009719F0BC01FD0174
:10445000F6CFAB014E5F5F4FDB018D919C91840FD6
:10446000951F20910D0830910E082817390779F40F
:10447000309729F41092100810920F0802C013828E
:1044800012824250504050930E0840930D08DF9125
:10449000CF9108951F920F920FB60F9211242F9370
:1044A0003F938F939F93AF93BF9380915E079091BB
:1044B0005F07A0916007B091610730916207019694
:1044C000A11DB11D232F2D5F2D3720F02D570196F3
:1044D000A11DB11D2093620780935E0790935F0733
:1044E000A0936007B093610780915A0790915B0792
:1044F000A0915C07B0915D070196A11DB11D80934D
:104500005A0790935B07A0935C07B0935D07BF9138
:10451000AF919F918F913F912F910F900FBE0F9070
:104520001F9018958FB7F89420915E0730915F0720
:1045300040916007509161078FBFB901CA0108958A
:104540009B01AC017FB7F89480915A0790915B076B
:10455000A0915C07B0915D0766B5A89B05C06F3F51
:1045600019F00196A11DB11D7FBFBA2FA92F982F59
:104570008827860F911DA11DB11D62E0880F991F2C
:10458000AA1FBB1F6A95D1F7BC012DC0FFB7F894D5
:1045900080915A0790915B07A0915C07B0915D07ED
:1045A000E6B5A89B05C0EF3F19F00196A11DB11D0E
:1045B000FFBFBA2FA92F982F88278E0F911DA11DFD
:1045C000B11DE2E0880F991FAA1FBB1FEA95D1F722
:1045D000861B970B885E9340C8F2215030404040C4
:1045E000504068517C4F211531054105510571F648
:1045F0000895019739F0880F991F880F991F029726
:104600000197F1F70895789484B5826084BD84B5EC
:10461000816084BD85B5826085BD85B5816085BDBD
:10462000EEE6F0E0808181608083E1E8F0E01082D6
:10463000808182608083808181608083E0E8F0E017
:10464000808181608083E1EBF0E080818460808301
:10465000E0EBF0E0808181608083EAE7F0E0808138
:104660008460808380818260808380818160808398
:104670008081806880831092C1000895982F8E30C9
:1046800008F09E5097708091B9038295880F880F2B
:10469000807C892B80937C0080917A008064809359
:1046A0007A0080917A0086FDFCCF209178004091BD
:1046B0007900942F80E030E0282B392BC901089530
:1046C000CF93DF93482F50E0CA018A549F4FFC01DB
:1046D00034914E555F4FFA018491882369F190E03F
:1046E000880F991FFC01EC57FF4FA591B491FC0175
:1046F000E257FF4FC591D491662351F42FB7F89438
:104700008C91932F909589238C93888189230BC05A
:10471000623061F42FB7F8948C91932F9095892390
:104720008C938881832B88832FBF06C09FB7F89412
:104730008C91832B8C939FBFDF91CF910895482F4D
:1047400050E0CA0186539F4FFC012491CA018A544C
:104750009F4FFC0194914E555F4FFA0134913323E2
:1047600009F440C0222351F1233071F0243028F4A1
:104770002130A1F0223011F514C02630B1F02730DD
:10478000C1F02430D9F404C0809180008F7703C039
:10479000809180008F7D8093800010C084B58F77DA
:1047A00002C084B58F7D84BD09C08091B0008F7731
:1047B00003C08091B0008F7D8093B000E32FF0E0C4
:1047C000EE0FFF1FE257FF4FA591B4912FB7F8945A
:1047D000662321F48C919095892302C08C91892BBA
:1047E0008C932FBF0895682F70E0CB0186539F4FA5
:1047F000FC012491CB018A549F4FFC0144916E55DA
:104800007F4FFB019491992319F420E030E03CC0E4
:10481000222351F1233071F0243028F42130A1F00B
:10482000223011F514C02630B1F02730C1F0243009
:10483000D9F404C0809180008F7703C080918000FC
:104840008F7D8093800010C084B58F7702C084B5BF
:104850008F7D84BD09C08091B0008F7703C08091A7
:10486000B0008F7D8093B000892F90E0880F991F52
:1048700088569F4FFC01A591B4918C9120E030E0C7
:10488000842311F021E030E0C901089508951F92BA
:104890000F920FB60F9211242F933F934F938F9344
:1048A0009F93EF93FF938091C00082FD1DC04091C4
:1048B000C6002091A3073091A4072F5F3F4F2F73AD
:1048C00030708091A5079091A6072817390771F0DD
:1048D000E091A307F091A407ED59F84F408330937E
:1048E000A4072093A30702C08091C600FF91EF9117
:1048F0009F918F914F913F912F910F900FBE0F90ED
:104900001F901895E091F707F091F807E05CFF4FD2
:104910008191919120813181821B930B8F739070D3
:10492000892B11F00E94462408951F920F920FB612
:104930000F9211242F933F938F939F93EF93FF93A5
:104940002091E7073091E8078091E9079091EA0705
:104950002817390731F48091C1008F7D8093C10001
:1049600014C0E091E907F091EA07E955F84F20817A
:104970008091E9079091EA0701968F739070909368
:10498000EA078093E9072093C600FF91EF919F917A
:104990008F913F912F910F900FBE0F901F90189500
:1049A000AF92BF92DF92EF92FF920F931F93CF933C
:1049B000DF93EC017A018B01DD24403081EE580752
:1049C00080E0680780E0780711F0DD24D39491E05F
:1049D000A92EB12CEC89FD89DD2069F0C50108A064
:1049E00002C0880F991F0A94E2F7808360E079E0A3
:1049F0008DE390E005C0108260E874E88EE190E0FD
:104A0000A80197010E94232B215030404040504084
:104A1000569547953795279580E12030380720F047
:104A2000DD2011F0DD24D6CFE889F9893083EA89C9
:104A3000FB89208319A2EE89FF89408121E030E0C3
:104A4000C9010C8C02C0880F991F0A94E2F7482B09
:104A50004083EE89FF894081C9010D8C02C0880F17
:104A6000991F0A94E2F7482B4083EE89FF89408121
:104A7000C9010E8C02C0880F991F0A94E2F7482BD7
:104A80004083EE89FF8980810F8C02C0220F331F83
:104A90000A94E2F7209528232083DF91CF911F917C
:104AA0000F91FF90EF90DF90BF90AF900895DC01E1
:104AB0001C96ED91FC911D97E05CFF4F2191319187
:104AC00080819181281B390B2F733070C9010895A3
:104AD000DC011C96ED91FC911D97E05CFF4F20815D
:104AE0003181E054F040DF01AE5BBF4F8D919C916E
:104AF00011972817390719F42FEF3FEF07C08D9151
:104B00009C91E80FF91F8081282F30E0C90108959A
:104B1000DC011C96ED91FC911D97E05CFF4F20811C
:104B20003181E054F040DF01AE5BBF4F8D919C912D
:104B300011972817390719F42FEF3FEF10C08D9107
:104B40009C911197E80FF91F20818D919C911197ED
:104B500001968F73907011969C938E9330E0C901EB
:104B60000895DC0191968C919197882339F05496A1
:104B7000ED91FC915597808186FFF9CF91961C921B
:104B80000895CF93DF93EC01EE85FF85E05CFF4F46
:104B900020813181E054F0402F5F3F4F2F73307000
:104BA000DF01AE5BBF4F8D919C911197281739079C
:104BB000D1F3E05CFF4F80819181E054F040E80F39
:104BC000F91F6083EE85FF85E05CFF4F3183208312
:104BD000EE89FF89208181E090E00F8C02C0880F70
:104BE000991F0A94E2F7282B208381E089A3EC899E
:104BF000FD8980818064808381E090E0DF91CF91A6
:104C000008951092EE071092ED0788EE93E0A0E071
:104C1000B0E08093EF079093F007A093F107B09373
:104C2000F20786EE93E09093EC078093EB0783E620
:104C300097E09093F8078093F70787EA97E09093BF
:104C4000FA078093F90785EC90E09093FC07809336
:104C5000FB0784EC90E09093FE078093FD0780ECC7
:104C600090E0909300088093FF0781EC90E0909390
:104C700002088093010882EC90E0909304088093EE
:104C8000030886EC90E0909306088093050884E082
:104C90008093070883E08093080887E080930908E1
:104CA00085E080930A0881E080930B080895CF93F4
:104CB000DF930E9403230E94BF07C2E8D4E20E9450
:104CC00025072097E1F30E948224F9CFCF92DF924B
:104CD000EF92FF920F931F93CF93DF937C016B01B1
:104CE0008A01C0E0D0E00FC0D6016D916D01D701FF
:104CF000ED91FC910190F081E02DC7010995C80F5D
:104D0000D91F015010400115110571F7CE01DF9137
:104D1000CF911F910F91FF90EF90DF90CF9008956A
:104D2000DC01ED91FC910190F081E02D0995089551
:104D3000EF92FF920F931F938C01DC01ED91FC9198
:104D40000190F081E02D6DE009957C01D801ED9195
:104D5000FC910190F081E02DC8016AE009959C0169
:104D60002E0D3F1DC9011F910F91FF90EF900895E7
:104D7000CF93DF93EC016115710519F420E030E069
:104D80000FC0DB010D900020E9F71197A61BB70BB0
:104D9000E881F9810280F381E02DAD0109959C0144
:104DA000C901DF91CF9108954F925F927F928F92C8
:104DB0009F92AF92BF92CF92DF92EF92FF920F93AA
:104DC0001F93DF93CF93CDB7DEB7A1970FB6F894BB
:104DD000DEBF0FBECDBF2C01742ECB01223008F4F4
:104DE0002AE019A231E2C32ED12CCC0EDD1E822E78
:104DF0009924AA24BB24672D752FA50194010E9434
:104E0000232B79018A01C801B701A50194010E94F1
:104E1000F82A472D461B0894C108D1084A3014F4DB
:104E2000405D01C0495CF6014083E114F1040105D5
:104E3000110521F07E2C5F2DC801DDCFC201B60126
:104E40000E94B826A1960FB6F894DEBF0FBECDBF64
:104E5000CF91DF911F910F91FF90EF90DF90CF9056
:104E6000BF90AF909F908F907F905F904F900895EC
:104E7000DC012115310541F4ED91FC910190F081A7
:104E8000E02D642F099508950E94D4260895EF928D
:104E9000FF920F931F939A017B0100E010E0B8018D
:104EA000A7010E9438271F910F91FF90EF9008955E
:104EB000EF92FF920F931F939A01E62EFF2400E0DA
:104EC00010E0B801A7010E9438271F910F91FF90B1
:104ED000EF900895CF92DF92EF92FF920F931F937E
:104EE000CF93DF93EC016A017B012115310541F479
:104EF000E881F9810190F081E02D642F09951FC0B0
:104F00002A303105D1F477FF17C0E881F98101908B
:104F1000F081E02D6DE209958C0144275527BA01F7
:104F20004C195D096E097F09CE012AE00E94D42642
:104F30009801280F391F04C02AE00E94D4269C0142
:104F4000C901DF91CF911F910F91FF90EF90DF90FA
:104F5000CF900895CF92DF92EF92FF920F931F931D
:104F60006C017B019A010027F7FC0095102FB80116
:104F7000A7010E946A278C01C6010E949826080F8B
:104F8000191FC8011F910F91FF90EF90DF90CF90F4
:104F900008950E94B82608957F928F929F92AF92B3
:104FA000BF92CF92DF92EF92FF920F931F93CF9316
:104FB000DF934C017A018B01722ECB01BA01A8015B
:104FC00097010E94F42A882321F0C40169E873E064
:104FD00021C0C0E0D0E057016801E894D7F8C601CD
:104FE000B5012FEF3FEF4FE75FE70E94F42A8823D8
:104FF00051F4C601B5012FEF3FEF4FE75FE70E9485
:105000003E29181614F0C1E0D0E0219739F0C40110
:105010006DE873E00E94B826EC0193C0C801B701A7
:105020002FEF3FEF4FE75FE40E948D2A181654F0F0
:10503000C801B7012FEF3FEF4FE75FEC0E943E2919
:10504000882324F4C40161E973E0E4CFC801B70107
:1050500020E030E040E050E00E943E2987FD03C0A0
:10506000C0E0D0E00EC0D401ED91FC910190F08140
:10507000E02DC4016DE20995EC0117FB109517F9BD
:10508000109520E030E040E05FE3DD240BC0CA0172
:10509000B90120E030E040E251E40E9442299B0146
:1050A000AC01D394D71498F3C801B7010E94DA2851
:1050B0005B016C010E94AF297B018C01C401B80126
:1050C000A7012AE030E00E943827C80FD91F7720B7
:1050D00039F0C40165E973E00E94B826C80FD91FF2
:1050E000C801B7010E94DB299B01AC01C601B501D3
:1050F0000E94D92824C020E030E040E251E40E9420
:10510000912A7B018C010E94AA295B016C01CC24AD
:10511000B7FCC094DC2CC401B601A5012AE030E044
:105120000E946A27C80FD91FC601B5010E94DD2958
:105130009B01AC01C801B7010E94D9287A9477205D
:10514000D1F6CE01DF91CF911F910F91FF90EF909B
:10515000DF90CF90BF90AF909F908F907F900895F9
:105160000E94CC270895EF92FF920F931F937C012A
:105170000E94CC278C01C7010E949826080F191F96
:10518000C8011F910F91FF90EF900895EF92FF9249
:105190000F931F937C010E94B8268C01C7010E94C7
:1051A0009826080F191FC8011F910F91FF90EF90CB
:1051B00008955058BB27AA270ED075C166D130F08C
:1051C0006BD120F031F49F3F11F41EF45BC10EF45B
:1051D000E095E7FB51C1E92F77D180F3BA17620759
:1051E00073078407950718F071F49EF58FC10EF4CC
:1051F000E0950B2EBA2FA02D0B01B90190010C01E7
:10520000CA01A0011124FF27591B99F0593F50F4FE
:10521000503E68F11A16F040A22F232F342F442756
:10522000585FF3CF469537952795A795F04053954E
:10523000C9F77EF41F16BA0B620B730B840BBAF01E
:105240009150A1F0FF0FBB1F661F771F881FC2F789
:105250000EC0BA0F621F731F841F48F4879577959D
:105260006795B795F7959E3F08F0B3CF9395880F54
:1052700008F09927EE0F979587950895D9D008F4EF
:1052800081E008950CD00FC107D140F0FED030F07E
:1052900021F45F3F19F0F0C0511139C1F3C014D1AE
:1052A00098F39923C9F35523B1F3951B550BBB27ED
:1052B000AA2762177307840738F09F5F5F4F220F9A
:1052C000331F441FAA1FA9F333D00E2E3AF0E0E893
:1052D00030D091505040E695001CCAF729D0FE2FDF
:1052E00027D0660F771F881FBB1F26173707480771
:1052F000AB07B0E809F0BB0B802DBF01FF27935827
:105300005F4F2AF09E3F510568F0B6C000C15F3F75
:10531000ECF3983EDCF3869577956795B795F7950E
:105320009F5FC9F7880F911D9695879597F9089506
:10533000E1E0660F771F881FBB1F621773078407A2
:10534000BA0720F0621B730B840BBA0BEE1F88F7B1
:10535000E095089504D06894B111D9C00895BCD0E7
:1053600088F09F5790F0B92F9927B751A0F0D1F04E
:10537000660F771F881F991F1AF0BA95C9F712C0D8
:10538000B13081F0C3D0B1E00895C0C0672F782F4D
:105390008827B85F39F0B93FCCF386957795679544
:1053A000B395D9F73EF490958095709561957F4FB0
:1053B0008F4F9F4F0895E89409C097FB3EF4909556
:1053C0008095709561957F4F8F4F9F4F9923A9F0DE
:1053D000F92F96E9BB279395F6958795779567956D
:1053E000B795F111F8CFFAF4BB0F11F460FF1BC0B1
:1053F0006F5F7F4F8F4F9F4F16C0882311F096E944
:1054000011C0772321F09EE8872F762F05C06623F1
:1054100071F096E8862F70E060E02AF09A95660FAA
:10542000771F881FDAF7880F9695879597F9089563
:10543000990F0008550FAA0BE0E8FEEF16161706A5
:10544000E807F907C0F012161306E407F50798F00D
:10545000621B730B840B950B39F40A2661F0232B26
:10546000242B252B21F408950A2609F4A140A695A2
:105470008FEF811D811D089597F99F6780E870E087
:1054800060E008959FEF80EC089500240A941616BA
:10549000170618060906089500240A941216130622
:1054A000140605060895092E0394000C11F48823B0
:1054B00052F0BB0F40F4BF2B11F460FF04C06F5FCC
:1054C0007F4F8F4F9F4F089557FD9058440F551FA2
:1054D00059F05F3F71F04795880F97FB991F61F076
:1054E0009F3F79F087950895121613061406551FED
:1054F000F2CF4695F1DF08C0161617061806991F59
:10550000F1CF86957105610508940895E894BB274D
:1055100066277727CB0197F908958ADF08F48FEF84
:1055200008950BD0C0CFB1DF28F0B6DF18F0952377
:1055300009F0A2CFA7CF1124EACFC6DFA0F3959F31
:10554000D1F3950F50E0551F629FF001729FBB276A
:10555000F00DB11D639FAA27F00DB11DAA1F649F16
:105560006627B00DA11D661F829F2227B00DA11DC9
:10557000621F739FB00DA11D621F839FA00D611D4F
:10558000221F749F3327A00D611D231F849F600D70
:10559000211D822F762F6A2F11249F5750408AF0A9
:1055A000E1F088234AF0EE0FFF1FBB1F661F771F35
:1055B000881F91505040A9F79E3F510570F05CCF75
:1055C000A6CF5F3FECF3983EDCF386957795679521
:1055D000B795F795E7959F5FC1F7FE2B880F911D53
:1055E0009695879597F9089523DF880B990B089571
:1055F000629FD001739FF001829FE00DF11D649FB7
:10560000E00DF11D929FF00D839FF00D749FF00D42
:10561000659FF00D9927729FB00DE11DF91F639FE3
:10562000B00DE11DF91FBD01CF0111240895991B93
:1056300079E004C0991F961708F0961B881F7A9589
:10564000C9F780950895A1E21A2EAA1BBB1BFD0184
:105650000DC0AA1FBB1FEE1FFF1FA217B307E40751
:10566000F50720F0A21BB30BE40BF50B661F771FA9
:10567000881F991F1A9469F7609570958095909589
:105680009B01AC01BD01CF010895EE0FFF1F0590F6
:10569000F491E02D09942F923F924F925F926F9276
:1056A0007F928F929F92AF92BF92CF92DF92EF92B2
:1056B000FF920F931F93CF93DF93CDB7DEB7CA1B33
:1056C000DB0B0FB6F894DEBF0FBECDBF09942A885E
:1056D000398848885F846E847D848C849B84AA8406
:1056E000B984C884DF80EE80FD800C811B81AA8193
:1056F000B981CE0FD11D0FB6F894DEBF0FBECDBF5E
:10570000ED01089510E0C8EED0E004C0FE010E9453
:0E571000472B2296CA3ED107C9F7F894FFCF67
:10571E004C6971756964206C6576656C203D20005E
:10572E00444154414C4F472E637376002C20006544
:10573E0072726F72206F70656E696E67204441548D
:10574E00414C4F472E435356006572726F723A208A
:10575E000043617264206661696C65642C206F720F
:10576E00206E6F742070726573656E740063617263
:10577E006420696E697469616C697A65642E006370
:10578E006F756C646E7420637265617465206669F2
:10579E006C65004C6F6767696E6720746F3A200006
:1057AE00496E697469616C697A696E672053442029
:1057BE00636172642E2E2E0043617264204661690D
:1057CE006C65642C206F72206E6F7420707265731E
:1057DE00656E7400444154414C4F472E435356005E
:1057EE004C69676874206C6576656C203D20004CB2
:1057FE0075636874766F6368746967686569642039
:10580E003D20002520200054656D70657261747511
:10581E007572203D2000202A432020004572726FB1
:10582E007220313A2044485420737461727420639C
:10583E006F6E646974696F6E2031206E6F74206DA7
:10584E0065742E004572726F7220323A20444854AD
:10585E0020737461727420636F6E646974696F6E05
:10586E002032206E6F74206D65742E004572726F3B
:10587E007220333A2044485420636865636B737515
:10588E006D206572726F722E004572726F723A20C1
:10589E00556E7265636F676E697A656420636F64B7
:1058AE006520656E636F756E74657265642E00702B
:1058BE006D656D203D2000536574706F696E7420A8
:1058CE003D20004879737465726973203D20007025
:1058DE0048203D20004C75636874766F6368746968
:1058EE0067686569642C2074656D70657261747586
:1058FE0075722026207048005F5F5F5F5F5F5F5F9D
:10590E005F5F5F5F5F5F5F5F5F5F5F5F5F5F5F5F99
:10591E005F5F5F5F5F5F5F5F5F5F0A0A0041747486
:10592E00656D707420746F207772697465206F7561
:10593E007473696465206F6620454550524F4D2043
:10594E006D656D6F72790045786365656465642079
:10595E006D6178696D756D206E756D626572206F03
:10596E0066207772697465730043616E6E6F742082
:10597E006368616E6765206365696C696E672C206C
:10598E0062656C6F772069737375656420616464FA
:10599E00726573736573002F006E616E00696E66BB
:1059AE00006F7666002E000E002D002E002F0011C7
:1059BE00000A0031000A00140028003C000002FF1B
:1059CE00FFFFFF8000110800000100000000A90980
:1059DE00660AC1090C0A2A0A040A00000000871789
:1059EE006626000000004A1E191ED21DDB1DF01D8A
:1059FE00011E00000000C125662657258825682552
:025A0E00B125C0
:00000001FF
