:100000000C94E3000C940B010C940B010C940B0169
:100010000C940B010C940B010C940B010C940B0130
:100020000C940B010C940B010C940B010C940B0120
:100030000C940B010C940B010C940B010C940B0110
:100040000C94C1060C940B010C94F5070C94430816
:100050000C940B010C940B010C940B010C940B01F0
:100060000C940B010C940B01005EBCE2613FDD833C
:10007000C29C7E20A3FD1F419DC3217FFCA2401E88
:100080005F01E3BD3E6082DC237D9FC1421CFEA078
:10009000E1BF5D0380DE3C62BEE0025CDF81633D68
:1000A0007C22C09E1D43A1FF4618FAA427799BC558
:1000B00084DA3866E5BB5907DB856739BAE4065848
:1000C0001947A5FB7826C49A653BD987045AB8E638
:1000D000A7F91B45C6987A24F8A6441A99C7257B28
:1000E0003A6486D85B05E7B98CD2306EEDB3510F18
:1000F0004E10F2AC2F7193CD114FADF3702ECC9208
:10010000D38D6F31B2EC0E50AFF1134DCE90722CF7
:100110006D33D18F0C52B0EE326C8ED0530DEFB1E7
:10012000F0AE4C1291CF2D73CA947628ABF51749D7
:100130000856B4EA6937D58B5709EBB536688AD4C7
:1001400095CB2977F4AA4816E9B7550B88D6346AB7
:100150002B7597C94A14F6A8742AC896154BA9F7A7
:10016000B6E80A54D7896B35000000002400270048
:100170002A0000000000250028002B0000000000DD
:1001800023002600290004040404040404040202D9
:100190000202020203030303030301020408102006
:1001A0004080010204081020010204081020000011
:1001B0000007000201000003040600000000000028
:1001C00000000D01AF0911241FBECFEFD8E0DEBF44
:1001D000CDBF11E0A0E0B1E0E4E4FDE102C0059094
:1001E0000D92A238B107D9F712E0A2E8B1E001C040
:1001F0001D92AA35B107E1F711E0C6ECD1E004C0C9
:100200002297FE010E949C0EC23CD107C9F70E94B2
:10021000050A0C94A00E0C9400000F931F9302E8A3
:1002200011E0C8016CE10E948B0680E991E0B80101
:100230000E9472011F910F910895EF92FF920F9308
:100240001F9308E312E0C80160E071E00E942D0BEB
:1002500080E9E82E81E0F82EC7010E94370368EE9E
:1002600073E080E090E00E941707C8016BE171E045
:100270000E94270CC80160E271E00E942D0BC701AB
:1002800060E00E941104AB01BC014093A3015093B4
:10029000A4016093A5017093A601C80122E030E09B
:1002A0000E94140C1F910F91FF90EF9008950F93EF
:1002B0001F938CE161E00E94B50708E312E0C801DA
:1002C00040E855E260E070E00E947E08C80168E303
:1002D00071E00E94270C80E991E00E9438041F9190
:1002E0000F910895FC0188E392E0928B818B7683D5
:1002F00065831482108289E0818381E08283838315
:1003000008956F927F928F929F92AF92BF92CF92F9
:10031000DF92EF92FF920F931F93CF93DF93FB0136
:10032000EA01998180E0288130E0282B392BE08197
:10033000E23231F0E83221F0E03109F084C04BC004
:100340004C814F3329F1403420F44F3109F07BC008
:100350002FC04F3579F04F3709F075C0B9018827A4
:1003600077FD8095982F0E943E0D20E030E040E818
:100370005DE32EC035952795B901882777FD8095D7
:10038000982F0E943E0D20E030E040E05EE320C068
:100390003595279535952795B901882777FD80955F
:1003A000982F0E943E0D20E030E040E85EE310C050
:1003B00093E0359527959A95E1F7B901882777FD60
:1003C0008095982F0E943E0D20E030E040E05FE3F2
:1003D0000E94F20D32C0EF8035952795B90188272C
:1003E00077FD8095982F0E943E0D20E030E040E898
:1003F0005EE30E943A0C3B014C016E2D70E02E81B1
:10040000621B7109882777FD8095982F0E943E0D09
:100410005B016C01FF2400E010E0C801B7010E94FD
:100420003C0D9B01AC01C601B5010E94A30C9B01D0
:10043000AC01C401B3010E943B0C9B01AC01832FB2
:10044000942F752F00C0262F382F492F572FB90111
:10045000CA01DF91CF911F910F91FF90EF90DF9034
:10046000CF90BF90AF909F908F907F906F900895A6
:100470000895EF92FF920F931F938C017B01FC0173
:10048000858196810E94AA05F80185819681B70130
:100490000E948905F8018581968164EB40E00E9405
:1004A0004405F801858196810E94BF04F82EF80169
:1004B000858196810E94AA0580E0FF2009F481E0F1
:1004C0001F910F91FF90EF900895CF92DF92EF92DE
:1004D000FF920F931F938C016B017A01FC018581C0
:1004E00096810E94AA05F80185819681B6010E9435
:1004F0008905F801858196816EEB40E00E944405F4
:10050000F801858196810E94F304F7018083F80148
:10051000858196810E94F304F7018183F80185812A
:1005200096810E94F304F7018283F8018581968108
:100530000E94F304F7018383F801858196810E946C
:10054000F304F7018483F801858196810E94F30406
:10055000F7018583F801858196810E94F304F701F4
:100560008683F801858196810E94F304F7018783D1
:10057000F801858196810E94F304F7018087F801D4
:10058000858196810E94AA051F910F91FF90EF909F
:10059000DF90CF900895DF93CF93CDB7DEB7299743
:1005A0000FB6F894DEBF0FBECDBFAE014F5F5F4FF9
:1005B0000E9465028981811181E029960FB6F89425
:1005C000DEBF0FBECDBFCF91DF910895CF92DF92F6
:1005D000EF92FF920F931F93CF93DF93EC016B0188
:1005E000452BE1F08B818823C9F088818823B1F401
:1005F0000E9409077B018C01CE0160E070E00E943F
:10060000CB02882359F40E9409076E197F09800BD9
:10061000910B6E5E72408040904070F3F6016081F5
:10062000693039F06930A0F06A3041F06B3081F404
:100630000AC06EE570E080E090E00EC06CEB70E008
:1006400080E090E009C067E771E080E090E004C0DE
:100650006EEE72E080E090E00E941707DF91CF918C
:100660001F910F91FF90EF90DF90CF900895CF935F
:10067000DF93EC018D819E810E94AA058D819E8170
:100680000E9484058D819E8164E448810E94440516
:100690008A81882339F0CE012196BE0140E050E0E6
:1006A0000E94E602DF91CF9108950F931F938A0174
:1006B0000E946502C80168E00E94AE0420E0F801D3
:1006C0009085891709F421E0822F1F910F910895D9
:1006D000CF92DF92EF92FF920F931F93DF93CF930E
:1006E000CDB7DEB729970FB6F894DEBF0FBECDBFEA
:1006F0008C017B016E010894C11CD11CA6010E94D3
:100700005503882329F460E070E08EEF92EC05C079
:10071000C801B701A6010E94810129960FB6F8947D
:10072000DEBF0FBECDBFCF91DF911F910F91FF9024
:10073000EF90DF90CF900895DF93CF93CDB7DEB7E2
:1007400029970FB6F894DEBF0FBECDBF9C01FB0109
:1007500080818031D9F0C901AE014F5F5F4F0E94A7
:1007600055038823A9F08D818F3371F0803418F4FC
:100770008F3171F40BC08F3519F08F3749F402C0F7
:100780008BE007C08CE005C08AE003C089E001C0AF
:1007900080E029960FB6F894DEBF0FBECDBFCF9193
:1007A000DF9108950F931F938B01CB0167E00E94A7
:1007B000AE0420E0F8019781891709F421E0822F27
:1007C0001F910F910895EF92FF920F931F93CF9374
:1007D000DF93EC017B01042F8D819E810E94A10497
:1007E00010E007C0CE01B7010E94D2038823A9F010
:1007F0000AC08D819E81B7010E94F505882329F0EA
:10080000101759F4EFCF81E001C080E0DF91CF9164
:100810001F910F91FF90EF9008951F5F0117A8F3AC
:10082000E8CFEF92FF920F931F93DF93CF93CDB753
:10083000DEB728970FB6F894DEBF0FBECDBF7C01A0
:10084000462F8E010F5F1F4FB8010E94E303C701BF
:10085000B8010E94680328960FB6F894DEBF0FBE59
:10086000CDBFCF91DF911F910F91FF90EF90089531
:10087000AF92BF92CF92DF92EF92FF920F931F93AE
:10088000DF93CF93CDB7DEB761970FB6F894DEBF95
:100890000FBECDBF7C01FC01858196810E94A10421
:1008A000F70114826E010894C11CD11C79E0A72EB7
:1008B000B12CAC0EBD1E01E02BC0C701B6010E94D9
:1008C000D203882329F1F7018081882341F4C701ED
:1008D000B6010E943902882311F0F7010083C70195
:1008E000B601A5010E946502F7011181C701B60199
:1008F0000E949C03811718F4F701818104C0C7018D
:10090000B6010E949C03F701818384818F5F8483F9
:10091000F70185819681B6010E94F505882369F665
:1009200061960FB6F894DEBF0FBECDBFCF91DF91B9
:100930001F910F91FF90EF90DF90CF90BF90AF90FD
:100940000895FC0113861586148687E090E01286D0
:100950003197009711F00197FACF0895DC0180E0FC
:100960000BC0E82FF0E08D9190E0E827F927E859D7
:10097000FF4FE49161508E2F662399F70895DF921F
:10098000EF92FF920F931F93FC01E080018112818F
:10099000F894F80181818E2981838281DE2CD094A4
:1009A0008D21828383E090E00E947007F8018181AD
:1009B0008D2181838AE090E00E947007F801008118
:1009C000789485E390E00E94700780E010E0FF24B7
:1009D0000E211F21012B09F081E01F910F91FF9043
:1009E000EF90DF900895EF92FF920F931F93CF93B4
:1009F000DF937C0101E010E0C0E0D0E0C7010E947D
:100A0000BF048111102B000F2196C830D105B1F71A
:100A1000812FDF91CF911F910F91FF90EF9008955B
:100A20001F93CF93DF93FC011081C181D281912F5D
:100A3000909560FF12C0F8948A8189238A83898106
:100A4000812B89838AE090E00E9470078A81812B44
:100A50008A83789487E390E011C0F8948A8189238F
:100A60008A838981812B898381E490E00E947007C9
:100A70008A81812B8A83789485E090E00E947007B8
:100A8000DF91CF911F910895CF92DF92EF92FF9265
:100A90000F931F93CF93DF938C01E42EFF24F394E5
:100AA000C0E0D0E0C62EDD2460E08F2D90E08C21E8
:100AB0009D21892B09F061E0C8010E941005FF0CFF
:100AC0002196C830D10581F7EE20A9F4F894D80119
:100AD0001196ED91FC91129791818C9180959823BC
:100AE00091831196ED91FC91129792818C91809552
:100AF000982392837894DF91CF911F910F91FF906B
:100B0000EF90DF90CF9008956CEC40E00E94440598
:100B10000895EF92FF920F931F93CF93DF938C0171
:100B20007B0165E540E00E944405C0E0D0E0F701AC
:100B3000EC0FFD1FC801608140E00E944405219632
:100B4000C830D105A1F7DF91CF911F910F91FF9090
:100B5000EF900895DF92EF92FF920F931F93CF9340
:100B6000DF93FC010081C181D281F8948981D02E6C
:100B7000D0948D21898378941DE7E02EFF241150B5
:100B800059F182E090E00E947007888190E08E2108
:100B90009F21892BA1F3F8948A818D218A838981F1
:100BA000802B8983789480EE91E00E947007F894FE
:100BB00089818D21898386E490E00E947007888175
:100BC00010E090E0E822F922EF2809F411E078948F
:100BD0008AE991E00E947007812FDF91CF911F91E8
:100BE0000F91FF90EF90DF900895AF92BF92DF9248
:100BF000EF92FF920F931F93CF93DF93EC015B0172
:100C00008D85882309F061C0CE010E94AA05882342
:100C100029F41B861D861C8690E06BC0CE0160EF18
:100C200040E00E94440501E0DD24EE24FF24F3941B
:100C3000CE010E94BF04182FCE010E94BF041130C4
:100C400019F48130E1F439C0181709F58B850817BC
:100C500070F460E0FE01EE0DF11D838190E02F2D18
:100C600030E082239323181619064CF003C060E08D
:100C7000081729F0093008F04CC00C874AC0FE0163
:100C8000EE0DF11D83818F29838361E009C0612FFF
:100C9000FE01EE0DF11D9F2D9095838189238383A5
:100CA000CE010E9410050F5FFF0C19F4E394FF249E
:100CB000F39487E08E1508F0BBCF013430F0DB866B
:100CC000DD2011F581E08D871FC01B861D861C86E7
:100CD00090E0DE0120E030E0F501E20FF31F139613
:100CE0008C91139780832F5F3F4F119628303105E9
:100CF00099F7892FDF91CF911F910F91FF90EF907E
:100D0000DF90BF90AF9008958B818823F1F291E03E
:100D1000E0CFD02EBDCFFF920F931F938C01F62E04
:100D2000862F60E00E94B5078F2D90E0FC01E6560B
:100D3000FE4FE491D801EC938A579E4FFC016491D9
:100D4000E62FF0E0EE0FFF1FE458FE4F85919491DF
:100D500012969C938E9311971B961C921B971D962F
:100D60001C921D971C961C92F80187E090E0128659
:100D70003197009711F00197FACF1F910F91FF90D3
:100D800008951F920F920FB60F9211242F933F9345
:100D90008F939F93AF93BF938091AB019091AC01E0
:100DA000A091AD01B091AE013091AF010196A11DAE
:100DB000B11D232F2D5F2D3720F02D570196A11D3A
:100DC000B11D2093AF018093AB019093AC01A09330
:100DD000AD01B093AE018091A7019091A801A091BF
:100DE000A901B091AA010196A11DB11D8093A7018F
:100DF0009093A801A093A901B093AA01BF91AF91CC
:100E00009F918F913F912F910F900FBE0F901F9048
:100E100018958FB7F8942091AB013091AC014091B7
:100E2000AD015091AE018FBFB901CA0108959B0178
:100E3000AC017FB7F8948091A7019091A801A0918F
:100E4000A901B091AA0166B5A89B05C06F3F19F032
:100E50000196A11DB11D7FBFBA2FA92F982F8827FA
:100E6000860F911DA11DB11D62E0880F991FAA1F59
:100E7000BB1F6A95D1F7BC012DC0FFB7F8948091D4
:100E8000A7019091A801A091A901B091AA01E6B58E
:100E9000A89B05C0EF3F19F00196A11DB11DFFBF32
:100EA000BA2FA92F982F88278E0F911DA11DB11D34
:100EB000E2E0880F991FAA1FBB1FEA95D1F7861B96
:100EC000970B885E9340C8F221503040404050401C
:100ED00068517C4F211531054105510571F6089582
:100EE000019739F0880F991F880F991F0297019772
:100EF000F1F70895789484B5826084BD84B58160EB
:100F000084BD85B5826085BD85B5816085BDEEE611
:100F1000F0E0808181608083E1E8F0E010828081F0
:100F200082608083808181608083E0E8F0E080815E
:100F300081608083E1EBF0E0808184608083E0EB7E
:100F4000F0E0808181608083EAE7F0E08081846066
:100F500080838081826080838081816080838081C2
:100F6000806880831092C1000895CF93DF93482F4B
:100F700050E0CA0186569E4FFC0134914A575E4F9D
:100F8000FA018491882369F190E0880F991FFC0190
:100F9000E859FE4FA591B491FC01EE58FE4FC59162
:100FA000D491662351F42FB7F8948C91932F909598
:100FB00089238C93888189230BC0623061F42FB719
:100FC000F8948C91932F909589238C938881832B0F
:100FD00088832FBF06C09FB7F8948C91832B8C9386
:100FE0009FBFDF91CF91089508951F920F920FB682
:100FF0000F9211242F933F934F938F939F93EF93CF
:10100000FF938091C00082FD1DC04091C6002091D9
:10101000F0013091F1012F5F3F4F2F7330708091BD
:10102000F2019091F3012817390771F0E091F00176
:10103000F091F101E055FE4F40833093F101209390
:10104000F00102C08091C600FF91EF919F918F91B6
:101050004F913F912F910F900FBE0F901F901895B9
:10106000E0914402F0914502E05CFF4F8191919143
:1010700020813181821B930B8F739070892B11F02B
:101080000E94F40708951F920F920FB60F92112439
:101090002F933F938F939F93EF93FF93209134026D
:1010A0003091350280913602909137022817390726
:1010B00031F48091C1008F7D8093C10014C0E09114
:1010C0003602F0913702EC50FE4F208180913602BB
:1010D0009091370201968F739070909337028093AE
:1010E00036022093C600FF91EF919F918F913F911F
:1010F0002F910F900FBE0F901F901895AF92BF9237
:10110000DF92EF92FF920F931F93CF93DF93EC0147
:101110007A018B01DD24403081EE580780E06807BA
:1011200080E0780711F0DD24D39491E0A92EB12C52
:10113000EC89FD89DD2069F0C50108A002C0880F97
:10114000991F0A94E2F7808360E079E08DE390E0F4
:1011500005C0108260E874E88EE190E0A801970174
:101160000E94780E2150304040405040569547959F
:101170003795279580E12030380720F0DD2011F0E9
:10118000DD24D6CFE889F9893083EA89FB89208379
:1011900019A2EE89FF89408121E030E0C9010C8C61
:1011A00002C0880F991F0A94E2F7482B4083EE890A
:1011B000FF894081C9010D8C02C0880F991F0A94D4
:1011C000E2F7482B4083EE89FF894081C9010E8CEC
:1011D00002C0880F991F0A94E2F7482B4083EE89DA
:1011E000FF8980810F8C02C0220F331F0A94E2F71F
:1011F000209528232083DF91CF911F910F91FF909D
:10120000EF90DF90BF90AF900895DC011C96ED91B8
:10121000FC911D97E05CFF4F21913191808191817C
:10122000281B390B2F733070C9010895DC011C96FF
:10123000ED91FC911D97E05CFF4F20813181E054DE
:10124000F040DF01AE5BBF4F8D919C911197281745
:10125000390719F42FEF3FEF07C08D919C91E80FEC
:10126000F91F8081282F30E0C9010895DC011C9608
:10127000ED91FC911D97E05CFF4F20813181E0549E
:10128000F040DF01AE5BBF4F8D919C911197281705
:10129000390719F42FEF3FEF10C08D919C911197F2
:1012A000E80FF91F20818D919C91119701968F7302
:1012B000907011969C938E9330E0C9010895DC01E3
:1012C00091968C919197882339F05496ED91FC91E9
:1012D0005597808186FFF9CF91961C920895CF9300
:1012E000DF93EC01EE85FF85E05CFF4F20813181CB
:1012F000E054F0402F5F3F4F2F733070DF01AE5B43
:10130000BF4F8D919C91119728173907D1F3E05C5D
:10131000FF4F80819181E054F040E80FF91F608316
:10132000EE85FF85E05CFF4F31832083EE89FF89E6
:10133000208181E090E00F8C02C0880F991F0A94F1
:10134000E2F7282B208381E089A3EC89FD89808145
:101350008064808381E090E0DF91CF9108951092C6
:101360003B0210923A0288EE93E0A0E0B0E0809356
:101370003C0290933D02A0933E02B0933F0285E76A
:1013800091E0909339028093380280EB91E0909342
:1013900045028093440284EF91E09093470280934A
:1013A000460285EC90E0909349028093480284ECD9
:1013B00090E090934B0280934A0280EC90E09093EF
:1013C0004D0280934C0281EC90E090934F02809309
:1013D0004E0282EC90E0909351028093500286EC92
:1013E00090E0909353028093520284E080935402E1
:1013F00083E08093550287E08093560285E08093D6
:10140000570281E0809358020895CF93DF930E94A2
:101410007A070E945701C0E3D8E00E941D0120977F
:10142000E1F30E943008F9CFCF92DF92EF92FF9262
:101430000F931F93CF93DF937C016B018A01C0E070
:10144000D0E00FC0D6016D916D01D701ED91FC91F7
:101450000190F081E02DC7010995C80FD91F0150F7
:1014600010400115110571F7CE01DF91CF911F9149
:101470000F91FF90EF90DF90CF900895EF92FF9241
:101480000F931F938C01DC01ED91FC910190F08191
:10149000E02D6DE009957C01D801ED91FC91019062
:1014A000F081E02DC8016AE009959C012E0D3F1DD9
:1014B000C9011F910F91FF90EF900895CF93DF9393
:1014C000EC016115710519F420E030E00FC0DB017B
:1014D0000D900020E9F71197A61BB70BE881F98161
:1014E0000280F381E02DAD0109959C01C901DF91D6
:1014F000CF9108954F925F927F928F929F92AF9279
:10150000BF92CF92DF92EF92FF920F931F93DF93E0
:10151000CF93CDB7DEB7A1970FB6F894DEBF0FBE5D
:10152000CDBF2C01742ECB01223008F42AE019A281
:1015300031E2C32ED12CCC0EDD1E822E9924AA249A
:10154000BB24672D752FA50194010E94780E7901A7
:101550008A01C801B701A50194010E94590E472DC7
:10156000461B0894C108D1084A3014F4405D01C0FC
:10157000495CF6014083E114F1040105110521F0F5
:101580007E2C5F2DC801DDCFC201B6010E945E0A2C
:10159000A1960FB6F894DEBF0FBECDBFCF91DF91FD
:1015A0001F910F91FF90EF90DF90CF90BF90AF9081
:1015B0009F908F907F905F904F900895DC01211550
:1015C000310541F4ED91FC910190F081E02D642F03
:1015D000099508950E947A0A0895CF92DF92EF92BA
:1015E000FF920F931F93CF93DF93EC016A017B016E
:1015F0002115310541F4E881F9810190F081E02D58
:10160000642F09951FC02A303105D1F477FF17C028
:10161000E881F9810190F081E02D6DE209958C015E
:1016200044275527BA014C195D096E097F09CE017F
:101630002AE00E947A0A9801280F391F04C02AE084
:101640000E947A0A9C01C901DF91CF911F910F91ED
:10165000FF90EF90DF90CF9008950E945E0A08956A
:101660007F928F929F92AF92BF92CF92DF92EF9232
:10167000FF920F931F93CF93DF934C017A018B015D
:10168000722ECB01BA01A80197010E94550E882342
:1016900021F0C40163E671E021C0C0E0D0E0570151
:1016A0006801E894D7F8C601B5012FEF3FEF4FE787
:1016B0005FE70E94550E882351F4C601B5012FEF54
:1016C0003FEF4FE75FE70E949F0C181614F0C1E050
:1016D000D0E0219739F0C40167E671E00E945E0A0C
:1016E000EC0193C0C801B7012FEF3FEF4FE75FE474
:1016F0000E94EE0D181654F0C801B7012FEF3FEF0E
:101700004FE75FEC0E949F0C882324F4C4016BE632
:1017100071E0E4CFC801B70120E030E040E050E0E4
:101720000E949F0C87FD03C0C0E0D0E00EC0D40132
:10173000ED91FC910190F081E02DC4016DE20995DD
:10174000EC0117FB109517F9109520E030E040E010
:101750005FE3DD240BC0CA01B90120E030E040E2C4
:1017600051E40E94A30C9B01AC01D394D71498F3CD
:10177000C801B7010E943B0C5B016C010E94100D77
:101780007B018C01C401B801A7012AE030E00E946E
:10179000DE0AC80FD91F772039F0C4016FE671E067
:1017A0000E945E0AC80FD91FC801B7010E943C0DF4
:1017B0009B01AC01C601B5010E943A0C24C020E097
:1017C00030E040E251E40E94F20D7B018C010E9466
:1017D0000B0D5B016C01CC24B7FCC094DC2CC40164
:1017E000B601A5012AE030E00E94ED0AC80FD91F1A
:1017F000C601B5010E943E0D9B01AC01C801B701B5
:101800000E943A0C7A947720D1F6CE01DF91CF91E5
:101810001F910F91FF90EF90DF90CF90BF90AF900E
:101820009F908F907F900895EF92FF920F931F9358
:101830007C010E94300B8C01C7010E943E0A080FF8
:10184000191FC8011F910F91FF90EF900895EF921B
:10185000FF920F931F937C010E945E0A8C01C701C7
:101860000E943E0A080F191FC8011F910F91FF9097
:10187000EF9008955058BB27AA270ED075C166D1A6
:1018800030F06BD120F031F49F3F11F41EF45BC1B6
:101890000EF4E095E7FB51C1E92F77D180F3BA1739
:1018A000620773078407950718F071F49EF58FC1DE
:1018B0000EF4E0950B2EBA2FA02D0B01B90190016B
:1018C0000C01CA01A0011124FF27591B99F0593FAF
:1018D00050F4503E68F11A16F040A22F232F342FF7
:1018E0004427585FF3CF469537952795A795F04045
:1018F0005395C9F77EF41F16BA0B620B730B840B5A
:10190000BAF09150A1F0FF0FBB1F661F771F881F11
:10191000C2F70EC0BA0F621F731F841F48F4879569
:1019200077956795B795F7959E3F08F0B3CF939558
:10193000880F08F09927EE0F979587950895D9D0CD
:1019400008F481E008950CD00FC107D140F0FED01B
:1019500030F021F45F3F19F0F0C0511139C1F3C0EC
:1019600014D198F39923C9F35523B1F3951B550B63
:10197000BB27AA2762177307840738F09F5F5F4F62
:10198000220F331F441FAA1FA9F333D00E2E3AF0A3
:10199000E0E830D091505040E695001CCAF729D0BD
:1019A000FE2F27D0660F771F881FBB1F261737070C
:1019B0004807AB07B0E809F0BB0B802DBF01FF273C
:1019C00093585F4F2AF09E3F510568F0B6C000C1A2
:1019D0005F3FECF3983EDCF3869577956795B79576
:1019E000F7959F5FC9F7880F911D9695879597F991
:1019F0000895E1E0660F771F881FBB1F621773070A
:101A00008407BA0720F0621B730B840BBA0BEE1F1E
:101A100088F7E095089504D06894B111D9C008956D
:101A2000BCD088F09F5790F0B92F9927B751A0F0FC
:101A3000D1F0660F771F881F991F1AF0BA95C9F762
:101A400012C0B13081F0C3D0B1E00895C0C0672F9B
:101A5000782F8827B85F39F0B93FCCF38695779512
:101A60006795B395D9F73EF49095809570956195FB
:101A70007F4F8F4F9F4F0895E89409C097FB3EF426
:101A800090958095709561957F4F8F4F9F4F9923CB
:101A9000A9F0F92F96E9BB279395F6958795779549
:101AA0006795B795F111F8CFFAF4BB0F11F460FF09
:101AB0001BC06F5F7F4F8F4F9F4F16C0882311F061
:101AC00096E911C0772321F09EE8872F762F05C075
:101AD000662371F096E8862F70E060E02AF09A9510
:101AE000660F771F881FDAF7880F9695879597F905
:101AF0000895990F0008550FAA0BE0E8FEEF16169F
:101B00001706E807F907C0F012161306E407F507F1
:101B100098F0621B730B840B950B39F40A2661F065
:101B2000232B242B252B21F408950A2609F4A14008
:101B3000A6958FEF811D811D089597F99F6780E815
:101B400070E060E008959FEF80EC089500240A940F
:101B50001616170618060906089500240A94121688
:101B60001306140605060895092E0394000C11F4BB
:101B7000882352F0BB0F40F4BF2B11F460FF04C068
:101B80006F5F7F4F8F4F9F4F089557FD9058440FC1
:101B9000551F59F05F3F71F04795880F97FB991FCC
:101BA00061F09F3F79F08795089512161306140689
:101BB000551FF2CF4695F1DF08C016161706180616
:101BC000991FF1CF86957105610508940895E894F1
:101BD000BB2766277727CB0197F908958ADF08F49A
:101BE0008FEF08950BD0C0CFB1DF28F0B6DF18F02B
:101BF000952309F0A2CFA7CF1124EACFC6DFA0F327
:101C0000959FD1F3950F50E0551F629FF001729F91
:101C1000BB27F00DB11D639FAA27F00DB11DAA1FB0
:101C2000649F6627B00DA11D661F829F2227B00DFD
:101C3000A11D621F739FB00DA11D621F839FA00D88
:101C4000611D221F749F3327A00D611D231F849FD8
:101C5000600D211D822F762F6A2F11249F5750402F
:101C60008AF0E1F088234AF0EE0FFF1FBB1F661FCA
:101C7000771F881F91505040A9F79E3F510570F083
:101C80005CCFA6CF5F3FECF3983EDCF3869577956B
:101C90006795B795F795E7959F5FC1F7FE2B880F7E
:101CA000911D9695879597F9089523DF880B990BD9
:101CB0000895629FD001739FF001829FE00DF11D96
:101CC000649FE00DF11D929FF00D839FF00D749FB6
:101CD000F00D659FF00D9927729FB00DE11DF91F62
:101CE000639FB00DE11DF91FBD01CF0111240895BF
:101CF000A1E21A2EAA1BBB1BFD010DC0AA1FBB1F10
:101D0000EE1FFF1FA217B307E407F50720F0A21B81
:101D1000B30BE40BF50B661F771F881F991F1A94EE
:101D200069F760957095809590959B01AC01BD0118
:101D3000CF010895EE0FFF1F0590F491E02D099457
:041D4000F894FFCF45
:101D440052657175657374696E672074656D70652D
:101D5400726174757265732E2E2E00444F4E4500C9
:101D64004C69717569642074656D70657261747510
:101D740072652069733A200044616C6C617320546D
:101D8400656D706572617475726520494320436F97
:101D94006E74726F6C204C69627261727920446552
:101DA4006D6F006E616E00696E66006F7666002E60
:101DB40000000000006F09140A0509360916095FBE
:021DC400090014
:00000001FF
