:100000000C94B4010C94E1010C94E1010C94E10115
:100010000C94E1010C94E1010C94E1010C94E101D8
:100020000C94E1010C94E1010C94E1010C94E101C8
:100030000C94E1010C94E1010C94E1010C94E101B8
:100040000C94E1010C94E1010C94E1010C94E101A8
:100050000C94E1010C94E1010C94E1010C94CA2B85
:100060000C94E1010C94302E0C94782F0C94E10147
:100070000C94E1010C94E1010C94E1010C94E10178
:100080000C94E1010C94E1010C94E1010C94E10168
:100090000C94702E0C94B72F0C94E1010C94BA2898
:1000A0000C94E1010C94E1010C94E1010C94E10148
:1000B0000C94E1010C94E1010C94E1010C94E10138
:1000C0000C94E1010C94E1010C94E1010C94B02E2C
:1000D0000C94F62F0C94E1010C94F02E0C94353016
:1000E0000C94E101005EBCE2613FDD83C29C7E2096
:1000F000A3FD1F419DC3217FFCA2401E5F01E3BD04
:100100003E6082DC237D9FC1421CFEA0E1BF5D03F7
:1001100080DE3C62BEE0025CDF81633D7C22C09EEB
:100120001D43A1FF4618FAA427799BC584DA3866D7
:10013000E5BB5907DB856739BAE406581947A5FBC3
:100140007826C49A653BD987045AB8E6A7F91B45B7
:10015000C6987A24F8A6441A99C7257B3A6486D8AB
:100160005B05E7B98CD2306EEDB3510F4E10F2AC97
:100170002F7193CD114FADF3702ECC92D38D6F3183
:10018000B2EC0E50AFF1134DCE90722C6D33D18F77
:100190000C52B0EE326C8ED0530DEFB1F0AE4C126B
:1001A00091CF2D73CA947628ABF517490856B4EA57
:1001B0006937D58B5709EBB536688AD495CB297743
:1001C000F4AA4816E9B7550B88D6346A2B7597C937
:1001D0004A14F6A8742AC896154BA9F7B6E80A542B
:1001E000D7896B351F1C1F1E1F1E1F1F1E1F1E1FA2
:1001F0007C3C3E5E2B3D3F2F5B5D3B2C2A225C000E
:1002000000002100240027002A002D0030003300C8
:1002100001010000040107010A010000220025007D
:1002200028002B002E0031003400020100000501DF
:1002300008010B01000020002300260029002C00EB
:100240002F0032000001000003010601090105052D
:100250000505070508080808020202020A0A08083C
:10026000040404040101010101010101030303036A
:1002700003030303040707070C0C0C0C0C0C0C0CF9
:100280000202020206060606060606060B0B0B0B0A
:100290000B0B0B0B0102102020080810204010202F
:1002A000408002010201080402010102040810203A
:1002B0004080804020100804020180040201804038
:1002C00020100804020108040201010204081020A1
:1002D000408001020408102040800000090A020842
:1002E0000B0C0D07060304010000000000000000D5
:1002F00000000000000000000000000000000000FE
:1003000000000000000011100F00000000000000BD
:1003100000000000000000000000000000000000DD
:10032000494E46494E4954594E414ECDCCCC3D0ADA
:10033000D7233C17B7D13877CC2B329595E6241FBD
:10034000B14F0A000020410000C84200401C462076
:10035000BCBE4CCA1B0E5AAEC59D7400FB03631095
:10036000D3115627A531F40311241FBECFEFD1E2DC
:10037000DEBFCDBF00E00CBF1AE0A0E0B2E0E0EAD3
:10038000F4E700E00BBF02C007900D92A23EB10758
:10039000D9F71BBE11E1A2EEBAE001C01D92AF3247
:1003A000B107E1F713E0C6E6D3E004C02297FE01EF
:1003B0000E94F539CC35D107C9F70E94DB320C9485
:1003C000433A0C940000662777270C945002FB01F7
:1003D000DC0104C08D910190801921F441505040FE
:1003E000C8F7881B990B0895FB01DC0102C001903E
:1003F0000D9241505040D8F70895FC018191861725
:1004000021F08823D9F7992708953197CF010895CE
:10041000FB01DC0101900D920020E1F70895FB0142
:10042000DC014150504048F001900D920020C9F786
:1004300001C01D9241505040E0F70895009731F4FB
:10044000DA018D919C91009709F40EC0DC01FB014B
:100450003D912191222319F03217C9F3FACF3323AA
:1004600031F4DA011D921C9288279927089511977B
:10047000AF93BF93FB013D912191321771F4332368
:1004800021F488279927119702C01E921196FA012C
:10049000A193B0839F918F910895222369F7EACFAA
:1004A000A0E0B0E0E6E5F2E00C94123AEC015B016A
:1004B0006115710519F0FB0191838083F9908F2DEF
:1004C00090E00E94F939892BC9F7FDE2FF1621F46B
:1004D000F990EE24E39405C02BE2F21609F4F990AA
:1004E000EE248E0101501040C80160E273E043E049
:1004F00050E00E94B003892B01F58E010E5F1F4F63
:10050000C80163E273E045E050E00E94B003892B2C
:1005100019F48E01095F1F4FA114B10419F0F50100
:1005200011830083E0FC04C070E090E080E814C018
:1005300070E090E080E86FEF08C1C80168E273E006
:1005400043E050E00E94B003892B69F4A114B10488
:1005500029F470E090E080EC6FE7F7C02296F50197
:10056000D183C083F6CF8824992440E050E060E036
:1005700070E0EF2DE053EA30A0F5F2E0EF2A8E2D87
:1005800090E09C0128703070E2FE06C0232B79F5C4
:100590000894811C911C2BC0232B19F0089481080E
:1005A0009108DB01CA0112E0880F991FAA1FBB1F27
:1005B0001A95D1F7480F591F6A1F7B1F440F551F0B
:1005C000661F771F4E0F511D611D711D483929E9A6
:1005D000520729E9620729E1720748F084E0E82A16
:1005E00006C0EE3F31F4E3FC39C098E0E92AF99007
:1005F000C0CFE53311F0E53189F529912D3219F499
:10060000E0E1EE2A05C02B3219F081E090E003C052
:10061000299182E090E0E22FE053EA3018F0C81B05
:10062000D90B1CC020E030E0FCE020383F075CF430
:10063000C901880F991F880F991F280F391F220F92
:10064000331F2E0F311DE991E053EA3068F3E4FEC9
:1006500003C0309521953F4F820E931ECE2CDD2492
:10066000E1FE07C0A114B10421F02197F501D18367
:10067000C083CB01BA010E9489387B018C01F3E071
:10068000CF22DD2423E0C216D10421F417FB1095FC
:1006900017F9109557016801C801B70120E030E053
:1006A00040E050E00E94EC37882309F44AC097FEEE
:1006B0000DC02FE3E22E23E0F22E90948194910856
:1006C0009394C0E2D0E000E010E012C097E5E92E7C
:1006D00093E0F92EF6CFF70125913591459154918C
:1006E000C601B5010E943F395B016C018C1A9D0A5D
:1006F0008C169D0684F7D595C7950F5F1F4F063062
:10070000110529F08CEF9FEFE80EF91EF1CFC5011E
:10071000D6017C018D018C2D880F8D2D881F8F3F78
:1007200051F0C601B50120E030E040E050E00E9409
:10073000EC37882331F482E290E090932E1180937D
:100740002D117E2D9F2D802F612F272F392F482F80
:10075000562FB901CA01CDB7DEB7ECE00C942E3AA2
:10076000FB01DC014150504088F08D9181341CF038
:100770008B350CF4805E659161341CF06B350CF4A4
:10078000605E861B611171F3990B0895881BFCCF85
:1007900081309105F9F46F5F7F4F29F582EE9AE081
:1007A0006CE10E94DC0E80EF9AE06AE146E126E00F
:1007B0000E9480258EEF9AE068E146E126E00E94E3
:1007C00080258CE19BE00E946A1087E39BE00E94F9
:1007D0005D100895892B39F46F5F7F4F21F48CE110
:1007E0009BE00E947D10089580E090E06FEF7FEF26
:1007F0000E94C803089581E090E06FEF7FEF0E94B0
:10080000C80308950F931F938C0181EA90E160E083
:1008100072E00E94033481EA90E1B8010E94003541
:1008200082E061E00E94CC2DFFCF4F925F926F92E9
:100830007F928F929F92AF92BF92DF92EF92FF9240
:100840000F931F93DF93CF93CDB7DEB7C45FD04034
:100850000FB6F894DEBF0FBECDBF23E0A22EB12CA1
:10086000AC0EBD1EC50168E072E00E946F3681EAE1
:1008700090E10E94FB30892B09F45CC38E01065F76
:100880001F4FC80161EA70E10E943F35C501B80100
:100890000E948936C8010E94A0368E010B521F4F5C
:1008A000C501B80140E250E020E030E00E949835F8
:1008B000C80169E072E08E010F5F1F4FA8010E941E
:1008C0001E023C0180E090E069E072E0A8010E9415
:1008D0001E022C0180E090E069E072E0A8010E9415
:1008E0001E020E94E3014B015C0191E1E92EF12C13
:1008F000EC0EFD1EC701B3010E946F368E01085E2B
:100900001F4FC8016BE072E00E946F36C701B8014B
:100910000E945C35D82EC8010E94A036C7010E94F3
:10092000A036DD2009F4A5C081EA90E10E941433CD
:1009300081EA90E10E94143381EA90E160E172E083
:100940000E94003581EA90E166E472E00E94003581
:1009500081EA90E16DE572E00E94003581EA90E164
:100960000E94143381EA90E16BEC72E00E94003542
:1009700081EA90E10E94143381EA90E164E473E03B
:100980000E94003581EA90E168E573E00E9400353D
:1009900081EA90E162E673E00E94003581EA90E12D
:1009A0006BE673E00E94003581EA90E164E773E052
:1009B0000E94003581EA90E162E873E00E94003510
:1009C00081EA90E16BE873E00E94003581EA90E1F2
:1009D0000E94143381EA90E169E973E00E940035D6
:1009E00081EA90E161EB73E00E94003581EA90E1D9
:1009F00066ED73E00E94003581EA90E10E941433B5
:100A000081EA90E164E274E00E94003581EA90E1BD
:100A100061E574E00E94003581EA90E10E941433A0
:100A200081EA90E160E774E00E94003581EA90E19C
:100A300066EA74E00E94003581EA90E169EE74E0B4
:100A40000E94003581EA90E10E94143381EA90E12E
:100A50000E94143381EA90E166E375E00E9400355C
:100A600081EA90E10E94143381EA90E160E172E052
:100A70002DC08E01015E1F4FC801B3010E946F3669
:100A800086E2E82EF12CEC0EFD1EC7016EEA75E041
:100A90000E946F36C801B7010E945C35D82EC7018D
:100AA0000E94A036C8010E94A036DD2009F460C073
:100AB000C501B40120E030E040E050E00E94EC3796
:100AC000882339F481EA90E162EB75E00E940035F9
:100AD00031C28E01035D1F4FC801B2010E946F3603
:100AE000B4E3EB2EF12CEC0EFD1EC7016EE076E0B8
:100AF0000E946F36C801B7010E945C35D82EC7012D
:100B00000E94A036C8010E94A036DD2049F08092E4
:100B10009B0A90929C0AA0929D0AB0929E0A0AC2D9
:100B20008E01055C1F4FC801B2010E946F36A2E41E
:100B3000EA2EF12CEC0EFD1EC7016BE176E00E945F
:100B40006F36C801B7010E945C35D82EC7010E94DC
:100B5000A036C8010E94A036DD2009F4E5C18092CC
:100B60008A0A90928B0AA0928C0AB0928D0AE2C1F6
:100B70008E01075B1F4FC801B3010E946F36F0E57D
:100B8000EF2EF12CEC0EFD1EC70167E776E00E9408
:100B90006F36C801B7010E945C35D82EC7010E948C
:100BA000A036C8010E94A036DD2051F18E01095AFD
:100BB0001F4FC801B2010E946F36EEE5EE2EF12CF8
:100BC000EC0EFD1EC7016EE076E00E946F36C80194
:100BD000B7010E945C35D82EC7010E94A036C8011B
:100BE0000E94A036DD2009F048C08E010B591F4F2E
:100BF000C801B2010E946F367CE6E72EF12C6BC073
:100C00008E010D581F4FC801B3010E946F366AE76D
:100C1000E62EF12CEC0EFD1EC7016BE776E00E947C
:100C20006F36C801B7010E945C35D82EC7010E94FB
:100C3000A036C8010E94A036DD2009F49AC08E01BA
:100C40000F571F4FC801B2010E946F3658E8E52EBA
:100C5000F12CEC0EFD1EC7016EE076E00E946F36AF
:100C6000C801B7010E945C35D82EC7010E94A0368A
:100C7000C8010E94A036DD2021F160919B0A70918D
:100C80009C0A80919D0A90919E0A2AE037ED43E2EA
:100C90005CE30E94883760939B0A70939C0A809360
:100CA0009D0A90939E0A20E030E040E151E40E94CA
:100CB0003B3988230CF43EC180E090E0A0E1B1E430
:100CC000E1C08E0101571F4FC801B2010E946F366B
:100CD00046E9E42EF12CEC0EFD1EC7016BE176E037
:100CE0000E946F36C801B7010E945C35D82EC7013B
:100CF0000E94A036C8010E94A036DD2009F414C16C
:100D0000C501B40120E030E040E050E00E94EC3743
:100D1000882369F060918A0A70918B0A80918C0A0D
:100D200090918D0A2DEC3CEC4CEC5DE30AC0C501C2
:100D3000B40120918A0A30918B0A40918C0A50911B
:100D40008D0A0E94883760938A0A70938B0A809379
:100D50008C0A90938D0A20E030E040E151E40E943B
:100D60003B3988230CF4E6C080E090E0A0E1B1E4D8
:100D7000D2C03DE9E32EF12CEC0EFD1EC701B301FC
:100D80000E946F368E010C551F4FC80164E876E053
:100D90000E946F36C701B8010E945C35882311F0AC
:100DA00001E022C02BEAE22EF12CEC0EFD1EC70161
:100DB000B3010E946F368E010E541F4FC80168E8C0
:100DC00076E00E946F36C701B8010E945C35811140
:100DD00081E0082FCE018E549F4F0E94A036CE0195
:100DE00085559F4F0E94A036CE018C559F4F0E9483
:100DF000A036CE0183569F4F0E94A036002309F4EF
:100E000093C08E0107541F4FC801B2010E946F3674
:100E100090ECE92EF12CEC0EFD1EC7016EE076E0A1
:100E20000E946F36C801B7010E945C35D82EC701F9
:100E30000E94A036C8010E94A036DD2061F16091B9
:100E40009B0A70919C0A80919D0A90919E0A2AE0CB
:100E500037ED43E25CE30E94873760939B0A70930F
:100E60009C0A80939D0A90939E0A2AE037ED43E204
:100E70005CE30E94EC3718160CF45CC08AE097ED36
:100E8000A3E2BCE380939B0A90939C0AA0939D0AE3
:100E9000B0939E0A4FC08E0109531F4FC801B20183
:100EA0000E946F368EECE82EF12CEC0EFD1EC70171
:100EB0006BE176E00E946F36C801B7010E945C3595
:100EC000D82EC7010E94A036C8010E94A036DD209E
:100ED00059F160918A0A70918B0A80918C0A9091E5
:100EE0008D0A2DEC3CEC4CEC5DE30E94873760935F
:100EF0008A0A70938B0A80938C0A90938D0A20E063
:100F000030E040E450E40E94EC3718169CF080E09A
:100F100090E0A0E4B0E480938A0A90938B0AA093B7
:100F20008C0AB0938D0A06C081EA90E161E276E016
:100F30000E940334CE0103960E94A036CC50DF4FAE
:100F40000FB6F894DEBF0FBECDBFCF91DF911F91DA
:100F50000F91FF90EF90DF90BF90AF909F908F9098
:100F60007F906F905F904F900895EF92FF920F9354
:100F70001F93DF93CF93CDB7DEB764970FB6F89486
:100F8000DEBF0FBECDBF82EE9AE08E010F5F1F4F16
:100F9000B8010E94460E882329F482EE9AE00E944E
:100FA000F70C0DC0C80167E00E94040D98858917F1
:100FB00089F081EA90E161E976E00E9400350F2E28
:100FC000F0E0EF2EF0E0FF2EFAE70F2FF4EC1F2FEA
:100FD000F02D6EC08981803149F0883239F081EA84
:100FE00090E163EA76E00E940334E9CF82EE9AE072
:100FF0000E94FB0D82EE9AE08E010F5F1F4FB80139
:101000000E94DA0D82EE9AE064E441E00E949A0DBB
:1010100082EE9AE00E94FB0D82EE9AE0B8010E94F7
:10102000DA0D82EE9AE06EEB40E00E949A0D8E019E
:10103000075F1F4F32E1E32EF12CEC0EFD1E82EE16
:101040009AE00E94490DF80181938F01EE15FF058A
:10105000B1F782EE9AE00E94F70C7A8560E029856C
:1010600030E0622B732B882777FD8095982F0E94A4
:101070008B3820E030E040E85DE30E943F397B019F
:101080008C0120E030E04CE052E40E943B3918161D
:101090001CF48FE161E002C08FE160E00E94CC2D82
:1010A000E092530BF092540B0093550B1093560B98
:1010B000B701C80164960FB6F894DEBF0FBECDBF6E
:1010C000CF91DF911F910F91FF90EF9008950F93B3
:1010D0001F938EE30E94E52C9093460B8093450B63
:1010E000AA2797FDA095BA2FBC01CD010E948B388D
:1010F00020E030E040E85AE30E943F3920E030E051
:1011000040EA50E40E943F399B01AC0160934B0BD5
:1011100070934C0B80934D0B90934E0B60E070E0FE
:1011200088E492E40E94F03720E030E040E251E4AD
:101130000E9487379B01AC0160934F0B7093500B5B
:101140008093510B9093520B60E070E080E89FE336
:101150000E94F0372AE037ED4FE753E40E943F3911
:101160006093470B7093480B8093490B90934A0B05
:1011700001EA10E1C8016CEB76E00E940334409173
:10118000470B5091480B6091490B70914A0BC80175
:1011900022E030E00E94EA34C8016BEC76E00E9465
:1011A00000351F910F9108952F923F924F925F92B9
:1011B0006F927F928F929F92AF92BF92CF92DF9267
:1011C000EF92FF920F931F9380EF9AE00E945326B5
:1011D00060930C0B70930D0B80930E0B90930F0B81
:1011E00080EF9AE060E00E94AA266093100B709353
:1011F000110B8093120B9093130B8EEF9AE00E94C9
:1012000053266093140B7093150B8093160B9093D9
:10121000170B8EEF9AE060E00E94AA266093180BED
:101220007093190B80931A0B90931B0B2091100B4A
:101230003091110B4091120B5091130BCA01B9015F
:101240000E94A239882379F420910C0B30910D0B68
:1012500040910E0B50910F0BCA01B9010E94A239A7
:10126000882309F446C181EA90E160ED76E00E94AE
:1012700000352091180B3091190B40911A0B5091A9
:101280001B0BCA01B9010E94A239882379F420916D
:10129000140B3091150B4091160B5091170BCA018E
:1012A000B9010E94A239882309F456C181EA90E16C
:1012B00063EF76E00E9400358DE30E94E52CAA27BB
:1012C00097FDA095BA2FBC01CD010E948B382EE46A
:1012D00031ED41E95CE30E943F3921EC3AEC41EF0A
:1012E0005FE30E9487371B012C016093390B7093D9
:1012F0003A0B80933B0B90933C0BE0908A0AF09062
:101300008B0A00918C0A10918D0AA0909B0AB090D4
:101310009C0AC0909D0AD0909E0AC801B701A60100
:1013200095010E9487373B014C0160933D0B709300
:101330003E0B80933F0B9093400BC801B701A60171
:1013400095010E9488377B018C016093410B70935B
:10135000420B8093430B9093440BC201B101A40153
:1013600093010E943B398823ACF0C201B101A8016E
:1013700097010E94EC3718166CF088E260E00E943A
:10138000CC2D86E260E00E94CC2D81EA90E166E1FE
:1013900077E04AC0C201B101A40193010E94EC3779
:1013A0008823BCF488E260E00E94CC2D86E261E0F4
:1013B0000E94CC2D64EF71E080E090E00E94202C30
:1013C00086E260E00E94CC2D81EA90E16DE277E058
:1013D0002BC0C201B101A80197010E943B39181628
:1013E000BCF486E260E00E94CC2D88E261E00E94BD
:1013F000CC2D64EF71E080E090E00E94202C88E228
:1014000060E00E94CC2D81EA90E167E477E00CC0B7
:1014100088E261E00E94CC2D86E261E00E94CC2D42
:1014200081EA90E162E677E00E94003581EA90E18E
:1014300065E078E00E94033440918A0A50918B0A5B
:1014400060918C0A70918D0A81EA90E122E030E08F
:101450000E94ED3481EA90E164E178E00E94033477
:1014600040919B0A50919C0A60919D0A70919E0A3E
:1014700081EA90E122E030E00E94ED3481EA90E1DF
:1014800069E378E00E9403344091390B50913A0BA4
:1014900060913B0B70913C0B81EA90E122E030E0DF
:1014A0000E94ED3481EA90E167E478E00E94033421
:1014B0000E94B507AB01BC0181EA90E122E030E077
:1014C0000E94EA3481EA90E165E678E00E94003506
:1014D0001F910F91FF90EF90DF90CF90BF90AF9052
:1014E0009F908F907F906F905F904F903F902F9044
:1014F000089581EA90E168E678E00E940334409123
:101500000C0B50910D0B60910E0B70910F0B81EA3B
:1015100090E122E030E00E94EA3481EA90E16CE759
:1015200078E00E94033481EA90E163E878E00E9469
:1015300003344091100B5091110B6091120B70917C
:10154000130B81EA90E122E030E00E94EA3481EA64
:1015500090E16AE978E08BCE81EA90E16FE978E08A
:101560000E9403344091140B5091150B6091160B9F
:101570007091170B81EA90E122E030E00E94EA349A
:1015800081EA90E16CE778E00E94033481EA90E11F
:1015900063EB78E00E9403344091180B5091190BD3
:1015A00060911A0B70911B0B81EA90E122E030E010
:1015B0000E94EA3481EA90E16AE978E07BCE8EEF1E
:1015C0009DE00E94F6270E94A30F882361F48CE11E
:1015D0009BE064E879E00E94003581EA90E164E8EC
:1015E00079E00E94003508950F931F93DF93CF9306
:1015F000CDB7DEB7A7970FB6F894DEBF0FBECDBF4D
:10160000CE01079669E57BE04EE85AE023E10E94AF
:10161000DF138E010F5F1F4FC80140E050E060E014
:1016200070E00E94120F0E94A50F2AA33BA34CA3B7
:101630005DA36EA37FA3D801FE01B29686E0019060
:101640000D928150E1F7CE0107960E94BF108823CA
:1016500009F494C00E94A50F2AA33BA34CA35DA349
:101660006EA37FA3DE011196FE01B29686E0019083
:101670000D928150E1F78E01095F1F4F4091390BA8
:1016800050913A0B60913B0B70913C0BC80122E0EA
:1016900030E00E94EA34C8016FE879E00E94033428
:1016A0004091100B5091110B6091120B7091130B24
:1016B000C8012AE030E00E94EA34C8016FE879E00E
:1016C0000E94033440910C0B50910D0B60910E0B56
:1016D00070910F0BC8012AE030E00E94EA34C80183
:1016E0006FE879E00E9403344091180B5091190B78
:1016F00060911A0B70911B0BC8012AE030E00E9428
:10170000EA34C8016FE879E00E9403344091140B79
:101710005091150B6091160B7091170BC8012AE0C0
:1017200030E00E94EA34C8016FE879E00E94033497
:101730004091470B5091480B6091490B70914A0BB7
:10174000C80122E030E00E94EA34C8016FE879E085
:101750000E9403344091530B5091540B6091550BF0
:101760007091560BC80122E030E00E94EA34C801B3
:101770000E941433C8010E94CC1006C081EA90E197
:1017800062E979E00E940035CE0107960E947D1043
:10179000A7960FB6F894DEBF0FBECDBFCF91DF91F5
:1017A0001F910F9108950E94D4080E9467080E941B
:1017B000F40A0E94150481EA90E10E94143360EC5F
:1017C00077E289E090E00E94202C08950F931F9308
:1017D000DF93CF93CDB7DEB7E6970FB6F894DEBFB1
:1017E0000FBECDBF89E59BE06AE04BE02CE00DE049
:1017F0000E940415882321F48CEA99E00E940204D7
:1018000081EA90E168EC79E00E94003510E0812FD8
:101810006AE00E94C539805D8093940A812F0E94FE
:10182000C539905D9093950A89E59BE06EE87AE072
:101830000E94B612882309F041C0CE01019669E5E5
:101840007BE04EE85AE023E10E94DF138B819C810C
:1018500090931F0B80931E0B8D819E81AF81B88565
:101860008093200B9093210BA093220BB093230B1A
:1018700089859A85AB85BC858093240B9093250B35
:10188000A093260BB093270BA8E2BBE0FE013D9688
:101890008DE001900D928150E1F78A8D9B8D9093A0
:1018A000360B8093350BCE0101960E947D108CE1A2
:1018B0009BE00E94BF10882339F402C01F5FA7CFAE
:1018C0008AED99E00E94020481EA90E16EEE79E0EF
:1018D0000E94033481EA90E16EE87AE00E940035CC
:1018E0008E01045E1F4FC80169E57BE04EE85AE0B7
:1018F00023E10E94DF13C8010E94BF10882351F129
:10190000C8016BEF79E00E940334C80160E07AE01F
:101910000E940334C80167E17AE00E940334C801E1
:101920006BE27AE00E940334C80162E47AE00E942C
:101930000334C80166E57AE00E940334C8016CE50F
:101940007AE00E940334C8010E941433C8010E9447
:10195000CC1006C081EA90E162E979E00E9400358E
:10196000CE014C960E947D10E6960FB6F894DEBF2D
:101970000FBECDBFCF91DF911F910F91089586E2E9
:1019800061E00E94192D88E261E00E94192D81E337
:1019900061E00E94192D87E261E00E94192D8FE11C
:1019A00061E00E94192D8AE061E00E94192D82E019
:1019B00061E00E94192D81EA90E140E855E260E083
:1019C00070E00E947430089588E260E00E94CC2D9F
:1019D00086E260E00E94CC2D80EF9AE00E9487258D
:1019E0000E94BF0C0E94DF0A0E94E60B0895FC01D2
:1019F00013861586148687E090E01286319700974B
:101A000011F00197FACF0895DC0180E00BC0E82FB8
:101A1000F0E08D9190E0E827F927EC51FF4FE49139
:101A200061508E2F662399F70895DF92EF92FF920F
:101A30000F931F93FC01E08001811281F894F8015B
:101A400081818E2981838281DE2CD0948D218283B5
:101A500083E090E00E94792CF80181818D218183BF
:101A60008AE090E00E94792CF8010081789485E367
:101A700090E00E94792C80E010E0FF240E211F21CD
:101A8000012B09F081E01F910F91FF90EF90DF9003
:101A90000895EF92FF920F931F93CF93DF937C01F2
:101AA00001E010E0C0E0D0E0C7010E94150D8111F7
:101AB000102B000F2196C830D105B1F7812FDF918F
:101AC000CF911F910F91FF90EF9008951F93CF93A7
:101AD000DF93FC011081C181D281912F909560FF2D
:101AE00012C0F8948A8189238A838981812B898312
:101AF0008AE090E00E94792C8A81812B8A837894F5
:101B000087E390E011C0F8948A8189238A838981D0
:101B1000812B898381E490E00E94792C8A81812B3A
:101B20008A83789485E090E00E94792CDF91CF91B0
:101B30001F910895CF92DF92EF92FF920F931F9320
:101B4000CF93DF938C01E42EFF24F394C0E0D0E028
:101B5000C62EDD2460E08F2D90E08C219D21892B05
:101B600009F061E0C8010E94660DFF0C2196C830A3
:101B7000D10581F7EE20A9F4F894D8011196ED91E2
:101B8000FC91129791818C91809598239183119665
:101B9000ED91FC91129792818C918095982392837C
:101BA0007894DF91CF911F910F91FF90EF90DF908C
:101BB000CF900895EF92FF920F931F93CF93DF93EF
:101BC0008C017B0165E540E00E949A0DC0E0D0E009
:101BD000F701EC0FFD1FC801608140E00E949A0DE3
:101BE0002196C830D105A1F7DF91CF911F910F91B8
:101BF000FF90EF900895DF92EF92FF920F931F9363
:101C0000CF93DF93FC010081C181D281F894898157
:101C1000D02ED0948D21898378941DE7E02EFF2467
:101C2000115059F182E090E00E94792C888190E077
:101C30008E219F21892BA1F3F8948A818D218A839B
:101C40008981802B8983789480EE91E00E94792CA1
:101C5000F89489818D21898386E490E00E94792C13
:101C6000888110E090E0E822F922EF2809F411E0E1
:101C700078948AE991E00E94792C812FDF91CF91AD
:101C80001F910F91FF90EF90DF900895AF92BF9258
:101C9000DF92EF92FF920F931F93CF93DF93EC01AC
:101CA0005B018D85882309F061C0CE010E94FB0D88
:101CB000882329F41B861D861C8690E06BC0CE010C
:101CC00060EF40E00E949A0D01E0DD24EE24FF2445
:101CD000F394CE010E94150D182FCE010E94150D10
:101CE000113019F48130E1F439C0181709F58B85EA
:101CF000081770F460E0FE01EE0DF11D838190E0A5
:101D00002F2D30E082239323181619064CF003C0C0
:101D100060E0081729F0093008F04CC00C874AC071
:101D2000FE01EE0DF11D83818F29838361E009C0DF
:101D3000612FFE01EE0DF11D9F2D9095838189236A
:101D40008383CE010E94660D0F5FFF0C19F4E394AC
:101D5000FF24F39487E08E1508F0BBCF013430F0F8
:101D6000DB86DD2011F581E08D871FC01B861D8677
:101D70001C8690E0DE0120E030E0F501E20FF31F69
:101D800013968C91139780832F5F3F4F11962830C5
:101D9000310599F7892FDF91CF911F910F91FF9016
:101DA000EF90DF90BF90AF9008958B818823F1F280
:101DB00091E0E0CFD02EBDCFFF920F931F938C0107
:101DC000F62E862F60E00E94192D8F2D90E0FC01E9
:101DD000EC56FD4FE491D801EC93825B9D4FFC01E2
:101DE0006491E62FF0E0EE0FFF1FEC5CFD4F859154
:101DF000949112969C938E9311971B961C921B970D
:101E00001D961C921D971C961C92F80187E090E08D
:101E100012863197009711F00197FACF1F910F9119
:101E2000FF900895EF92FF920F931F93CF93DF934C
:101E3000EC017A018B0180E89CEBA2E9B7ECE80E9B
:101E4000F91E0A1F1B1FC801B7012CE330E040E058
:101E500050E00E94D1396D83C801B7012CE330E016
:101E600040E050E00E94D139122F032FF42EE52ECE
:101E7000622F732F842F952F2CE330E040E050E049
:101E80000E94D1396C83612F702F8F2D9E2D2CE3F2
:101E900030E040E050E00E94D139122F032FF42EA1
:101EA000E52E622F732F842F952F28E130E040E03C
:101EB00050E00E94D1396B83612F702F8F2D9E2DA2
:101EC00028E130E040E050E00E94D13960E0A3E931
:101ED000BEEF70E0862F90E083709070892B09F43C
:101EE00071E0E62FEF5F472F50E0CA0183599E4F04
:101EF0002817390738F0CD01841B950B280F391F9F
:101F00006E2FE7CF688341E0E42FF0E0ED51FE4F04
:101F10008491772319F0423009F48F5F90E0542FB9
:101F20005F5F2817390720F0281B390B452FECCFAE
:101F30004983822F8F5F8A83DF91CF911F910F9109
:101F4000FF90EF90089581E00895BF92CF92DF92C5
:101F5000EF92FF920F931F93DF93CF9300D000D0A7
:101F6000CDB7DEB70EEF1DE0C80168E670E00E9455
:101F70001C27C80160E00E949E27C8010E94E1273B
:101F8000C80168E670E047E050E00E94F227C8010F
:101F90000E942F279FE7B92EB822C8010E942F2741
:101FA000C82EC8010E942F27D82EC8010E942F27B3
:101FB000C8010E942F27E82EC8010E942F27F82E63
:101FC000C8010E942F27282F30E0B4E035952795CF
:101FD000BA95E1F74AEF5FEFB901649F9001659F01
:101FE000300D749F300D1124820F90E02B2D30E0C6
:101FF000A4E035952795AA95E1F7B901649F900172
:10200000659F300D749F300D1124B20E2C2D30E0E1
:10201000F4E035952795FA95E1F7B901649F9001B1
:10202000659F300D749F300D1124C20E2D2D30E0B0
:10203000E4E035952795EA95E1F7B901649F9001B1
:10204000659F300D749F300D1124D20E2E2D30E07F
:1020500074E0359527957A95E1F7B901649F900171
:10206000659F300D749F300D1124E20E2F2D30E04E
:1020700064E0359527956A95E1F7B901649F900171
:10208000659F300D749F300D1124F20E282F3F2DC7
:102090004E2D5D2D6C2D7B2D80E026960FB6F8948D
:1020A000DEBF0FBECDBFCF91DF911F910F91FF908B
:1020B000EF90DF90CF90BF900895FC0184E690E010
:1020C00091838083089584E690E09093580B8093E9
:1020D000570B0895FC011382128288EE93E0A0E072
:1020E000B0E084839583A683B7838EEA9AE09183D8
:1020F0008083128E118E14860895FC018EEA9AE078
:10210000918380830895DF93CF930F92CDB7DEB78D
:10211000FC016983A081B18112962D913C911397A6
:10212000BE016F5F7F4F41E050E0F90119950F90BC
:10213000CF91DF910895DC015996ED91FC915A976A
:10214000309719F420E030E018C02389348945899C
:10215000568982859385A485B585281B390B4A0B42
:102160005B0B2030B0E83B07B0E04B07B0E05B070B
:1021700020F02FEF3FE740E050E0C9010895DC0177
:102180005996ED91FC915A97309711F480E008959B
:102190008581811181E00895CF93DF93EC01898DD2
:1021A0009A8D009741F00E946C1A898D9A8D0E9439
:1021B000322B1A8E198EDF91CF910895FC01818DFB
:1021C000928D009711F00E94221A0895DF93CF9309
:1021D0000F92CDB7DEB7FC01818D928D009749F04B
:1021E000BE016F5F7F4F41E050E00E94431B0197AB
:1021F00019F02FEF3FEF03C08981282F30E0C9018C
:102200000F90CF91DF910895EF92FF920F931F935C
:10221000DF93CF930F92CDB7DEB77C01DC015996E7
:102220008D919C915A97009719F400E010E01FC01F
:10223000BE016F5F7F4F41E050E00E94431B01975A
:1022400019F00FEF1FEF13C08981082F10E0D7019D
:102250005996ED91FC915A97428553856485758511
:102260004150504060407040CF010E945C19C8014D
:102270000F90CF91DF911F910F91FF90EF900895F4
:10228000CF93DF93EC01E98DFA8D309761F01382E3
:102290001282CF010E94881D9C01E98DFA8D8281F6
:1022A0009381892B31F081E090E09B838A8320E049
:1022B00030E0C901DF91CF910895EF92FF920F9323
:1022C0001F93CF93DF93EC01F62EE72E8A011B823A
:1022D0001A8288EE93E0A0E0B0E08C839D83AE8309
:1022E000BF838EEA9AE0998388838DE190E00E9413
:1022F000952A9A8F898F009791F0DC018F2D9E2D62
:102300009C01F9018DE101900D928150E1F7CE0120
:102310000C96B8014CE050E00E940F02188EDF913D
:10232000CF911F910F91FF90EF9008950F931F93FE
:10233000CF93DF938C01FB01C081D181FC01EC0FB5
:10234000FD1F80818F3209F4219698012C0F3D1FCB
:10235000A0E0B0E00BC0FA01EA0FFB1F80831196EA
:1023600021962F5F3F4FAC30B10531F0F9018081EC
:102370008F3211F0882379F7A40FB51F1C92F80152
:10238000EC0FFD1F80818F3209F42196FB01D18370
:10239000C083C00FD11F8881811181E0DF91CF916F
:1023A0001F910F91089510925E0B10925F0B109287
:1023B000620B1092640B82E090E0A0E0B0E08093AA
:1023C000660B9093670BA093680BB093690B109208
:1023D0007D0B1092870B1092860B8EEB9AE09093F8
:1023E000850B8093840B1092890B0895EF92FF92D6
:1023F0001F93DF93CF93CDB7DEB76D970FB6F894E9
:10240000DEBF0FBECDBF9C01AB011C821B828EEBD9
:102410009AE09A8389831E827E010894E11CF11C54
:10242000C701B90121E00E94B41F182F882319F0B9
:10243000C7010E946C1A812F6D960FB6F894DEBF0B
:102440000FBECDBFCF91DF911F91FF90EF90089508
:102450002F923F924F925F926F927F928F929F92B4
:10246000BF92CF92DF92EF92FF920F931F93DF9371
:10247000CF93CDB7DEB7C954D0400FB6F894DEBFC6
:102480000FBECDBF1C017B012A0139011B8A1A8AAC
:102490008EEB9AE0998B888B1D8A18AA1FA69EA79F
:1024A0008DA71AAA1A8219828B0120E1C22ED12C83
:1024B000CC0EDD1E93E0892E912C8C0E9D1E03C048
:1024C000C80186016C01C101BE016F5F7F4FA4018D
:1024D0000E949611B82E40E0882309F441E0C8011B
:1024E000B4019301F2011995882339F40E151F05E3
:1024F00019F1C8010E946C1A1FC0BB20A9F0C601C7
:10250000B801A40121E00E94B41FB82E0E151F05CA
:1025100019F0C8010E946C1ABB2071F00E151F053E
:1025200079F6CE018D96CDCF0E151F0519F0C80195
:102530000E946C1A81E001C080E0C75BDF4F0FB6DC
:10254000F894DEBF0FBECDBFCF91DF911F910F91E9
:10255000FF90EF90DF90CF90BF909F908F907F90F3
:102560006F905F904F903F902F9008959B01BC011A
:10257000655D7F4FC90146EF51E120E030E00E94E8
:10258000281208952F923F924F925F926F927F92FE
:102590008F929F92AF92BF92CF92DF92EF92FF9273
:1025A0000F931F93DF93CF93CDB7DEB7C754D040BF
:1025B0000FB6F894DEBF0FBECDBF582E492EFB01DB
:1025C0003A01190185A596A5998B888B2EEB3AE0E7
:1025D0003F872E8787A58A8B80A98B8B81A992A99B
:1025E000A3A9B4A98C8B9D8BAE8BBF8B85A996A913
:1025F000A7A9B0AD888F998FAA8FBB8F81AD92ADFF
:10260000A3ADB4AD8C8F9D8FAE8FBF8F85AD88A3EA
:10261000FE9681919191A191B19189A39AA3ABA3C7
:10262000BCA381919191A191B1918DA39EA3AFA3E0
:10263000B8A7808191819AA789A71EA61DA63CA74D
:102640002BA718AA7A018E01025F1F4F3BE2A32E2F
:10265000B12CAC0EBD1E4E010894811C911C35C0DE
:10266000D7018C918F3221F40894E11CF11C2DC00C
:10267000422F4E194D3008F04CE0C42EDD24C40129
:10268000B701A6010E940F02F401EC0DFD1D10829E
:10269000C5010E946C1AC501B801A40121E00E9485
:1026A000B41F882351F4E52DF42D138212828EEB92
:1026B0009AE091838083158266C0EC0CFD1CC801F2
:1026C0000E946C1AC50158018C01C7016FE270E0CD
:1026D0000E94FD019C01009719F6E618F708F10128
:1026E000F182E082E52DF42DD80112968D919C9116
:1026F0001397938382838EEB9AE091838083149661
:102700008C911497848315968C91159785831696D2
:102710002D913D914D915C91199726833783408788
:1027200051871A962D913D914D915C911D9722876D
:102730003387448755871E962D913D914D915C912D
:10274000519726873787408B518B52968C915297A1
:10275000828B53962D913D914D915C915697238B91
:10276000348B458B568B57962D913D914D915C91B5
:102770005A97278B308F418F528F5B968D919C910A
:102780005C97948F838F852D942DC95BDF4F0FB697
:10279000F894DEBF0FBECDBFCF91DF911F910F9197
:1027A000FF90EF90DF90CF90BF90AF909F908F9071
:1027B0007F906F905F904F903F902F9008959F92E1
:1027C000AF92BF92CF92DF92EF92FF920F931F933F
:1027D000DF93CF93CDB7DEB7C657D0400FB6F8948E
:1027E000DEBF0FBECDBFC82E992E8A01D22E43E088
:1027F000A42EB12CAC0EBD1EC501A8019E012F5FF9
:102800003F4F0E94C212E980FA80E00EF11EF701EC
:1028100080814EEB5AE02885882309F03FC08D81E6
:102820009E819BA38AA359A348A38F818CA32DA328
:1028300089859A85AB85BC858EA39FA3A8A7B9A7D8
:102840008D859E85AF85B8898AA79BA7ACA7BDA7B4
:1028500089899A89AB89BC898EA79FA7A8ABB9AB98
:102860008D898AAB8E899F89A88DB98D8BAB9CABE6
:10287000ADABBEAB8A8D9B8DAC8DBD8D8FAB98AF54
:10288000A9AFBAAF8E8D9F8D9CAF8BAF8C2D992D3C
:10289000BE01605E7F4F4FE65AE09FC0FE01FF968B
:1028A000118210825EAF4DAFFE01EE5BFF4F1082D2
:1028B0002223A9F02250CE01CD96223048F464E8BC
:1028C0007BE0A7012D2D0E94B41F882381F407C04F
:1028D000B501A7012D2D0E94B41F882329F48C2D4A
:1028E000992D0E946A107BC0C5010E946C1AF6E007
:1028F000DF2259F0FE01E05BFF4F40815181628190
:102900007381CE01CD960E945C199E01265A3F4FDD
:10291000FE01FF9680819181F901938382838EEB82
:102920009AE091838083FE01EF5BFF4F8081F90184
:102930008483FE01EE5BFF4F8081F9018583FE01F8
:10294000ED5BFF4F80819181A281B381F901868384
:102950009783A087B187FE01E95BFF4F808191815A
:10296000A281B381F90182879387A487B587FE018D
:10297000E55BFF4F80819181A281B381F901868758
:102980009787A08BB18BFE01E15BFF4F8081F9013E
:10299000828BFE01E05BFF4F80819181A281B38138
:1029A000F901838B948BA58BB68BFE01EC5AFF4FFC
:1029B00080819181A281B381F901878B908FA18F52
:1029C000B28FFE01E85AFF4F80819181F901948F07
:1029D000838F8C2D992DB901A7010E945D118C2D3B
:1029E000992DCA58DF4F0FB6F894DEBF0FBECDBF8A
:1029F000CF91DF911F910F91FF90EF90DF90CF90DB
:102A0000BF90AF909F900895EF920F931F93CF9335
:102A1000DF93EC01362F542F722FE02E61E0432F0D
:102A2000252F072F0E94F7178823D1F08E01035F0F
:102A30001F4FC801BE0141E00E945521882339F48F
:102A4000C801BE0140E00E945521882349F0CE0113
:102A50008B96B8010E94A21C882319F081E001C066
:102A600080E0DF91CF911F910F91EF900895382F63
:102A70008091A30B8F3F31F43EBD0DB407FEFDCF17
:102A80008EB50895F894A091A40BB091A50B509128
:102A9000A60B252F2095E091A70BF091A80B409154
:102AA000A90B642F609590E08C9182238C9337FF63
:102AB00003C08081842B02C08081862380838C9117
:102AC000852B8C939F5F983011F0330FEDCF000072
:102AD0000000000000008C9128232C937894089526
:102AE0008091A30B8F3F31F48EBD0DB407FEFDCF57
:102AF0002EB530C0F894E091A70BF091A80B80811F
:102B00009091A90B892B8083E091A40BF091A50BE8
:102B10006091A60BA091AA0BB091AB0B8091AC0B6E
:102B2000482F50E0762F709520E030E08081862B92
:102B30008083220F8C9190E084239523892B09F0C8
:102B40002160808187238083000000003F5F383050
:102B500069F77894822F08950F931F93CF93DF9393
:102B60008B010E94122CEB010E9470158F3F11F413
:102B700081E008C00E94122C6C1B7D0B601771074E
:102B800098F380E0DF91CF911F910F910895FC01A0
:102B9000673020F086E1858380E008956330B9F0E6
:102BA000643028F4613069F0623070F407C0653039
:102BB000A1F0653078F06630A9F412C084E090E0AE
:102BC00011C080E090E00EC085E090E00BC081E095
:102BD00090E008C086E090E005C082E090E002C08E
:102BE00083E090E00E946D2A81E00895FC018481D9
:102BF00060E00E94CC2D0895FC01848161E00E9478
:102C0000CC2D0895CF92DF92EF92FF920F931F93F6
:102C1000CF93DF937C016A01FC018485882319F43A
:102C20000FEF1FEF30C000E010E040E050E0212F38
:102C3000332727FD3A95F601E40FF51F808190E0D8
:102C4000282739273070C901F4E095958795FA95C2
:102C5000E1F782279327102F0027082719279C01C7
:102C6000322F22273295307F0227132725E0880F45
:102C7000991F2A95E1F7082719274F5F5F4FF2E068
:102C800040305F07A1F6862F0E943715C0E0D0E0E4
:102C9000F601EC0FFD1F80810E943715219682E01E
:102CA000C030D807A9F7812F992787FD9A950E94F0
:102CB0003715802F0E9437150E947015F701828703
:102CC0008F71853011F481E007C081E1F7018583C0
:102CD000C7010E94FC1580E0DF91CF911F910F91F9
:102CE000FF90EF90DF90CF9008950F931F93CF93B5
:102CF000DF93EC010E94122C8B0109C00E94122C60
:102D0000601B710B6D52714010F08FE00AC00E9481
:102D100070158A878F3F91F38E3F11F481E006C0D2
:102D20008DE08D83CE010E94FC1580E0DF91CF9174
:102D30001F910F910895CF93DF93EC018E8188232B
:102D400019F40FC00E9470158F819885019698879D
:102D50008F83019782509240A8F3CE010E94FC1508
:102D60001E82DF91CF910895DF92EF92FF920F9331
:102D70001F93CF93DF93EC01D62E79018A010E9435
:102D80009B16CE010E94F615CE016CE271E00E9406
:102D9000AC158D2D80640E943715812F9927AA27A5
:102DA000BB270E943715C801AA27BB270E943715E9
:102DB000BB27A12F902F8F2D0E9437158E2D0E949B
:102DC0003715DD2011F485E906C088E0D81611F426
:102DD00087E801C08FEF0E94371510E00E94701540
:102DE0008A8787FF02C01150C9F7DF91CF911F91E9
:102DF0000F91FF90EF90DF900895CF92DF92EF92C6
:102E0000FF920F931F93CF93DF93EC017A018B0115
:102E10006901411551056105710511F482E133C065
:102E20008B85833039F039E0EE0CFF1C001F111F39
:102E30003A95D1F7CE0168E1A80197010E94B41636
:102E4000882311F084E01FC0CE016EEFA6010E941E
:102E500002168823C9F0CE0168E572E00E94AC1525
:102E6000882311F485E10FC0CE016DE020E030E051
:102E700040E050E00E94B416882321F40E947015AF
:102E8000882379F084E18D83CE010E94FC1580E0D7
:102E9000DF91CF911F910F91FF90EF90DF90CF9036
:102EA0000895CE010E94FC1581E0F2CF6F927F92CF
:102EB0008F929F92AF92BF92CF92DF92EF92FF924A
:102EC0000F931F93CF93DF93EC015A016B013901EC
:102ED00048010115110509F46AC0C801820F931F4A
:102EE0008150924008F05EC08E81882371F0888105
:102EF0009981AA81BB81481759076A077B0729F482
:102F00008F8198856816790650F5A882B982CA82A1
:102F1000DB828B85833039F0E9E0AA0CBB1CCC1C2A
:102F2000DD1CEA95D1F7CE0161E1A60195010E9471
:102F3000B416882319F083E08D8334C0CE010E943B
:102F40007516882379F118861F8281E08E8307C069
:102F50000E9470158F819885019698878F838F8145
:102F6000988586159705A0F300E010E008C00E9440
:102F70007015F701E00FF11F80830F5F1F4F0815D9
:102F80001905A8F32F813885280D391D38872F831F
:102F90008985882319F02050324048F0CE010E94E4
:102FA0009B1605C0CE010E94FC1580E001C081E0A7
:102FB000DF91CF911F910F91FF90EF90DF90CF9015
:102FC000BF90AF909F908F907F906F900895EF92F9
:102FD000FF920F931F93790120E030E000E012E0B0
:102FE0000E9456171F910F91FF90EF900895BF9286
:102FF000CF92DF92EF92FF920F931F93CF93DF93C5
:10300000EC01B62E1E2D1B8619861E821D821C8683
:103010004C832093AD0B0093AE0BE092A30B0E9468
:10302000122C6B018C8161E00E94192DCE010E944F
:10303000FC151F3F09F462C08091AE0B60E00E9456
:10304000192D8091AD0B61E00E94192D8091A30B89
:1030500061E00E94192DE091A30B2E2F332727FD4D
:103060003095F901E25BFD4FE491F0E0EE0FFF1FB8
:10307000E65EFD4F859194919093A50B8093A40BF0
:103080002C563D4FF90184918093A60BE091AD0B36
:103090002E2F332727FD3095F901E25BFD4FE49198
:1030A000F0E0EE0FFF1FE65EFD4F85919491909347
:1030B000A80B8093A70B2C563D4FF9018491809368
:1030C000A90BE091AE0B2E2F332727FD3095F90188
:1030D000E25BFD4FE491F0E0EE0FFF1FEC5CFD4F73
:1030E000859194919093AB0B8093AA0B2C563D4FF6
:1030F000F90184918093AC0B10E006C00E947E2AF7
:1031000083E00E946D2AF8CF8FEF0E9437151F5F72
:103110001A30D1F7CE010E94F61509C00E94122C78
:103120006C197D09615D774010F081E05AC0CE01D5
:1031300060E020E030E040E050E00E94B416182F3C
:103140008A87813059F7CE0168E02AEA31E040E011
:1031500050E00E94B41682FF02C01B870DC010E031
:103160000E9470158A871F5F1430D1F78A3A11F0D8
:1031700082E037C082E08B878B85823021F0EE249D
:10318000FF2487010FC0E12CF12C012DF0E41F2F4B
:1031900009C00E94122C6C197D09615D774010F006
:1031A00088E01FC0CE0167E320E030E040E050E05F
:1031B0000E94B416CE0169E2A80197010E94B416DC
:1031C0008A87882331F78B858230F1F4CE016AE358
:1031D00020E030E040E050E00E94B416882339F04F
:1031E00086E08D83CE010E94FC1580E01AC00E940B
:1031F0007015807C803C11F483E08B870E947015F1
:103200000E9470150E947015CE010E94FC158091DD
:10321000A30B8F3F11F081E004C0CE016B2D0E9403
:10322000C715DF91CF911F910F91FF90EF90DF9025
:10323000CF90BF900895CF93DF93EC01DB0180E046
:1032400090E020E2FD01E80FF91F208301968B300A
:103250009105C1F740E057E021C02E3219F080EF10
:1032600091E007C05A3019F148E05AE017C0321710
:10327000F1F0FC01019634913323C9F75417B8F0EB
:103280002132A8F02F3798F4822F81568A3108F422
:103290002052FD01E40FF11D20834F5F299122236D
:1032A000E1F690E08C91803219F091E001C090E05D
:1032B000892FDF91CF9108956F927F928F929F9285
:1032C000AF92BF92CF92DF92EF92FF920F931F9334
:1032D000CF93DF93EC017A018B012D81222309F436
:1032E00080C08B899C89AD89BE8984179507A60704
:1032F000B70708F476C085C0E114F1040105110593
:1033000049F41E821F82188619861A861B861C861F
:103310001D8665C02A853B854C855D85EB8DFC8DC2
:10332000858590E009962150304040405040390159
:103330004A01082E04C096948794779467940A945F
:10334000D2F72F5F3F4F4F4F5F4F0894E108F108CE
:10335000010911095701680104C0D694C794B794B4
:10336000A7948A95D2F70894E11CF11C011D111D48
:10337000A614B704C804D90428F021153105410565
:10338000510549F48F89988DA98DBA8D8E839F83BD
:10339000A887B98716C0A618B708C808D90811C0E9
:1033A0004E815F81688579858B8D9C8D94010E940B
:1033B00036230894A108B108C108D108882331F444
:1033C00010C086E0882E912C8C0E9D1EA114B10495
:1033D000C104D10429F7EA86FB860C871D8781E0AA
:1033E00001C080E0DF91CF911F910F91FF90EF908E
:1033F000DF90CF90BF90AF909F908F907F906F9015
:103400000895223009F078CFE6CFCF93DF93EC0117
:10341000462F6E857F85888999890E941A21882385
:1034200019F420E030E00AC08A89282F30E095E0C6
:10343000220F331F9A95E1F72F54344FC901DF91C2
:10344000CF9108950F931F93CF93DF938C01FC01CD
:1034500085818823D9F1848187FF35C0C80161E067
:103460000E94051AEC01009789F1F80185818230EC
:1034700040F483899489A589B6898C8F9D8FAE8FFE
:10348000BF8FF8018789908D9B8F8A8F8789908D58
:10349000A18DB28DCD01AA27BB279D8B8C8BE0918E
:1034A000AF0BF091B00B309751F0BE016A5E7F4FC9
:1034B000CE0148961995888D998D9B8B8A8BF80142
:1034C00084818F7784830E94BB2001C080E0DF91DC
:1034D000CF911F910F910895CF93DF93EC010E943C
:1034E000221A882311F01D8281E0DF91CF91089587
:1034F0006F927F928F929F92AF92BF92CF92DF9204
:10350000EF92FF920F931F93DF93CF9300D00F9210
:10351000CDB7DEB77C015A016B01DC0115968C91A9
:103520001597813009F08FC014968C9181FF8BC064
:103530009EC00097A105B10511F481E085C0F70197
:103540006284738484849584C701B601A5010E94B6
:103550005C19882309F477C0D7015B968D919C9103
:103560005C97A114B104C104D10489F457964D911C
:103570005D916D917C915A970E94A923882309F44B
:1035800062C0F701178A108E118E128E3DC0D701CE
:1035900016964D915D916D917C9119979E012F5FCB
:1035A0003F4F0E943623882309F44DC0D7015B9614
:1035B000ED91FC915C9749815A816B817C8187896F
:1035C000803129F088EF9FEFAFEFBFE004C088EFB4
:1035D0009FEFA0E0B0E0481759076A077B07A0F407
:1035E000CF010E94A923882371F1F70146815781F9
:1035F00060857185838D948D0FEF1FEF2FEF3FE076
:103600000E949A228823F9F0D7015396AD92BD9279
:10361000CD92DC92569714968C91149780681496EC
:103620008C93C7010E94221A882369F0B601A50174
:103630006A147B048C049D0410F4B401A301C70137
:103640000E945C1901C080E00F900F900F900F90C6
:10365000CF91DF911F910F91FF90EF90DF90CF906E
:10366000BF90AF909F908F907F906F900895F701DB
:1036700083899489A589B68984179507A607B70712
:1036800008F057CFE0CF2F923F924F925F926F9208
:103690007F928F929F92AF92BF92CF92DF92EF92E2
:1036A000FF920F931F93CF93DF93EC012A018D813B
:1036B000882309F4C6C08C8180FFC3C0D8C025010F
:1036C0004E185F084B0176E0272E312C2C0E3D1E44
:1036D0003201B1C02A853B854C855D856FEFA62EF2
:1036E00061E0B62EA222B3228D8179018A0199E090
:1036F00016950795F794E7949A95D1F7EB8DFC8D85
:10370000823049F4428D538D648D758D4E0D5F1D51
:10371000601F711F3FC0D480DA94DE20A114B10471
:10372000D9F4DD20C9F4211531054105510549F4CD
:103730008F89988DA98DBA8D8E839F83A887B9872D
:103740000BC04E815F8168857985CF0191010E9410
:103750003623882309F475C0EB8DFC8D4E815F8183
:10376000688579854250504060407040058404C0AF
:10377000440F551F661F771F0A94D2F786859785D9
:10378000A089B189480F591F6A1F7B1F4D0D511D1C
:10379000611D711D80E092E08A199B096301861505
:1037A000970508F46C018C8186FD06C080E0C81680
:1037B00082E0D80609F073C080919F0A9091A00A18
:1037C000A091A10AB091A20A481759076A077B077E
:1037D00009F465C08091B10D9091B20D95018601FB
:1037E00074010E945617882361F18C0C9D1C12C035
:1037F00095012F54344FA9014C0D5D1DD401F901E1
:1038000002C081918D93E417F507D9F7E21BF30B02
:103810008E0E9F1E960140E050E08A859B85AC8508
:10382000BD85820F931FA41FB51F8A879B87AC8716
:10383000BD876C187D086114710409F04BCFA2019B
:1038400002C04FEF5FEFCA01DF91CF911F910F913F
:10385000FF90EF90DF90CF90BF90AF909F908F90B0
:103860007F906F905F904F903F902F900895AB881E
:10387000BC88CD88DE88EA84FB840C851D859A018E
:1038800040E050E0D601C5018E199F09A00BB10B95
:1038900082179307A407B50708F411CF13CFCB0104
:1038A000BA0140E00E941A21882309F0A1CFC9CFB4
:1038B000CF92DF92EF92FF920F931F93DF93CF93FC
:1038C0000F92CDB7DEB76C01FC018581823070F0BC
:1038D000E284F38404851585C601BE016F5F7F4FC6
:1038E00041E050E00E94431B019769F020E030E086
:1038F000C9010F90CF91DF911F910F91FF90EF9031
:10390000DF90CF900895F60182859385A485B585D3
:103910004F96A11DB11D82879387A487B587F5E0D7
:1039200016950795F794E794FA95D1F78E2D8F7039
:10393000282F30E0E5E0220F331FEA95E1F72F54FE
:10394000344FD6CF0F931F93CF93DF93EC018B01AE
:103950008D81882309F041C0FB0187898031B1F452
:1039600082E08D831F8A188E198E1A8E808D918D1C
:10397000A0E0B0E045E0880F991FAA1FBB1F4A9541
:10398000D1F78B8B9C8BAD8BBE8B15C0803229F50C
:1039900083E08D83FB01428D538D648D758D4F8B3C
:1039A000588F698F7A8F9E012D5E3F4FC8010E940C
:1039B0000224882391F01C8F0B8F81E08C831E8260
:1039C0001F82188619861A861B861C861D861E86EF
:1039D0001F86188A198A1A8A01C080E0DF91CF9168
:1039E0001F910F9108951F93CF93DF93EC01142F34
:1039F000E62FF0E075E0EE0FFF1F7A95E1F7EF5448
:103A0000F44F8385817121F0842F827409F054C0B2
:103A10006A8B80919F0A9091A00AA091A10AB0910F
:103A2000A20A8E879F87A88BB98B84899589A0E08D
:103A3000B0E0BC0155274427828D938DA0E0B0E013
:103A4000482B592B6A2B7B2B4F8B588F698F7A8F82
:103A5000838590E088719070009751F4848D958DE6
:103A6000A68DB78D8B8B9C8BAD8BBE8B81E00CC0F4
:103A7000409711F59E012D5E3F4F8B8D9C8D0E94CE
:103A800002248823C9F084E08D83812F8F708C837A
:103A90001E821F82188619861A861B861C861D8622
:103AA00016FD02C081E009C0CE0140E050E060E0B8
:103AB00070E00E94781A01C080E0DF91CF911F91E1
:103AC0000895CF93DF93EC019C012A5F3F4F8B8DCC
:103AD0009C8D41E050E060E070E00E9471248823FA
:103AE000A1F08F89988DA98DBA8D0097A105B10598
:103AF00059F48E819F81A885B9858F8B988FA98F66
:103B0000BA8F8C8180688C8381E0DF91CF9108959A
:103B10002F923F924F925F927F928F929F92AF929D
:103B2000BF92CF92DF92EF92FF920F931F93DF939A
:103B3000CF9300D000D0CDB7DEB76C01162F072F82
:103B40005E834D83DC0115968C911597813009F0C9
:103B500070C114968C9181FF6CC18EC1F6014389AE
:103B600054896589768982859385A485B58584176E
:103B70009507A607B70731F0C6010E945C19882394
:103B800009F457C1812F902F9C0129012D803E807F
:103B900017C1D6015B96ED91FC915C97DA01C901E2
:103BA00019E0B695A795979587951A95D1F77480E2
:103BB0007A9478227FEF872E71E0972E82229322CB
:103BC000772009F04EC08114910409F04AC0D60153
:103BD00016964D915D916D917C9119974115510506
:103BE0006105710581F457968D919D910D90BC9161
:103BF000A02D0097A105B10549F1F60186839783B1
:103C0000A087B1872EC0CF019E012F5F3F4F0E943A
:103C10003623882309F414C129813A814B815C81C0
:103C2000D6015B96ED91FC915C978789803129F0F4
:103C300088EF9FEFAFEFBFE004C088EF9FEFA0E0F9
:103C4000B0E0281739074A075B0730F0C6010E9429
:103C5000611D882331F4EDC0F60126833783408748
:103C6000518780E092E088199909510182159305E6
:103C700008F45C01D6015B96ED91FC915C97169679
:103C8000ED90FD900D911C9119978EEF9FEFAFEF86
:103C9000BFEFE80EF91E0A1F1B1F058404C0EE0CBF
:103CA000FF1C001F111F0A94D2F786859785A089F3
:103CB000B189E80EF91E0A1F1B1FE70CF11C011D3C
:103CC000111D90E0A91692E0B90651F580919F0A66
:103CD0009091A00AA091A10AB091A20A8E159F0509
:103CE000A007B10761F48FEF9FEFAFEFBFEF8093B5
:103CF0009F0A9093A00AA093A10AB093A20A809170
:103D0000B10D9091B20DB801A70192010E94FD166C
:103D1000882309F48EC0A0E0B2E04A0E5B1E3EC0CC
:103D20008114910409F5F601228533854485558572
:103D300083899489A589B689281739074A075B07BB
:103D400098F00E94BB20882309F473C0E0929F0A78
:103D5000F092A00A0093A10A1093A20A8091B30DD9
:103D600081608093B30D08C0C801B70141E00E9493
:103D70001A21882309F45DC094012F54344FA901FE
:103D80004A0D5B1DD201F90102C08D918193E417A8
:103D9000F507D9F7E21BF30B4E0E5F1E2A183B08FE
:103DA000950140E050E0F60182859385A485B585B4
:103DB000820F931FA41FB51F82879387A487B5879F
:103DC000D6011A962D913D914D915C911D9721142C
:103DD000310409F0DECE53968D919D910D90BC91EA
:103DE000A02D82179307A407B50748F4F601238B8B
:103DF000348B458B568B84818068848311C080917D
:103E0000AF0B9091B00B892B59F08D819E81892B3E
:103E100039F0D60114968C911497806814968C937F
:103E2000F601848183FF0EC0C6010E94221A8823F6
:103E300049F481E090E0D60113969C938E931297FB
:103E40001E821D828D819E8126960FB6F894DEBF5C
:103E50000FBECDBFCF91DF911F910F91FF90EF90DB
:103E6000DF90CF90BF90AF909F908F907F905F90AA
:103E70004F903F902F90089582FD70CE83CEDF93B8
:103E8000CF930F92CDB7DEB76983BE016F5F7F4FCF
:103E900041E050E00E94881D0F90CF91DF9108957E
:103EA000DF92EF92FF920F931F93CF93DF93EC017A
:103EB0000E94611D882309F44EC0EB8DFC8DEE80BD
:103EC000FF80088519858EEF9FEFAFEFBFEFE80EFB
:103ED000F91E0A1F1B1F058404C0EE0CFF1C001FE7
:103EE000111F0A94D2F786859785A089B189E80EBB
:103EF000F91E0A1F1B1FD4800894E108F10801096C
:103F000011090BC0C801B7016D0D711D811D911DF7
:103F10000E94F6208823F9F0DA94DD2099F7EB8DE2
:103F2000FC8D20E032E040E050E0058404C0220F28
:103F3000331F441F551F0A94D2F78B899C89AD8982
:103F4000BE89820F931FA41FB51F8B8B9C8BAD8BDB
:103F5000BE8B81E001C080E0DF91CF911F910F9176
:103F6000FF90EF90DF9008956F927F928F929F92D3
:103F7000AF92BF92CF92DF92EF92FF920F931F9377
:103F8000DF93CF93CDB7DEB72B970FB6F894DEBF94
:103F90000FBECDBF5C016B01822EDC0115968C91AA
:103FA000882309F0D2C0CA018E010F5F1F4FB801EC
:103FB0000E941B19882309F4C8C0F601838D948DD3
:103FC000D5015C969C938E935B9716821782108620
:103FD0001186D6011A961D921D921D921C921D9754
:103FE0009924380141C0C6010E94581CFC01009769
:103FF00009F4ABC085E016950795F794E7948A9588
:10400000D1F71E2D1F708081882311F0853ED1F4D9
:10401000992091F4D50152961C93529720919F0AB2
:104020003091A00A4091A10A5091A20A1E962D93A8
:104030003D934D935C9351978081882399F4992403
:10404000939421C0C301BF014BE050E00E94E701FF
:10405000009751F4882D8073803309F476C0C50130
:10406000612F6FC099249394F601E284F384048550
:10407000158583899489A589B689E816F9060A0702
:104080001B0708F4B0CF882D8271823109F05DC022
:10409000992041F0C50161E00E94051A8C0100974A
:1040A00089F453C0D60115968C91823009F44DC025
:1040B000C6010E94501F882309F447C0F501128AE7
:1040C00001EB1BE080E2D8011D928A95E9F7D80147
:1040D000FE0131968BE001900D928150E1F7E09165
:1040E000AF0BF091B00B309739F0B801625F7F4FA2
:1040F000C8014096199509C081E298E2F801918BB8
:10410000808B80E098E097878687D80150968D91C4
:104110009C91519753969C938E93529759969C934A
:104120008E9358971E968D919C911F9757969C93AE
:104130008E9356970E94BB20882339F0C501F50164
:104140006289482D0E94F31C01C080E02B960FB6B7
:10415000F894DEBF0FBECDBFCF91DF911F910F91BD
:10416000FF90EF90DF90CF90BF90AF909F908F9097
:104170007F906F9008958091B30D882399F14091BD
:104180009F0A5091A00A6091A10A7091A20A8091A1
:10419000B10D9091B20D21EB3BE00E94FD168823FA
:1041A00019F14091B40D5091B50D6091B60D70911B
:1041B000B70D411551056105710591F08091B10D63
:1041C0009091B20D21EB3BE00E94FD16882361F037
:1041D0001092B40D1092B50D1092B60D1092B70D4D
:1041E0001092B30D81E0089580E00895EF92FF9260
:1041F0000F931F937B018C010E94BB208823A9F0A1
:10420000E1EBFBE011928DE0E13BF807D9F7E0929A
:104210009F0AF092A00A0093A10A1093A20A80912B
:10422000B30D81608093B30D81E01F910F91FF90DA
:10423000EF900895DF92EF92FF920F931F937B010F
:104240008C01D42E80919F0A9091A00AA091A10A7E
:10425000B091A20A8E159F05A007B107C1F00E9478
:10426000BB208823D9F08091B10D9091B20DB80197
:10427000A70121EB3BE00E94E717882379F0E09249
:104280009F0AF092A00A0093A10A1093A20A8091BB
:10429000B30D8D298093B30D81E001C080E01F91A3
:1042A0000F91FF90EF90DF9008958F929F92AF92C1
:1042B000BF92CF92DF92EF92FF920F931F93CF9313
:1042C000DF936C01142F7093B20D6093B10D4423F2
:1042D00021F488249924540140C0453008F01CC1C1
:1042E00060E070E080E090E040E00E941A218823C6
:1042F00009F412C1C12FD0E02197FE0174E0EE0F46
:10430000FF1F7A95E1F7EF54F44FE254FE4F80819E
:10431000EE5BF14090E08F779070892B09F0FCC044
:10432000E653FE4F80819181A281B381843691054D
:10433000A105B10508F4F0C064E0CC0FDD1F6A955B
:10434000E1F7C958D24F88809980AA80BB80811438
:104350009104A104B10409F4DFC0C501B40140E037
:104360000E941A21882309F4D7C08091BC0B909138
:10437000BD0B8050924009F0CFC02091C10B222389
:1043800009F4CAC08091BF0B9091C00B892B09F42E
:10439000C3C08091BE0B882309F4BEC0F601228BF6
:1043A0008091BE0B8483158661E070E007C04F5F8B
:1043B000F60145874150483008F0AEC0F60145850A
:1043C000848190E09B01042E02C0220F331F0A94C7
:1043D000E2F78217930759F72091C70B3091C80B6A
:1043E0002115310519F040E050E008C02091D50BAF
:1043F0003091D60B4091D70B5091D80BF601258305
:10440000368347835087E090BF0BF090C00B00E0ED
:1044100010E0E80CF91C0A1D1B1DE38AF48A058BC9
:10442000168B8091C20B9091C30B918F808F6091FE
:10443000C10B70E080E090E00E94A6396E0D7F1DF8
:10444000801F911FF601628F738F848F958F20914B
:10445000C20B3091C30B55E0220F331F5A95E1F781
:1044600021503E4F232F3327269540E050E0260F62
:10447000371F481F591F26873787408B518B8091E4
:10448000C40B9091C50B009719F0A0E0B0E008C0F4
:104490008091D10B9091D20BA091D30BB091D40B02
:1044A00085017401E21AF30A040B150BA8019701A8
:1044B000280F391F4A1F5B1FF601058404C056955B
:1044C0004795379527950A94D2F7218732874387F6
:1044D0005487253FFFE03F07F0E04F07F0E05F071C
:1044E00010F48CE006C0255F3F4F4040504028F458
:1044F00080E1F601878B81E010C08091DD0B909107
:10450000DE0BA091DF0BB091E00BF601828F938F51
:10451000A48FB58F80E2EECF80E0DF91CF911F9125
:104520000F91FF90EF90DF90CF90BF90AF909F9052
:104530008F9008954F925F926F927F928F929F9289
:10454000AF92BF92CF92DF92EF92FF920F931F93A1
:10455000CF93DF93EC016A017B01280139014230DE
:1045600051056105710508F46FC089859A85AB8591
:10457000BC850196A11DB11D84179507A607B70735
:1045800008F462C02B893C894D895E898F8980310E
:1045900029F499278F2D7E2D6D2D09C0C701B601F5
:1045A00017E096958795779567951A95D1F74B0102
:1045B0005C01820E931EA41EB51E80919F0A9091ED
:1045C000A00AA091A10AB091A20A88169906AA068B
:1045D000BB0639F0C501B40140E00E941A218823CE
:1045E00099F18F89803149F4F601F070EE0FFF1FC9
:1045F000EF54F44F518240820DC0F601EF77F07016
:10460000EE0FFF1FEE0FFF1FEF54F44F4082518259
:10461000628273828091B30D81608093B30D8A8929
:10462000823080F08D819E81AF81B885880E991E81
:10463000AA1EBB1E8092B40D9092B50DA092B60D2D
:10464000B092B70D81E001C080E0DF91CF911F9162
:104650000F91FF90EF90DF90CF90BF90AF909F9021
:104660008F907F906F905F904F900895CF92DF92E0
:10467000EF92FF920F931F93CF93DF93EC017A0198
:104680008B01690189859A85AB85BC850196A11D41
:10469000B11D84179507A607B70708F450C02B89EA
:1046A0003C894D895E898F89803129F49927812F32
:1046B000702F6F2D09C0C801B701E7E09695879567
:1046C00077956795EA95D1F7260F371F481F591F31
:1046D00080919F0A9091A00AA091A10AB091A20A8C
:1046E000281739074A075B0739F0CA01B90140E0CA
:1046F0000E941A21882319F18F89803159F4F7011A
:10470000F070EE0FFF1FEF54F44F80819181A0E015
:10471000B0E00EC0F701EF77F070EE0FFF1FEE0F65
:10472000FF1FEF54F44F80819181A281B381BF704C
:10473000F60180839183A283B38381E001C080E08E
:10474000DF91CF911F910F91FF90EF90DF90CF906D
:104750000895AF92BF92CF92DF92EF92FF920F93A4
:104760001F93DF93CF9300D00F92CDB7DEB76C01CC
:104770007A018B0182E090E0A0E0B0E0F601808356
:104780009183A283B3835E010894A11CB11CC6016E
:10479000B801A70195010E943623882319F1C601AB
:1047A000B801A70100E010E020E030E00E949A226A
:1047B0008823C1F0E980FA800B811C81F60187898A
:1047C000803129F088EF9FEFAFEFBFE004C088EFA2
:1047D0009FEFA0E0B0E0E816F9060A071B07B8F261
:1047E00081E001C080E00F900F900F900F90CF916B
:1047F000DF911F910F91FF90EF90DF90CF90BF90CE
:10480000AF9008954F925F926F927F928F929F9296
:10481000AF92BF92CF92DF92EF92FF920F931F93CE
:10482000DF93CF9300D00F92CDB7DEB76C014983F1
:104830005A836B837C833901EE24FF2487012E0188
:104840000894411C511C812CA2E09A2EA12CB12C61
:1048500049815A816B817C81C60192010E94362375
:10486000882351F1D501C401F601058404C0880FE5
:10487000991FAA1FBB1F0A94D2F7E80EF91E0A1F40
:104880001B1F29813A814B815C818789803129F006
:1048900088EF9FEFAFEFBFE004C088EF9FEFA0E08D
:1048A000B0E0281739074A075B0790F2F301E0826E
:1048B000F1820283138381E00F900F900F900F908D
:1048C000CF91DF911F910F91FF90EF90DF90CF90EC
:1048D000BF90AF909F908F907F906F905F904F9020
:1048E00008952F923F924F925F926F927F928F9294
:1048F0009F92AF92BF92CF92DF92EF92FF920F936F
:104900001F93DF93CF93CDB7DEB72F970FB6F894F1
:10491000DEBF0FBECDBF1C014A875B876C877D87DA
:104920003F872E87D9010D911D912D913C91011545
:1049300011052105310549F0480159010894811CF0
:10494000911CA11CB11C198610C0FC0180809180B3
:10495000A280B38019868A859B85AC85BD85019729
:10496000A105B10511F491E09987D10119968D91B6
:104970009D910D90BC91A02D0196A11DB11D8D831F
:104980009E83AF83B88775016401442455243201A6
:104990008E010F5F1F4FF10181859285A385B4853C
:1049A000481659066A067B0608F090C08D819E81E4
:1049B000AF81B8858C159D05AE05BF0550F482E02A
:1049C000882E912CA12CB12CB2E0CB2ED12CE12C35
:1049D000F12CC101B701A60198010E94362388235A
:1049E00009F474C089819A81AB81BC81A7019601C9
:1049F0002F5F3F4F4F4F5F4F0097A105B10519F053
:104A000049015A010DC0281939094A095B098A85EB
:104A10009B85AC85BD85281739074A075B0759F088
:104A20000894411C511C611C711C0894C11CD11CB0
:104A3000E11CF11CB0CFC101A601B7010FEF1FEFC0
:104A40002FEF3FE00E949A22882399F43FC026016D
:104A5000370108944108510861087108C101B30188
:104A6000A201970186010E949A22882379F173019D
:104A700062018C149D04AE04BF0448F3AE85BF856B
:104A80004D915D916D917C914115510561057105C7
:104A900039F0C101950184010E949A228823B1F066
:104AA000EE85FF8580829182A282B382F985FF2301
:104AB00059F00894811C911CA11CB11CD1018D924C
:104AC0009D92AD92BC92139781E001C080E02F9639
:104AD0000FB6F894DEBF0FBECDBFCF91DF911F910F
:104AE0000F91FF90EF90DF90CF90BF90AF909F908D
:104AF0008F907F906F905F904F903F902F90089590
:104B0000FC0166834783208781E0858708950F93A2
:104B10001F938C01FC01868160E00E94192DF80131
:104B2000868161E00E94CC2DF801118612861386E1
:104B300014861F910F910895CF92DF92EF92FF920A
:104B40000F931F93CF93DF93EC018E8161E00E945E
:104B5000CC2D6AEF70E080E090E00E94202C0E9453
:104B6000122C9B01AC0189859A85AB85BC852817E1
:104B700039074A075B0720F419861A861B861C86AC
:104B80008D85882371F489859A85AB85BC85281B22
:104B9000390B4A0B5B0B205D37404040504008F416
:104BA00077C01D860E94122C69877A878B879C8725
:104BB0001C821B821A82198218828E8161E00E94F7
:104BC000192D8E8160E00E94CC2D64E170E080E0C0
:104BD00090E00E94202CF8948E8161E00E94CC2D00
:104BE00088E290E00E94792C8E8160E00E94192D6D
:104BF00081E0EE2400E010E00AC0F39481E090E050
:104C00000E94792C8FEFF81629F40AC0822FFF2416
:104C1000C82EDD248E810E94FF2D8C159D0569F321
:104C20008E810E94FF2D282F8FEFF816C9F00430D7
:104C300090F000FD10C08E2D869586958695FE011C
:104C4000E80FF11D9081990F908388858F1510F4DE
:104C500091609083E3940F5F1F4F05351105B1F606
:104C6000789487E28E1510F030E013C030E04C816C
:104C700050E02981888190E0820F911D2A81820F66
:104C8000911D2B81820F911D90704817590709F4CF
:104C900031E0832FDF91CF911F910F91FF90EF9023
:104CA000DF90CF900895EF92FF920F931F93CF93D1
:104CB000DF93EC010E949C258823A9F18F818B3022
:104CC00031F08B3080F18551823068F507C0688102
:104CD00070E080E090E00E94893822C0688170E036
:104CE00080E090E00E94893820E030E040E853E422
:104CF0000E943F397B018C01698170E0882777FD34
:104D00008095982F0E948B389B01AC01C801B70198
:104D10000E94883720E030E040E251E40E94F03702
:104D2000E62F692F0AC081EA90E161E77AE00E94EC
:104D30000334E0E070E080EC6FE72E2F372F482F30
:104D4000562FB901CA01DF91CF911F910F91FF90AA
:104D5000EF900895CF92DF92EF92FF920F931F93FF
:104D6000CF93DF93EC01C62E0E949C25882309F483
:104D700050C08F818B3041F08B3008F44AC0855190
:104D8000823008F046C007C06A8170E080E090E0A1
:104D90000E94893829C0DA806D2D70E06F777070BD
:104DA000882777FD8095982F0E948B3820E030E08F
:104DB00040E853E40E943F397B018C016B8170E035
:104DC000882777FD8095982F0E948B389B01AC0136
:104DD000C801B7010E94883720E030E040E251E48A
:104DE0000E94F037D7FC9058CC20E9F020E030E06A
:104DF00040E151E40E943F3920E030E040EA50E4D5
:104E00000E94F03720E030E040E052E40E94883712
:104E10000AC081EA90E161E77AE00E94033460E031
:104E200070E080EC9FE7DF91CF911F910F91FF9091
:104E3000EF90DF90CF90089581E08093FD0D609317
:104E4000DA0D1092FB0D1092FC0D08952091D90DF2
:104E500030E08091D80D281B3109C9010895409197
:104E6000D80D8091D90D481718F02FEF3FEF0AC0E9
:104E7000E42FF0E0E854F24F8081282F30E04F5FBC
:104E80004093D80DC9010895E091D80D8091D90DB6
:104E9000E81718F0EFEFFFEF06C0F0E0E854F24F2C
:104EA0008081E82FF0E0CF01089508951092010E5F
:104EB0001092000E88EE93E0A0E0B0E08093020E26
:104EC0009093030EA093040EB093050E86EC9AE027
:104ED0009093FF0D8093FE0D0895CF92DF92EF9295
:104EE000FF920F931F93CF93DF937C016B018A0195
:104EF0008091FD0D8823A1F0C0E0D0E00DC0D70166
:104F0000ED91FC91D601AC0FBD1F0190F081E02D19
:104F1000C7016C9119952196C017D10780F304C081
:104F2000CB01642F0E949F28C801DF91CF911F9170
:104F30000F91FF90EF90DF90CF900895DF93CF9384
:104F40000F92CDB7DEB7FC0169838091FD0D8823F8
:104F5000C9F08091FC0D803238F081E090E09383BD
:104F6000828320E030E015C08091FB0DE82FF0E057
:104F7000E552F24F998190838F5F8093FB0D809370
:104F8000FC0D05C0CE01019661E00E949F2821E042
:104F900030E0C9010F90CF91DF9108950F93062F54
:104FA0008091DA0D6BED7DE04091FC0D21E00E94D7
:104FB0004A281092FB0D1092FC0D1092FD0D0F91DE
:104FC000089561E00E94CE270895413208F040E242
:104FD000862F68EB7DE00E9401281092D80D809307
:104FE000D90D089521E00E94E52708951092D80D6B
:104FF0001092D90D1092FB0D1092FC0D0E944F2AB9
:105000000895382F413210F040E042C080910A0EDE
:105010008823E1F791E090930A0E20930C0E8FEF16
:105020008093770E1092320E41504093330E4F5FB3
:1050300090930B0E80910B0E330F832B80930B0EEE
:1050400080910D0E813041F410920D0E80910B0E67
:105050008093BB0085EC01C085EE8093BC008091FD
:105060000A0E8130E1F38091320E841710F44091E2
:10507000320E20E030E00AC0FB01E20FF31FD9013D
:10508000AE5EB14F8C9180832F5F3F4F2417A0F30A
:10509000842F08950F931F93582F122F413210F031
:1050A00081E04AC080910A0E8823E1F782E0809374
:1050B0000A0E00930C0E8FEF8093770E1092320E33
:1050C0004093330EA2E1BEE0FB0102C081918D93BB
:1050D0008E2F861B8417D0F310920B0E80910B0E2F
:1050E000550F852B80930B0E80910D0E813041F46E
:1050F00010920D0E80910B0E8093BB0085EC01C0C9
:1051000085EE8093BC00112321F080910A0E82303D
:10511000E1F38091770E8F3F11F480E00DC0809114
:10512000770E803211F482E007C08091770E8033D1
:1051300011F084E001C083E01F910F910895482F82
:10514000613210F081E0089580910A0E843011F0F0
:1051500082E008956093550EA4E3BEE0842F9C0185
:10516000F90102C081918D938E2F841B8617D0F395
:1051700080E008951F920F920FB60F920BB60F9218
:1051800011242F933F934F935F936F937F938F934C
:105190009F93AF93BF93EF93FF938091B90090E0FB
:1051A000887F90708036910509F4F2C081369105B0
:1051B000CCF58832910509F47BC089329105B4F4AD
:1051C0008031910509F46FC0813191053CF400975D
:1051D00009F447C1089709F04FC165C088319105AE
:1051E00009F466C0809709F047C182C080349105F8
:1051F00009F4A4C08134910544F48033910509F485
:1052000082C0C89709F038C189C08035910509F47A
:1052100089C08835910509F496C08834910509F054
:105220002BC1AEC08839910509F413C189399105A4
:10523000ECF48837910509F4ABC0893791054CF43B
:105240008836910509F4A4C08037910509F014C18E
:105250009FC08838910509F4FCC08039910509F494
:105260009DC08038910509F007C198C0803B910529
:1052700009F4C6C0813B91054CF4803A910509F4CC
:105280009FC0883A910509F0F7C0BAC0803C9105EB
:1052900009F4E3C0883C910509F4DFC0883B91051F
:1052A00009F0EAC0C2C080910B0E8093BB00CFC052
:1052B0009091320E8091330E981768F49091320ECF
:1052C000E92FF0E0EE5EF14F80818093BB009F5F9D
:1052D0009093320EBCC080910C0E882309F44BC011
:1052E00085ED8093BC008091BC0084FDFCCFC2C0E2
:1052F00080E28093770E85ED8093BC008091BC00A6
:1053000084FDFCCFB7C080E38093770E85ED80935A
:10531000BC008091BC0084FDFCCFACC088E38093CE
:10532000770E9BC08091320E9091BB00E82FF0E089
:10533000EE5EF14F90838F5F8093320E9091320E2C
:105340008091330E82C08091320E9091BB00E82F85
:10535000F0E0EE5EF14F90838F5F8093320E80918C
:105360000C0E882341F085ED8093BC008091BC0039
:1053700084FDFCCF7FC081E080930D0E84EA6EC077
:1053800085ED8093BC008091BC0084FDFCCF72C091
:1053900083E080930A0E1092760E59C08091760EAB
:1053A000803208F056C08091760E9091BB00E82FB5
:1053B000F0E0EA5AF14F90838F5F8093760E47C0FA
:1053C0008091760E803230F4E091760EF0E0EA5A69
:1053D000F14F108285ED8093BC008091BC0084FD6C
:1053E000FCCF10920A0E6091760EE091100EF091B3
:1053F000110E86E59EE070E019951092760E2DC094
:1054000084E080930A0E1092540E1092550EE09193
:105410000E0EF0910F0E19958091550E882329F4E8
:1054200081E08093550E1092340E9091540EE92F26
:10543000F0E0EC5CF14F80818093BB009F5F909324
:10544000540E9091540E8091550E981710F485ECDF
:1054500001C085E88093BC000FC085EC8093BC0040
:1054600009C01092770E85ED8093BC008091BC003E
:1054700084FDFCCF10920A0EFF91EF91BF91AF9186
:105480009F918F917F916F915F914F913F912F915C
:105490000F900BBE0F900FBE0F901F90189510929B
:1054A0000A0E81E080930C0E10920D0E84E161E0F3
:1054B0000E94CC2D85E161E00E94CC2DE9EBF0E06B
:1054C00080818E7F808380818D7F808388E480933C
:1054D000B80085E48093BC0008952CB5382F337054
:1054E0002C7F322B3CBD2DB590E0959587959595F9
:1054F000879581702E7F822B8DBD089585E361E0B5
:105500000E94CC2D85E361E00E94192D8CB580614D
:105510008CBD8CB580648CBD84E361E00E94192D44
:1055200083E361E00E94192D08950F931F93CF9399
:10553000DF93BC018230910510F462E070E0E091ED
:105540002B11F0912C11A0E0B0E040E050E024C01D
:105550008081918186179707D0F08617970771F49D
:1055600082819381109729F013969C938E931297C2
:105570002CC090932C1180932B1127C041155105FD
:1055800019F08417950718F4EF018D01AC01DF01C4
:10559000828193819C01F9013097D1F64115510523
:1055A000F9F0CA01861B970B8430910580F48A813B
:1055B0009B810115110521F0F8019383828304C0BA
:1055C00090932C1180932B11FE01329645C0FE0161
:1055D000E80FF91F619371930297998388833CC008
:1055E0008091291190912A11892B41F48091A50A6B
:1055F0009091A60A90932A11809329114091A70AAD
:105600005091A80A4115510541F44DB75EB78091FC
:10561000A30A9091A40A481B590B2091291130919B
:105620002A1124173507B0F4CA01821B930B861781
:10563000970780F0AB014E5F5F4F8417950750F0DE
:10564000420F531F50932A1140932911F90161937E
:10565000719302C0E0E0F0E0CF01DF91CF911F91A4
:105660000F910895CF93DF939C01009709F48FC0A9
:10567000EC0122971B821A8260912B1170912C11E0
:105680006115710581F488819981820F931F2091A2
:10569000291130912A112817390739F5D0932A1189
:1056A000C093291174C0DB0140E050E0AC17BD0786
:1056B00008F1BB83AA83FE0121913191E20FF31F10
:1056C000AE17BF0779F48D919C911197280F391F60
:1056D0002E5F3F4F3983288312968D919C911397AB
:1056E0009B838A834115510571F4D0932C11C0938B
:1056F0002B114DC012968D919C911397AD0100977F
:1057000011F0DC01D3CFDA011396DC93CE9312971C
:10571000FA0121913191E20FF31FCE17DF0769F4EF
:1057200088819981280F391F2E5F3F4FFA013183FD
:1057300020838A819B8193838283E0E0F0E0DB0118
:1057400012968D919C911397009719F0BC01FD0161
:10575000F6CFAB014E5F5F4FDB018D919C91840FC3
:10576000951F2091291130912A112817390779F4B2
:10577000309729F410922C1110922B1102C0138231
:1057800012824250504050932A1140932911DF91C8
:10579000CF9108951F920F920FB60F9211242F935D
:1057A0003F938F939F93AF93BF9380917C0E909183
:1057B0007D0EA0917E0EB0917F0E3091800E0196ED
:1057C000A11DB11D232F2D5F2D3720F02D570196E0
:1057D000A11DB11D2093800E80937C0E90937D0EB1
:1057E000A0937E0EB0937F0E8091780E9091790EEB
:1057F000A0917A0EB0917B0E0196A11DB11D8093F0
:10580000780E9093790EA0937A0EB0937B0EBF9191
:10581000AF919F918F913F912F910F900FBE0F905D
:105820001F9018958FB7F89420917C0E30917D0EC3
:1058300040917E0E50917F0E8FBFB901CA0108952D
:105840009B01AC017FB7F8948091780E9091790E0E
:10585000A0917A0EB0917B0E66B5A89B05C06F3FF4
:1058600019F00196A11DB11D7FBFBA2FA92F982F46
:105870008827860F911DA11DB11D62E0880F991F19
:10588000AA1FBB1F6A95D1F7BC012DC0FFB7F894C2
:105890008091780E9091790EA0917A0EB0917B0E46
:1058A000E6B5A89B05C0EF3F19F00196A11DB11DFB
:1058B000FFBFBA2FA92F982F88278E0F911DA11DEA
:1058C000B11DE2E0880F991FAA1FBB1FEA95D1F70F
:1058D000861B970B885E9340C8F2215030404040B1
:1058E000504068517C4F211531054105510571F635
:1058F0000895019739F0880F991F880F991F029713
:105900000197F1F70895789484B5826084BD84B5D9
:10591000816084BD85B5826085BD85B5816085BDAA
:10592000EEE6F0E0808181608083E1E8F0E01082C3
:10593000808182608083808181608083E0E8F0E004
:10594000808181608083E1EBF0E0808184608083EE
:10595000E0EBF0E0808181608083E1E9F0E080812C
:1059600082608083808181608083E0E9F0E08081D3
:1059700081608083E1EAF0E08081826080838081C1
:1059800081608083E0EAF0E0808181608083E1E2F1
:10599000F1E0808182608083808181608083E0E2A9
:1059A000F1E0808181608083EAE7F0E080818460BB
:1059B0008083808182608083808181608083808118
:1059C000806880831092C1000895382F863308F0D4
:1059D000365320917B00832F86958695869590E09F
:1059E0008170907043E0880F991F4A95E1F7277FF7
:1059F000282B20937B0037708091A90A8295880F0D
:105A0000880F807C832B80937C0080917A00806457
:105A100080937A0080917A0086FDFCCF20917800F7
:105A200040917900942F80E030E0282B392BC90178
:105A30000895CF93DF93482F50E0CA018C569D4FB5
:105A4000FC013491425B5D4FFA018491882369F136
:105A500090E0880F991FFC01E050FE4FA591B49192
:105A6000FC01E65EFD4FC591D491662351F42FB73A
:105A7000F8948C91932F909589238C938881892316
:105A80000BC0623061F42FB7F8948C91932F9095EE
:105A900089238C938881832B88832FBF06C09FB76F
:105AA000F8948C91832B8C939FBFDF91CF910895B5
:105AB000893009F449C08A30A0F4843051F185302E
:105AC00040F4823079F1833000F5813009F063C011
:105AD00026C0873079F1883098F5863009F05BC0B0
