:100000000C9416010C9443010C9443010C9443018D
:100010000C9443010C9443010C9443010C94430150
:100020000C9443010C9443010C9443010C94430140
:100030000C9443010C9443010C9443010C94430130
:100040000C9443010C9443010C9443010C94430120
:100050000C9443010C9443010C9443010C94D8225A
:100060000C9443010C943E250C9486260C94430179
:100070000C9443010C9443010C9443010C944301F0
:100080000C9443010C9443010C9443010C944301E0
:100090000C947E250C94C5260C9443010C94F01FFF
:1000A0000C9443010C9443010C9443010C944301C0
:1000B0000C9443010C9443010C9443010C944301B0
:1000C0000C9443010C9443010C9443010C94BE2501
:1000D0000C9404270C9443010C94FE250C944327A4
:1000E0000C9443011F1C1F1E1F1E1F1F1E1F1E1FBF
:1000F0007C3C3E5E2B3D3F2F5B5D3B2C2A225C000F
:1001000000002100240027002A002D0030003300C9
:1001100001010000040107010A010000220025007E
:1001200028002B002E0031003400020100000501E0
:1001300008010B01000020002300260029002C00EC
:100140002F0032000001000003010601090105052E
:100150000505070508080808020202020A0A08083D
:10016000040404040101010101010101030303036B
:1001700003030303040707070C0C0C0C0C0C0C0CFA
:100180000202020206060606060606060B0B0B0B0B
:100190000B0B0B0B01021020200808102040102030
:1001A000408002010201080402010102040810203B
:1001B0004080804020100804020180040201804039
:1001C00020100804020108040201010204081020A2
:1001D000408001020408102040800000090A020843
:1001E0000B0C0D07060304010000000000000000D6
:1001F00000000000000000000000000000000000FF
:1002000000000000000011100F00000000000000BE
:1002100000000000000000000000000000000000DE
:100220009001B509840B8C1EB328890111241FBECF
:10023000CFEFD1E2DEBFCDBF00E00CBF14E0A0E005
:10024000B2E0E4EDFDE500E00BBF02C007900D92C7
:10025000A23FB107D9F71BBE1BE0A2EFB4E001C07B
:100260001D92AF30B107E1F712E0CAE2D2E004C05C
:100270002297FE010E94D92EC032D107C9F70E94F1
:10028000E9290C94DD2E0C940000FB01DC0104C074
:100290008D910190801921F441505040C8F7881B7E
:1002A000990B0895FC018191861721F08823D9F7D5
:1002B000992708953197CF010895FB01DC01415042
:1002C000504048F001900D920020C9F701C01D92E6
:1002D00041505040E0F708958130910581F46F5FFF
:1002E0007F4FB1F482EF94E00E941B0A8BE395E00C
:1002F00040E050E060E070E00E946A080895892BB9
:1003000039F46F5F7F4F21F482EF94E00E942E0A50
:10031000089580E090E06FEF7FEF0E946C010895F8
:1003200081E090E06FEF7FEF0E946C01089580EE16
:1003300097E00E942C1F0E94FB0808950F931F93C3
:10034000DF93CF93CDB7DEB7A1970FB6F894DEBF9A
:100350000FBECDBF8E010F5F1F4FC80168E475E06F
:1003600040E152E023E10E94900DC8010E94700A12
:10037000882309F498C00E94FD082C8F3D8F4E8F72
:100380005F8F68A379A3ABE3B5E0FE017C9686E0BE
:1003900001900D928150E1F740910F0550911005A9
:1003A00060911105709112058E010F5F1F4FC801FA
:1003B00022E030E00E94422CC8016CE172E00E9411
:1003C0005B2BC801609144054AE050E00E94EA2A94
:1003D000C8016CE172E00E945B2BC801609142058C
:1003E0004AE050E00E94EA2AC8016CE172E00E94F3
:1003F0005B2B40912F055091300560913105709134
:100400003205C80122E030E00E94422CC8016CE1B4
:1004100072E00E945B2BC80160913D054AE050E00C
:100420000E94EA2AC8016FE20E94222AC801609154
:100430003C054AE050E00E94EA2AC8016FE20E94AF
:10044000222A60913B0570E06053784FC8014AE072
:1004500050E00E94D92AC80160E20E94222AC80105
:1004600060913E054AE050E00E94EA2AC8016AE332
:100470000E94222AC80160913F054AE050E00E9494
:10048000EA2AC8016AE30E94222AC8016091400555
:100490004AE050E00E94EA2AC8010E942A2AC801C4
:1004A0000E947D0A06C083E89AE06FE172E00E9434
:1004B000582CCE0101960E942E0AA1960FB6F894F0
:1004C000DEBF0FBECDBFCF91DF911F910F91089579
:1004D0000F931F938C0183E89AE069E372E00E9416
:1004E0005B2B83E89AE0B8010E94582C82E061E01F
:1004F0000E94DA24FFCFEF92FF921F93DF93CF93F6
:10050000CDB7DEB7A7970FB6F894DEBF0FBECDBF4D
:1005100082E061E00E94272483E061E00E942724BA
:1005200088E495E06091A1040E94B50E882321F42F
:1005300081E492E00E94680283E89AE06DE572E04F
:100540000E94582CDE011196E4ECF2E08CE0019060
:100550000D928150E1F710E07E010894E11CF11C3E
:10056000812F6AE00E94A92E805D8F83812F0E94D7
:10057000A92E905D988788E495E0B7010E94670CEA
:100580008823D1F5CE010D9668E475E0A70123E13B
:100590000E94900D8F8598899093F5048093F404C0
:1005A00089899A89AB89BC898093F6049093F70472
:1005B000A093F804B093F9048D899E89AF89B88D12
:1005C0008093FA049093FB04A093FC04B093FD0481
:1005D000AEEFB4E0FE0179968DE001900D9281506E
:1005E000E1F78EA19FA190930C0580930B05CE019E
:1005F0000D960E942E0A04C01F5F143609F0B0CF7A
:1006000082EF94E00E94700A882321F48FE692E042
:100610000E94680283E89AE063E872E00E945B2B24
:1006200083E89AE0BE016F5F7F4F0E94582C83E8F9
:100630009AE060E972E00E945B2B8091A10461E086
:100640000E94272488E495E06091A1040E94B50EE1
:10065000882329F483E89AE068EA72E004C083E81A
:100660009AE06DE572E00E94582CA7960FB6F894B8
:10067000DEBF0FBECDBFCF91DF911F91FF90EF90F6
:1006800008958091A30461E00E94DA24089583E82C
:100690009AE00E940928181619060CF077C183E821
:1006A0009AE00E943A288533910509F4C6C0863342
:1006B00091059CF48233910509F443C0833391057D
:1006C00024F4C19709F05AC118C08333910509F485
:1006D00064C0C49709F052C184C08733910509F4FE
:1006E000FCC0873391050CF4CCC08833910509F424
:1006F00017C1C99709F042C13EC1609115057091BB
:10070000160580911705909118052AE037ED43E210
:100710005CE30E946C2C6093150570931605809322
:1007200017059093180520E030E040E151E40E9465
:100730001F2E88230CF42AC180E090E0A0E1B1E4F0
:1007400023C0609115057091160580911705909151
:1007500018052AE037ED43E25CE30E946B2C6093BE
:10076000150570931605809317059093180520E0E2
:1007700030E040E450E40E94D02C18160CF406C17E
:1007800080E090E0A0E4B0E4809315059093160516
:10079000A0931705B09318050895609121057091F5
:1007A000220580912305909124052AE037ED43E24C
:1007B0005CE30E946C2C609321057093220580936A
:1007C00023059093240520E030E040E151E40E94AD
:1007D0001F2E88230CF4DAC080E090E0A0E1B1E4A1
:1007E00023C060912105709122058091230590918D
:1007F00024052AE037ED43E25CE30E946B2C609312
:1008000021057093220580932305909324052AE007
:1008100037ED43E25CE30E94D02C18160CF4B6C00E
:100820008AE097EDA3E2BCE3809321059093220533
:10083000A0932305B0932405089560912505709138
:100840002605809127059091280520E030E040E8BA
:100850005FE30E946C2C60932505709326058093BE
:1008600027059093280520E030E048E452E40E94F8
:100870001F2E88230CF48AC080E090E0A8E4B2E444
:1008800023C06091250570912605809127059091E0
:10089000280520E030E040E85FE30E946B2C609385
:1008A000250570932605809327059093280520E061
:1008B00030E040E050E00E94D02C18160CF466C0E6
:1008C00080E090E0A0E0B0E08093250590932605BD
:1008D000A0932705B093280508956091290570918C
:1008E0002A0580912B0590912C0520E030E040E80E
:1008F0005FE30E946C2C6093290570932A05809316
:100900002B0590932C0520E030E048EC52E40E9447
:100910001F2E8823DCF180E090E0A8ECB2E422C036
:100920006091290570912A0580912B0590912C05E5
:1009300020E030E040E85FE30E946B2C60932905E3
:1009400070932A0580932B0590932C0520E030E0CE
:1009500040E050E00E94D02C1816C4F080E090E0F7
:10096000A0E0B0E08093290590932A05A0932B0581
:10097000B0932C0508950E944103089583E89AE0FE
:1009800069E37DE24AE050E00E943C2B08958CE24E
:1009900061E00E9427248CE261E00E94DA2408953D
:1009A00080910D0590910E05892B09F064C080910E
:1009B0009F040E94F32390932E0580932D05AA2770
:1009C00097FDA095BA2FBC01CD010E946F2D20E0AC
:1009D00030E040E85AE30E94232E20E030E040EA75
:1009E00050E40E94232E9B01AC0160933305709369
:1009F0003405809335059093360560E070E088E417
:100A000092E40E94D42C20E030E040E251E40E94C5
:100A10006B2C9B01AC016093370570933805809374
:100A2000390590933A0560E070E080E89FE30E940A
:100A3000D42C2AE037ED4FE753E40E94232E609335
:100A40002F0570933005809331059093320583E82C
:100A50009AE060ED72E00E945B2B40912F0550916F
:100A60003005609131057091320583E89AE022E00B
:100A700030E00E94452C08951F93CF93DF9310E040
:100A8000C7E0D0E08CE20E940D25892BD9F38DE2DE
:100A900090E00E9487238CE20E940D258130910511
:100AA00039F40C2E02C0880F991F0A94E2F7182B14
:100AB0008CE20E940D250197D9F321978FEFCF3F4C
:100AC000D80701F7812FDF91CF911F910895CF9320
:100AD000DF93109241058CE260E00E94DA2467E126
:100AE00070E080E090E00E942E238CE261E00E94A2
:100AF000DA2488E290E00E9487238CE260E00E9482
:100B000027248CE20E940D25882311F081E030C05B
:100B100080E590E00E9487238CE20E940D258823C7
:100B200011F482E025C080E590E00E948723C2E4B2
:100B3000D5E00E943C05899385E0C734D807C9F702
:100B40008CE261E00E9427248CE261E00E94DA24BA
:100B50008091430590914205890F90914405890F3A
:100B600090914505890F90914605981719F083E0FB
:100B700080934105DF91CF9108956F927F928F927C
:100B80009F92AF92BF92CF92DF92EF92FF920F931C
:100B90001F930E94670580914105813071F181307A
:100BA00028F0823079F18330B9F531C083E89AE0DA
:100BB0006FED72E00E945B2B83E89AE06091420542
:100BC0004AE050E00E94EA2A83E89AE063EF72E08C
:100BD0000E94582C83E89AE067EF72E00E945B2B3A
:100BE00083E89AE0609144054AE050E00E94EA2AD6
:100BF00083E89AE066E073E013C083E89AE06CE073
:100C000073E00EC083E89AE064E373E009C083E810
:100C10009AE06CE573E004C083E89AE069E773E06A
:100C20000E94582C809197040E94F323AA2797FDD5
:100C3000A095BA2FBC01CD010E946F2D2EE431ED9D
:100C400041E95CE30E94232E21EC3AEC41EF5FE3A3
:100C50000E946B2C3B014C0160930F0570931005B3
:100C60008093110590931205E0901505F0901605FC
:100C70000091170510911805A0902105B09022054C
:100C8000C0902305D0902405C801B701A6019501A5
:100C90000E946B2C6093190570931A0580931B05B5
:100CA00090931C05C801B701A60195010E946C2C08
:100CB00060931D0570931E0580931F05909320057A
:100CC000C401B301A80197010E94D02C882351F4DC
:100CD00080919B0460E00E94DA248091990460E096
:100CE0000E94DA24E0900F05F090100500911105A4
:100CF00010911205C801B7012091190530911A050C
:100D000040911B0550911C050E941F2E8823F4F072
:100D1000C801B70120911D0530911E0540911F05A6
:100D2000509120050E94D02C181684F08091130554
:100D300090911405892B51F480919B0460E00E94EE
:100D4000DA248091990460E00E94DA2460910F0512
:100D5000709110058091110590911205209119054F
:100D600030911A0540911B0550911C050E94D02C12
:100D7000882384F48091130590911405892B51F4F4
:100D80008091990461E00E94DA2480919B0460E0E4
:100D90000E94DA24E0900F05F090100500911105F3
:100DA00010911205C801B7012091190530911A055B
:100DB00040911B0550911C050E941F2E8823F4F0C2
:100DC000C801B7012091150530911605409117050E
:100DD000509118050E94D02C882384F4809113052B
:100DE00090911405019751F48091990461E00E945B
:100DF000DA2480919B0460E00E94DA2460910F0560
:100E000070911005809111059091120520911D059A
:100E100030911E0540911F05509120050E941F2E04
:100E2000181684F48091130590911405892B51F4C0
:100E300080919B0461E00E94DA248091990460E033
:100E40000E94DA24E0900F05F09010050091110542
:100E500010911205C801B70120911D0530911E05A2
:100E600040911F05509120050E94D02C1816F4F0D7
:100E7000C801B7012091150530911605409117055D
:100E8000509118050E941F2E181684F480911305A6
:100E900090911405029751F480919B0461E00E94A7
:100EA000DA248091990460E00E94DA2483E89AE0D1
:100EB0006FE973E00E945B2B60911305709114053C
:100EC00083E89AE04AE050E00E943C2B83E89AE0F5
:100ED00067EA73E00E945B2B40911505509116055F
:100EE000609117057091180583E89AE022E030E0E0
:100EF0000E94452C83E89AE063EB73E00E945B2B31
:100F0000409121055091220560912305709124059F
:100F100083E89AE022E030E00E94452C83E89AE0E2
:100F20006FEB73E00E945B2B40910F055091100511
:100F3000609111057091120583E89AE022E030E09B
:100F40000E94452C1F910F91FF90EF90DF90CF9062
:100F5000BF90AF909F908F907F906F9008950E9468
:100F6000BD050E94D0040E949E010E94470368EEC6
:100F700073E080E090E00E942E2308950F931F936A
:100F80008091990461E00E94272480919B0461E094
:100F90000E94272480919D0461E00E942724809173
:100FA000A30461E00E9427240E94C70403E81AE01A
:100FB000C80140E855E260E070E00E9482276CE2E0
:100FC00071E080E090E00E942E23C80165EC73E0A0
:100FD0000E94582CC80168EE73E00E94582C6CEBFC
:100FE00072E080E090E00E942E231F910F910895FF
:100FF0000F931F9306E415E06091A5047091A60479
:10100000C8010E94CD096093150570931605809361
:101010001705909318056091A7047091A804C80162
:101020000E94CD09609321057093220580932305CA
:10103000909324056091A9047091AA04C8010E94AC
:10104000180A90E0A0E0B0E0BC01CD010E946D2D37
:1010500060932505709326058093270590932805B6
:101060006091AB047091AC04C8010E94180A90E032
:10107000A0E0B0E0BC01CD010E946D2D6093290578
:1010800070932A0580932B0590932C051F910F9147
:1010900008950E94F80768EE73E080E090E00E94F7
:1010A0002E230E94BE0768EE73E080E090E00E946D
:1010B0002E230E94970168EE73E080E090E00E948A
:1010C0002E230E947B0268EE73E080E090E00E9495
:1010D0002E230895EF92FF920F931F93CF93DF93E8
:1010E000EC017A018B0180E89CEBA2E9B7ECE80EF9
:1010F000F91E0A1F1B1FC801B7012CE330E040E0B6
:1011000050E00E94B52E6D83C801B7012CE330E09A
:1011100040E050E00E94B52E122F032FF42EE52E52
:10112000622F732F842F952F2CE330E040E050E0A6
:101130000E94B52E6C83612F702F8F2D9E2D2CE376
:1011400030E040E050E00E94B52E122F032FF42E25
:10115000E52E622F732F842F952F28E130E040E099
:1011600050E00E94B52E6B83612F702F8F2D9E2D26
:1011700028E130E040E050E00E94B52E60E0A3E9B5
:10118000BEEF70E0862F90E083709070892B09F499
:1011900071E0E62FEF5F472F50E0CA0183599E4F61
:1011A0002817390738F0CD01841B950B280F391FFC
:1011B0006E2FE7CF688341E0E42FF0E0ED51FF4F61
:1011C0008491772319F0423009F48F5F90E0542F17
:1011D0005F5F2817390720F0281B390B452FECCF0C
:1011E0004983822F8F5F8A83DF91CF911F910F9167
:1011F000FF90EF90089581E00895BF92CF92DF9223
:10120000EF92FF920F931F93DF93CF9300D000D004
:10121000CDB7DEB700EE17E0C80168E670E00E94C7
:10122000521EC80160E00E94D41EC8010E94171F10
:10123000C80168E670E047E050E00E94281FC8013E
:101240000E94651E9FE7B92EB822C8010E94651E44
:10125000C82EC8010E94651ED82EC8010E94651EB6
:10126000C8010E94651EE82EC8010E94651EF82E66
:10127000C8010E94651E282F30E0B4E035952795FF
:10128000BA95E1F74AEF5FEFB901649F9001659F5E
:10129000300D749F300D1124820F90E02B2D30E023
:1012A000A4E035952795AA95E1F7B901649F9001CF
:1012B000659F300D749F300D1124B20E2C2D30E03F
:1012C000F4E035952795FA95E1F7B901649F90010F
:1012D000659F300D749F300D1124C20E2D2D30E00E
:1012E000E4E035952795EA95E1F7B901649F90010F
:1012F000659F300D749F300D1124D20E2E2D30E0DD
:1013000074E0359527957A95E1F7B901649F9001CE
:10131000659F300D749F300D1124E20E2F2D30E0AB
:1013200064E0359527956A95E1F7B901649F9001CE
:10133000659F300D749F300D1124F20E282F3F2D24
:101340004E2D5D2D6C2D7B2D80E026960FB6F894EA
:10135000DEBF0FBECDBFCF91DF911F910F91FF90E8
:10136000EF90DF90CF90BF90089584E690E0909347
:1013700047058093460508958091AD049091AE0491
:101380008617970714F081E0089583E89AE06DE0EE
:1013900074E00E94582C80E008950F931F93DF9310
:1013A000CF9300D00F92CDB7DEB78B016C5F7F4F2C
:1013B0000E94BC09882321F470E060E090E017C02F
:1013C000B801FE0131969E012B5F3F4F09C0F9998C
:1013D000FECF72BD61BDF89A80B581936F5F7F4F7C
:1013E000E217F307A1F779816A819B818C81272F0E
:1013F000362F492F582FB901CA010F900F900F9027
:101400000F90CF91DF911F910F910895CF93DF93AC
:10141000EB016F5F7F4F0E94BC09882331F0F9997F
:10142000FECFD2BDC1BDF89A80B5DF91CF910895AE
:101430000E94060A0895FC011382128288EE93E04E
:10144000A0E0B0E084839583A683B7838EEB94E01D
:1014500091838083128E118E14860895FC018EEB89
:1014600094E0918380830895DF93CF930F92CDB75B
:10147000DEB7FC016983A081B18112962D913C9168
:101480001397BE016F5F7F4F41E050E0F90119955E
:101490000F90CF91DF910895DC015996ED91FC9169
:1014A0005A97309719F420E030E018C02389348926
:1014B0004589568982859385A485B585281B390B76
:1014C0004A0B5B0B2030B0E83B07B0E04B07B0E0C5
:1014D0005B0720F02FEF3FE740E050E0C90108959F
:1014E000DC015996ED91FC915A97309711F480E008
:1014F00008958581811181E00895CF93DF93EC01F8
:10150000898D9A8D009741F00E943E13898D9A8DA6
:101510000E9440221A8E198EDF91CF910895FC010E
:10152000818D928D009711F00E94F4120895DF933F
:10153000CF930F92CDB7DEB7FC01818D928D0097CE
:1015400049F0BE016F5F7F4F41E050E00E941514EB
:10155000019719F02FEF3FEF03C08981282F30E06A
:10156000C9010F90CF91DF910895EF92FF920F93F1
:101570001F93DF93CF930F92CDB7DEB77C01DC01D1
:1015800059968D919C915A97009719F400E010E0BC
:101590001FC0BE016F5F7F4F41E050E00E941514F5
:1015A000019719F00FEF1FEF13C08981082F10E08A
:1015B000D7015996ED91FC915A97428553856485E0
:1015C00075854150504060407040CF010E942E12FE
:1015D000C8010F90CF91DF911F910F91FF90EF9075
:1015E0000895CF93DF93EC01E98DFA8D309761F088
:1015F00013821282CF010E945A169C01E98DFA8D46
:1016000082819381892B31F081E090E09B838A83F2
:1016100020E030E0C901DF91CF910895EF92FF9271
:101620000F931F93CF93DF93EC01F62EE72E8A01E1
:101630001B821A8288EE93E0A0E0B0E08C839D8349
:10164000AE83BF838EEB94E0998388838DE190E035
:101650000E94A3219A8F898F009791F0DC018F2D32
:101660009E2D9C01F9018DE101900D928150E1F7D1
:10167000CE010C96B8014CE050E00E945D01188E3E
:10168000DF91CF911F910F91FF90EF9008950F93ED
:101690001F93CF93DF938C01FB01C081D181FC01AB
:1016A000EC0FFD1F80818F3209F4219698012C0FD9
:1016B0003D1FA0E0B0E00BC0FA01EA0FFB1F8083E2
:1016C000119621962F5F3F4FAC30B10531F0F901F3
:1016D00080818F3211F0882379F7A40FB51F1C92F7
:1016E000F801EC0FFD1F80818F3209F42196FB0178
:1016F000D183C083C00FD11F8881811181E0DF9128
:10170000CF911F910F91089510924D0510924E05A3
:10171000109251051092530582E090E0A0E0B0E0F5
:101720008093540590935505A0935605B0935705A3
:1017300010926B0510927505109274058EEC94E072
:101740009093730580937205109277050895EF9238
:10175000FF921F93DF93CF93CDB7DEB76D970FB690
:10176000F894DEBF0FBECDBF9C01AB011C821B8273
:101770008EEC94E09A8389831E827E010894E11C9A
:10178000F11CC701B90121E00E948618182F882397
:1017900019F0C7010E943E13812F6D960FB6F89481
:1017A000DEBF0FBECDBFCF91DF911F91FF90EF90B5
:1017B00008952F923F924F925F926F927F928F92F5
:1017C0009F92BF92CF92DF92EF92FF920F931F935F
:1017D000DF93CF93CDB7DEB7C954D0400FB6F8949E
:1017E000DEBF0FBECDBF1C017B012A0139011B8A60
:1017F0001A8A8EEC94E0998B888B1D8A18AA1FA6F2
:101800009EA78DA71AAA1A8219828B0120E1C22EE7
:10181000D12CCC0EDD1E93E0892E912C8C0E9D1EBA
:1018200003C0C80186016C01C101BE016F5F7F4F1B
:10183000A4010E94470BB82E40E0882309F441E040
:10184000C801B4019301F2011995882339F40E15EA
:101850001F0519F1C8010E943E131FC0BB20A9F04B
:10186000C601B801A40121E00E948618B82E0E1509
:101870001F0519F0C8010E943E13BB2071F00E1520
:101880001F0579F6CE018D96CDCF0E151F0519F0E7
:10189000C8010E943E1381E001C080E0C75BDF4FBA
:1018A0000FB6F894DEBF0FBECDBFCF91DF911F9171
:1018B0000F91FF90EF90DF90CF90BF909F908F900F
:1018C0007F906F905F904F903F902F9008959B0175
:1018D000BC01665D7F4FC90147EA5BE020E030E074
:1018E0000E94D90B08952F923F924F925F926F9270
:1018F0007F928F929F92AF92BF92CF92DF92EF92A0
:10190000FF920F931F93DF93CF93CDB7DEB7C754EA
:10191000D0400FB6F894DEBF0FBECDBF582E492E73
:10192000FB013A01190184A595A5998B888B2EECB2
:1019300034E03F872E8786A58A8B87A58B8B80A96D
:1019400091A9A2A9B3A98C8B9D8BAE8BBF8B84A9C7
:1019500095A9A6A9B7A9888F998FAA8FBB8F80ADAB
:1019600091ADA2ADB3AD8C8F9D8FAE8FBF8F84AD87
:1019700088A3FD9681919191A191B19189A39AA398
:10198000ABA3BCA381919191A191B1918DA39EA391
:10199000AFA3B8A7808191819AA789A71EA61DA68B
:1019A0003CA72BA718AA7A018E01025F1F4F3BE2CA
:1019B000A32EB12CAC0EBD1E4E010894811C911CAF
:1019C00035C0D7018C918F3221F40894E11CF11CB1
:1019D0002DC0422F4E194D3008F04CE0C42EDD24AE
:1019E000C401B701A6010E945D01F401EC0DFD1DCB
:1019F0001082C5010E943E13C501B801A40121E077
:101A00000E948618882351F4E52DF42D138212824A
:101A10008EEC94E091838083158266C0EC0CFD1CF3
:101A2000C8010E943E13C50158018C01C7016FE235
:101A300070E00E9452019C01009719F6E618F70821
:101A4000F101F182E082E52DF42DD80112968D91FD
:101A50009C911397938382838EEC94E0918380838F
:101A600014968C911497848315968C911597858381
:101A700016962D913D914D915C9119972683378350
:101A8000408751871A962D913D914D915C911D97FC
:101A900022873387448755871E962D913D914D911E
:101AA0005C91519726873787408B518B52968C914A
:101AB0005297828B53962D913D914D915C91569703
:101AC000238B348B458B568B57962D913D914D91A1
:101AD0005C915A97278B308F418F528F5B968D91F7
:101AE0009C915C97948F838F852D942DC95BDF4FDC
:101AF0000FB6F894DEBF0FBECDBFCF91DF911F911F
:101B00000F91FF90EF90DF90CF90BF90AF909F909C
:101B10008F907F906F905F904F903F902F9008959F
:101B20009F92AF92BF92CF92DF92EF92FF920F936C
:101B30001F93DF93CF93CDB7DEB7C657D0400FB614
:101B4000F894DEBF0FBECDBFC82E992E8A01D22ECB
:101B500043E0A42EB12CAC0EBD1EC501A8019E0110
:101B60002F5F3F4F0E94730CE980FA80E00EF11E58
:101B7000F70180814EEC54E02885882309F03FC0AE
:101B80008D819E819BA38AA359A348A38F818CA397
:101B90002DA389859A85AB85BC858EA39FA3A8A715
:101BA000B9A78D859E85AF85B8898AA79BA7ACA765
:101BB000BDA789899A89AB89BC898EA79FA7A8AB45
:101BC000B9AB8D898AAB8E899F89A88DB98D8BAB76
:101BD0009CABADABBEAB8A8D9B8DAC8DBD8D8FAB01
:101BE00098AFA9AFBAAF8E8D9F8D9CAF8BAF8C2D68
:101BF000992DBE01605E7F4F47E854E09FC0FE0113
:101C0000FF96118210825EAF4DAFFE01EE5BFF4F7B
:101C100010822223A9F02250CE01CD96223048F422
:101C200062E775E0A7012D2D0E948618882381F4B4
:101C300007C0B501A7012D2D0E948618882329F41D
:101C40008C2D992D0E941B0A7BC0C5010E943E135A
:101C5000F6E0DF2259F0FE01E05BFF4F4081518149
:101C600062817381CE01CD960E942E129E01265A6A
:101C70003F4FFE01FF9680819181F901938382831A
:101C80008EEC94E091838083FE01EF5BFF4F8081B7
:101C9000F9018483FE01EE5BFF4F8081F9018583AA
:101CA000FE01ED5BFF4F80819181A281B381F9013B
:101CB00086839783A087B187FE01E95BFF4F808110
:101CC0009181A281B381F90182879387A487B58727
:101CD000FE01E55BFF4F80819181A281B381F90113
:101CE00086879787A08BB18BFE01E15BFF4F8081D8
:101CF000F901828BFE01E05BFF4F80819181A2811F
:101D0000B381F901838B948BA58BB68BFE01EC5AC2
:101D1000FF4F80819181A281B381F901878B908FE0
:101D2000A18FB28FFE01E85AFF4F80819181F901A6
:101D3000948F838F8C2D992DB901A7010E940E0BD2
:101D40008C2D992DCA58DF4F0FB6F894DEBF0FBE09
:101D5000CDBFCF91DF911F910F91FF90EF90DF905A
:101D6000CF90BF90AF909F9008950F931F93CF9304
:101D7000DF93EC01462F61E00E941A118823D1F015
:101D80008E01045F1F4FC801BE0141E00E94271A67
:101D9000882339F4C801BE0140E00E94271A882335
:101DA00049F0CE018A96B8010E947415882319F073
:101DB00081E001C080E0DF91CF911F910F910895E4
:101DC000FC01673020F086E1858380E00895262FAE
:101DD00030E060FD02C0663019F48DB58E7F02C020
:101DE0008DB581608DBD8CB58C7F8CBD4CB522FDD1
:101DF00002C090E001C092E036952795822F817055
:101E0000842B892B8CBD81E00895FF920F931F9343
:101E1000CF93DF938B010E942023EB01FF24FA94E0
:101E2000FEBC0DB407FEFDCF8EB58F3F11F481E0EF
:101E300008C00E9420236C1B7D0B6017710780F384
:101E400080E0DF91CF911F910F91FF900895FC01E9
:101E5000848160E00E94DA240895FC01848161E0BD
:101E60000E94DA240895DC016EBDFA0120E030E022
:101E70000DB407FEFDCF80818EBD0DB407FEFDCFF2
:101E800081818EBD2E5F3F4F329682E02030380731
:101E900079F70DB407FEFDCF8FEF8EBD0DB407FEB1
:101EA000FDCF8FEF8EBD0DB407FEFDCF8FEF8EBD42
:101EB0000DB407FEFDCF8EB51A968C931A978F71CD
:101EC000853011F481E0089581E115968C93159782
:101ED000CD010E942D0F80E00895FF920F931F9374
:101EE000CF93DF93EC010E9420238B01FF24FA940F
:101EF00009C00E942023601B710B6D52714010F0CD
:101F00008FE00DC0FEBC0DB407FEFDCF8EB58A87F5
:101F10008F3F79F38E3F11F481E006C08DE08D8311
:101F2000CE010E942D0F80E0DF91CF911F910F9184
:101F3000FF900895CF93DF93EC018E818823D1F039
:101F40008FEF8EBD2F8138854FEF04C00DB407FE93
:101F5000FDCF4EBD2F5F3F4FC90101978150924089
:101F6000A8F338872F830DB407FEFDCFCE010E9462
:101F70002D0F1E82DF91CF910895DF92EF92FF9295
:101F80000F931F93CF93DF93EC01D62E79018A0133
:101F90000E949A0FCE010E94270FCE016CE271E0E1
:101FA0000E94050F8D2D80648EBD0DB407FEFDCF00
:101FB00028E130E0D801C701022E04C0B695A795EC
:101FC000979587950A94D2F78EBD0DB407FEFDCF85
:101FD000285030408FEF283F380761F7DD2011F49B
:101FE00085E906C088E0D81611F487E801C08FEFB4
:101FF0008EBD0DB407FEFDCF90E02FEF2EBD0DB4CA
:1020000007FEFDCF8EB587FF02C09150B9F78A87D2
:10201000DF91CF911F910F91FF90EF90DF90089586
:10202000CF92DF92EF92FF920F931F93CF93DF93A4
:10203000EC017A018B0169014115510561057105BA
:1020400011F482E137C08B85833039F029E0EE0C42
:10205000FF1C001F111F2A95D1F7CE0168E1A801CE
:1020600097010E94BD0F882311F084E023C0CE01A8
:102070006EEFA6010E94330F8823E9F0CE0168E5D8
:1020800072E00E94050F882311F485E113C0CE0190
:102090006DE020E030E040E050E00E94BD0F88237A
:1020A00041F48FEF8EBD0DB407FEFDCF8EB58823B2
:1020B00079F084E18D83CE010E942D0F80E0DF91C5
:1020C000CF911F910F91FF90EF90DF90CF900895E7
:1020D000CE010E942D0F81E0F2CF8F929F92AF929E
:1020E000BF92CF92DF92EF92FF920F931F93CF9305
:1020F000DF93EC015A016B0149010115110509F447
:102100007BC0C801820F931F8150924008F06FC0BE
:102110008E81882371F088819981AA81BB814817BB
:1021200059076A077B0729F48F81988588169906D5
:1021300018F5A882B982CA82DB828B85833039F098
:1021400069E0AA0CBB1CCC1CDD1C6A95D1F7CE0142
:1021500061E1A60195010E94BD0F882319F083E07B
:102160008D8345C0CE010E946D0F882309F43FC0C6
:1021700018861F8281E08E838FEF8EBD8F819885B8
:102180002FEF05C00DB407FEFDCF2EBD01968815BB
:102190009905C0F398878F83D801119720E030E02C
:1021A0009FEF0BC00DB407FEFDCF8EB5F701E20F18
:1021B000F31F80839EBD2F5F3F4F2A173B0790F38D
:1021C0000DB407FEFDCF8EB5AE0DBF1D8C932F81D4
:1021D0003885200F311F38872F838985882319F090
:1021E0002050324048F0CE010E949A0F05C0CE0127
:1021F0000E942D0F80E001C081E0DF91CF911F91FF
:102200000F91FF90EF90DF90CF90BF90AF909F9095
:102210008F900895EF92FF920F931F93790120E022
:1022200030E000E012E00E946D101F910F91FF90CE
:10223000EF900895BF92CF92DF92EF92FF920F93AB
:102240001F93CF93DF93EC01B62E1B8619861E8257
:102250001D824C830E9420236B018C8161E00E94CF
:102260002724CE010E942D0F82E360E00E942724E4
:1022700083E361E00E94272484E361E00E94272435
:1022800085E361E00E94272485E361E00E94DA246F
:1022900083E58CBD8DB58E7F8DBD80E09FEF9EBDAB
:1022A0000DB407FEFDCF8F5F8A30C9F7CE010E94C3
:1022B000270F09C00E9420236C197D09615D7740BA
:1022C00010F081E05EC0CE0160E020E030E040E050
:1022D00050E00E94BD0F182F8A87813059F7CE0138
:1022E00068E02AEA31E040E050E00E94BD0F82FF42
:1022F00002C01B8711C080E02FEF2EBD0DB407FE7A
:10230000FDCF9EB58F5F8430C1F79A879A3A11F05E
:1023100082E037C082E08B878B85823021F0EE240B
:10232000FF2487010FC0E12CF12C012DF0E41F2FB9
:1023300009C00E9420236C197D09615D774010F06F
:1023400088E01FC0CE0167E320E030E040E050E0CD
:102350000E94BD0FCE0169E2A80197010E94BD0F46
:102360008A87882331F78B85823031F5CE016AE385
:1023700020E030E040E050E00E94BD0F882339F0BB
:1023800086E08D83CE010E942D0F80E01CC08FEF70
:102390008EBD0DB407FEFDCF8EB5807C803C11F460
:1023A00083E08B8780E09FEF9EBD0DB407FEFDCFDD
:1023B0002EB58F5F8330C1F7CE010E942D0FCE0165
:1023C0006B2D0E94E00EDF91CF911F910F91FF9036
:1023D000EF90DF90CF90BF900895CF93DF93EC0103
:1023E000DB0180E090E020E2FD01E80FF91F20838F
:1023F00001968B309105C1F757E040E021C02E32A5
:1024000019F080EF90E007C05A3019F15AE048E027
:1024100017C03217F1F0FC01019634913323C9F74C
:102420005417B8F02132A8F02F3798F4822F815634
:102430008A3108F42052FD01E40FF11D20834F5F23
:1024400029912223E1F690E08C91803219F091E0FD
:1024500001C090E0892FDF91CF9108956F927F9214
:102460008F929F92AF92BF92CF92DF92EF92FF92A4
:102470000F931F93CF93DF93EC017A018B012D8192
:10248000222309F480C08B899C89AD89BE89841779
:102490009507A607B70708F476C085C0E114F104D4
:1024A0000105110549F41E821F82188619861A86B5
:1024B0001B861C861D8665C02A853B854C855D85EF
:1024C000EB8DFC8D858590E0099621503040404091
:1024D000504039014A01082E04C09694879477949D
:1024E00067940A94D2F72F5F3F4F4F4F5F4F089486
:1024F000E108F108010911095701680104C0D694E7
:10250000C794B794A7948A95D2F70894E11CF11C5C
:10251000011D111DA614B704C804D90428F0211503
:1025200031054105510549F48F89988DA98DBA8DE2
:102530008E839F83A887B98716C0A618B708C808D6
:10254000D90811C04E815F81688579858B8D9C8DFE
:1025500094010E94081C0894A108B108C108D10880
:10256000882331F410C086E0882E912C8C0E9D1E9D
:10257000A114B104C104D10429F7EA86FB860C87B3
:102580001D8781E001C080E0DF91CF911F910F9105
:10259000FF90EF90DF90CF90BF90AF909F908F9083
:1025A0007F906F900895223009F078CFE6CFCF93D7
:1025B000DF93EC01462F6E857F85888999890E947B
:1025C000EC19882319F420E030E00AC08A89282F0A
:1025D00030E095E0220F331F9A95E1F72D563A4FE0
:1025E000C901DF91CF9108950F931F93CF93DF938C
:1025F0008C01FC0185818823D9F1848187FF35C056
:10260000C80161E00E94D712EC01009789F1F8013E
:102610008581823040F483899489A589B6898C8F1D
:102620009D8FAE8FBF8FF8018789908D9B8F8A8F8A
:102630008789908DA18DB28DCD01AA27BB279D8B57
:102640008C8BE0919105F0919205309751F0BE018D
:102650006A5E7F4FCE0148961995888D998D9B8B28
:102660008A8BF80184818F7784830E948D1901C041
:1026700080E0DF91CF911F910F910895CF93DF9369
:10268000EC010E94F412882311F01D8281E0DF9199
:10269000CF9108956F927F928F929F92AF92BF9247
:1026A000CF92DF92EF92FF920F931F93DF93CF931E
:1026B00000D00F92CDB7DEB77C015A016B01DC016F
:1026C00015968C911597813009F08FC014968C91D6
:1026D00081FF8BC09EC00097A105B10511F481E078
:1026E00085C0F7016284738484849584C701B60130
:1026F000A5010E942E12882309F477C0D7015B96AA
:102700008D919C915C97A114B104C104D10489F40A
:1027100057964D915D916D917C915A970E947B1CCB
:10272000882309F462C0F701178A108E118E128E69
:102730003DC0D70116964D915D916D917C91199791
:102740009E012F5F3F4F0E94081C882309F44DC053
:10275000D7015B96ED91FC915C9749815A816B8121
:102760007C818789803129F088EF9FEFAFEFBFE050
:1027700004C088EF9FEFA0E0B0E0481759076A0750
:102780007B07A0F4CF010E947B1C882371F1F70125
:102790004681578160857185838D948D0FEF1FEF82
:1027A0002FEF3FE00E946C1B8823F9F0D70153966E
:1027B000AD92BD92CD92DC92569714968C9114975F
:1027C000806814968C93C7010E94F412882369F0E4
:1027D000B601A5016A147B048C049D0410F4B401B5
:1027E000A301C7010E942E1201C080E00F900F903C
:1027F0000F900F90CF91DF911F910F91FF90EF906D
:10280000DF90CF90BF90AF909F908F907F906F9010
:102810000895F70183899489A589B6898417950756
:10282000A607B70708F057CFE0CF2F923F924F92FD
:102830005F926F927F928F929F92AF92BF92CF9250
:10284000DF92EF92FF920F931F93CF93DF93EC01F0
:102850002A018D81882309F4C6C08C8180FFC3C002
:10286000D8C025014E185F084B0176E0272E312C89
:102870002C0E3D1E3201B1C02A853B854C855D85FD
:102880006FEFA62E61E0B62EA222B3228D817901D0
:102890008A0199E016950795F794E7949A95D1F7F0
:1028A000EB8DFC8D823049F4428D538D648D758D96
:1028B0004E0D5F1D601F711F3FC0D480DA94DE2073
:1028C000A114B104D9F4DD20C9F421153105410565
:1028D000510549F48F89988DA98DBA8D8E839F8378
:1028E000A887B9870BC04E815F8168857985CF0144
:1028F00091010E94081C882309F475C0EB8DFC8DA2
:102900004E815F81688579854250504060407040BB
:10291000058404C0440F551F661F771F0A94D2F721
:1029200086859785A089B189480F591F6A1F7B1F2B
:102930004D0D511D611D711D80E092E08A199B09AA
:1029400063018615970508F46C018C8186FD06C02D
:1029500080E0C81682E0D80609F073C08091AF0409
:102960009091B004A091B104B091B20448175907F6
:102970006A077B0709F465C08091930790919407DB
:102980009501860174010E946D10882361F18C0C01
:102990009D1C12C095012D563A4FA9014C0D5D1D8D
:1029A000D401F90102C081918D93E417F507D9F79D
:1029B000E21BF30B8E0E9F1E960140E050E08A85CD
:1029C0009B85AC85BD85820F931FA41FB51F8A8789
:1029D0009B87AC87BD876C187D086114710409F072
:1029E0004BCFA20102C04FEF5FEFCA01DF91CF9141
:1029F0001F910F91FF90EF90DF90CF90BF90AF901D
:102A00009F908F907F906F905F904F903F902F900E
:102A10000895AB88BC88CD88DE88EA84FB840C8569
:102A20001D859A0140E050E0D601C5018E199F092D
:102A3000A00BB10B82179307A407B50708F411CFB9
:102A400013CFCB01BA0140E00E94EC19882309F0B2
:102A5000A1CFC9CFCF92DF92EF92FF920F931F9336
:102A6000DF93CF930F92CDB7DEB76C01FC01858168
:102A7000823070F0E284F38404851585C601BE01BE
:102A80006F5F7F4F41E050E00E941514019769F09D
:102A900020E030E0C9010F90CF91DF911F910F919D
:102AA000FF90EF90DF90CF900895F6018285938597
:102AB000A485B5854F96A11DB11D82879387A487F4
:102AC000B587F5E016950795F794E794FA95D1F751
:102AD0008E2D8F70282F30E0E5E0220F331FEA950E
:102AE000E1F72D563A4FD6CF0F931F93CF93DF9335
:102AF000EC018B018D81882309F041C0FB0187899E
:102B00008031B1F482E08D831F8A188E198E1A8E5F
:102B1000808D918DA0E0B0E045E0880F991FAA1F3D
:102B2000BB1F4A95D1F78B8B9C8BAD8BBE8B15C091
:102B3000803229F583E08D83FB01428D538D648DB6
:102B4000758D4F8B588F698F7A8F9E012D5E3F4F09
:102B5000C8010E94D41C882391F01C8F0B8F81E048
:102B60008C831E821F82188619861A861B861C86F5
:102B70001D861E861F86188A198A1A8A01C080E05F
:102B8000DF91CF911F910F9108951F93CF93DF9302
:102B9000EC01142FE62FF0E075E0EE0FFF1F7A95A1
:102BA000E1F7ED56FA4F8385817121F0842F82740D
:102BB00009F054C06A8B8091AF049091B004A09149
:102BC000B104B091B2048E879F87A88BB98B84899A
:102BD0009589A0E0B0E0BC0155274427828D938DF4
:102BE000A0E0B0E0482B592B6A2B7B2B4F8B588FE2
:102BF000698F7A8F838590E088719070009751F487
:102C0000848D958DA68DB78D8B8B9C8BAD8BBE8B5C
:102C100081E00CC0409711F59E012D5E3F4F8B8DDA
:102C20009C8D0E94D41C8823C9F084E08D83812F61
:102C30008F708C831E821F82188619861A861B86C7
:102C40001C861D8616FD02C081E009C0CE0140E051
:102C500050E060E070E00E944A1301C080E0DF9124
:102C6000CF911F910895CF93DF93EC019C012A5FD0
:102C70003F4F8B8D9C8D41E050E060E070E00E9402
:102C8000431D8823A1F08F89988DA98DBA8D009757
:102C9000A105B10559F48E819F81A885B9858F8BD7
:102CA000988FA98FBA8F8C8180688C8381E0DF91A7
:102CB000CF9108952F923F924F925F927F928F9281
:102CC0009F92AF92BF92CF92DF92EF92FF920F93BB
:102CD0001F93DF93CF9300D000D0CDB7DEB76C0148
:102CE000162F072F5E834D83DC0115968C91159767
:102CF000813009F070C114968C9181FF6CC18EC136
:102D0000F601438954896589768982859385A485EE
:102D1000B58584179507A607B70731F0C6010E944D
:102D20002E12882309F457C1812F902F9C0129016D
:102D30002D803E8017C1D6015B96ED91FC915C978A
:102D4000DA01C90119E0B695A795979587951A9567
:102D5000D1F774807A9478227FEF872E71E0972ED6
:102D600082229322772009F04EC08114910409F049
:102D70004AC0D60116964D915D916D917C9119973F
:102D8000411551056105710581F457968D919D910D
:102D90000D90BC91A02D0097A105B10549F1F60158
:102DA00086839783A087B1872EC0CF019E012F5FB6
:102DB0003F4F0E94081C882309F414C129813A81DD
:102DC0004B815C81D6015B96ED91FC915C97878984
:102DD000803129F088EF9FEFAFEFBFE004C088EFAC
:102DE0009FEFA0E0B0E0281739074A075B0730F0F3
:102DF000C6010E943316882331F4EDC0F601268304
:102E000037834087518780E092E088199909510102
:102E10008215930508F45C01D6015B96ED91FC9157
:102E20005C971696ED90FD900D911C9119978EEF81
:102E30009FEFAFEFBFEFE80EF91E0A1F1B1F0584BF
:102E400004C0EE0CFF1C001F111F0A94D2F78685E8
:102E50009785A089B189E80EF91E0A1F1B1FE70C90
:102E6000F11C011D111D90E0A91692E0B90651F563
:102E70008091AF049091B004A091B104B091B204DC
:102E80008E159F05A007B10761F48FEF9FEFAFEF9D
:102E9000BFEF8093AF049093B004A093B104B093BC
:102EA000B2048091930790919407B801A701920111
:102EB0000E941010882309F48EC0A0E0B2E04A0EF0
:102EC0005B1E3EC08114910409F5F601228533850D
:102ED0004485558583899489A589B689281739073A
:102EE0004A075B0798F00E948D19882309F473C084
:102EF000E092AF04F092B0040093B1041093B204D6
:102F00008091950781608093950708C0C801B7013B
:102F100041E00E94EC19882309F45DC094012D560C
:102F20003A4FA9014A0D5B1DD201F90102C08D91F2
:102F30008193E417F507D9F7E21BF30B4E0E5F1EE2
:102F40002A183B08950140E050E0F6018285938500
:102F5000A485B585820F931FA41FB51F8287938711
:102F6000A487B587D6011A962D913D914D915C911C
:102F70001D972114310409F0DECE53968D919D9159
:102F80000D90BC91A02D82179307A407B50748F4B4
:102F9000F601238B348B458B568B84818068848328
:102FA00011C08091910590919205892B59F08D81E6
:102FB0009E81892B39F0D60114968C9114978068E4
:102FC00014968C93F601848183FF0EC0C6010E9483
:102FD000F412882349F481E090E0D60113969C9383
:102FE0008E9312971E821D828D819E8126960FB62A
:102FF000F894DEBF0FBECDBFCF91DF911F910F912F
:10300000FF90EF90DF90CF90BF90AF909F908F9008
:103010007F905F904F903F902F90089582FD70CEEB
:1030200083CEDF93CF930F92CDB7DEB76983BE0116
:103030006F5F7F4F41E050E00E945A160F90CF9192
:10304000DF910895DF92EF92FF920F931F93CF933A
:10305000DF93EC010E943316882309F44EC0EB8DF8
:10306000FC8DEE80FF80088519858EEF9FEFAFEF16
:10307000BFEFE80EF91E0A1F1B1F058404C0EE0CEB
:10308000FF1C001F111F0A94D2F786859785A0891F
:10309000B189E80EF91E0A1F1B1FD4800894E108AD
:1030A000F108010911090BC0C801B7016D0D711DAF
:1030B000811D911D0E94C8198823F9F0DA94DD2042
:1030C00099F7EB8DFC8D20E032E040E050E0058484
:1030D00004C0220F331F441F551F0A94D2F78B8957
:1030E0009C89AD89BE89820F931FA41FB51F8B8B4E
:1030F0009C8BAD8BBE8B81E001C080E0DF91CF91D6
:103100001F910F91FF90EF90DF9008956F927F9243
:103110008F929F92AF92BF92CF92DF92EF92FF92E7
:103120000F931F93DF93CF93CDB7DEB72B970FB6D7
:10313000F894DEBF0FBECDBF5C016B01822EDC01B7
:1031400015968C91882309F0D2C0CA018E010F5FB9
:103150001F4FB8010E94ED11882309F4C8C0F60181
:10316000838D948DD5015C969C938E935B9716828C
:10317000178210861186D6011A961D921D921D92F5
:103180001C921D979924380141C0C6010E942A153E
:10319000FC01009709F4ABC085E016950795F794FC
:1031A000E7948A95D1F71E2D1F708081882311F036
:1031B000853ED1F4992091F4D50152961C935297F3
:1031C0002091AF043091B0044091B1045091B20409
:1031D0001E962D933D934D935C9351978081882348
:1031E00099F49924939421C0C301BF014BE050E0AE
:1031F0000E944501009751F4882D8073803309F4B3
:1032000076C0C501612F6FC099249394F601E284C2
:10321000F3840485158583899489A589B689E81680
:10322000F9060A071B0708F4B0CF882D8271823196
:1032300009F05DC0992041F0C50161E00E94D712FC
:103240008C01009789F453C0D60115968C91823079
:1032500009F44DC0C6010E942218882309F447C012
:10326000F501128A03E915E080E2D8011D928A95E2
:10327000E9F7D801FE0131968BE001900D92815063
:10328000E1F7E0919105F0919205309739F0B8019E
:10329000625F7F4FC8014096199509C081E298E2AC
:1032A000F801918B808B80E098E097878687D80122
:1032B00050968D919C91519753969C938E935297D3
:1032C00059969C938E9358971E968D919C911F971B
:1032D00057969C938E9356970E948D19882339F0A8
:1032E000C501F5016289482D0E94C51501C080E025
:1032F0002B960FB6F894DEBF0FBECDBFCF91DF91F6
:103300001F910F91FF90EF90DF90CF90BF90AF9003
:103310009F908F907F906F9008958091950788235C
:1033200099F14091AF045091B0046091B104709153
:10333000B204809193079091940723E935E00E94AD
:103340001010882319F140919607509197076091CA
:10335000980770919907411551056105710591F024
:10336000809193079091940723E935E00E94101013
:10337000882361F010929607109297071092980791
:10338000109299071092950781E0089580E00895C2
:10339000EF92FF920F931F937B018C010E948D1976
:1033A0008823A9F0E3E9F5E0119287E0E339F80713
:1033B000D9F7E092AF04F092B0040093B1041093F7
:1033C000B2048091950781608093950781E01F91F9
:1033D0000F91FF90EF900895DF92EF92FF920F937D
:1033E0001F937B018C01D42E8091AF049091B00487
:1033F000A091B104B091B2048E159F05A007B1074A
:10340000C1F00E948D198823D9F080919307909183
:103410009407B801A70123E935E00E940A11882327
:1034200079F0E092AF04F092B0040093B1041093ED
:10343000B204809195078D298093950781E001C0A2
:1034400080E01F910F91FF90EF90DF9008958F9291
:103450009F92AF92BF92CF92DF92EF92FF920F9323
:103460001F93CF93DF936C01142F70939407609395
:103470009307442321F488249924540140C0453003
:1034800008F01CC160E070E080E090E040E00E9445
:10349000EC19882309F412C1C12FD0E02197FE0155
:1034A00074E0EE0FFF1F7A95E1F7ED56FA4FE25404
:1034B000FE4F8081EE5BF14090E08F779070892B1A
:1034C00009F0FCC0E653FE4F80819181A281B38157
:1034D00084369105A105B10508F4F0C064E0CC0F75
:1034E000DD1F6A95E1F7C75AD84F88809980AA8076
:1034F000BB8081149104A104B10409F4DFC0C501AB
:10350000B40140E00E94EC19882309F4D7C08091EF
:103510009E0590919F058050924009F0CFC0209168
:10352000A305222309F4CAC08091A1059091A205A8
:10353000892B09F4C3C08091A005882309F4BEC07B
:10354000F601228B8091A0058483158661E070E0EE
:1035500007C04F5FF60145874150483008F0AEC0C4
:10356000F6014585848190E09B01042E02C0220F64
:10357000331F0A94E2F78217930759F72091A905A0
:103580003091AA052115310519F040E050E008C03E
:103590002091B7053091B8054091B9055091BA0511
:1035A000F6012583368347835087E090A105F0908C
:1035B000A20500E010E0E80CF91C0A1D1B1DE38ABF
:1035C000F48A058B168B8091A4059091A505918FA7
:1035D000808F6091A30570E080E090E00E948A2EC9
:1035E0006E0D7F1D801F911FF601628F738F848F78
:1035F000958F2091A4053091A50555E0220F331F2A
:103600005A95E1F721503E4F232F3327269540E06E
:1036100050E0260F371F481F591F26873787408BDA
:10362000518B8091A6059091A705009719F0A0E015
:10363000B0E008C08091B3059091B405A091B505A4
:10364000B091B60585017401E21AF30A040B150B5B
:10365000A8019701280F391F4A1F5B1FF601058437
:1036600004C056954795379527950A94D2F7218738
:10367000328743875487253FFFE03F07F0E04F073D
:10368000F0E05F0710F48CE006C0255F3F4F40403C
:10369000504028F480E1F601878B81E010C08091D2
:1036A000BF059091C005A091C105B091C205F6017A
:1036B000828F938FA48FB58F80E2EECF80E0DF9171
:1036C000CF911F910F91FF90EF90DF90CF90BF901F
:1036D000AF909F908F9008954F925F926F927F92DC
:1036E0008F929F92AF92BF92CF92DF92EF92FF9212
:1036F0000F931F93CF93DF93EC016A017B012801A5
:103700003901423051056105710508F46FC08985A2
:103710009A85AB85BC850196A11DB11D84179507BF
:10372000A607B70708F462C02B893C894D895E89DA
:103730008F89803129F499278F2D7E2D6D2D09C019
:10374000C701B60117E096958795779567951A9505
:10375000D1F74B015C01820E931EA41EB51E809111
:10376000AF049091B004A091B104B091B204881656
:103770009906AA06BB0639F0C501B40140E00E94D3
:10378000EC19882399F18F89803149F4F601F070A2
:10379000EE0FFF1FED56FA4F518240820DC0F60129
:1037A000EF77F070EE0FFF1FEE0FFF1FED56FA4F91
:1037B00040825182628273828091950781608093FA
:1037C00095078A89823080F08D819E81AF81B8858E
:1037D000880E991EAA1EBB1E80929607909297078C
:1037E000A0929807B092990781E001C080E0DF9134
:1037F000CF911F910F91FF90EF90DF90CF90BF90EE
:10380000AF909F908F907F906F905F904F900895B2
:10381000CF92DF92EF92FF920F931F93CF93DF939C
:10382000EC017A018B01690189859A85AB85BC859C
:103830000196A11DB11D84179507A607B70708F4C7
:1038400050C02B893C894D895E898F89803129F44C
:103850009927812F702F6F2D09C0C801B701E7E0AC
:103860009695879577956795EA95D1F7260F371F37
:10387000481F591F8091AF049091B004A091B104EA
:10388000B091B204281739074A075B0739F0CA011B
:10389000B90140E00E94EC19882319F18F89803129
:1038A00059F4F701F070EE0FFF1FED56FA4F8081CB
:1038B0009181A0E0B0E00EC0F701EF77F070EE0F5D
:1038C000FF1FEE0FFF1FED56FA4F80819181A281FD
:1038D000B381BF70F60180839183A283B38381E0BB
:1038E00001C080E0DF91CF911F910F91FF90EF9089
:1038F000DF90CF900895AF92BF92CF92DF92EF9278
:10390000FF920F931F93DF93CF9300D00F92CDB709
:10391000DEB76C017A018B0182E090E0A0E0B0E0BC
:10392000F60180839183A283B3835E010894A11C76
:10393000B11CC601B801A70195010E94081C88238B
:1039400019F1C601B801A70100E010E020E030E065
:103950000E946C1B8823C1F0E980FA800B811C81D6
:10396000F6018789803129F088EF9FEFAFEFBFE044
:1039700004C088EF9FEFA0E0B0E0E816F9060A0760
:103980001B07B8F281E001C080E00F900F900F900C
:103990000F90CF91DF911F910F91FF90EF90DF90EB
:1039A000CF90BF90AF9008954F925F926F927F92A9
:1039B0008F929F92AF92BF92CF92DF92EF92FF923F
:1039C0000F931F93DF93CF9300D00F92CDB7DEB745
:1039D0006C0149835A836B837C833901EE24FF2475
:1039E00087012E010894411C511C812CA2E09A2EC3
:1039F000A12CB12C49815A816B817C81C601920135
:103A00000E94081C882351F1D501C401F6010584E8
:103A100004C0880F991FAA1FBB1F0A94D2F7E80E93
:103A2000F91E0A1F1B1F29813A814B815C818789FE
:103A3000803129F088EF9FEFAFEFBFE004C088EF3F
:103A40009FEFA0E0B0E0281739074A075B0790F224
:103A5000F301E082F1820283138381E00F900F90E3
:103A60000F900F90CF91DF911F910F91FF90EF90EA
:103A7000DF90CF90BF90AF909F908F907F906F908E
:103A80005F904F9008952F923F924F925F926F9266
:103A90007F928F929F92AF92BF92CF92DF92EF92DE
:103AA000FF920F931F93DF93CF93CDB7DEB72F977E
:103AB0000FB6F894DEBF0FBECDBF1C014A875B87EF
:103AC0006C877D873F872E87D9010D911D912D91A0
:103AD0003C91011511052105310549F048015901B5
:103AE0000894811C911CA11CB11C198610C0FC01FA
:103AF00080809180A280B38019868A859B85AC8561
:103B0000BD850197A105B10511F491E09987D10117
:103B100019968D919D910D90BC91A02D0196A11D9E
:103B2000B11D8D839E83AF83B887750164014424E2
:103B3000552432018E010F5F1F4FF101818592855F
:103B4000A385B485481659066A067B0608F090C01E
:103B50008D819E81AF81B8858C159D05AE05BF0511
:103B600050F482E0882E912CA12CB12CB2E0CB2E07
:103B7000D12CE12CF12CC101B701A60198010E94C2
:103B8000081C882309F474C089819A81AB81BC81A7
:103B9000A70196012F5F3F4F4F4F5F4F0097A10541
:103BA000B10519F049015A010DC0281939094A090E
:103BB0005B098A859B85AC85BD85281739074A072F
:103BC0005B0759F00894411C511C611C711C08943E
:103BD000C11CD11CE11CF11CB0CFC101A601B70171
:103BE0000FEF1FEF2FEF3FE00E946C1B882399F42B
:103BF0003FC0260137010894410851086108710847
:103C0000C101B301A201970186010E946C1B8823A8
:103C100079F1730162018C149D04AE04BF0448F372
:103C2000AE85BF854D915D916D917C91411551059A
:103C30006105710539F0C101950184010E946C1B79
:103C40008823B1F0EE85FF8580829182A282B382C3
:103C5000F985FF2359F00894811C911CA11CB11C0B
:103C6000D1018D929D92AD92BC92139781E001C0DB
:103C700080E02F960FB6F894DEBF0FBECDBFCF9178
:103C8000DF911F910F91FF90EF90DF90CF90BF9049
:103C9000AF909F908F907F906F905F904F903F90EC
:103CA0002F90089581E08093DF076093BC07109206
:103CB000DD071092DE0708952091BB0730E0809168
:103CC000BA07281B3109C90108954091BA078091AC
:103CD000BB07481718F02FEF3FEF0AC0E42FF0E0C2
:103CE000E656F84F8081282F30E04F5F4093BA07A7
:103CF000C9010895E091BA078091BB07E81718F051
:103D0000EFEFFFEF06C0F0E0E656F84F8081E82FB6
:103D1000F0E0CF01089508951092E3071092E207B2
:103D200088EE93E0A0E0B0E08093E4079093E5078D
:103D3000A093E607B093E70786ED94E09093E10740
:103D40008093E0070895CF92DF92EF92FF920F9356
:103D50001F93CF93DF937C016B018A018091DF0772
:103D60008823A1F0C0E0D0E00DC0D701ED91FC9117
:103D7000D601AC0FBD1F0190F081E02DC7016C9101
:103D800019952196C017D10780F304C0CB01642F89
:103D90000E94D51FC801DF91CF911F910F91FF9015
:103DA000EF90DF90CF900895DF93CF930F92CDB730
:103DB000DEB7FC0169838091DF078823C9F0809119
:103DC000DE07803238F081E090E09383828320E048
:103DD00030E015C08091DD07E82FF0E0E354F84FA4
:103DE000998190838F5F8093DD078093DE0705C004
:103DF000CE01019661E00E94D51F21E030E0C901AB
:103E00000F90CF91DF9108950F93062F8091BC07FB
:103E10006DEB77E04091DE0721E00E94801F109259
:103E2000DD071092DE071092DF070F91089561E021
:103E30000E94041F0895413208F040E2862F6AE98B
:103E400077E00E94371F1092BA078093BB0708954E
:103E500021E00E941B1F08951092BA071092BB0721
:103E60001092DD071092DE070E9485210895382FF9
:103E7000413210F040E042C08091EC078823E1F726
:103E800091E09093EC072093EE078FEF8093590811
:103E9000109214084150409315084F5F9093ED071E
:103EA0008091ED07330F832B8093ED078091EF070F
:103EB000813041F41092EF078091ED078093BB00B1
:103EC00085EC01C085EE8093BC008091EC078130C9
:103ED000E1F380911408841710F44091140820E055
:103EE00030E00AC0FB01E20FF31FD901AC50B84F1C
:103EF0008C9180832F5F3F4F2417A0F3842F089568
:103F00000F931F93582F122F413210F081E04AC0B7
:103F10008091EC078823E1F782E08093EC0700931F
:103F2000EE078FEF809359081092140840931508FC
:103F3000A4EFB7E0FB0102C081918D938E2F861B09
:103F40008417D0F31092ED078091ED07550F852B64
:103F50008093ED078091EF07813041F41092EF07D5
:103F60008091ED078093BB0085EC01C085EE8093C6
:103F7000BC00112321F08091EC078230E1F38091A5
:103F800059088F3F11F480E00DC0809159088032AC
:103F900011F482E007C080915908803311F084E069
:103FA00001C083E01F910F910895482F613210F0F6
:103FB00081E008958091EC07843011F082E008954B
:103FC00060933708A6E1B8E0842F9C01F90102C094
:103FD00081918D938E2F841B8617D0F380E00895F6
:103FE0001F920F920FB60F920BB60F9211242F93C0
:103FF0003F934F935F936F937F938F939F93AF9371
:10400000BF93EF93FF938091B90090E0887F907009
:104010008036910509F4F2C081369105CCF58832DD
:10402000910509F47BC089329105B4F48031910582
:1040300009F46FC0813191053CF4009709F447C140
:10404000089709F04FC165C08831910509F466C031
:10405000809709F047C182C08034910509F4A4C05B
:104060008134910544F48033910509F482C0C897E6
:1040700009F038C189C08035910509F489C08835B7
:10408000910509F496C08834910509F02BC1AEC0A2
:104090008839910509F413C189399105ECF4883701
:1040A000910509F4ABC0893791054CF48836910528
:1040B00009F4A4C08037910509F014C19FC0883865
:1040C000910509F4FCC08039910509F49DC0803840
:1040D000910509F007C198C0803B910509F4C6C05D
:1040E000813B91054CF4803A910509F49FC0883AD0
:1040F000910509F0F7C0BAC0803C910509F4E3C00E
:10410000883C910509F4DFC0883B910509F0EAC0BD
:10411000C2C08091ED078093BB00CFC0909114087E
:1041200080911508981768F490911408E92FF0E031
:10413000EC50F84F80818093BB009F5F90931408F0
:10414000BCC08091EE07882309F44BC085ED8093B5
:10415000BC008091BC0084FDFCCFC2C080E2809393
:10416000590885ED8093BC008091BC0084FDFCCF94
:10417000B7C080E38093590885ED8093BC0080919F
:10418000BC0084FDFCCFACC088E3809359089BC081
:10419000809114089091BB00E82FF0E0EC50F84FAC
:1041A00090838F5F80931408909114088091150874
:1041B00082C0809114089091BB00E82FF0E0EC5091
:1041C000F84F90838F5F809314088091EE078823C7
:1041D00041F085ED8093BC008091BC0084FDFCCF54
:1041E0007FC081E08093EF0784EA6EC085ED809305
:1041F000BC008091BC0084FDFCCF72C083E0809342
:10420000EC071092580859C080915808803208F085
:1042100056C0809158089091BB00E82FF0E0E85C10
:10422000F74F90838F5F8093580847C0809158085C
:10423000803230F4E0915808F0E0E85CF74F1082EB
:1042400085ED8093BC008091BC0084FDFCCF109272
:10425000EC0760915808E091F207F091F30788E3CA
:1042600098E070E01995109258082DC084E0809372
:10427000EC071092360810923708E091F007F091A1
:10428000F107199580913708882329F481E08093FC
:1042900037081092160890913608E92FF0E0EA5E90
:1042A000F74F80818093BB009F5F90933608909179
:1042B000360880913708981710F485EC01C085E81E
:1042C0008093BC000FC085EC8093BC0009C01092A5
:1042D000590885ED8093BC008091BC0084FDFCCF23
:1042E0001092EC07FF91EF91BF91AF919F918F9149
:1042F0007F916F915F914F913F912F910F900BBEE6
:104300000F900FBE0F901F9018951092EC0781E050
:104310008093EE071092EF0784E161E00E94DA24B7
:1043200085E161E00E94DA24E9EBF0E080818E7F94
:10433000808380818D7F808388E48093B80085E4CA
:104340008093BC0008950F931F93CF93DF93BC011C
:104350008230910510F462E070E0E0910D0BF09175
:104360000E0BA0E0B0E040E050E024C080819181DD
:1043700086179707D0F08617970771F4828193818B
:10438000109729F013969C938E9312972CC09093BC
:104390000E0B80930D0B27C04115510519F08417A2
:1043A000950718F4EF018D01AC01DF018281938143
:1043B0009C01F9013097D1F641155105F9F0CA0178
:1043C000861B970B8430910580F48A819B810115AF
:1043D000110521F0F8019383828304C090930E0BA2
:1043E00080930D0BFE01329645C0FE01E80FF91FC8
:1043F000619371930297998388833CC080910B0BE2
:1044000090910C0B892B41F48091B5049091B604E6
:1044100090930C0B80930B0B4091B7045091B80410
:104420004115510541F44DB75EB78091B3049091A9
:10443000B404481B590B20910B0B30910C0B241723
:104440003507B0F4CA01821B930B8617970780F0DB
:10445000AB014E5F5F4F8417950750F0420F531F1B
:1044600050930C0B40930B0BF9016193719302C0B5
:10447000E0E0F0E0CF01DF91CF911F910F9108951F
:10448000CF93DF939C01009709F48FC0EC01229732
:104490001B821A8260910D0B70910E0B61157105D4
:1044A00081F488819981820F931F20910B0B3091A9
:1044B0000C0B2817390739F5D0930C0BC0930B0B55
:1044C00074C0DB0140E050E0AC17BD0708F1BB83CE
:1044D000AA83FE0121913191E20FF31FAE17BF07AE
:1044E00079F48D919C911197280F391F2E5F3F4FC2
:1044F0003983288312968D919C9113979B838A838D
:104500004115510571F4D0930E0BC0930D0B4DC0A6
:1045100012968D919C911397AD01009711F0DC01DB
:10452000D3CFDA011396DC93CE931297FA0121913F
:104530003191E20FF31FCE17DF0769F4888199816B
:10454000280F391F2E5F3F4FFA01318320838A8164
:104550009B8193838283E0E0F0E0DB0112968D91F2
:104560009C911397009719F0BC01FD01F6CFAB01A8
:104570004E5F5F4FDB018D919C91840F951F2091C1
:104580000B0B30910C0B2817390779F4309729F46D
:1045900010920E0B10920D0B02C013821282425029
:1045A000504050930C0B40930B0BDF91CF9108952B
:1045B0001F920F920FB60F9211242F933F938F9358
:1045C0009F93AF93BF9380915E0890915F08A091F5
:1045D0006008B0916108309162080196A11DB11D7B
:1045E000232F2D5F2D3720F02D570196A11DB11DD2
:1045F0002093620880935E0890935F08A093600800
:10460000B093610880915A0890915B08A0915C0872
:10461000B0915D080196A11DB11D80935A08909339
:104620005B08A0935C08B0935D08BF91AF919F9128
:104630008F913F912F910F900FBE0F901F90189563
:104640008FB7F89420915E0830915F084091600820
:10465000509161088FBFB901CA0108959B01AC0157
:104660007FB7F89480915A0890915B08A0915C08FC
:10467000B0915D0866B5A89B05C06F3F19F0019623
:10468000A11DB11D7FBFBA2FA92F982F8827860F94
:10469000911DA11DB11D62E0880F991FAA1FBB1FAC
:1046A0006A95D1F7BC012DC0FFB7F89480915A08E4
:1046B00090915B08A0915C08B0915D08E6B5A89B5D
:1046C00005C0EF3F19F00196A11DB11DFFBFBA2F24
:1046D000A92F982F88278E0F911DA11DB11DE2E0F3
:1046E000880F991FAA1FBB1FEA95D1F7861B970B4E
:1046F000885E9340C8F2215030404040504068519D
:104700007C4F211531054105510571F6089501973A
:1047100039F0880F991F880F991F02970197F1F7B9
:104720000895789484B5826084BD84B5816084BD29
:1047300085B5826085BD85B5816085BDEEE6F0E01A
:10474000808181608083E1E8F0E010828081826076
:104750008083808181608083E0E8F0E080818160F7
:104760008083E1EBF0E0808184608083E0EBF0E027
:10477000808181608083E1E9F0E0808182608083D4
:10478000808181608083E0E9F0E0808181608083C6
:10479000E1EAF0E0808182608083808181608083B3
:1047A000E0EAF0E0808181608083E1E2F1E08081F5
:1047B00082608083808181608083E0E2F1E080819B
:1047C00081608083EAE7F0E080818460808380817B
:1047D0008260808380818160808380818068808323
:1047E0001092C1000895382F863308F03653209177
:1047F0007B00832F86958695869590E081709070DA
:1048000043E0880F991F4A95E1F7277F282B2093D3
:104810007B0037708091B9048295880F880F807C67
:10482000832B80937C0080917A00806480937A004F
:1048300080917A0086FDFCCF20917800409179002C
:10484000942F80E030E0282B392BC9010895CF93B5
:10485000DF93482F50E0CA018C569E4FFC013491E3
:10486000425B5E4FFA018491882369F190E0880FE2
:10487000991FFC01E050FF4FA591B491FC01E65E49
:10488000FE4FC591D491662351F42FB7F8948C91C3
:10489000932F909589238C93888189230BC0623054
:1048A00061F42FB7F8948C91932F909589238C9372
:1048B0008881832B88832FBF06C09FB7F8948C9183
:1048C000832B8C939FBFDF91CF910895893009F49A
:1048D00049C08A30A0F4843051F1853040F48230F0
:1048E00079F1833000F5813009F063C026C087304C
:1048F00079F1883098F5863009F05BC025C08D309D
:1049000009F442C08E3028F48B30B1F18C30C0F500
:104910002DC0803109F442C0813109F445C08F3087
:1049200009F047C037C0809180008F7703C0809125
:1049300080008F7D80938000089584B58F7702C0BA
:1049400084B58F7D84BD08958091B0008F7703C0BA
:104950008091B0008F7D8093B00008958091900089
:104960008F7707C0809190008F7D03C08091900069
:10497000877F8093900008958091A0008F7707C073
:104980008091A0008F7D03C08091A000877F8093DD
:10499000A0000895809120018F7703C080912001AD
:1049A0008F7D80932001089580912001877F8093DF
:1049B00020010895FF920F931F93F62E482F50E089
:1049C000CA0186529E4FFC012491CA018C569E4F0B
:1049D000FC011491425B5E4FFA0104910023C9F07F
:1049E000222319F0822F0E946624E02FF0E0EE0FC0
:1049F000FF1FE65EFE4FA591B4919FB7F894FF208C
:104A000021F48C911095812302C08C91812B8C9381
:104A10009FBF1F910F91FF9008950F931F93482FF1
:104A200050E0CA0186529E4FFC012491CA018C5667
:104A30009E4FFC010491425B5E4FFA0114911123D9
:104A400019F420E030E015C0222319F0822F0E94D3
:104A50006624812F90E0880F991F8C5C9E4FFC018B
:104A6000A591B4918C9120E030E0802311F021E0F9
:104A700030E0C9011F910F91089508951F920F9280
:104A80000FB60F920BB60F9211242F933F934F93B3
:104A90008F939F93EF93FF938091C00082FD1DC081
:104AA0004091C6002091A3083091A4082F5F3F4F8A
:104AB0002F7330708091A5089091A60828173907A8
:104AC00071F0E091A308F091A408ED59F74F4083ED
:104AD0003093A4082093A30802C08091C600FF91E0
:104AE000EF919F918F914F913F912F910F900BBE1E
:104AF0000F900FBE0F901F90189508951F920F9260
:104B00000FB60F920BB60F9211242F933F934F9332
:104B10008F939F93EF93FF938091C80082FD1DC0F8
:104B20004091CE0020912B0930912C092F5F3F4FEF
:104B30002F73307080912D0990912E092817390715
:104B400071F0E0912B09F0912C09E551F74F40836A
:104B500030932C0920932B0902C08091CE00FF9145
:104B6000EF919F918F914F913F912F910F900BBE9D
:104B70000F900FBE0F901F90189508951F920F92DF
:104B80000FB60F920BB60F9211242F933F934F93B2
:104B90008F939F93EF93FF938091D00082FD1DC070
:104BA0004091D6002091B3093091B4092F5F3F4F57
:104BB0002F7330708091B5099091B6092817390785
:104BC00071F0E091B309F091B409ED58F64F4083CC
:104BD0003093B4092093B30902C08091D600FF91AD
:104BE000EF919F918F914F913F912F910F900BBE1D
:104BF0000F900FBE0F901F90189508951F920F925F
:104C00000FB60F920BB60F9211242F933F934F9331
:104C10008F939F93EF93FF938091300182FD1DC08E
:104C20004091360120913B0A30913C0A2F5F3F4F63
:104C30002F73307080913D0A90913E0A28173907F2
:104C400071F0E0913B0AF0913C0AE550F64F408349
:104C500030933C0A20933B0A02C080913601FF91B9
:104C6000EF919F918F914F913F912F910F900BBE9C
:104C70000F900FBE0F901F901895E0918F0AF09142
:104C8000900AE05CFF4F8191919120813181821BDC
:104C9000930B8F739070892B11F00E943D25E0914A
:104CA000B10AF091B20AE05CFF4F819191912081AD
:104CB0003181821B930B8F739070892B11F00E94AE
:104CC0007D25E091D30AF091D40AE05CFF4F8191F9
:104CD000919120813181821B930B8F739070892B6E
:104CE00011F00E94BD25E091F50AF091F60AE05C12
:104CF000FF4F8191919120813181821B930B8F73A2
:104D00009070892B11F00E94FD2508951F920F923B
:104D10000FB60F920BB60F9211242F933F938F93E0
:104D20009F93EF93FF932091E7083091E8088091DB
:104D3000E9089091EA082817390731F48091C100F9
:104D40008F7D8093C10014C0E091E908F091EA08DA
:104D5000E955F74F20818091E9089091EA08019682
:104D60008F7390709093EA088093E9082093C600AF
:104D7000FF91EF919F918F913F912F910F900BBEDB
:104D80000F900FBE0F901F9018951F920F920FB6A5
:104D90000F920BB60F9211242F933F938F939F93F3
:104DA000EF93FF9320916F09309170098091710901
:104DB000909172092817390731F48091C9008F7DCD
:104DC0008093C90014C0E0917109F0917209E15D0E
:104DD000F64F2081809171099091720901968F732D
:104DE000907090937209809371092093CE00FF9187
:104DF000EF919F918F913F912F910F900BBE0F904C
:104E00000FBE0F901F9018951F920F920FB60F9222
:104E10000BB60F9211242F933F938F939F93EF9391
:104E2000FF932091F7093091F8098091F909909149
:104E3000FA092817390731F48091D1008F7D8093CA
:104E4000D10014C0E091F909F091FA09E954F64F44
:104E500020818091F9099091FA0901968F739070E1
:104E60009093FA098093F9092093D600FF91EF916E
:104E70009F918F913F912F910F900BBE0F900FBE7E
:104E80000F901F9018951F920F920FB60F920BB6AE
:104E90000F9211242F933F938F939F93EF93FF9340
:104EA00020917F0A3091800A8091810A9091820A34
:104EB0002817390731F4809131018F7D80933101BA
:104EC00014C0E091810AF091820AE15CF54F2081E3
:104ED0008091810A9091820A01968F7390709093CD
:104EE000820A8093810A20933601FF91EF919F916E
:104EF0008F913F912F910F900BBE0F900FBE0F908F
:104F00001F901895AF92BF92DF92EF92FF920F938E
:104F10001F93CF93DF93EC017A018B01DD244030A6
:104F200081EE580780E0680780E0780711F0DD2403
:104F3000D39491E0A92EB12CEC89FD89DD2069F094
:104F4000C50108A002C0880F991F0A94E2F7808368
:104F500060E079E08DE390E005C0108260E874E8DD
:104F60008EE190E0A80197010E94B52E21503040BB
:104F700040405040569547953795279580E1203021
:104F8000380720F0DD2011F0DD24D6CFE889F9893B
:104F90003083EA89FB89208319A2EE89FF89408149
:104FA00021E030E0C9010C8C02C0880F991F0A94DF
:104FB000E2F7482B4083EE89FF894081C9010D8CBF
:104FC00002C0880F991F0A94E2F7482B4083EE89AC
:104FD000FF894081C9010E8C02C0880F991F0A9475
:104FE000E2F7482B4083EE89FF8980810F8C02C055
:104FF000220F331F0A94E2F7209528232083DF91A4
:10500000CF911F910F91FF90EF90DF90BF90AF90E5
:105010000895DC011C96ED91FC911D97E05CFF4F1B
:105020002191319180819181281B390B2F73307030
:10503000C9010895DC011C96ED91FC911D97E05C7F
:10504000FF4F20813181E054F040DF01AE5BBF4F64
:105050008D919C9111972817390719F42FEF3FEF85
:1050600007C08D919C91E80FF91F8081282F30E0B7
:10507000C9010895DC011C96ED91FC911D97E05C3F
:10508000FF4F20813181E054F040DF01AE5BBF4F24
:105090008D919C9111972817390719F42FEF3FEF45
:1050A00010C08D919C911197E80FF91F20818D916F
:1050B0009C91119701968F73907011969C938E938B
:1050C00030E0C9010895DC0191968C919197882375
:1050D00039F05496ED91FC915597808186FFF9CF78
:1050E00091961C920895CF93DF93EC01EE85FF8596
:1050F000E05CFF4F20813181E054F0402F5F3F4F53
:105100002F733070DF01AE5BBF4F8D919C91119773
:1051100028173907D1F3E05CFF4F80819181E0547B
:10512000F040E80FF91F6083EE85FF85E05CFF4FDC
:1051300031832083EE89FF89208181E090E00F8C0C
:1051400002C0880F991F0A94E2F7282B208381E080
:1051500089A3EC89FD8980818064808381E090E06F
:10516000DF91CF9108951F931092860A1092850ABD
:1051700028EE33E040E050E02093870A3093880A1D
:105180004093890A50938A0A66EE74E07093840A09
:105190006093830A83E698E09093900A80938F0A45
:1051A00087EA98E09093920A8093910A85EC90E0C8
:1051B0009093940A8093930A84EC90E09093960ADB
:1051C0008093950A80EC90E09093980A8093970AD8
:1051D00081EC90E090939A0A8093990A82EC90E097
:1051E00090939C0A80939B0A86EC90E090939E0A91
:1051F00080939D0A14E010939F0AB3E0B093A00A35
:10520000A7E0A093A10AF5E0F093A20AE1E0E09301
:10521000A30A1092A80A1092A70A2093A90A309311
:10522000AA0A4093AB0A5093AC0A7093A60A609303
:10523000A50A8BEE98E09093B20A8093B10A8FE2B0
:1052400099E09093B40A8093B30A8DEC90E0909328
:10525000B60A8093B50A8CEC90E09093B80A8093DC
:10526000B70A88EC90E09093BA0A8093B90A89EC67
:1052700090E09093BC0A8093BB0A8AEC90E09093F4
:10528000BE0A8093BD0A8EEC90E09093C00A809392
:10529000BF0A1093C10AB093C20AA093C30AF09345
:1052A000C40AE093C50A1092CA0A1092C90A209350
:1052B000CB0A3093CC0A4093CD0A5093CE0A709318
:1052C000C80A6093C70A83E799E09093D40A809351
:1052D000D30A87EB99E09093D60A8093D50A85ED9F
:1052E00090E09093D80A8093D70A84ED90E0909351
:1052F000DA0A8093D90A80ED90E09093DC0A8093DB
:10530000DB0A81ED90E09093DE0A8093DD0A82ED66
:1053100090E09093E00A8093DF0A86ED90E090930E
:10532000E20A8093E10A1093E30AB093E40AA0939F
:10533000E50AF093E60AE093E70A1092EC0A10926D
:10534000EB0A2093ED0A3093EE0A4093EF0A509354
:10535000F00A7093EA0A6093E90A8BEF99E0909360
:10536000F60A8093F50A8FE39AE09093F80A809307
:10537000F70A85E391E09093FA0A8093F90A84E3AF
:1053800091E09093FC0A8093FB0A80E391E0909374
:10539000FE0A8093FD0A81E391E09093000B8093D5
:1053A000FF0A82E391E09093020B8093010B86E366
:1053B00091E09093040B8093030B1093050BB09333
:1053C000060BA093070BF093080BE093090B1F91BA
:1053D0000895CF93DF930E9491230E944908CDE363
:1053E000D6E20E94AF072097E1F30E943D26F9CF55
:1053F000CF92DF92EF92FF920F931F93CF93DF93A1
:105400007C016B018A01C0E0D0E00FC0D6016D9134
:105410006D01D701ED91FC910190F081E02DC70164
:105420001995C80FD91F015010400115110571F7CA
:10543000CE01DF91CF911F910F91FF90EF90DF9000
:10544000CF900895DC01ED91FC910190F081E02D69
:1054500019950895EF92FF920F931F938C01DC0131
:10546000ED91FC910190F081E02D6DE019957C01AA
:10547000D801ED91FC910190F081E02DC8016AE026
:1054800019959C012E0D3F1DC9011F910F91FF9091
:10549000EF900895CF93DF93EC016115710519F436
:1054A00020E030E00FC0DB010D900020E9F71197FC
:1054B000A61BB70BE881F9810280F381E02DAD01D5
:1054C00019959C01C901DF91CF9108954F925F9288
:1054D0007F928F929F92AF92BF92CF92DF92EF9284
:1054E000FF920F931F93DF93CF93CDB7DEB7A197B2
:1054F0000FB6F894DEBF0FBECDBF2C01742ECB01CA
:10550000223008F42AE019A231E2C32ED12CCC0EAD
:10551000DD1E822E9924AA24BB24672D752FA50198
:1055200094010E94B52E79018A01C801B701A50135
:1055300094010E948A2E472D461B0894C108D10869
:105540004A3014F4405D01C0495CF6014083E11427
:10555000F1040105110521F07E2C5F2DC801DDCF7E
:10556000C201B6010E944A2AA1960FB6F894DEBF86
:105570000FBECDBFCF91DF911F910F91FF90EF90A4
:10558000DF90CF90BF90AF909F908F907F905F9073
:105590004F900895DC012115310541F4ED91FC9106
:1055A0000190F081E02D642F199508950E94662ADC
:1055B0000895EF92FF920F931F939A017B0100E0F1
:1055C00010E0B801A7010E94CA2A1F910F91FF9015
:1055D000EF900895EF92FF920F931F939A01E62E9A
:1055E000FF2400E010E0B801A7010E94CA2A1F9121
:1055F0000F91FF90EF900895CF92DF92EF92FF927C
:105600000F931F93CF93DF93EC016A017B01211568
:10561000310541F4E881F9810190F081E02D642F9A
:1056200019951FC02A303105D1F477FF17C0E881E2
:10563000F9810190F081E02D6DE219958C014427EC
:105640005527BA014C195D096E097F09CE012AE080
:105650000E94662A9801280F391F04C02AE00E9480
:10566000662A9C01C901DF91CF911F910F91FF9094
:10567000EF90DF90CF900895CF92DF92EF92FF925C
:105680000F931F936C017B019A010027F7FC009593
:10569000102FB801A7010E94FC2A8C01C6010E94AC
:1056A0002A2A080F191FC8011F910F91FF90EF9030
:1056B000DF90CF9008950E944A2A08957F928F929A
:1056C0009F92AF92BF92CF92DF92EF92FF920F9391
:1056D0001F93CF93DF934C017A018B01722ECB0184
:1056E000BA01A80197010E94862E882321F0C401E7
:1056F00069E874E021C0C0E0D0E057016801E89497
:10570000D7F8C601B5012FEF3FEF4FE75FE70E94E3
:10571000862E882351F4C601B5012FEF3FEF4FE7E6
:105720005FE70E94D02C181614F0C1E0D0E021975A
:1057300039F0C4016DE874E00E944A2AEC0193C07C
:10574000C801B7012FEF3FEF4FE75FE40E941F2E24
:10575000181654F0C801B7012FEF3FEF4FE75FEC89
:105760000E94D02C882324F4C40161E974E0E4CFC2
:10577000C801B70120E030E040E050E00E94D02CAA
:1057800087FD03C0C0E0D0E00EC0D401ED91FC91D4
:105790000190F081E02DC4016DE21995EC0117FB39
:1057A000109517F9109520E030E040E05FE3DD242C
:1057B0000BC0CA01B90120E030E040E251E40E9490
:1057C000D42C9B01AC01D394D71498F3C801B70132
:1057D0000E946C2C5B016C010E94412D7B018C01AD
:1057E000C401B801A7012AE030E00E94CA2AC80F0C
:1057F000D91F772039F0C40165E974E00E944A2A74
:10580000C80FD91FC801B7010E946D2D9B01AC01C3
:10581000C601B5010E946B2C24C020E030E040E2BC
:1058200051E40E94232E7B018C010E943C2D5B01E0
:105830006C01CC24B7FCC094DC2CC401B601A501DA
:105840002AE030E00E94FC2AC80FD91FC601B5012A
:105850000E946F2D9B01AC01C801B7010E946B2C07
:105860007A947720D1F6CE01DF91CF911F910F91DD
:10587000FF90EF90DF90CF90BF90AF909F908F9070
:105880007F9008950E945E2B0895EF92FF920F93F0
:105890001F937C010E945E2B8C01C7010E942A2A63
:1058A000080F191FC8011F910F91FF90EF900895E5
:1058B000EF92FF920F931F937C010E944A2A8C0162
:1058C000C7010E942A2A080F191FC8011F910F91B2
:1058D000FF90EF9008955058BB27AA270ED075C1AE
:1058E00066D130F06BD120F031F49F3F11F41EF4FB
:1058F0005BC10EF4E095E7FB51C1E92F77D180F34E
:10590000BA17620773078407950718F071F49EF5BC
:105910008FC10EF4E0950B2EBA2FA02D0B01B9010B
:1059200090010C01CA01A0011124FF27591B99F015
:10593000593F50F4503E68F11A16F040A22F232F21
:10594000342F4427585FF3CF469537952795A79571
:10595000F0405395C9F77EF41F16BA0B620B730B18
:10596000840BBAF09150A1F0FF0FBB1F661F771F89
:10597000881FC2F70EC0BA0F621F731F841F48F43E
:10598000879577956795B795F7959E3F08F0B3CFC4
:105990009395880F08F09927EE0F979587950895AE
:1059A000D9D008F481E008950CD00FC107D140F0A0
:1059B000FED030F021F45F3F19F0F0C0511139C131
:1059C000F3C014D198F39923C9F35523B1F3951B70
:1059D000550BBB27AA2762177307840738F09F5F10
:1059E0005F4F220F331F441FAA1FA9F333D00E2E7F
:1059F0003AF0E0E830D091505040E695001CCAF7EC
:105A000029D0FE2F27D0660F771F881FBB1F2617B0
:105A100037074807AB07B0E809F0BB0B802DBF0183
:105A2000FF2793585F4F2AF09E3F510568F0B6C09C
:105A300000C15F3FECF3983EDCF386957795679560
:105A4000B795F7959F5FC9F7880F911D9695879534
:105A500097F90895E1E0660F771F881FBB1F621753
:105A600073078407BA0720F0621B730B840BBA0B11
:105A7000EE1F88F7E095089504D06894B111D9C05D
:105A80000895BCD088F09F5790F0B92F9927B7514F
:105A9000A0F0D1F0660F771F881F991F1AF0BA95F2
:105AA000C9F712C0B13081F0C3D0B1E00895C0C0D1
:105AB000672F782F8827B85F39F0B93FCCF38695E8
:105AC00077956795B395D9F73EF490958095709545
:105AD00061957F4F8F4F9F4F0895E89409C097FBC2
