:100000000C94B4010C94E1010C94E1010C94E10115
:100010000C94E1010C94E1010C94E1010C94E101D8
:100020000C94E1010C94E1010C94E1010C94E101C8
:100030000C94E1010C94E1010C94E1010C94E101B8
:100040000C94E1010C94E1010C94E1010C94E101A8
:100050000C94E1010C94E1010C94E1010C94922BBD
:100060000C94E1010C94F82D0C94402F0C94E101B8
:100070000C94E1010C94E1010C94E1010C94E10178
:100080000C94E1010C94E1010C94E1010C94E10168
:100090000C94382E0C947F2F0C94E1010C94822840
:1000A0000C94E1010C94E1010C94E1010C94E10148
:1000B0000C94E1010C94E1010C94E1010C94E10138
:1000C0000C94E1010C94E1010C94E1010C94782E64
:1000D0000C94BE2F0C94E1010C94B82E0C94FD2FBF
:1000E0000C94E101005EBCE2613FDD83C29C7E2096
:1000F000A3FD1F419DC3217FFCA2401E5F01E3BD04
:100100003E6082DC237D9FC1421CFEA0E1BF5D03F7
:1001100080DE3C62BEE0025CDF81633D7C22C09EEB
:100120001D43A1FF4618FAA427799BC584DA3866D7
:10013000E5BB5907DB856739BAE406581947A5FBC3
:100140007826C49A653BD987045AB8E6A7F91B45B7
:10015000C6987A24F8A6441A99C7257B3A6486D8AB
:100160005B05E7B98CD2306EEDB3510F4E10F2AC97
:100170002F7193CD114FADF3702ECC92D38D6F3183
:10018000B2EC0E50AFF1134DCE90722C6D33D18F77
:100190000C52B0EE326C8ED0530DEFB1F0AE4C126B
:1001A00091CF2D73CA947628ABF517490856B4EA57
:1001B0006937D58B5709EBB536688AD495CB297743
:1001C000F4AA4816E9B7550B88D6346A2B7597C937
:1001D0004A14F6A8742AC896154BA9F7B6E80A542B
:1001E000D7896B351F1C1F1E1F1E1F1F1E1F1E1FA2
:1001F0007C3C3E5E2B3D3F2F5B5D3B2C2A225C000E
:1002000000002100240027002A002D0030003300C8
:1002100001010000040107010A010000220025007D
:1002200028002B002E0031003400020100000501DF
:1002300008010B01000020002300260029002C00EB
:100240002F0032000001000003010601090105052D
:100250000505070508080808020202020A0A08083C
:10026000040404040101010101010101030303036A
:1002700003030303040707070C0C0C0C0C0C0C0CF9
:100280000202020206060606060606060B0B0B0B0A
:100290000B0B0B0B0102102020080810204010202F
:1002A000408002010201080402010102040810203A
:1002B0004080804020100804020180040201804038
:1002C00020100804020108040201010204081020A1
:1002D000408001020408102040800000090A020842
:1002E0000B0C0D07060304010000000000000000D5
:1002F00000000000000000000000000000000000FE
:1003000000000000000011100F00000000000000BD
:1003100000000000000000000000000000000000DD
:10032000494E46494E4954594E414ECDCCCC3D0ADA
:10033000D7233C17B7D13877CC2B329595E6241FBD
:10034000B14F0A000020410000C84200401C462076
:10035000BCBE4CCA1B0E5AAEC59D7400FB032B10CD
:100360009B111E276D31F40311241FBECFEFD1E284
:10037000DEBFCDBF00E00CBF1AE0A0E0B2E0E0E3DA
:10038000F4E700E00BBF02C007900D92AA39B10755
:10039000D9F71BBE10E1AAE9BAE001C01D92A73E41
:1003A000B107E1F713E0C6E6D3E004C02297FE01EF
:1003B0000E94BD39CC35D107C9F70E94A3320C94F5
:1003C0000B3A0C940000662777270C945002FB012F
:1003D000DC0104C08D910190801921F441505040FE
:1003E000C8F7881B990B0895FB01DC0102C001903E
:1003F0000D9241505040D8F70895FC018191861725
:1004000021F08823D9F7992708953197CF010895CE
:10041000FB01DC0101900D920020E1F70895FB0142
:10042000DC014150504048F001900D920020C9F786
:1004300001C01D9241505040E0F70895009731F4FB
:10044000DA018D919C91009709F40EC0DC01FB014B
:100450003D912191222319F03217C9F3FACF3323AA
:1004600031F4DA011D921C9288279927089511977B
:10047000AF93BF93FB013D912191321771F4332368
:1004800021F488279927119702C01E921196FA012C
:10049000A193B0839F918F910895222369F7EACFAA
:1004A000A0E0B0E0E6E5F2E00C94DA39EC015B01A3
:1004B0006115710519F0FB0191838083F9908F2DEF
:1004C00090E00E94C139892BC9F7FDE2FF1621F4A3
:1004D000F990EE24E39405C02BE2F21609F4F990AA
:1004E000EE248E0101501040C80160E273E043E049
:1004F00050E00E94B003892B01F58E010E5F1F4F63
:10050000C80163E273E045E050E00E94B003892B2C
:1005100019F48E01095F1F4FA114B10419F0F50100
:1005200011830083E0FC04C070E090E080E814C018
:1005300070E090E080E86FEF08C1C80168E273E006
:1005400043E050E00E94B003892B69F4A114B10488
:1005500029F470E090E080EC6FE7F7C02296F50197
:10056000D183C083F6CF8824992440E050E060E036
:1005700070E0EF2DE053EA30A0F5F2E0EF2A8E2D87
:1005800090E09C0128703070E2FE06C0232B79F5C4
:100590000894811C911C2BC0232B19F0089481080E
:1005A0009108DB01CA0112E0880F991FAA1FBB1F27
:1005B0001A95D1F7480F591F6A1F7B1F440F551F0B
:1005C000661F771F4E0F511D611D711D483929E9A6
:1005D000520729E9620729E1720748F084E0E82A16
:1005E00006C0EE3F31F4E3FC39C098E0E92AF99007
:1005F000C0CFE53311F0E53189F529912D3219F499
:10060000E0E1EE2A05C02B3219F081E090E003C052
:10061000299182E090E0E22FE053EA3018F0C81B05
:10062000D90B1CC020E030E0FCE020383F075CF430
:10063000C901880F991F880F991F280F391F220F92
:10064000331F2E0F311DE991E053EA3068F3E4FEC9
:1006500003C0309521953F4F820E931ECE2CDD2492
:10066000E1FE07C0A114B10421F02197F501D18367
:10067000C083CB01BA010E9451387B018C01F3E0A9
:10068000CF22DD2423E0C216D10421F417FB1095FC
:1006900017F9109557016801C801B70120E030E053
:1006A00040E050E00E94B437882309F44AC097FE26
:1006B0000DC02FE3E22E23E0F22E90948194910856
:1006C0009394C0E2D0E000E010E012C097E5E92E7C
:1006D00093E0F92EF6CFF70125913591459154918C
:1006E000C601B5010E9407395B016C018C1A9D0A95
:1006F0008C169D0684F7D595C7950F5F1F4F063062
:10070000110529F08CEF9FEFE80EF91EF1CFC5011E
:10071000D6017C018D018C2D880F8D2D881F8F3F78
:1007200051F0C601B50120E030E040E050E00E9409
:10073000B437882331F482E290E09093E6108093FE
:10074000E5107E2D9F2D802F612F272F392F482FC9
:10075000562FB901CA01CDB7DEB7ECE00C94F639DB
:10076000FB01DC014150504088F08D9181341CF038
:100770008B350CF4805E659161341CF06B350CF4A4
:10078000605E861B611171F3990B0895881BFCCF85
:1007900081309105F9F46F5F7F4F29F58AE99AE07E
:1007A0006CE10E94A40E88EA9AE062E246E126E04B
:1007B0000E94482586EB9AE063E246E126E00E942B
:1007C000482584ED9AE00E9432108FEE9AE00E9454
:1007D00025100895892B39F46F5F7F4F21F484ED44
:1007E0009AE00E944510089580E090E06FEF7FEF5F
:1007F0000E94C803089581E090E06FEF7FEF0E94B0
:10080000C80308954F925F926F927F928F929F924A
:10081000AF92BF92DF92EF92FF920F931F93DF93FD
:10082000CF93CDB7DEB7C45FD0400FB6F894DEBF2C
:100830000FBECDBF23E0A22EB12CAC0EBD1EC50154
:1008400060E072E00E94373689E590E10E94C33093
:10085000892B09F45CC38E01065F1F4FC80169E54F
:1008600070E10E940735C501B8010E945136C801E8
:100870000E9468368E010B521F4FC501B80140E23D
:1008800050E020E030E00E946035C80161E072E095
:100890008E010F5F1F4FA8010E941E023C0180E0E5
:1008A00090E061E072E0A8010E941E022C0180E04D
:1008B00090E061E072E0A8010E941E020E94E30144
:1008C0004B015C0191E1E92EF12CEC0EFD1EC701FC
:1008D000B3010E9437368E01085E1F4FC80163E0E6
:1008E00072E00E943736C701B8010E942435D82E25
:1008F000C8010E946836C7010E946836DD2009F4ED
:10090000A5C089E590E10E94DC3289E590E10E9472
:10091000DC3289E590E168E072E00E94C83489E544
:1009200090E16EE372E00E94C83489E590E165E5EC
:1009300072E00E94C83489E590E10E94DC3289E5CA
:1009400090E163EC72E00E94C83489E590E10E9476
:10095000DC3289E590E16CE373E00E94C83489E5FC
:1009600090E160E573E00E94C83489E590E16AE5B2
:1009700073E00E94C83489E590E163E673E00E9469
:10098000C83489E590E16CE673E00E94C83489E5DB
:1009900090E16AE773E00E94C83489E590E163E87A
:1009A00073E00E94C83489E590E10E94DC3289E559
:1009B00090E161E973E00E94C83489E590E169EA59
:1009C00073E00E94C83489E590E16EEC73E00E9408
:1009D000C83489E590E10E94DC3289E590E16CE160
:1009E00074E00E94C83489E590E169E474E00E94F3
:1009F000C83489E590E10E94DC3289E590E168E63F
:100A000074E00E94C83489E590E16EE974E00E94C8
:100A1000C83489E590E161EE74E00E94C83489E54C
:100A200090E10E94DC3289E590E10E94DC3289E5A8
:100A300090E16EE275E00E94C83489E590E10E9481
:100A4000DC3289E590E168E072E02DC08E01015E44
:100A50001F4FC801B3010E94373686E2E82EF12C01
:100A6000EC0EFD1EC70166EA75E00E943736C8012C
:100A7000B7010E942435D82EC7010E946836C801EC
:100A80000E946836DD2009F460C0C501B40120E091
:100A900030E040E050E00E94B437882339F489E523
:100AA00090E16AEA75E00E94C83431C28E01035DAC
:100AB0001F4FC801B2010E943736B4E3EB2EF12C70
:100AC000EC0EFD1EC70166E076E00E943736C801D5
:100AD000B7010E942435D82EC7010E946836C8018C
:100AE0000E946836DD2049F08092530A9092540AA1
:100AF000A092550AB092560A0AC28E01055C1F4F99
:100B0000C801B2010E943736A2E4EA2EF12CEC0EA5
:100B1000FD1EC70163E176E00E943736C801B701C8
:100B20000E942435D82EC7010E946836C8010E9451
:100B30006836DD2009F4E5C18092420A9092430AAA
:100B4000A092440AB092450AE2C18E01075B1F4F92
:100B5000C801B3010E943736F0E5EF2EF12CEC0E00
:100B6000FD1EC7016FE676E00E943736C801B70167
:100B70000E942435D82EC7010E946836C8010E9401
:100B80006836DD2051F18E01095A1F4FC801B201AC
:100B90000E943736EEE5EE2EF12CEC0EFD1EC7015D
:100BA00066E076E00E943736C801B7010E9424351E
:100BB000D82EC7010E946836C8010E946836DD2021
:100BC00009F048C08E010B591F4FC801B2010E94A5
:100BD00037367CE6E72EF12C6BC08E010D581F4F87
:100BE000C801B3010E9437366AE7E62EF12CEC0EFD
:100BF000FD1EC70163E776E00E943736C801B701E2
:100C00000E942435D82EC7010E946836C8010E9470
:100C10006836DD2009F49AC08E010F571F4FC801B6
:100C2000B2010E94373658E8E52EF12CEC0EFD1E7D
:100C3000C70166E076E00E943736C801B7010E941E
:100C40002435D82EC7010E946836C8010E94683634
:100C5000DD2021F16091530A7091540A8091550A68
:100C60009091560A2AE037ED43E25CE30E94503748
:100C70006093530A7093540A8093550A9093560ACE
:100C800020E030E040E151E40E94033988230CF475
:100C90003EC180E090E0A0E1B1E4E1C08E010157E7
:100CA0001F4FC801B2010E94373646E9E42EF12CED
:100CB000EC0EFD1EC70163E176E00E943736C801E5
:100CC000B7010E942435D82EC7010E946836C8019A
:100CD0000E946836DD2009F414C1C501B40120E08A
:100CE00030E040E050E00E94B437882369F0609122
:100CF000420A7091430A8091440A9091450A2DEC72
:100D00003CEC4CEC5DE30AC0C501B4012091420A01
:100D10003091430A4091440A5091450A0E9450374D
:100D20006093420A7093430A8093440A9093450A61
:100D300020E030E040E151E40E94033988230CF4C4
:100D4000E6C080E090E0A0E1B1E4D2C03DE9E32E4E
:100D5000F12CEC0EFD1EC701B3010E9437368E0147
:100D60000C551F4FC8016CE776E00E943736C7016B
:100D7000B8010E942435882311F001E022C02BEA3B
:100D8000E22EF12CEC0EFD1EC701B3010E94373696
:100D90008E010E541F4FC80160E876E00E9437367E
:100DA000C701B8010E942435811181E0082FCE01CE
:100DB0008E549F4F0E946836CE0185559F4F0E94EA
:100DC0006836CE018C559F4F0E946836CE018356FF
:100DD0009F4F0E946836002309F493C08E01075488
:100DE0001F4FC801B2010E94373690ECE92EF12C5A
:100DF000EC0EFD1EC70166E076E00E943736C801A2
:100E0000B7010E942435D82EC7010E946836C80158
:100E10000E946836DD2061F16091530A7091540A96
:100E20008091550A9091560A2AE037ED43E25CE33F
:100E30000E944F376093530A7093540A8093550A67
:100E40009093560A2AE037ED43E25CE30E94B43700
:100E500018160CF45CC08AE097EDA3E2BCE3809323
:100E6000530A9093540AA093550AB093560A4FC060
:100E70008E0109531F4FC801B2010E9437368EEC14
:100E8000E82EF12CEC0EFD1EC70163E176E00E9416
:100E90003736C801B7010E942435D82EC7010E94F9
:100EA0006836C8010E946836DD2059F16091420A17
:100EB0007091430A8091440A9091450A2DEC3CECD4
:100EC0004CEC5DE30E944F376093420A7093430AF3
:100ED0008093440A9093450A20E030E040E450E4D7
:100EE0000E94B43718169CF080E090E0A0E4B0E4D3
:100EF0008093420A9093430AA093440AB093450A10
:100F000006C089E590E169E176E00E94CB33CE012D
:100F100003960E946836CC50DF4F0FB6F894DEBFC0
:100F20000FBECDBFCF91DF911F910F91FF90EF903A
:100F3000DF90BF90AF909F908F907F906F905F9069
:100F40004F9008950F931F938C0189E590E169E814
:100F500076E00E94CB3389E590E1B8010E94C83465
:100F600082E061E00E94942DFFCFEF92FF920F93F9
:100F70001F93DF93CF93CDB7DEB764970FB6F89486
:100F8000DEBF0FBECDBF8AE99AE08E010F5F1F4F13
:100F9000B8010E940E0E882329F48AE99AE00E9483
:100FA000BF0C0DC0C80167E00E94CC0C9885891762
:100FB00089F089E590E161E976E00E94C8340F2E5E
:100FC000F0E0EF2EF0E0FF2EFAE70F2FF4EC1F2FEA
:100FD000F02D6EC08981803149F0883239F089E581
:100FE00090E163EA76E00E94CB33E9CF8AE99AE0A8
:100FF0000E94C30D8AE99AE08E010F5F1F4FB8016E
:101000000E94A20D8AE99AE064E441E00E94620D28
:101010008AE99AE00E94C30D8AE99AE0B8010E9429
:10102000A20D8AE99AE06EEB40E00E94620D8E010B
:10103000075F1F4F32E1E32EF12CEC0EFD1E8AE913
:101040009AE00E94110DF80181938F01EE15FF05C2
:10105000B1F78AE99AE00E94BF0C7A8560E02985A1
:1010600030E0622B732B882777FD8095982F0E94A4
:10107000533820E030E040E85DE30E9407397B010F
:101080008C0120E030E04CE052E40E940339181655
:101090001CF48FE161E002C08FE160E00E94942DBA
:1010A000E0920B0BF0920C0B00930D0B10930E0BB8
:1010B000B701C80164960FB6F894DEBF0FBECDBF6E
:1010C000CF91DF911F910F91FF90EF9008950F93B3
:1010D0001F9385E30E94AD2C9093FE0A8093FD0A36
:1010E000AA2797FDA095BA2FBC01CD010E945338C5
:1010F00020E030E040E85AE30E94073920E030E089
:1011000040EA50E40E9407399B01AC016093030B55
:101110007093040B8093050B9093060B60E070E0D6
:1011200088E492E40E94B83720E030E040E251E4E5
:101130000E944F379B01AC016093070B7093080B23
:101140008093090B90930A0B60E070E080E89FE3C6
:101150000E94B8372AE037ED4FE753E40E94073981
:101160006093FF0A7093000B8093010B9093020B26
:1011700009E510E1C8016CEB76E00E94CB334091A9
:10118000FF0A5091000B6091010B7091020BC80196
:1011900022E030E00E94B234C8016BEC76E00E949D
:1011A000C8341F910F9108952F923F924F925F92F2
:1011B0006F927F928F929F92AF92BF92CF92DF9267
:1011C000EF92FF920F931F9388EA9AE00E941B26EA
:1011D0006093C40A7093C50A8093C60A9093C70AA5
:1011E00088EA9AE060E00E9472266093C80A7093D1
:1011F000C90A8093CA0A9093CB0A86EB9AE00E94B0
:101200001B266093CC0A7093CD0A8093CE0A9093EC
:10121000CF0A86EB9AE060E00E9472266093D00AC3
:101220007093D10A8093D20A9093D30A2091C80A6E
:101230003091C90A4091CA0A5091CB0ACA01B9013A
:101240000E946A39882379F42091C40A3091C50A32
:101250004091C60A5091C70ACA01B9010E946A3971
:10126000882309F446C189E590E160ED76E00E94AB
:10127000C8342091D00A3091D10A4091D20A5091BD
:10128000D30ACA01B9010E946A39882379F42091EE
:10129000CC0A3091CD0A4091CE0A5091CF0ACA01B2
:1012A000B9010E946A39882309F456C189E590E1A1
:1012B00063EF76E00E94C8348DE30E94AD2CAA272C
:1012C00097FDA095BA2FBC01CD010E9453382EE4A2
:1012D00031ED41E95CE30E94073921EC3AEC41EF42
:1012E0005FE30E944F371B012C016093F10A70935A
:1012F000F20A8093F30A9093F40AE090420AF09085
:10130000430A0091440A1091450AA090530AB090F4
:10131000540AC090550AD090560AC801B701A601D8
:1013200095010E944F373B014C016093F50A709381
:10133000F60A8093F70A9093F80AC801B701A6014C
:1013400095010E9450377B018C016093F90A7093DC
:10135000FA0A8093FB0A9093FC0AC201B101A4012E
:1013600093010E9403398823ACF0C201B101A801A6
:1013700097010E94B43718166CF088E260E00E9472
:10138000942D86E260E00E94942D89E590E166E16B
:1013900077E04AC0C201B101A40193010E94B437B1
:1013A0008823BCF488E260E00E94942D86E261E02C
:1013B0000E94942D6CE271E080E090E00E94E82BA6
:1013C00086E260E00E94942D89E590E16DE277E08D
:1013D0002BC0C201B101A80197010E940339181660
:1013E000BCF486E260E00E94942D88E261E00E94F5
:1013F000942D6CE271E080E090E00E94E82B88E29E
:1014000060E00E94942D89E590E167E477E00CC0EC
:1014100088E260E00E94942D86E260E00E94942DB4
:1014200089E590E162E677E00E94C83489E590E1C1
:1014300065E078E00E94CB334091420A5091430A24
:101440006091440A7091450A89E590E122E030E01C
:101450000E94B53489E590E164E178E00E94CB33E5
:101460004091530A5091540A6091550A7091560A5E
:1014700089E590E122E030E00E94B53489E590E111
:1014800069E378E00E94CB334091F10A5091F20A6F
:101490006091F30A7091F40A89E590E122E030E06E
:1014A0000E94B53489E590E167E478E00E94CB338F
:1014B0000E94B507AB01BC0189E590E122E030E074
:1014C0000E94B23489E590E165E678E00E94C83474
:1014D0001F910F91FF90EF90DF90CF90BF90AF9052
:1014E0009F908F907F906F905F904F903F902F9044
:1014F000089589E590E168E678E00E94CB33409159
:10150000C40A5091C50A6091C60A7091C70A89E55C
:1015100090E122E030E00E94B23489E590E163E797
:1015200078E00E94CB3389E590E16AE778E00E9499
:10153000CB334091C80A5091C90A6091CA0A709190
:10154000CB0A89E590E122E030E00E94B23489E5DF
:1015500090E168E878E08BCE89E590E168E678E094
:101560000E94CB334091C40A5091C50A6091C60ACB
:101570007091C70A89E590E122E030E00E94B23420
:1015800089E590E163E778E00E94CB3389E590E15B
:101590006AE778E00E94CB334091C80A5091C90AAB
:1015A0006091CA0A7091CB0A89E590E122E030E0AF
:1015B0000E94B23489E590E168E878E07BCE86EB62
:1015C0009DE00E94BE270E946B0F882361F484ED8A
:1015D0009AE067E479E00E94C83489E590E167E425
:1015E00079E00E94C83408950F931F93DF93CF933F
:1015F000CDB7DEB7A7970FB6F894DEBF0FBECDBF4D
:10160000CE01079661E17BE046E45AE023E10E94C7
:10161000A7138E010F5F1F4FC80140E050E060E04C
:1016200070E00E94DA0E0E946D0F2AA33BA34CA328
:101630005DA36EA37FA3D801FE01B29686E0019060
:101640000D928150E1F7CE0107960E948710882302
:1016500009F470C00E946D0F2AA33BA34CA35DA3A5
:101660006EA37FA3DE011196FE01B29686E0019083
:101670000D928150E1F78E01095F1F4F4091F10AF1
:101680005091F20A6091F30A7091F40AC80122E0C5
:1016900030E00E94B234C80162E579E00E94CB33A9
:1016A0004091C80A5091C90A6091CA0A7091CB0A48
:1016B000C8012AE030E00E94B234C80162E579E056
:1016C0000E94CB334091C40A5091C50A6091C60A6A
:1016D0007091C70AC8012AE030E00E94B234C80104
:1016E00062E579E00E94CB334091FF0A5091000BF4
:1016F0006091010B7091020BC80122E030E00E9462
:10170000B234C80162E579E00E94CB3340910B0B03
:1017100050910C0B60910D0B70910E0BC80122E0E3
:1017200030E00E94B234C8010E94DC32C8010E943D
:10173000941006C089E590E165E579E00E94C8341F
:10174000CE0107960E944510A7960FB6F894DEBF0B
:101750000FBECDBFCF91DF911F910F9108950E94D1
:10176000D4080E9467080E94F40A0E94020489E5D6
:1017700090E10E94DC3260EA7FE080E090E00E942D
:10178000E82B08950F931F93DF93CF93CDB7DEB768
:10179000E6970FB6F894DEBF0FBECDBF89E590E1A6
:1017A0006FE679E00E94CB3381E19BE06AE04BE099
:1017B0002CE00DE00E94CC14882321F487E899E006
:1017C0000E94A20789E590E163EA79E00E94C834AB
:1017D00000E0802F6AE00E948D39805D80934C0A82
:1017E000802F0E948D39905D90934D0A81E19BE09E
:1017F00066E47AE00E947E128823D9F5CE01019634
:1018000061E17BE046E45AE023E10E94A7138B816B
:101810009C819093D70A8093D60A8D819E81AF8157
:10182000B8858093D80A9093D90AA093DA0AB09326
:10183000DB0A89859A85AB85BC858093DC0A909309
:10184000DD0AA093DE0AB093DF0AA0EEBAE0FE0143
:101850003D968DE001900D928150E1F78A8D9B8D30
:101860009093EE0A8093ED0ACE0101960E944510F6
:1018700004C00F5F043609F0ACCF84ED9AE00E94FB
:101880008710882321F485EB99E00E94A20789E55F
:1018900090E169EC79E00E94CB3389E590E166E460
:1018A0007AE00E94C8348E01045E1F4FC80161E1D6
:1018B0007BE046E45AE023E10E94A713C80166EDED
:1018C00079E00E94CB33C8010E944510E6960FB61E
:1018D000F894DEBF0FBECDBFCF91DF911F910F9166
:1018E00008950F931F9386E261E00E94E12C88E245
:1018F00061E00E94E12C81E361E00E94E12C8EE135
:1019000061E00E94E12C8FE161E00E94E12C8AE01D
:1019100061E00E94E12C82E061E00E94E12C6CE237
:1019200071E080E090E00E94E82B09E510E1C80139
:1019300040E855E260E070E00E943C30C8010E943F
:10194000DC32C80162EF79E00E94C834C80162E06D
:101950007AE00E94C8346CEB72E080E090E00E9474
:10196000E82B1F910F91089588EA9AE00E944F2575
:101970000E94710C0E94DF0A0E94C20B0895FC01B4
:1019800013861586148687E090E0128631970097BB
:1019900011F00197FACF0895DC0180E00BC0E82F29
:1019A000F0E08D9190E0E827F927EC51FF4FE491AA
:1019B00061508E2F662399F70895DF92EF92FF9280
:1019C0000F931F93FC01E08001811281F894F801CC
:1019D00081818E2981838281DE2CD0948D21828326
:1019E00083E090E00E94412CF80181818D21818368
:1019F0008AE090E00E94412CF8010081789485E310
:101A000090E00E94412C80E010E0FF240E211F2175
:101A1000012B09F081E01F910F91FF90EF90DF9073
:101A20000895EF92FF920F931F93CF93DF937C0162
:101A300001E010E0C0E0D0E0C7010E94DD0C8111A0
:101A4000102B000F2196C830D105B1F7812FDF91FF
:101A5000CF911F910F91FF90EF9008951F93CF9317
:101A6000DF93FC011081C181D281912F909560FF9D
:101A700012C0F8948A8189238A838981812B898382
:101A80008AE090E00E94412C8A81812B8A8378949D
:101A900087E390E011C0F8948A8189238A83898141
:101AA000812B898381E490E00E94412C8A81812BE3
:101AB0008A83789485E090E00E94412CDF91CF9159
:101AC0001F910895CF92DF92EF92FF920F931F9391
:101AD000CF93DF938C01E42EFF24F394C0E0D0E099
:101AE000C62EDD2460E08F2D90E08C219D21892B76
:101AF00009F061E0C8010E942E0DFF0C2196C8304C
:101B0000D10581F7EE20A9F4F894D8011196ED9152
:101B1000FC91129791818C918095982391831196D5
:101B2000ED91FC91129792818C91809598239283EC
:101B30007894DF91CF911F910F91FF90EF90DF90FC
:101B4000CF900895EF92FF920F931F93CF93DF935F
:101B50008C017B0165E540E00E94620DC0E0D0E0B1
:101B6000F701EC0FFD1FC801608140E00E94620D8B
:101B70002196C830D105A1F7DF91CF911F910F9128
:101B8000FF90EF900895DF92EF92FF920F931F93D3
:101B9000CF93DF93FC010081C181D281F8948981C8
:101BA000D02ED0948D21898378941DE7E02EFF24D8
:101BB000115059F182E090E00E94412C888190E020
:101BC0008E219F21892BA1F3F8948A818D218A830C
:101BD0008981802B8983789480EE91E00E94412C4A
:101BE000F89489818D21898386E490E00E94412CBC
:101BF000888110E090E0E822F922EF2809F411E052
:101C000078948AE991E00E94412C812FDF91CF9155
:101C10001F910F91FF90EF90DF900895AF92BF92C8
:101C2000DF92EF92FF920F931F93CF93DF93EC011C
:101C30005B018D85882309F061C0CE010E94C30D30
:101C4000882329F41B861D861C8690E06BC0CE017C
:101C500060EF40E00E94620D01E0DD24EE24FF24ED
:101C6000F394CE010E94DD0C182FCE010E94DD0CF2
:101C7000113019F48130E1F439C0181709F58B855A
:101C8000081770F460E0FE01EE0DF11D838190E015
:101C90002F2D30E082239323181619064CF003C031
:101CA00060E0081729F0093008F04CC00C874AC0E2
:101CB000FE01EE0DF11D83818F29838361E009C050
:101CC000612FFE01EE0DF11D9F2D909583818923DB
:101CD0008383CE010E942E0D0F5FFF0C19F4E39455
:101CE000FF24F39487E08E1508F0BBCF013430F069
:101CF000DB86DD2011F581E08D871FC01B861D86E8
:101D00001C8690E0DE0120E030E0F501E20FF31FD9
:101D100013968C91139780832F5F3F4F1196283035
:101D2000310599F7892FDF91CF911F910F91FF9086
:101D3000EF90DF90BF90AF9008958B818823F1F2F0
:101D400091E0E0CFD02EBDCFFF920F931F938C0177
:101D5000F62E862F60E00E94E12C8F2D90E0FC0192
:101D6000EC56FD4FE491D801EC93825B9D4FFC0152
:101D70006491E62FF0E0EE0FFF1FEC5CFD4F8591C4
:101D8000949112969C938E9311971B961C921B977D
:101D90001D961C921D971C961C92F80187E090E0FE
:101DA00012863197009711F00197FACF1F910F918A
:101DB000FF900895EF92FF920F931F93CF93DF93BD
:101DC000EC017A018B0180E89CEBA2E9B7ECE80E0C
:101DD000F91E0A1F1B1FC801B7012CE330E040E0C9
:101DE00050E00E9499396D83C801B7012CE330E0BF
:101DF00040E050E00E949939122F032FF42EE52E77
:101E0000622F732F842F952F2CE330E040E050E0B9
:101E10000E9499396C83612F702F8F2D9E2D2CE39A
:101E200030E040E050E00E949939122F032FF42E49
:101E3000E52E622F732F842F952F28E130E040E0AC
:101E400050E00E9499396B83612F702F8F2D9E2D4A
:101E500028E130E040E050E00E94993960E0A3E9D9
:101E6000BEEF70E0862F90E083709070892B09F4AC
:101E700071E0E62FEF5F472F50E0CA0183599E4F74
:101E80002817390738F0CD01841B950B280F391F0F
:101E90006E2FE7CF688341E0E42FF0E0ED51FE4F75
:101EA0008491772319F0423009F48F5F90E0542F2A
:101EB0005F5F2817390720F0281B390B452FECCF1F
:101EC0004983822F8F5F8A83DF91CF911F910F917A
:101ED000FF90EF90089581E00895BF92CF92DF9236
:101EE000EF92FF920F931F93DF93CF9300D000D018
:101EF000CDB7DEB706EB1DE0C80168E670E00E94D2
:101F0000E426C80160E00E946627C8010E94A92754
:101F1000C80168E670E047E050E00E94BA27C801B7
:101F20000E94F7269FE7B92EB822C8010E94F72623
:101F3000C82EC8010E94F726D82EC8010E94F72695
:101F4000C8010E94F726E82EC8010E94F726F82E45
:101F5000C8010E94F726282F30E0B4E03595279578
:101F6000BA95E1F74AEF5FEFB901649F9001659F71
:101F7000300D749F300D1124820F90E02B2D30E036
:101F8000A4E035952795AA95E1F7B901649F9001E2
:101F9000659F300D749F300D1124B20E2C2D30E052
:101FA000F4E035952795FA95E1F7B901649F900122
:101FB000659F300D749F300D1124C20E2D2D30E021
:101FC000E4E035952795EA95E1F7B901649F900122
:101FD000659F300D749F300D1124D20E2E2D30E0F0
:101FE00074E0359527957A95E1F7B901649F9001E2
:101FF000659F300D749F300D1124E20E2F2D30E0BF
:1020000064E0359527956A95E1F7B901649F9001E1
:10201000659F300D749F300D1124F20E282F3F2D37
:102020004E2D5D2D6C2D7B2D80E026960FB6F894FD
:10203000DEBF0FBECDBFCF91DF911F910F91FF90FB
:10204000EF90DF90CF90BF900895FC0184E690E080
:1020500091838083089584E690E09093100B8093A1
:102060000F0B0895FC011382128288EE93E0A0E02A
:10207000B0E084839583A683B78386E69AE0918354
:102080008083128E118E14860895FC0186E69AE0F4
:10209000918380830895DF93CF930F92CDB7DEB7FE
:1020A000FC016983A081B18112962D913C91139717
:1020B000BE016F5F7F4F41E050E0F90119950F902D
:1020C000CF91DF910895DC015996ED91FC915A97DB
:1020D000309719F420E030E018C02389348945890D
:1020E000568982859385A485B585281B390B4A0BB3
:1020F0005B0B2030B0E83B07B0E04B07B0E05B077C
:1021000020F02FEF3FE740E050E0C9010895DC01E7
:102110005996ED91FC915A97309711F480E008950B
:102120008581811181E00895CF93DF93EC01898D42
:102130009A8D009741F00E94341A898D9A8D0E94E1
:10214000FA2A1A8E198EDF91CF910895FC01818DA4
:10215000928D009711F00E94EA190895DF93CF93B2
:102160000F92CDB7DEB7FC01818D928D009749F0BB
:10217000BE016F5F7F4F41E050E00E940B1B019753
:1021800019F02FEF3FEF03C08981282F30E0C901FC
:102190000F90CF91DF910895EF92FF920F931F93CD
:1021A000DF93CF930F92CDB7DEB77C01DC01599658
:1021B0008D919C915A97009719F400E010E01FC090
:1021C000BE016F5F7F4F41E050E00E940B1B019703
:1021D00019F00FEF1FEF13C08981082F10E0D7010E
:1021E0005996ED91FC915A97428553856485758582
:1021F0004150504060407040CF010E942419C801F6
:102200000F90CF91DF911F910F91FF90EF90089564
:10221000CF93DF93EC01E98DFA8D309761F0138253
:102220001282CF010E94501D9C01E98DFA8D82819E
:102230009381892B31F081E090E09B838A8320E0B9
:1022400030E0C901DF91CF910895EF92FF920F9393
:102250001F93CF93DF93EC01F62EE72E8A011B82AA
:102260001A8288EE93E0A0E0B0E08C839D83AE8379
:10227000BF8386E69AE0998388838DE190E00E948F
:102280005D2A9A8F898F009791F0DC018F2D9E2D0A
:102290009C01F9018DE101900D928150E1F7CE0191
:1022A0000C96B8014CE050E00E940F02188EDF91AE
:1022B000CF911F910F91FF90EF9008950F931F936F
:1022C000CF93DF938C01FB01C081D181FC01EC0F26
:1022D000FD1F80818F3209F4219698012C0F3D1F3C
:1022E000A0E0B0E00BC0FA01EA0FFB1F808311965B
:1022F00021962F5F3F4FAC30B10531F0F90180815D
:102300008F3211F0882379F7A40FB51F1C92F801C2
:10231000EC0FFD1F80818F3209F42196FB01D183E0
:10232000C083C00FD11F8881811181E0DF91CF91DF
:102330001F910F9108951092160B1092170B109287
:102340001A0B10921C0B82E090E0A0E0B0E08093AA
:102350001E0B90931F0BA093200BB093210B109298
:10236000350B10923F0B10923E0B86E79AE090934C
:102370003D0B80933C0B1092410B0895EF92FF921E
:102380001F93DF93CF93CDB7DEB76D970FB6F89459
:10239000DEBF0FBECDBF9C01AB011C821B8286E756
:1023A0009AE09A8389831E827E010894E11CF11CC5
:1023B000C701B90121E00E947C1F182F882319F062
:1023C000C7010E94341A812F6D960FB6F894DEBFB4
:1023D0000FBECDBFCF91DF911F91FF90EF90089579
:1023E0002F923F924F925F926F927F928F929F9225
:1023F000BF92CF92DF92EF92FF920F931F93DF93E2
:10240000CF93CDB7DEB7C954D0400FB6F894DEBF36
:102410000FBECDBF1C017B012A0139011B8A1A8A1C
:1024200086E79AE0998B888B1D8A18AA1FA69EA71B
:102430008DA71AAA1A8219828B0120E1C22ED12CF3
:10244000CC0EDD1E93E0892E912C8C0E9D1E03C0B8
:10245000C80186016C01C101BE016F5F7F4FA401FD
:102460000E945E11B82E40E0882309F441E0C801C3
:10247000B4019301F2011995882339F40E151F0553
:1024800019F1C8010E94341A1FC0BB20A9F0C6016F
:10249000B801A40121E00E947C1FB82E0E151F0573
:1024A00019F0C8010E94341ABB2071F00E151F05E7
:1024B00079F6CE018D96CDCF0E151F0519F0C80106
:1024C0000E94341A81E001C080E0C75BDF4F0FB685
:1024D000F894DEBF0FBECDBFCF91DF911F910F915A
:1024E000FF90EF90DF90CF90BF909F908F907F9064
:1024F0006F905F904F903F902F9008959B01BC018B
:10250000655D7F4FC9014EEB51E120E030E00E9454
:10251000F01108952F923F924F925F926F927F92A7
:102520008F929F92AF92BF92CF92DF92EF92FF92E3
:102530000F931F93DF93CF93CDB7DEB7C754D0402F
:102540000FB6F894DEBF0FBECDBF582E492EFB014B
:102550003A01190185A596A5998B888B26E73AE063
:102560003F872E8787A58A8B80A98B8B81A992A90B
:10257000A3A9B4A98C8B9D8BAE8BBF8B85A996A983
:10258000A7A9B0AD888F998FAA8FBB8F81AD92AD6F
:10259000A3ADB4AD8C8F9D8FAE8FBF8F85AD88A35B
:1025A000FE9681919191A191B19189A39AA3ABA338
:1025B000BCA381919191A191B1918DA39EA3AFA351
:1025C000B8A7808191819AA789A71EA61DA63CA7BE
:1025D0002BA718AA7A018E01025F1F4F3BE2A32EA0
:1025E000B12CAC0EBD1E4E010894811C911C35C04F
:1025F000D7018C918F3221F40894E11CF11C2DC07D
:10260000422F4E194D3008F04CE0C42EDD24C40199
:10261000B701A6010E940F02F401EC0DFD1D10820E
:10262000C5010E94341AC501B801A40121E00E942D
:102630007C1F882351F4E52DF42D1382128286E746
:102640009AE091838083158266C0EC0CFD1CC80162
:102650000E94341AC50158018C01C7016FE270E075
:102660000E94FD019C01009719F6E618F708F10198
:10267000F182E082E52DF42DD80112968D919C9186
:1026800013979383828386E79AE0918380831496DD
:102690008C911497848315968C9115978583169643
:1026A0002D913D914D915C911997268337834087F9
:1026B00051871A962D913D914D915C911D972287DE
:1026C0003387448755871E962D913D914D915C919E
:1026D000519726873787408B518B52968C91529712
:1026E000828B53962D913D914D915C915697238B02
:1026F000348B458B568B57962D913D914D915C9126
:102700005A97278B308F418F528F5B968D919C917A
:102710005C97948F838F852D942DC95BDF4F0FB607
:10272000F894DEBF0FBECDBFCF91DF911F910F9107
:10273000FF90EF90DF90CF90BF90AF909F908F90E1
:102740007F906F905F904F903F902F9008959F9251
:10275000AF92BF92CF92DF92EF92FF920F931F93AF
:10276000DF93CF93CDB7DEB7C657D0400FB6F894FE
:10277000DEBF0FBECDBFC82E992E8A01D22E43E0F8
:10278000A42EB12CAC0EBD1EC501A8019E012F5F69
:102790003F4F0E948A12E980FA80E00EF11EF70195
:1027A000808146E75AE02885882309F03FC08D8163
:1027B0009E819BA38AA359A348A38F818CA32DA399
:1027C00089859A85AB85BC858EA39FA3A8A7B9A749
:1027D0008D859E85AF85B8898AA79BA7ACA7BDA725
:1027E00089899A89AB89BC898EA79FA7A8ABB9AB09
:1027F0008D898AAB8E899F89A88DB98D8BAB9CAB57
:10280000ADABBEAB8A8D9B8DAC8DBD8D8FAB98AFC4
:10281000A9AFBAAF8E8D9F8D9CAF8BAF8C2D992DAC
:10282000BE01605E7F4F47E25AE09FC0FE01FF9607
:10283000118210825EAF4DAFFE01EE5BFF4F108242
:102840002223A9F02250CE01CD96223048F46CE329
:102850007BE0A7012D2D0E947C1F882381F407C0F7
:10286000B501A7012D2D0E947C1F882329F48C2DF2
:10287000992D0E9432107BC0C5010E94341AF6E0E7
:10288000DF2259F0FE01E05BFF4F40815181628100
:102890007381CE01CD960E9424199E01265A3F4F86
:1028A000FE01FF9680819181F9019383828386E7FF
:1028B0009AE091838083FE01EF5BFF4F8081F901F5
:1028C0008483FE01EE5BFF4F8081F9018583FE0169
:1028D000ED5BFF4F80819181A281B381F9018683F5
:1028E0009783A087B187FE01E95BFF4F80819181CB
:1028F000A281B381F90182879387A487B587FE01FE
:10290000E55BFF4F80819181A281B381F9018687C8
:102910009787A08BB18BFE01E15BFF4F8081F901AE
:10292000828BFE01E05BFF4F80819181A281B381A8
:10293000F901838B948BA58BB68BFE01EC5AFF4F6C
:1029400080819181A281B381F901878B908FA18FC2
:10295000B28FFE01E85AFF4F80819181F901948F77
:10296000838F8C2D992DB901A7010E9425118C2DE3
:10297000992DCA58DF4F0FB6F894DEBF0FBECDBFFA
:10298000CF91DF911F910F91FF90EF90DF90CF904B
:10299000BF90AF909F900895EF920F931F93CF93A6
:1029A000DF93EC01362F542F722FE02E61E0432F7E
:1029B000252F072F0E94BF178823D1F08E01035FB8
:1029C0001F4FC801BE0141E00E941D21882339F438
:1029D000C801BE0140E00E941D21882349F0CE01BC
:1029E0008B96B8010E946A1C882319F081E001C00F
:1029F00080E0DF91CF911F910F91EF900895382FD4
:102A000080915B0B8F3F31F43EBD0DB407FEFDCFCF
:102A10008EB50895F894A0915C0BB0915D0B509128
:102A20005E0B252F2095E0915F0BF091600B40919C
:102A3000610B642F609590E08C9182238C9337FF1B
:102A400003C08081842B02C08081862380838C9187
:102A5000852B8C939F5F983011F0330FEDCF0000E2
:102A60000000000000008C9128232C937894089596
:102A700080915B0B8F3F31F48EBD0DB407FEFDCF0F
:102A80002EB530C0F894E0915F0BF091600B80811F
:102A90009091610B892B8083E0915C0BF0915D0B31
:102AA00060915E0BA091620BB091630B8091640BFF
:102AB000482F50E0762F709520E030E08081862B03
:102AC0008083220F8C9190E084239523892B09F039
:102AD0002160808187238083000000003F5F3830C1
:102AE00069F77894822F08950F931F93CF93DF9304
:102AF0008B010E94DA2BEB010E9438158F3F11F4F5
:102B000081E008C00E94DA2B6C1B7D0B60177107F7
:102B100098F380E0DF91CF911F910F910895FC0110
:102B2000673020F086E1858380E008956330B9F056
:102B3000643028F4613069F0623070F407C06530A9
:102B4000A1F0653078F06630A9F412C084E090E01E
:102B500011C080E090E00EC085E090E00BC081E005
:102B600090E008C086E090E005C082E090E002C0FE
:102B700083E090E00E94352A81E00895FC01848181
:102B800060E00E94942D0895FC01848161E00E9420
:102B9000942D0895CF92DF92EF92FF920F931F939F
:102BA000CF93DF937C016A01FC018485882319F4AB
:102BB0000FEF1FEF30C000E010E040E050E0212FA9
:102BC000332727FD3A95F601E40FF51F808190E049
:102BD000282739273070C901F4E095958795FA9533
:102BE000E1F782279327102F0027082719279C0138
:102BF000322F22273295307F0227132725E0880FB6
:102C0000991F2A95E1F7082719274F5F5F4FF2E0D8
:102C100040305F07A1F6862F0E94FF14C0E0D0E08D
:102C2000F601EC0FFD1F80810E94FF14219682E0C7
:102C3000C030D807A9F7812F992787FD9A950E9460
:102C4000FF14802F0E94FF140E943815F70182871D
:102C50008F71853011F481E007C081E1F701858330
:102C6000C7010E94C41580E0DF91CF911F910F91A1
:102C7000FF90EF90DF90CF9008950F931F93CF9325
:102C8000DF93EC010E94DA2B8B0109C00E94DA2B42
:102C9000601B710B6D52714010F08FE00AC00E94F2
:102CA00038158A878F3F91F38E3F11F481E006C07B
:102CB0008DE08D83CE010E94C41580E0DF91CF911D
:102CC0001F910F910895CF93DF93EC018E8188239C
:102CD00019F40FC00E9438158F8198850196988746
:102CE0008F83019782509240A8F3CE010E94C415B1
:102CF0001E82DF91CF910895DF92EF92FF920F93A2
:102D00001F93CF93DF93EC01D62E79018A010E94A5
:102D10006316CE010E94BE15CE016CE271E00E94E6
:102D200074158D2D80640E94FF14812F9927AA2786
:102D3000BB270E94FF14C801AA27BB270E94FF14CB
:102D4000BB27A12F902F8F2D0E94FF148E2D0E9444
:102D5000FF14DD2011F485E906C088E0D81611F4CF
:102D600087E801C08FEF0E94FF1410E00E94381521
:102D70008A8787FF02C01150C9F7DF91CF911F9159
:102D80000F91FF90EF90DF900895CF92DF92EF9236
:102D9000FF920F931F93CF93DF93EC017A018B0186
:102DA0006901411551056105710511F482E133C0D6
:102DB0008B85833039F039E0EE0CFF1C001F111FAA
:102DC0003A95D1F7CE0168E1A80197010E947C16DF
:102DD000882311F084E01FC0CE016EEFA6010E948F
:102DE000CA158823C9F0CE0168E572E00E94741507
:102DF000882311F485E10FC0CE016DE020E030E0C2
:102E000040E050E00E947C16882321F40E9438158F
:102E1000882379F084E18D83CE010E94C41580E07F
:102E2000DF91CF911F910F91FF90EF90DF90CF90A6
:102E30000895CE010E94C41581E0F2CF6F927F9277
:102E40008F929F92AF92BF92CF92DF92EF92FF92BA
:102E50000F931F93CF93DF93EC015A016B0139015C
:102E600048010115110509F46AC0C801820F931FBA
:102E70008150924008F05EC08E81882371F0888175
:102E80009981AA81BB81481759076A077B0729F4F2
:102E90008F8198856816790650F5A882B982CA8212
:102EA000DB828B85833039F0E9E0AA0CBB1CCC1C9B
:102EB000DD1CEA95D1F7CE0161E1A60195010E94E2
:102EC0007C16882319F083E08D8334C0CE010E94E4
:102ED0003D16882379F118861F8281E08E8307C012
:102EE0000E9438158F819885019698878F838F81EE
:102EF000988586159705A0F300E010E008C00E94B1
:102F00003815F701E00FF11F80830F5F1F4F081581
:102F10001905A8F32F813885280D391D38872F838F
:102F20008985882319F02050324048F0CE010E9454
:102F3000631605C0CE010E94C41580E001C081E087
:102F4000DF91CF911F910F91FF90EF90DF90CF9085
:102F5000BF90AF909F908F907F906F900895EF9269
:102F6000FF920F931F93790120E030E000E012E020
:102F70000E941E171F910F91FF90EF900895BF922E
:102F8000CF92DF92EF92FF920F931F93CF93DF9335
:102F9000EC01B62E1E2D1B8619861E821D821C86F4
:102FA0004C832093650B0093660BE0925B0B0E94B1
:102FB000DA2B6B018C8161E00E94E12CCE010E9432
:102FC000C4151F3F09F462C08091660B60E00E9447
:102FD000E12C8091650B61E00E94E12C80915B0BFC
:102FE00061E00E94E12CE0915B0B2E2F332727FD3F
:102FF0003095F901E25BFD4FE491F0E0EE0FFF1F29
:10300000E65EFD4F8591949190935D0B80935C0BF0
:103010002C563D4FF901849180935E0BE091650B36
:103020002E2F332727FD3095F901E25BFD4FE49108
:10303000F0E0EE0FFF1FE65EFD4F859194919093B7
:10304000600B80935F0B2C563D4FF9018491809368
:10305000610BE091660B2E2F332727FD3095F90188
:10306000E25BFD4FE491F0E0EE0FFF1FEC5CFD4FE3
:10307000859194919093630B8093620B2C563D4FF6
:10308000F90184918093640B10E006C00E94462AE7
:1030900083E00E94352AF8CF8FEF0E94FF141F5F54
:1030A0001A30D1F7CE010E94BE1509C00E94DA2B5A
:1030B0006C197D09615D774010F081E05AC0CE0146
:1030C00060E020E030E040E050E00E947C16182FE5
:1030D0008A87813059F7CE0168E02AEA31E040E082
:1030E00050E00E947C1682FF02C01B870DC010E0DA
:1030F0000E9438158A871F5F1430D1F78A3A11F081
:1031000082E037C082E08B878B85823021F0EE240D
:10311000FF2487010FC0E12CF12C012DF0E41F2FBB
:1031200009C00E94DA2B6C197D09615D774010F0AF
:1031300088E01FC0CE0167E320E030E040E050E0CF
:103140000E947C16CE0169E2A80197010E947C16BC
:103150008A87882331F78B858230F1F4CE016AE3C8
:1031600020E030E040E050E00E947C16882339F0F7
:1031700086E08D83CE010E94C41580E01AC00E94B3
:103180003815807C803C11F483E08B870E943815D1
:103190000E9438150E943815CE010E94C4158091F6
:1031A0005B0B8F3F11F081E004C0CE016B2D0E94BC
:1031B0008F15DF91CF911F910F91FF90EF90DF90CE
:1031C000CF90BF900895CF93DF93EC01DB0180E0B7
:1031D00090E020E2FD01E80FF91F208301968B307B
:1031E0009105C1F740E057E021C02E3219F080EF81
:1031F00091E007C05A3019F148E05AE017C0321781
:10320000F1F0FC01019634913323C9F75417B8F05B
:103210002132A8F02F3798F4822F81568A3108F492
:103220002052FD01E40FF11D20834F5F29912223DD
:10323000E1F690E08C91803219F091E001C090E0CD
:10324000892FDF91CF9108956F927F928F929F92F5
:10325000AF92BF92CF92DF92EF92FF920F931F93A4
:10326000CF93DF93EC017A018B012D81222309F4A6
:1032700080C08B899C89AD89BE8984179507A60774
:10328000B70708F476C085C0E114F1040105110503
:1032900049F41E821F82188619861A861B861C8690
:1032A0001D8665C02A853B854C855D85EB8DFC8D33
:1032B000858590E0099621503040404050403901CA
:1032C0004A01082E04C096948794779467940A94D0
:1032D000D2F72F5F3F4F4F4F5F4F0894E108F1083F
:1032E000010911095701680104C0D694C794B79425
:1032F000A7948A95D2F70894E11CF11C011D111DB9
:10330000A614B704C804D90428F0211531054105D5
:10331000510549F48F89988DA98DBA8D8E839F832D
:10332000A887B98716C0A618B708C808D90811C059
:103330004E815F81688579858B8D9C8D94010E947B
:10334000FE220894A108B108C108D108882331F4ED
:1033500010C086E0882E912C8C0E9D1EA114B10405
:10336000C104D10429F7EA86FB860C871D8781E01A
:1033700001C080E0DF91CF911F910F91FF90EF90FE
:10338000DF90CF90BF90AF909F908F907F906F9085
:103390000895223009F078CFE6CFCF93DF93EC0188
:1033A000462F6E857F85888999890E94E22088232F
:1033B00019F420E030E00AC08A89282F30E095E037
:1033C000220F331F9A95E1F72759344FC901DF9136
:1033D000CF9108950F931F93CF93DF938C01FC013E
:1033E00085818823D9F1848187FF35C0C80161E0D8
:1033F0000E94CD19EC01009789F1F8018581823096
:1034000040F483899489A589B6898C8F9D8FAE8F6E
:10341000BF8FF8018789908D9B8F8A8F8789908DC8
:10342000A18DB28DCD01AA27BB279D8B8C8BE091FE
:10343000670BF091680B309751F0BE016A5E7F4FC9
:10344000CE0148961995888D998D9B8B8A8BF801B2
:1034500084818F7784830E94832001C080E0DF9184
:10346000CF911F910F910895CF93DF93EC010E94AC
:10347000EA19882311F01D8281E0DF91CF91089530
:103480006F927F928F929F92AF92BF92CF92DF9274
:10349000EF92FF920F931F93DF93CF9300D00F9281
:1034A000CDB7DEB77C015A016B01DC0115968C911A
:1034B0001597813009F08FC014968C9181FF8BC0D5
:1034C0009EC00097A105B10511F481E085C0F70108
:1034D0006284738484849584C701B601A5010E9427
:1034E0002419882309F477C0D7015B968D919C91AC
:1034F0005C97A114B104C104D10489F457964D918D
:103500005D916D917C915A970E947123882309F4F3
:1035100062C0F701178A108E118E128E3DC0D7013E
:1035200016964D915D916D917C9119979E012F5F3B
:103530003F4F0E94FE22882309F44DC0D7015B96BD
:10354000ED91FC915C9749815A816B817C818789DF
:10355000803129F088EF9FEFAFEFBFE004C088EF24
:103560009FEFA0E0B0E0481759076A077B07A0F477
:10357000CF010E947123882371F1F70146815781A1
:1035800060857185838D948D0FEF1FEF2FEF3FE0E6
:103590000E9462228823F9F0D7015396AD92BD9222
:1035A000CD92DC92569714968C911497806814965D
:1035B0008C93C7010E94EA19882369F0B601A5011E
:1035C0006A147B048C049D0410F4B401A301C701A8
:1035D0000E94241901C080E00F900F900F900F906F
:1035E000CF91DF911F910F91FF90EF90DF90CF90DF
:1035F000BF90AF909F908F907F906F900895F7014C
:1036000083899489A589B68984179507A607B70782
:1036100008F057CFE0CF2F923F924F925F926F9278
:103620007F928F929F92AF92BF92CF92DF92EF9252
:10363000FF920F931F93CF93DF93EC012A018D81AB
:10364000882309F4C6C08C8180FFC3C0D8C025017F
:103650004E185F084B0176E0272E312C2C0E3D1EB4
:103660003201B1C02A853B854C855D856FEFA62E62
:1036700061E0B62EA222B3228D8179018A0199E000
:1036800016950795F794E7949A95D1F7EB8DFC8DF5
:10369000823049F4428D538D648D758D4E0D5F1DC2
:1036A000601F711F3FC0D480DA94DE20A114B104E2
:1036B000D9F4DD20C9F4211531054105510549F43E
:1036C0008F89988DA98DBA8D8E839F83A887B9879E
:1036D0000BC04E815F8168857985CF0191010E9481
:1036E000FE22882309F475C0EB8DFC8D4E815F812D
:1036F000688579854250504060407040058404C020
:10370000440F551F661F771F0A94D2F78685978549
:10371000A089B189480F591F6A1F7B1F4D0D511D8C
:10372000611D711D80E092E08A199B096301861575
:10373000970508F46C018C8186FD06C080E0C816F0
:1037400082E0D80609F073C08091570A9091580A18
:10375000A091590AB0915A0A481759076A077B077E
:1037600009F465C08091690D90916A0D95018601FB
:1037700074010E941E17882361F18C0C9D1C12C0DD
:1037800095012759344FA9014C0D5D1DD401F90154
:1037900002C081918D93E417F507D9F7E21BF30B73
:1037A0008E0E9F1E960140E050E08A859B85AC8579
:1037B000BD85820F931FA41FB51F8A879B87AC8787
:1037C000BD876C187D086114710409F04BCFA2010C
:1037D00002C04FEF5FEFCA01DF91CF911F910F91B0
:1037E000FF90EF90DF90CF90BF90AF909F908F9021
:1037F0007F906F905F904F903F902F900895AB888F
:10380000BC88CD88DE88EA84FB840C851D859A01FE
:1038100040E050E0D601C5018E199F09A00BB10B05
:1038200082179307A407B50708F411CF13CFCB0174
:10383000BA0140E00E94E220882309F0A1CFC9CF5D
:10384000CF92DF92EF92FF920F931F93DF93CF936C
:103850000F92CDB7DEB76C01FC018581823070F02C
:10386000E284F38404851585C601BE016F5F7F4F36
:1038700041E050E00E940B1B019769F020E030E02E
:10388000C9010F90CF91DF911F910F91FF90EF90A1
:10389000DF90CF900895F60182859385A485B58544
:1038A0004F96A11DB11D82879387A487B587F5E048
:1038B00016950795F794E794FA95D1F78E2D8F70AA
:1038C000282F30E0E5E0220F331FEA95E1F7275972
:1038D000344FD6CF0F931F93CF93DF93EC018B011F
:1038E0008D81882309F041C0FB0187898031B1F4C3
:1038F00082E08D831F8A188E198E1A8E808D918D8D
:10390000A0E0B0E045E0880F991FAA1FBB1F4A95B1
:10391000D1F78B8B9C8BAD8BBE8B15C0803229F57C
:1039200083E08D83FB01428D538D648D758D4F8BAC
:10393000588F698F7A8F9E012D5E3F4FC8010E947C
:10394000CA23882391F01C8F0B8F81E08C831E8209
:103950001F82188619861A861B861C861D861E865F
:103960001F86188A198A1A8A01C080E0DF91CF91D8
:103970001F910F9108951F93CF93DF93EC01142FA4
:10398000E62FF0E075E0EE0FFF1F7A95E1F7E759BB
:10399000F44F8385817121F0842F827409F054C023
:1039A0006A8B8091570A9091580AA091590AB09158
:1039B0005A0A8E879F87A88BB98B84899589A0E046
:1039C000B0E0BC0155274427828D938DA0E0B0E084
:1039D000482B592B6A2B7B2B4F8B588F698F7A8FF3
:1039E000838590E088719070009751F4848D958D57
:1039F000A68DB78D8B8B9C8BAD8BBE8B81E00CC065
:103A0000409711F59E012D5E3F4F8B8D9C8D0E943E
:103A1000CA238823C9F084E08D83812F8F708C8323
:103A20001E821F82188619861A861B861C861D8692
:103A300016FD02C081E009C0CE0140E050E060E028
:103A400070E00E94401A01C080E0DF91CF911F9189
:103A50000895CF93DF93EC019C012A5F3F4F8B8D3C
:103A60009C8D41E050E060E070E00E9439248823A2
:103A7000A1F08F89988DA98DBA8D0097A105B10508
:103A800059F48E819F81A885B9858F8B988FA98FD6
:103A9000BA8F8C8180688C8381E0DF91CF9108950B
:103AA0002F923F924F925F927F928F929F92AF920E
:103AB000BF92CF92DF92EF92FF920F931F93DF930B
:103AC000CF9300D000D0CDB7DEB76C01162F072FF3
:103AD0005E834D83DC0115968C911597813009F03A
:103AE00070C114968C9181FF6CC18EC1F60143891F
:103AF00054896589768982859385A485B5858417DF
:103B00009507A607B70731F0C6010E94241988233C
:103B100009F457C1812F902F9C0129012D803E80EF
:103B200017C1D6015B96ED91FC915C97DA01C90152
:103B300019E0B695A795979587951A95D1F7748052
:103B40007A9478227FEF872E71E0972E822293223B
:103B5000772009F04EC08114910409F04AC0D601C3
:103B600016964D915D916D917C9119974115510576
:103B70006105710581F457968D919D910D90BC91D1
:103B8000A02D0097A105B10549F1F6018683978321
:103B9000A087B1872EC0CF019E012F5F3F4F0E94AB
:103BA000FE22882309F414C129813A814B815C816A
:103BB000D6015B96ED91FC915C978789803129F065
:103BC00088EF9FEFAFEFBFE004C088EF9FEFA0E06A
:103BD000B0E0281739074A075B0730F0C6010E949A
:103BE000291D882331F4EDC0F601268337834087F1
:103BF000518780E092E08819990951018215930557
:103C000008F45C01D6015B96ED91FC915C971696E9
:103C1000ED90FD900D911C9119978EEF9FEFAFEFF6
:103C2000BFEFE80EF91E0A1F1B1F058404C0EE0C2F
:103C3000FF1C001F111F0A94D2F786859785A08963
:103C4000B189E80EF91E0A1F1B1FE70CF11C011DAC
:103C5000111D90E0A91692E0B90651F58091570A1E
:103C60009091580AA091590AB0915A0A8E159F0551
:103C7000A007B10761F48FEF9FEFAFEFBFEF809325
:103C8000570A9093580AA093590AB0935A0A809100
:103C9000690D90916A0DB801A70192010E94C516A5
:103CA000882309F48EC0A0E0B2E04A0E5B1E3EC03D
:103CB0008114910409F5F6012285338544855585E3
:103CC00083899489A589B689281739074A075B072C
:103CD00098F00E948320882309F473C0E092570A69
:103CE000F092580A0093590A10935A0A80916B0D6A
:103CF000816080936B0D08C0C801B70141E00E944C
:103D0000E220882309F45DC094012759344FA901AA
:103D10004A0D5B1DD201F90102C08D918193E41718
:103D2000F507D9F7E21BF30B4E0E5F1E2A183B086E
:103D3000950140E050E0F60182859385A485B58524
:103D4000820F931FA41FB51F82879387A487B5870F
:103D5000D6011A962D913D914D915C911D9721149C
:103D6000310409F0DECE53968D919D910D90BC915A
:103D7000A02D82179307A407B50748F4F601238BFB
:103D8000348B458B568B84818068848311C08091ED
:103D9000670B9091680B892B59F08D819E81892B3F
:103DA00039F0D60114968C911497806814968C93F0
:103DB000F601848183FF0EC0C6010E94EA198823A0
:103DC00049F481E090E0D60113969C938E9312976C
:103DD0001E821D828D819E8126960FB6F894DEBFCD
:103DE0000FBECDBFCF91DF911F910F91FF90EF904C
:103DF000DF90CF90BF90AF909F908F907F905F901B
:103E00004F903F902F90089582FD70CE83CEDF9328
:103E1000CF930F92CDB7DEB76983BE016F5F7F4F3F
:103E200041E050E00E94501D0F90CF91DF91089526
:103E3000DF92EF92FF920F931F93CF93DF93EC01EA
:103E40000E94291D882309F44EC0EB8DFC8DEE8065
:103E5000FF80088519858EEF9FEFAFEFBFEFE80E6B
:103E6000F91E0A1F1B1F058404C0EE0CFF1C001F57
:103E7000111F0A94D2F786859785A089B189E80E2B
:103E8000F91E0A1F1B1FD4800894E108F1080109DC
:103E900011090BC0C801B7016D0D711D811D911D68
:103EA0000E94BE208823F9F0DA94DD2099F7EB8D8B
:103EB000FC8D20E032E040E050E0058404C0220F99
:103EC000331F441F551F0A94D2F78B899C89AD89F3
:103ED000BE89820F931FA41FB51F8B8B9C8BAD8B4C
:103EE000BE8B81E001C080E0DF91CF911F910F91E7
:103EF000FF90EF90DF9008956F927F928F929F9244
:103F0000AF92BF92CF92DF92EF92FF920F931F93E7
:103F1000DF93CF93CDB7DEB72B970FB6F894DEBF04
:103F20000FBECDBF5C016B01822EDC0115968C911A
:103F3000882309F0D2C0CA018E010F5F1F4FB8015C
:103F40000E94E318882309F4C8C0F601838D948D7C
:103F5000D5015C969C938E935B9716821782108690
:103F60001186D6011A961D921D921D921C921D97C4
:103F70009924380141C0C6010E94201CFC01009711
:103F800009F4ABC085E016950795F794E7948A95F8
:103F9000D1F71E2D1F708081882311F0853ED1F44A
:103FA000992091F4D50152961C9352972091570A6B
:103FB0003091580A4091590A50915A0A1E962D93F1
:103FC0003D934D935C9351978081882399F4992474
:103FD000939421C0C301BF014BE050E00E94E70170
:103FE000009751F4882D8073803309F476C0C501A1
:103FF000612F6FC099249394F601E284F3840485C1
:10400000158583899489A589B689E816F9060A0772
:104010001B0708F4B0CF882D8271823109F05DC092
:10402000992041F0C50161E00E94CD198C010097F3
:1040300089F453C0D60115968C91823009F44DC095
:10404000C6010E94181F882309F447C0F501128A8F
:1040500009E61BE080E2D8011D928A95E9F7D801B4
:10406000FE0131968BE001900D928150E1F7E091D5
:10407000670BF091680B309739F0B801625F7F4FA2
:10408000C8014096199509C081E298E2F801918B28
:10409000808B80E098E097878687D80150968D9135
:1040A0009C91519753969C938E93529759969C93BB
:1040B0008E9358971E968D919C911F9757969C931F
:1040C0008E9356970E948320882339F0C501F5010D
:1040D0006289482D0E94BB1C01C080E02B960FB660
:1040E000F894DEBF0FBECDBFCF91DF911F910F912E
:1040F000FF90EF90DF90CF90BF90AF909F908F9008
:104100007F906F90089580916B0D882399F1409175
:10411000570A5091580A6091590A70915A0A809131
:10412000690D90916A0D29E63BE00E94C51688232F
:1041300019F140916C0D50916D0D60916E0D709163
:104140006F0D411551056105710591F08091690D63
:1041500090916A0D29E63BE00E94C516882361F024
:1041600010926C0D10926D0D10926E0D10926F0DDD
:1041700010926B0D81E0089580E00895EF92FF9218
:104180000F931F937B018C010E9483208823A9F049
:10419000E9E6FBE011928DE0E936F807D9F7E09205
:1041A000570AF092580A0093590A10935A0A8091BC
:1041B0006B0D816080936B0D81E01F910F91FF90DB
:1041C000EF900895DF92EF92FF920F931F937B0180
:1041D0008C01D42E8091570A9091580AA091590AC7
:1041E000B0915A0A8E159F05A007B107C1F00E9431
:1041F00083208823D9F08091690D90916A0DB801D0
:10420000A70129E63BE00E94AF17882379F0E092EE
:10421000570AF092580A0093590A10935A0A80914B
:104220006B0D8D2980936B0D81E001C080E01F91A3
:104230000F91FF90EF90DF9008958F929F92AF9231
:10424000BF92CF92DF92EF92FF920F931F93CF9383
:10425000DF936C01142F70936A0D6093690D4423F2
:1042600021F488249924540140C0453008F01CC131
:1042700060E070E080E090E040E00E94E22088236F
:1042800009F412C1C12FD0E02197FE0174E0EE0FB6
:10429000FF1F7A95E1F7E759F44FE254FE4F808112
:1042A000EE5BF14090E08F779070892B09F0FCC0B5
:1042B000E653FE4F80819181A281B38184369105BE
:1042C000A105B10508F4F0C064E0CC0FDD1F6A95CC
:1042D000E1F7C15DD24F88809980AA80BB808114AC
:1042E0009104A104B10409F4DFC0C501B40140E0A8
:1042F0000E94E220882309F4D7C08091740B90912A
:10430000750B8050924009F0CFC02091790B222389
:1043100009F4CAC08091770B9091780B892B09F42E
:10432000C3C08091760B882309F4BEC0F601228BAE
:104330008091760B8483158661E070E007C04F5F43
:10434000F60145874150483008F0AEC0F60145857A
:10435000848190E09B01042E02C0220F331F0A9437
:10436000E2F78217930759F720917F0B3091800B6A
:104370002115310519F040E050E008C020918D0B67
:1043800030918E0B40918F0B5091900BF60125834D
:10439000368347835087E090770BF090780B00E0EE
:1043A00010E0E80CF91C0A1D1B1DE38AF48A058B3A
:1043B000168B80917A0B90917B0B918F808F6091FF
:1043C000790B70E080E090E00E946E396E0D7F1DE9
:1043D000801F911FF601628F738F848F958F2091BC
:1043E0007A0B30917B0B55E0220F331F5A95E1F782
:1043F00021503E4F232F3327269540E050E0260FD3
:10440000371F481F591F26873787408B518B809154
:104410007C0B90917D0B009719F0A0E0B0E008C0F4
:104420008091890B90918A0BA0918B0BB0918C0B92
:1044300085017401E21AF30A040B150BA801970118
:10444000280F391F4A1F5B1FF601058404C05695CB
:104450004795379527950A94D2F721873287438766
:104460005487253FFFE03F07F0E04F07F0E05F078C
:1044700010F48CE006C0255F3F4F4040504028F4C8
:1044800080E1F601878B81E010C08091950B9091BF
:10449000960BA091970BB091980BF601828F938F9A
:1044A000A48FB58F80E2EECF80E0DF91CF911F9196
:1044B0000F91FF90EF90DF90CF90BF90AF909F90C3
:1044C0008F9008954F925F926F927F928F929F92FA
:1044D000AF92BF92CF92DF92EF92FF920F931F9312
:1044E000CF93DF93EC016A017B012801390142304F
:1044F00051056105710508F46FC089859A85AB8502
:10450000BC850196A11DB11D84179507A607B707A5
:1045100008F462C02B893C894D895E898F8980317E
:1045200029F499278F2D7E2D6D2D09C0C701B60165
:1045300017E096958795779567951A95D1F74B0172
:104540005C01820E931EA41EB51E8091570A9091A5
:10455000580AA091590AB0915A0A88169906AA06D3
:10456000BB0639F0C501B40140E00E94E220882377
:1045700099F18F89803149F4F601F070EE0FFF1F39
:10458000E759F44F518240820DC0F601EF77F07089
:10459000EE0FFF1FEE0FFF1FE759F44F40825182CD
:1045A0006282738280916B0D816080936B0D8A892A
:1045B000823080F08D819E81AF81B885880E991EF2
:1045C000AA1EBB1E80926C0D90926D0DA0926E0D76
:1045D000B0926F0D81E001C080E0DF91CF911F911B
:1045E0000F91FF90EF90DF90CF90BF90AF909F9092
:1045F0008F907F906F905F904F900895CF92DF9251
:10460000EF92FF920F931F93CF93DF93EC017A0108
:104610008B01690189859A85AB85BC850196A11DB1
:10462000B11D84179507A607B70708F450C02B895A
:104630003C894D895E898F89803129F49927812FA2
:10464000702F6F2D09C0C801B701E7E096958795D7
:1046500077956795EA95D1F7260F371F481F591FA1
:104660008091570A9091580AA091590AB0915A0A1C
:10467000281739074A075B0739F0CA01B90140E03A
:104680000E94E220882319F18F89803159F4F701C3
:10469000F070EE0FFF1FE759F44F80819181A0E089
:1046A000B0E00EC0F701EF77F070EE0FFF1FEE0FD6
:1046B000FF1FE759F44F80819181A281B381BF70C0
:1046C000F60180839183A283B38381E001C080E0FF
:1046D000DF91CF911F910F91FF90EF90DF90CF90DE
:1046E0000895AF92BF92CF92DF92EF92FF920F9315
:1046F0001F93DF93CF9300D00F92CDB7DEB76C013D
:104700007A018B0182E090E0A0E0B0E0F6018083C6
:104710009183A283B3835E010894A11CB11CC601DE
:10472000B801A70195010E94FE22882319F1C60154
:10473000B801A70100E010E020E030E00E94622212
:104740008823C1F0E980FA800B811C81F6018789FA
:10475000803129F088EF9FEFAFEFBFE004C088EF12
:104760009FEFA0E0B0E0E816F9060A071B07B8F2D1
:1047700081E001C080E00F900F900F900F90CF91DB
:10478000DF911F910F91FF90EF90DF90CF90BF903E
:10479000AF9008954F925F926F927F928F929F9207
:1047A000AF92BF92CF92DF92EF92FF920F931F933F
:1047B000DF93CF9300D00F92CDB7DEB76C01498362
:1047C0005A836B837C833901EE24FF2487012E01F9
:1047D0000894411C511C812CA2E09A2EA12CB12CD2
:1047E00049815A816B817C81C60192010E94FE221F
:1047F000882351F1D501C401F601058404C0880F56
:10480000991FAA1FBB1F0A94D2F7E80EF91E0A1FB0
:104810001B1F29813A814B815C818789803129F076
:1048200088EF9FEFAFEFBFE004C088EF9FEFA0E0FD
:10483000B0E0281739074A075B0790F2F301E082DE
:10484000F1820283138381E00F900F900F900F90FD
:10485000CF91DF911F910F91FF90EF90DF90CF905C
:10486000BF90AF909F908F907F906F905F904F9090
:1048700008952F923F924F925F926F927F928F9204
:104880009F92AF92BF92CF92DF92EF92FF920F93DF
:104890001F93DF93CF93CDB7DEB72F970FB6F89462
:1048A000DEBF0FBECDBF1C014A875B876C877D874B
:1048B0003F872E87D9010D911D912D913C910115B6
:1048C00011052105310549F0480159010894811C61
:1048D000911CA11CB11C198610C0FC018080918024
:1048E000A280B38019868A859B85AC85BD8501979A
:1048F000A105B10511F491E09987D10119968D9127
:104900009D910D90BC91A02D0196A11DB11D8D838F
:104910009E83AF83B8877501640144245524320116
:104920008E010F5F1F4FF10181859285A385B485AC
:10493000481659066A067B0608F090C08D819E8154
:10494000AF81B8858C159D05AE05BF0550F482E09A
:10495000882E912CA12CB12CB2E0CB2ED12CE12CA5
:10496000F12CC101B701A60198010E94FE22882303
:1049700009F474C089819A81AB81BC81A701960139
:104980002F5F3F4F4F4F5F4F0097A105B10519F0C3
:1049900049015A010DC0281939094A095B098A855C
:1049A0009B85AC85BD85281739074A075B0759F0F9
:1049B0000894411C511C611C711C0894C11CD11C21
:1049C000E11CF11CB0CFC101A601B7010FEF1FEF31
:1049D0002FEF3FE00E946222882399F43FC0260116
:1049E000370108944108510861087108C101B301F9
:1049F000A201970186010E946222882379F1730146
:104A000062018C149D04AE04BF0448F3AE85BF85DB
:104A10004D915D916D917C91411551056105710537
:104A200039F0C101950184010E9462228823B1F00E
:104A3000EE85FF8580829182A282B382F985FF2371
:104A400059F00894811C911CA11CB11CD1018D92BC
:104A50009D92AD92BC92139781E001C080E02F96A9
:104A60000FB6F894DEBF0FBECDBFCF91DF911F917F
:104A70000F91FF90EF90DF90CF90BF90AF909F90FD
:104A80008F907F906F905F904F903F902F90089500
:104A9000FC0166834783208781E0858708950F9313
:104AA0001F938C01FC01868160E00E94E12CF801DB
:104AB000868161E00E94942DF8011186128613868A
:104AC00014861F910F910895CF92DF92EF92FF927B
:104AD0000F931F93CF93DF93EC018E8161E00E94CF
:104AE000942D6AEF70E080E090E00E94E82B0E9435
:104AF000DA2B9B01AC0189859A85AB85BC8528178B
:104B000039074A075B0720F419861A861B861C861C
:104B10008D85882371F489859A85AB85BC85281B92
:104B2000390B4A0B5B0B205D37404040504008F486
:104B300077C01D860E94DA2B69877A878B879C87CE
:104B40001C821B821A82198218828E8161E00E9467
:104B5000E12C8E8160E00E94942D64E170E080E0A1
:104B600090E00E94E82BF8948E8161E00E94942DE1
:104B700088E290E00E94412C8E8160E00E94E12C4E
:104B800081E0EE2400E010E00AC0F39481E090E0C0
:104B90000E94412C8FEFF81629F40AC0822FFF24BF
:104BA000C82EDD248E810E94C72D8C159D0569F3CA
:104BB0008E810E94C72D282F8FEFF816C9F0043080
:104BC00090F000FD10C08E2D869586958695FE018D
:104BD000E80FF11D9081990F908388858F1510F44F
:104BE00091609083E3940F5F1F4F05351105B1F677
:104BF000789487E28E1510F030E013C030E04C81DD
:104C000050E02981888190E0820F911D2A81820FD6
:104C1000911D2B81820F911D90704817590709F43F
:104C200031E0832FDF91CF911F910F91FF90EF9093
:104C3000DF90CF900895EF92FF920F931F93CF9341
:104C4000DF93EC010E9464258823A9F18F818B30CA
:104C500031F08B3080F18551823068F507C0688172
:104C600070E080E090E00E94513822C0688170E0DE
:104C700080E090E00E94513820E030E040E853E4CA
:104C80000E9407397B018C01698170E0882777FDDC
:104C90008095982F0E9453389B01AC01C801B70141
:104CA0000E94503720E030E040E251E40E94B837E3
:104CB000E62F692F0AC089E590E169E27AE00E9457
:104CC000CB33E0E070E080EC6FE72E2F372F482FDA
:104CD000562FB901CA01DF91CF911F910F91FF901B
:104CE000EF900895CF92DF92EF92FF920F931F9370
:104CF000CF93DF93EC01C62E0E946425882309F42C
:104D000050C08F818B3041F08B3008F44AC0855100
:104D1000823008F046C007C06A8170E080E090E011
:104D20000E94513829C0DA806D2D70E06F77707065
:104D3000882777FD8095982F0E94533820E030E037
:104D400040E853E40E9407397B018C016B8170E0DD
:104D5000882777FD8095982F0E9453389B01AC01DE
:104D6000C801B7010E94503720E030E040E251E432
:104D70000E94B837D7FC9058CC20E9F020E030E012
:104D800040E151E40E94073920E030E040EA50E47D
:104D90000E94B83720E030E040E052E40E945037F3
:104DA0000AC089E590E169E27AE00E94CB3360E0D5
:104DB00070E080EC9FE7DF91CF911F910F91FF9002
:104DC000EF90DF90CF90089581E08093B50D6093D0
:104DD000920D1092B30D1092B40D08952091910D83
:104DE00030E08091900D281B3109C9010895409150
:104DF000900D8091910D481718F02FEF3FEF0AC0EA
:104E0000E42FF0E0E059F24F8081282F30E04F5F2F
:104E10004093900DC9010895E091900D8091910DFE
:104E2000E81718F0EFEFFFEF06C0F0E0E059F24F9F
:104E30008081E82FF0E0CF01089508951092B90D18
:104E40001092B80D88EE93E0A0E0B0E08093BA0D28
:104E50009093BB0DA093BC0DB093BD0D8EE79AE06F
:104E60009093B70D8093B60D0895CF92DF92EF9295
:104E7000FF920F931F93CF93DF937C016B018A0105
:104E80008091B50D8823A1F0C0E0D0E00DC0D7011E
:104E9000ED91FC91D601AC0FBD1F0190F081E02D8A
:104EA000C7016C9119952196C017D10780F304C0F2
:104EB000CB01642F0E946728C801DF91CF911F9119
:104EC0000F91FF90EF90DF90CF900895DF93CF93F5
:104ED0000F92CDB7DEB7FC0169838091B50D8823B1
:104EE000C9F08091B40D803238F081E090E0938376
:104EF000828320E030E015C08091B30DE82FF0E010
:104F0000ED56F24F998190838F5F8093B30D80931C
:104F1000B40D05C0CE01019661E00E94672821E032
:104F200030E0C9010F90CF91DF9108950F93062FC4
:104F30008091920D63E97DE04091B40D21E00E94E3
:104F400012281092B30D1092B40D1092B50D0F915E
:104F5000089561E00E9496270895413208F040E2EA
:104F6000862F60E77DE00E94C9271092900D809304
:104F7000910D089521E00E94AD2708951092900DA3
:104F80001092910D1092B30D1092B40D0E94172A39
:104F90000895382F413210F040E042C08091C20D98
:104FA0008823E1F791E09093C20D2093C40D8FEF19
:104FB00080932F0E1092EA0D41504093EB0D4F5FFE
:104FC0009093C30D8091C30D330F832B8093C30D3A
:104FD0008091C50D813041F41092C50D8091C30DB3
:104FE0008093BB0085EC01C085EE8093BC0080916E
:104FF000C20D8130E1F38091EA0D841710F44091E5
:10500000EA0D20E030E00AC0FB01E20FF31FD901F6
:10501000A653B24F8C9180832F5F3F4F2417A0F38C
:10502000842F08950F931F93582F122F413210F0A1
:1050300081E04AC08091C20D8823E1F782E080932D
:10504000C20D0093C40D8FEF80932F0E1092EA0DC6
:105050004093EB0DAAECBDE0FB0102C081918D9362
:105060008E2F861B8417D0F31092C30D8091C30D31
:10507000550F852B8093C30D8091C50D813041F470
:105080001092C50D8091C30D8093BB0085EC01C0CB
:1050900085EE8093BC00112321F08091C20D8230F7
:1050A000E1F380912F0E8F3F11F480E00DC08091CD
:1050B0002F0E803211F482E007C080912F0E8033D2
:1050C00011F084E001C083E01F910F910895482FF3
:1050D000613210F081E008958091C20D843011F0AA
:1050E00082E0089560930D0EACEEBDE0842F9C012C
:1050F000F90102C081918D938E2F841B8617D0F306
:1051000080E008951F920F920FB60F920BB60F9288
:1051100011242F933F934F935F936F937F938F93BC
:105120009F93AF93BF93EF93FF938091B90090E06B
:10513000887F90708036910509F4F2C08136910520
:10514000CCF58832910509F47BC089329105B4F41D
:105150008031910509F46FC0813191053CF40097CD
:1051600009F447C1089709F04FC165C0883191051E
:1051700009F466C0809709F047C182C08034910568
:1051800009F4A4C08134910544F48033910509F4F5
:1051900082C0C89709F038C189C08035910509F4EB
:1051A00089C08835910509F496C08834910509F0C5
:1051B0002BC1AEC08839910509F413C18939910515
:1051C000ECF48837910509F4ABC0893791054CF4AC
:1051D0008836910509F4A4C08037910509F014C1FF
:1051E0009FC08838910509F4FCC08039910509F405
:1051F0009DC08038910509F007C198C0803B91059A
:1052000009F4C6C0813B91054CF4803A910509F43C
:105210009FC0883A910509F0F7C0BAC0803C91055B
:1052200009F4E3C0883C910509F4DFC0883B91058F
:1052300009F0EAC0C2C08091C30D8093BB00CFC00B
:105240009091EA0D8091EB0D981768F49091EA0D1A
:10525000E92FF0E0E653F24F80818093BB009F5F1F
:105260009093EA0DBCC08091C40D882309F44BC013
:1052700085ED8093BC008091BC0084FDFCCFC2C052
:1052800080E280932F0E85ED8093BC008091BC005E
:1052900084FDFCCFB7C080E380932F0E85ED809313
:1052A000BC008091BC0084FDFCCFACC088E380933F
:1052B0002F0E9BC08091EA0D9091BB00E82FF0E08B
:1052C000E653F24F90838F5F8093EA0D9091EA0D41
:1052D0008091EB0D82C08091EA0D9091BB00E82F88
:1052E000F0E0E653F24F90838F5F8093EA0D809158
:1052F000C40D882341F085ED8093BC008091BC00F3
:1053000084FDFCCF7FC081E08093C50D84EA6EC030
:1053100085ED8093BC008091BC0084FDFCCF72C001
:1053200083E08093C20D10922E0E59C080912E0EF4
:10533000803208F056C080912E0E9091BB00E82F6D
:10534000F0E0E25FF14F90838F5F80932E0E47C0B5
:1053500080912E0E803230F4E0912E0EF0E0E25F6C
:10536000F14F108285ED8093BC008091BC0084FDDC
:10537000FCCF1092C20D60912E0EE091C80DF091FD
:10538000C90D8EE09EE070E0199510922E0E2DC092
:1053900084E08093C20D10920C0E10920D0EE091DD
:1053A000C60DF091C70D199580910D0E882329F433
:1053B00081E080930D0E1092EC0D90910C0EE92F70
:1053C000F0E0E451F24F80818093BB009F5F9093A7
:1053D0000C0E90910C0E80910D0E981710F485EC28
:1053E00001C085E88093BC000FC085EC8093BC00B1
:1053F00009C010922F0E85ED8093BC008091BC00F7
:1054000084FDFCCF1092C20DFF91EF91BF91AF913F
:105410009F918F917F916F915F914F913F912F91CC
:105420000F900BBE0F900FBE0F901F90189510920B
:10543000C20D81E08093C40D1092C50D84E161E03E
:105440000E94942D85E161E00E94942DE9EBF0E04B
:1054500080818E7F808380818D7F808388E48093AC
:10546000B80085E48093BC0008952CB5382F3370C4
:105470002C7F322B3CBD2DB590E095958795959569
:10548000879581702E7F822B8DBD089585E361E025
:105490000E94942D85E361E00E94E12C8CB580612F
:1054A0008CBD8CB580648CBD84E361E00E94E12CEE
:1054B00083E361E00E94E12C08950F931F93CF9343
:1054C000DF93BC018230910510F462E070E0E0915E
:1054D000E310F091E410A0E0B0E040E050E024C020
:1054E0008081918186179707D0F08617970771F40E
:1054F00082819381109729F013969C938E93129733
:105500002CC09093E4108093E31027C041155105FF
:1055100019F08417950718F4EF018D01AC01DF0134
:10552000828193819C01F9013097D1F64115510593
:10553000F9F0CA01861B970B8430910580F48A81AB
:105540009B810115110521F0F8019383828304C02A
:105550009093E4108093E310FE01329645C0FE0163
:10556000E80FF91F619371930297998388833CC078
:105570008091E1109091E210892B41F480915D0AB5
:1055800090915E0A9093E2108093E11040915F0A3F
:105590005091600A4115510541F44DB75EB78091B5
:1055A0005B0A90915C0A481B590B2091E1103091E5
:1055B000E21024173507B0F4CA01821B930B86173B
:1055C000970780F0AB014E5F5F4F8417950750F04F
:1055D000420F531F5093E2104093E110F901619381
:1055E000719302C0E0E0F0E0CF01DF91CF911F9115
:1055F0000F910895CF93DF939C01009709F48FC01A
:10560000EC0122971B821A826091E3107091E410E2
:105610006115710581F488819981820F931F209112
:10562000E1103091E2102817390739F5D093E210D4
:10563000C093E11074C0DB0140E050E0AC17BD073F
:1056400008F1BB83AA83FE0121913191E20FF31F80
:10565000AE17BF0779F48D919C911197280F391FD0
:105660002E5F3F4F3983288312968D919C9113971B
:105670009B838A834115510571F4D093E410C09344
:10568000E3104DC012968D919C911397AD01009738
:1056900011F0DC01D3CFDA011396DC93CE9312978D
:1056A000FA0121913191E20FF31FCE17DF0769F460
:1056B00088819981280F391F2E5F3F4FFA0131836E
:1056C00020838A819B8193838283E0E0F0E0DB0189
:1056D00012968D919C911397009719F0BC01FD01D2
:1056E000F6CFAB014E5F5F4FDB018D919C91840F34
:1056F000951F2091E1103091E2102817390779F4B5
:10570000309729F41092E4101092E31002C0138233
:105710001282425050405093E2104093E110DF91CA
:10572000CF9108951F920F920FB60F9211242F93CD
:105730003F938F939F93AF93BF938091340E90913B
:10574000350EA091360EB091370E3091380E01967D
:10575000A11DB11D232F2D5F2D3720F02D57019650
:10576000A11DB11D2093380E8093340E9093350EF9
:10577000A093360EB093370E8091300E9091310E7B
:10578000A091320EB091330E0196A11DB11D8093F0
:10579000300E9093310EA093320EB093330EBF9122
:1057A000AF919F918F913F912F910F900FBE0F90CE
:1057B0001F9018958FB7F8942091340E3091350EC4
:1057C0004091360E5091370E8FBFB901CA0108952E
:1057D0009B01AC017FB7F8948091300E9091310E0F
:1057E000A091320EB091330E66B5A89B05C06F3FF5
:1057F00019F00196A11DB11D7FBFBA2FA92F982FB7
:105800008827860F911DA11DB11D62E0880F991F89
:10581000AA1FBB1F6A95D1F7BC012DC0FFB7F89432
:105820008091300E9091310EA091320EB091330ED6
:10583000E6B5A89B05C0EF3F19F00196A11DB11D6B
:10584000FFBFBA2FA92F982F88278E0F911DA11D5A
:10585000B11DE2E0880F991FAA1FBB1FEA95D1F77F
:10586000861B970B885E9340C8F221503040404021
:10587000504068517C4F211531054105510571F6A5
:105880000895019739F0880F991F880F991F029783
:105890000197F1F70895789484B5826084BD84B54A
:1058A000816084BD85B5826085BD85B5816085BD1B
:1058B000EEE6F0E0808181608083E1E8F0E0108234
:1058C000808182608083808181608083E0E8F0E075
:1058D000808181608083E1EBF0E08081846080835F
:1058E000E0EBF0E0808181608083E1E9F0E080819D
:1058F00082608083808181608083E0E9F0E0808144
:1059000081608083E1EAF0E0808182608083808131
:1059100081608083E0EAF0E0808181608083E1E261
:10592000F1E0808182608083808181608083E0E219
:10593000F1E0808181608083EAE7F0E0808184602B
:105940008083808182608083808181608083808188
:10595000806880831092C1000895382F863308F044
:10596000365320917B00832F86958695869590E00F
:105970008170907043E0880F991F4A95E1F7277F67
:10598000282B20937B0037708091610A8295880FC5
:10599000880F807C832B80937C0080917A008064C8
:1059A00080937A0080917A0086FDFCCF2091780068
:1059B00040917900942F80E030E0282B392BC901E9
:1059C0000895CF93DF93482F50E0CA018C569D4F26
:1059D000FC013491425B5D4FFA018491882369F1A7
:1059E00090E0880F991FFC01E050FE4FA591B49103
:1059F000FC01E65EFD4FC591D491662351F42FB7AB
:105A0000F8948C91932F909589238C938881892386
:105A10000BC0623061F42FB7F8948C91932F90955E
:105A200089238C938881832B88832FBF06C09FB7DF
:105A3000F8948C91832B8C939FBFDF91CF91089525
:105A4000893009F449C08A30A0F4843051F185309E
:105A500040F4823079F1833000F5813009F063C081
:105A600026C0873079F1883098F5863009F05BC020
:105A700025C08D3009F442C08E3028F48B30B1F14E
:105A80008C30C0F52DC0803109F442C0813109F459
:105A900045C08F3009F047C037C0809180008F77B4
:105AA00003C0809180008F7D80938000089584B52D
:105AB0008F7702C084B58F7D84BD08958091B0003A
:105AC0008F7703C08091B0008F7D8093B0000895E0
:105AD000809190008F7707C0809190008F7D03C0E8
